{
  "address": "0xCb2E195d92E9DA36ea1F186B8DF09AaDe31a5DdA",
  "abi": [
    {
      "inputs": [
        {
          "internalType": "address",
          "name": "_anyCall",
          "type": "address"
        }
      ],
      "stateMutability": "nonpayable",
      "type": "constructor"
    },
    {
      "anonymous": false,
      "inputs": [
        {
          "indexed": false,
          "internalType": "address",
          "name": "srcVaultAddress",
          "type": "address"
        },
        {
          "indexed": false,
          "internalType": "uint256",
          "name": "amount",
          "type": "uint256"
        },
        {
          "indexed": false,
          "internalType": "address",
          "name": "dstVaultAddress",
          "type": "address"
        },
        {
          "indexed": false,
          "internalType": "uint16",
          "name": "messageType",
          "type": "uint16"
        },
        {
          "indexed": false,
          "internalType": "uint256",
          "name": "srcChainId",
          "type": "uint256"
        }
      ],
      "name": "MessageReceived",
      "type": "event"
    },
    {
      "anonymous": false,
      "inputs": [
        {
          "indexed": true,
          "internalType": "address",
          "name": "previousOwner",
          "type": "address"
        },
        {
          "indexed": true,
          "internalType": "address",
          "name": "newOwner",
          "type": "address"
        }
      ],
      "name": "OwnershipTransferred",
      "type": "event"
    },
    {
      "inputs": [],
      "name": "anyCall",
      "outputs": [
        {
          "internalType": "address",
          "name": "",
          "type": "address"
        }
      ],
      "stateMutability": "view",
      "type": "function"
    },
    {
      "inputs": [
        {
          "internalType": "bytes",
          "name": "_data",
          "type": "bytes"
        }
      ],
      "name": "anyExecute",
      "outputs": [
        {
          "internalType": "bool",
          "name": "success",
          "type": "bool"
        },
        {
          "internalType": "bytes",
          "name": "result",
          "type": "bytes"
        }
      ],
      "stateMutability": "nonpayable",
      "type": "function"
    },
    {
      "inputs": [],
      "name": "anycallExecutor",
      "outputs": [
        {
          "internalType": "address",
          "name": "",
          "type": "address"
        }
      ],
      "stateMutability": "view",
      "type": "function"
    },
    {
      "inputs": [
        {
          "components": [
            {
              "internalType": "uint256",
              "name": "value",
              "type": "uint256"
            },
            {
              "internalType": "address",
              "name": "sender",
              "type": "address"
            },
            {
              "internalType": "address",
              "name": "client",
              "type": "address"
            },
            {
              "internalType": "uint16",
              "name": "chainId",
              "type": "uint16"
            }
          ],
          "internalType": "struct Message",
          "name": "_msg",
          "type": "tuple"
        },
        {
          "internalType": "address",
          "name": "_dstVautAddress",
          "type": "address"
        },
        {
          "internalType": "address",
          "name": "_dstPostman",
          "type": "address"
        },
        {
          "internalType": "enum messageType",
          "name": "_messageType",
          "type": "uint8"
        },
        {
          "internalType": "uint16",
          "name": "_dstChainId",
          "type": "uint16"
        }
      ],
      "name": "deliverMessage",
      "outputs": [],
      "stateMutability": "nonpayable",
      "type": "function"
    },
    {
      "inputs": [],
      "name": "owner",
      "outputs": [
        {
          "internalType": "address",
          "name": "",
          "type": "address"
        }
      ],
      "stateMutability": "view",
      "type": "function"
    },
    {
      "inputs": [],
      "name": "renounceOwnership",
      "outputs": [],
      "stateMutability": "nonpayable",
      "type": "function"
    },
    {
      "inputs": [
        {
          "internalType": "address",
          "name": "newOwner",
          "type": "address"
        }
      ],
      "name": "transferOwnership",
      "outputs": [],
      "stateMutability": "nonpayable",
      "type": "function"
    }
  ],
  "transactionHash": "0x660e6d3bde61e4ddfa3cef9da938f6f5fa7e636ca2ad3bfc11fa79aff54a5a2e",
  "args": [
    "0xC10Ef9F491C9B59f936957026020C321651ac078"
  ],
  "numDeployments": 1,
  "solcInputHash": "1f8e4266014ff4e1c4736348c6631364",
  "bytecode": "0x608060405234801561001057600080fd5b506040516109a73803806109a783398101604081905261002f9161012b565b610038336100db565b600180546001600160a01b0319166001600160a01b0383169081179091556040805163c34c08e560e01b8152905163c34c08e5916004808201926020929091908290030181865afa158015610091573d6000803e3d6000fd5b505050506040513d601f19601f820116820180604052508101906100b5919061012b565b600280546001600160a01b0319166001600160a01b03929092169190911790555061015b565b600080546001600160a01b038381166001600160a01b0319831681178455604051919092169283917f8be0079c531659141344cd1fd0a4f28419497f9722a3daafe3b4186f6b6457e09190a35050565b60006020828403121561013d57600080fd5b81516001600160a01b038116811461015457600080fd5b9392505050565b61083d8061016a6000396000f3fe608060405234801561001057600080fd5b506004361061006d5760003560e01c8063639cd8f914610072578063715018a6146100875780638da5cb5b1461008f5780639abaf479146100b4578063d2c7dfcc146100d5578063e6d66a1d146100e8578063f2fde38b146100fb575b600080fd5b61008561008036600461044b565b61010e565b005b6100856101b0565b6100976101c4565b6040516001600160a01b0390911681526020015b60405180910390f35b6100c76100c23660046104dd565b6101d3565b6040516100ab9291906105d3565b600254610097906001600160a01b031681565b600154610097906001600160a01b031681565b6100856101093660046105f6565b6102f9565b610116610377565b600085858460405160200161012d93929190610652565b60408051601f198184030181529082905260015463bd45c4e760e01b83529092506001600160a01b03169063bd45c4e790610176908790859060009088906002906004016106be565b600060405180830381600087803b15801561019057600080fd5b505af11580156101a4573d6000803e3d6000fd5b50505050505050505050565b6101b8610377565b6101c260006103d6565b565b6000546001600160a01b031690565b600060606000806000858060200190518101906101f09190610710565b6020838101518451606080870151604080516001600160a01b039586168152958601939093529286168483015261ffff8581169185019190915290911660808301525193965091945092507fc02a0d79f61556ace1b13af5c6f57ba59370de4e6887cb4217dad0192ca9fe2d919081900360a00190a1816001600160a01b03166396fbebcc848361ffff16600481111561028c5761028c61061a565b6040518363ffffffff1660e01b81526004016102a99291906107bf565b600060405180830381600087803b1580156102c357600080fd5b505af11580156102d7573d6000803e3d6000fd5b5050505060019450604051806020016040528060008152509350505050915091565b610301610377565b6001600160a01b03811661036b5760405162461bcd60e51b815260206004820152602660248201527f4f776e61626c653a206e6577206f776e657220697320746865207a65726f206160448201526564647265737360d01b60648201526084015b60405180910390fd5b610374816103d6565b50565b336103806101c4565b6001600160a01b0316146101c25760405162461bcd60e51b815260206004820181905260248201527f4f776e61626c653a2063616c6c6572206973206e6f7420746865206f776e65726044820152606401610362565b600080546001600160a01b038381166001600160a01b0319831681178455604051919092169283917f8be0079c531659141344cd1fd0a4f28419497f9722a3daafe3b4186f6b6457e09190a35050565b6001600160a01b038116811461037457600080fd5b61ffff8116811461037457600080fd5b600080600080600085870361010081121561046557600080fd5b608081121561047357600080fd5b50859450608086013561048581610426565b935060a086013561049581610426565b925060c0860135600581106104a957600080fd5b915060e08601356104b98161043b565b809150509295509295909350565b634e487b7160e01b600052604160045260246000fd5b6000602082840312156104ef57600080fd5b81356001600160401b038082111561050657600080fd5b818401915084601f83011261051a57600080fd5b81358181111561052c5761052c6104c7565b604051601f8201601f19908116603f01168101908382118183101715610554576105546104c7565b8160405282815287602084870101111561056d57600080fd5b826020860160208301376000928101602001929092525095945050505050565b6000815180845260005b818110156105b357602081850181015186830182015201610597565b506000602082860101526020601f19601f83011685010191505092915050565b82151581526040602082015260006105ee604083018461058d565b949350505050565b60006020828403121561060857600080fd5b813561061381610426565b9392505050565b634e487b7160e01b600052602160045260246000fd5b6005811061064e57634e487b7160e01b600052602160045260246000fd5b9052565b8335815260c08101602085013561066881610426565b6001600160a01b03908116602084015260408601359061068782610426565b908116604084015260608601359061069e8261043b565b61ffff919091166060840152841660808301526105ee60a0830184610630565b600060018060a01b03808816835260a060208401526106e060a084018861058d565b951660408301525061ffff92909216606083015260809091015292915050565b805161070b8161043b565b919050565b600080600083850360c081121561072657600080fd5b608081121561073457600080fd5b50604051608081016001600160401b0381118282101715610757576107576104c7565b60405284518152602085015161076c81610426565b6020820152604085015161077f81610426565b604082015260608501516107928161043b565b606082015260808501519093506107a881610426565b91506107b660a08501610700565b90509250925092565b825181526020808401516001600160a01b03908116918301919091526040808501519091169082015260608084015161ffff169082015260a08101610613608083018461063056fea26469706673582212206c152b81a2c05c1dec83c9a8cddff776b517b7b667b9d54e0e8b4f7de044532e64736f6c63430008100033",
  "devdoc": {
    "kind": "dev",
    "methods": {
      "owner()": {
        "details": "Returns the address of the current owner."
      },
      "renounceOwnership()": {
        "details": "Leaves the contract without owner. It will not be possible to call `onlyOwner` functions anymore. Can only be called by the current owner. NOTE: Renouncing ownership will leave the contract without an owner, thereby removing any functionality that is only available to the owner."
      },
      "transferOwnership(address)": {
        "details": "Transfers ownership of the contract to a new account (`newOwner`). Can only be called by the current owner."
      }
    },
    "version": 1
  },
  "userdoc": {
    "kind": "user",
    "methods": {},
    "version": 1
  },
  "storageLayout": {
    "storage": [
      {
        "astId": 2010,
        "contract": "src/postOffice/MultichainPostman.sol:MultichainPostman",
        "label": "_owner",
        "offset": 0,
        "slot": "0",
        "type": "t_address"
      },
      {
        "astId": 20687,
        "contract": "src/postOffice/MultichainPostman.sol:MultichainPostman",
        "label": "anyCall",
        "offset": 0,
        "slot": "1",
        "type": "t_address"
      },
      {
        "astId": 20689,
        "contract": "src/postOffice/MultichainPostman.sol:MultichainPostman",
        "label": "anycallExecutor",
        "offset": 0,
        "slot": "2",
        "type": "t_address"
      }
    ],
    "types": {
      "t_address": {
        "encoding": "inplace",
        "label": "address",
        "numberOfBytes": "20"
      }
    }
  }
}