{
  "address": "0xAA40216ce9f6B9BAAB726FbC83a184944a993b2A",
  "abi": [
    {
      "inputs": [
        {
          "internalType": "contract ERC20",
          "name": "asset_",
          "type": "address"
        },
        {
          "internalType": "string",
          "name": "_name",
          "type": "string"
        },
        {
          "internalType": "string",
          "name": "_symbol",
          "type": "string"
        },
        {
          "components": [
            {
              "internalType": "address",
              "name": "owner",
              "type": "address"
            },
            {
              "internalType": "address",
              "name": "guardian",
              "type": "address"
            },
            {
              "internalType": "address",
              "name": "manager",
              "type": "address"
            }
          ],
          "internalType": "struct AuthConfig",
          "name": "authConfig",
          "type": "tuple"
        },
        {
          "components": [
            {
              "internalType": "address",
              "name": "treasury",
              "type": "address"
            },
            {
              "internalType": "uint256",
              "name": "performanceFee",
              "type": "uint256"
            },
            {
              "internalType": "uint256",
              "name": "managementFee",
              "type": "uint256"
            }
          ],
          "internalType": "struct FeeConfig",
          "name": "feeConfig",
          "type": "tuple"
        }
      ],
      "stateMutability": "nonpayable",
      "type": "constructor"
    },
    {
      "inputs": [],
      "name": "BridgeError",
      "type": "error"
    },
    {
      "inputs": [],
      "name": "Expired",
      "type": "error"
    },
    {
      "inputs": [],
      "name": "MaxRedeemNotZero",
      "type": "error"
    },
    {
      "inputs": [],
      "name": "MinLiquidity",
      "type": "error"
    },
    {
      "inputs": [],
      "name": "MissingDepositValue",
      "type": "error"
    },
    {
      "inputs": [],
      "name": "MissingIncomingXFunds",
      "type": "error"
    },
    {
      "inputs": [],
      "name": "NotEnoughtFloat",
      "type": "error"
    },
    {
      "inputs": [],
      "name": "NotImplemented",
      "type": "error"
    },
    {
      "inputs": [],
      "name": "NotReady",
      "type": "error"
    },
    {
      "inputs": [],
      "name": "OverMaxFee",
      "type": "error"
    },
    {
      "inputs": [],
      "name": "SameChainOperation",
      "type": "error"
    },
    {
      "inputs": [
        {
          "internalType": "address",
          "name": "sender",
          "type": "address"
        }
      ],
      "name": "SenderNotAllowed",
      "type": "error"
    },
    {
      "inputs": [],
      "name": "SlippageExceeded",
      "type": "error"
    },
    {
      "inputs": [],
      "name": "StrategyExists",
      "type": "error"
    },
    {
      "inputs": [],
      "name": "StrategyNotFound",
      "type": "error"
    },
    {
      "inputs": [],
      "name": "VaultAddressNotMatch",
      "type": "error"
    },
    {
      "inputs": [],
      "name": "VaultAlreadyAdded",
      "type": "error"
    },
    {
      "inputs": [
        {
          "internalType": "address",
          "name": "vault",
          "type": "address"
        }
      ],
      "name": "VaultMissing",
      "type": "error"
    },
    {
      "inputs": [
        {
          "internalType": "address",
          "name": "vault",
          "type": "address"
        }
      ],
      "name": "VaultNotAllowed",
      "type": "error"
    },
    {
      "inputs": [
        {
          "internalType": "address",
          "name": "postman",
          "type": "address"
        }
      ],
      "name": "WrongPostman",
      "type": "error"
    },
    {
      "inputs": [],
      "name": "WrongUnderlying",
      "type": "error"
    },
    {
      "inputs": [],
      "name": "ZeroAmount",
      "type": "error"
    },
    {
      "anonymous": false,
      "inputs": [
        {
          "indexed": true,
          "internalType": "address",
          "name": "strategy",
          "type": "address"
        }
      ],
      "name": "AddStrategy",
      "type": "event"
    },
    {
      "anonymous": false,
      "inputs": [
        {
          "indexed": true,
          "internalType": "address",
          "name": "vault",
          "type": "address"
        },
        {
          "indexed": false,
          "internalType": "uint16",
          "name": "chainId",
          "type": "uint16"
        }
      ],
      "name": "AddedVault",
      "type": "event"
    },
    {
      "anonymous": false,
      "inputs": [
        {
          "indexed": true,
          "internalType": "address",
          "name": "owner",
          "type": "address"
        },
        {
          "indexed": true,
          "internalType": "address",
          "name": "spender",
          "type": "address"
        },
        {
          "indexed": false,
          "internalType": "uint256",
          "name": "value",
          "type": "uint256"
        }
      ],
      "name": "Approval",
      "type": "event"
    },
    {
      "anonymous": false,
      "inputs": [
        {
          "indexed": false,
          "internalType": "uint16",
          "name": "_fromChainId",
          "type": "uint16"
        },
        {
          "indexed": false,
          "internalType": "uint16",
          "name": "_toChainId",
          "type": "uint16"
        },
        {
          "indexed": false,
          "internalType": "uint256",
          "name": "amount",
          "type": "uint256"
        }
      ],
      "name": "BridgeAsset",
      "type": "event"
    },
    {
      "anonymous": false,
      "inputs": [
        {
          "indexed": true,
          "internalType": "address",
          "name": "vault",
          "type": "address"
        },
        {
          "indexed": false,
          "internalType": "bool",
          "name": "status",
          "type": "bool"
        }
      ],
      "name": "ChangedVaultStatus",
      "type": "event"
    },
    {
      "anonymous": false,
      "inputs": [
        {
          "indexed": true,
          "internalType": "address",
          "name": "sender",
          "type": "address"
        },
        {
          "indexed": true,
          "internalType": "address",
          "name": "owner",
          "type": "address"
        },
        {
          "indexed": false,
          "internalType": "uint256",
          "name": "assets",
          "type": "uint256"
        },
        {
          "indexed": false,
          "internalType": "uint256",
          "name": "shares",
          "type": "uint256"
        }
      ],
      "name": "Deposit",
      "type": "event"
    },
    {
      "anonymous": false,
      "inputs": [
        {
          "indexed": false,
          "internalType": "address",
          "name": "caller",
          "type": "address"
        },
        {
          "indexed": false,
          "internalType": "address",
          "name": "strategy",
          "type": "address"
        },
        {
          "indexed": false,
          "internalType": "uint256",
          "name": "amount",
          "type": "uint256"
        }
      ],
      "name": "DepositIntoStrategy",
      "type": "event"
    },
    {
      "anonymous": false,
      "inputs": [
        {
          "indexed": false,
          "internalType": "address",
          "name": "target",
          "type": "address"
        },
        {
          "indexed": false,
          "internalType": "bytes",
          "name": "callData",
          "type": "bytes"
        }
      ],
      "name": "EmergencyAction",
      "type": "event"
    },
    {
      "anonymous": false,
      "inputs": [
        {
          "indexed": false,
          "internalType": "address",
          "name": "vault",
          "type": "address"
        },
        {
          "indexed": false,
          "internalType": "address",
          "name": "client",
          "type": "address"
        },
        {
          "indexed": false,
          "internalType": "uint256",
          "name": "shares",
          "type": "uint256"
        }
      ],
      "name": "EmergencyWithdraw",
      "type": "event"
    },
    {
      "anonymous": false,
      "inputs": [
        {
          "indexed": true,
          "internalType": "address",
          "name": "treasury",
          "type": "address"
        },
        {
          "indexed": false,
          "internalType": "uint256",
          "name": "underlyingProfit",
          "type": "uint256"
        },
        {
          "indexed": false,
          "internalType": "uint256",
          "name": "performanceFee",
          "type": "uint256"
        },
        {
          "indexed": false,
          "internalType": "uint256",
          "name": "managementFee",
          "type": "uint256"
        },
        {
          "indexed": false,
          "internalType": "uint256",
          "name": "sharesFees",
          "type": "uint256"
        },
        {
          "indexed": false,
          "internalType": "uint256",
          "name": "tvl",
          "type": "uint256"
        }
      ],
      "name": "Harvest",
      "type": "event"
    },
    {
      "anonymous": false,
      "inputs": [
        {
          "indexed": false,
          "internalType": "uint256",
          "name": "value",
          "type": "uint256"
        },
        {
          "indexed": true,
          "internalType": "address",
          "name": "sender",
          "type": "address"
        },
        {
          "indexed": true,
          "internalType": "uint16",
          "name": "srcChainId",
          "type": "uint16"
        },
        {
          "indexed": false,
          "internalType": "enum messageType",
          "name": "mType",
          "type": "uint8"
        },
        {
          "indexed": false,
          "internalType": "address",
          "name": "postman",
          "type": "address"
        }
      ],
      "name": "MessageReceived",
      "type": "event"
    },
    {
      "anonymous": false,
      "inputs": [
        {
          "indexed": false,
          "internalType": "uint256",
          "name": "value",
          "type": "uint256"
        },
        {
          "indexed": true,
          "internalType": "address",
          "name": "receiver",
          "type": "address"
        },
        {
          "indexed": true,
          "internalType": "uint16",
          "name": "dstChainId",
          "type": "uint16"
        },
        {
          "indexed": false,
          "internalType": "enum messageType",
          "name": "mtype",
          "type": "uint8"
        },
        {
          "indexed": false,
          "internalType": "address",
          "name": "postman",
          "type": "address"
        }
      ],
      "name": "MessageSent",
      "type": "event"
    },
    {
      "anonymous": false,
      "inputs": [
        {
          "indexed": false,
          "internalType": "address",
          "name": "owner",
          "type": "address"
        },
        {
          "indexed": false,
          "internalType": "address",
          "name": "pendingOwner",
          "type": "address"
        }
      ],
      "name": "OwnershipTransferInitiated",
      "type": "event"
    },
    {
      "anonymous": false,
      "inputs": [
        {
          "indexed": false,
          "internalType": "address",
          "name": "oldOwner",
          "type": "address"
        },
        {
          "indexed": false,
          "internalType": "address",
          "name": "newOwner",
          "type": "address"
        }
      ],
      "name": "OwnershipTransferred",
      "type": "event"
    },
    {
      "anonymous": false,
      "inputs": [
        {
          "indexed": true,
          "internalType": "uint16",
          "name": "postmanId",
          "type": "uint16"
        },
        {
          "indexed": false,
          "internalType": "uint16",
          "name": "chanId",
          "type": "uint16"
        },
        {
          "indexed": false,
          "internalType": "address",
          "name": "postman",
          "type": "address"
        }
      ],
      "name": "PostmanUpdated",
      "type": "event"
    },
    {
      "anonymous": false,
      "inputs": [
        {
          "indexed": false,
          "internalType": "uint256",
          "name": "total",
          "type": "uint256"
        }
      ],
      "name": "RegisterDeposit",
      "type": "event"
    },
    {
      "anonymous": false,
      "inputs": [
        {
          "indexed": false,
          "internalType": "uint256",
          "name": "total",
          "type": "uint256"
        }
      ],
      "name": "RegisterIncomingFunds",
      "type": "event"
    },
    {
      "anonymous": false,
      "inputs": [
        {
          "indexed": true,
          "internalType": "address",
          "name": "strategy",
          "type": "address"
        }
      ],
      "name": "RemoveStrategy",
      "type": "event"
    },
    {
      "anonymous": false,
      "inputs": [
        {
          "indexed": true,
          "internalType": "address",
          "name": "caller",
          "type": "address"
        },
        {
          "indexed": true,
          "internalType": "address",
          "name": "owner",
          "type": "address"
        },
        {
          "indexed": false,
          "internalType": "uint256",
          "name": "shares",
          "type": "uint256"
        }
      ],
      "name": "RequestWithdraw",
      "type": "event"
    },
    {
      "anonymous": false,
      "inputs": [
        {
          "indexed": true,
          "internalType": "bytes32",
          "name": "role",
          "type": "bytes32"
        },
        {
          "indexed": true,
          "internalType": "bytes32",
          "name": "previousAdminRole",
          "type": "bytes32"
        },
        {
          "indexed": true,
          "internalType": "bytes32",
          "name": "newAdminRole",
          "type": "bytes32"
        }
      ],
      "name": "RoleAdminChanged",
      "type": "event"
    },
    {
      "anonymous": false,
      "inputs": [
        {
          "indexed": true,
          "internalType": "bytes32",
          "name": "role",
          "type": "bytes32"
        },
        {
          "indexed": true,
          "internalType": "address",
          "name": "account",
          "type": "address"
        },
        {
          "indexed": true,
          "internalType": "address",
          "name": "sender",
          "type": "address"
        }
      ],
      "name": "RoleGranted",
      "type": "event"
    },
    {
      "anonymous": false,
      "inputs": [
        {
          "indexed": true,
          "internalType": "bytes32",
          "name": "role",
          "type": "bytes32"
        },
        {
          "indexed": true,
          "internalType": "address",
          "name": "account",
          "type": "address"
        },
        {
          "indexed": true,
          "internalType": "address",
          "name": "sender",
          "type": "address"
        }
      ],
      "name": "RoleRevoked",
      "type": "event"
    },
    {
      "anonymous": false,
      "inputs": [
        {
          "indexed": false,
          "internalType": "uint256",
          "name": "managementFee",
          "type": "uint256"
        }
      ],
      "name": "SetManagementFee",
      "type": "event"
    },
    {
      "anonymous": false,
      "inputs": [
        {
          "indexed": false,
          "internalType": "uint256",
          "name": "performanceFee",
          "type": "uint256"
        }
      ],
      "name": "SetPerformanceFee",
      "type": "event"
    },
    {
      "anonymous": false,
      "inputs": [
        {
          "indexed": true,
          "internalType": "address",
          "name": "treasury",
          "type": "address"
        }
      ],
      "name": "SetTreasury",
      "type": "event"
    },
    {
      "anonymous": false,
      "inputs": [
        {
          "indexed": true,
          "internalType": "address",
          "name": "from",
          "type": "address"
        },
        {
          "indexed": true,
          "internalType": "address",
          "name": "to",
          "type": "address"
        },
        {
          "indexed": false,
          "internalType": "uint256",
          "name": "value",
          "type": "uint256"
        }
      ],
      "name": "Transfer",
      "type": "event"
    },
    {
      "anonymous": false,
      "inputs": [
        {
          "indexed": true,
          "internalType": "address",
          "name": "vault",
          "type": "address"
        },
        {
          "indexed": false,
          "internalType": "uint16",
          "name": "postmanId",
          "type": "uint16"
        }
      ],
      "name": "UpdatedVaultPostman",
      "type": "event"
    },
    {
      "anonymous": false,
      "inputs": [
        {
          "indexed": true,
          "internalType": "address",
          "name": "sender",
          "type": "address"
        },
        {
          "indexed": true,
          "internalType": "address",
          "name": "receiver",
          "type": "address"
        },
        {
          "indexed": true,
          "internalType": "address",
          "name": "owner",
          "type": "address"
        },
        {
          "indexed": false,
          "internalType": "uint256",
          "name": "assets",
          "type": "uint256"
        },
        {
          "indexed": false,
          "internalType": "uint256",
          "name": "shares",
          "type": "uint256"
        }
      ],
      "name": "Withdraw",
      "type": "event"
    },
    {
      "anonymous": false,
      "inputs": [
        {
          "indexed": false,
          "internalType": "address",
          "name": "caller",
          "type": "address"
        },
        {
          "indexed": false,
          "internalType": "address",
          "name": "strategy",
          "type": "address"
        },
        {
          "indexed": false,
          "internalType": "uint256",
          "name": "amount",
          "type": "uint256"
        }
      ],
      "name": "WithdrawFromStrategy",
      "type": "event"
    },
    {
      "inputs": [],
      "name": "DEFAULT_ADMIN_ROLE",
      "outputs": [
        {
          "internalType": "bytes32",
          "name": "",
          "type": "bytes32"
        }
      ],
      "stateMutability": "view",
      "type": "function"
    },
    {
      "inputs": [],
      "name": "GUARDIAN",
      "outputs": [
        {
          "internalType": "bytes32",
          "name": "",
          "type": "bytes32"
        }
      ],
      "stateMutability": "view",
      "type": "function"
    },
    {
      "inputs": [],
      "name": "MANAGER",
      "outputs": [
        {
          "internalType": "bytes32",
          "name": "",
          "type": "bytes32"
        }
      ],
      "stateMutability": "view",
      "type": "function"
    },
    {
      "inputs": [],
      "name": "MAX_MANAGEMENT_FEE",
      "outputs": [
        {
          "internalType": "uint256",
          "name": "",
          "type": "uint256"
        }
      ],
      "stateMutability": "view",
      "type": "function"
    },
    {
      "inputs": [],
      "name": "MAX_PERFORMANCE_FEE",
      "outputs": [
        {
          "internalType": "uint256",
          "name": "",
          "type": "uint256"
        }
      ],
      "stateMutability": "view",
      "type": "function"
    },
    {
      "inputs": [],
      "name": "MIN_LIQUIDITY",
      "outputs": [
        {
          "internalType": "uint256",
          "name": "",
          "type": "uint256"
        }
      ],
      "stateMutability": "view",
      "type": "function"
    },
    {
      "inputs": [],
      "name": "acceptOwnership",
      "outputs": [],
      "stateMutability": "nonpayable",
      "type": "function"
    },
    {
      "inputs": [
        {
          "internalType": "contract ISCYStrategy",
          "name": "strategy",
          "type": "address"
        }
      ],
      "name": "addStrategy",
      "outputs": [],
      "stateMutability": "nonpayable",
      "type": "function"
    },
    {
      "inputs": [
        {
          "internalType": "address",
          "name": "_vault",
          "type": "address"
        },
        {
          "internalType": "uint16",
          "name": "_chainId",
          "type": "uint16"
        },
        {
          "internalType": "uint16",
          "name": "_postmanId",
          "type": "uint16"
        },
        {
          "internalType": "bool",
          "name": "_allowed",
          "type": "bool"
        }
      ],
      "name": "addVault",
      "outputs": [],
      "stateMutability": "nonpayable",
      "type": "function"
    },
    {
      "inputs": [
        {
          "internalType": "address",
          "name": "",
          "type": "address"
        }
      ],
      "name": "addrBook",
      "outputs": [
        {
          "internalType": "uint16",
          "name": "chainId",
          "type": "uint16"
        },
        {
          "internalType": "uint16",
          "name": "postmanId",
          "type": "uint16"
        },
        {
          "internalType": "bool",
          "name": "allowed",
          "type": "bool"
        }
      ],
      "stateMutability": "view",
      "type": "function"
    },
    {
      "inputs": [
        {
          "internalType": "address",
          "name": "owner",
          "type": "address"
        },
        {
          "internalType": "address",
          "name": "spender",
          "type": "address"
        }
      ],
      "name": "allowance",
      "outputs": [
        {
          "internalType": "uint256",
          "name": "",
          "type": "uint256"
        }
      ],
      "stateMutability": "view",
      "type": "function"
    },
    {
      "inputs": [
        {
          "internalType": "address",
          "name": "spender",
          "type": "address"
        },
        {
          "internalType": "uint256",
          "name": "amount",
          "type": "uint256"
        }
      ],
      "name": "approve",
      "outputs": [
        {
          "internalType": "bool",
          "name": "",
          "type": "bool"
        }
      ],
      "stateMutability": "nonpayable",
      "type": "function"
    },
    {
      "inputs": [
        {
          "internalType": "address",
          "name": "account",
          "type": "address"
        }
      ],
      "name": "balanceOf",
      "outputs": [
        {
          "internalType": "uint256",
          "name": "",
          "type": "uint256"
        }
      ],
      "stateMutability": "view",
      "type": "function"
    },
    {
      "inputs": [
        {
          "internalType": "uint256",
          "name": "",
          "type": "uint256"
        }
      ],
      "name": "bridgeQueue",
      "outputs": [
        {
          "internalType": "address",
          "name": "",
          "type": "address"
        }
      ],
      "stateMutability": "view",
      "type": "function"
    },
    {
      "inputs": [],
      "name": "cancelRedeem",
      "outputs": [],
      "stateMutability": "nonpayable",
      "type": "function"
    },
    {
      "inputs": [
        {
          "internalType": "address",
          "name": "_vault",
          "type": "address"
        },
        {
          "internalType": "bool",
          "name": "_allowed",
          "type": "bool"
        }
      ],
      "name": "changeVaultStatus",
      "outputs": [],
      "stateMutability": "nonpayable",
      "type": "function"
    },
    {
      "inputs": [
        {
          "internalType": "uint256",
          "name": "shares",
          "type": "uint256"
        }
      ],
      "name": "convertToAssets",
      "outputs": [
        {
          "internalType": "uint256",
          "name": "",
          "type": "uint256"
        }
      ],
      "stateMutability": "view",
      "type": "function"
    },
    {
      "inputs": [
        {
          "internalType": "uint256",
          "name": "assets",
          "type": "uint256"
        }
      ],
      "name": "convertToShares",
      "outputs": [
        {
          "internalType": "uint256",
          "name": "",
          "type": "uint256"
        }
      ],
      "stateMutability": "view",
      "type": "function"
    },
    {
      "inputs": [],
      "name": "decimals",
      "outputs": [
        {
          "internalType": "uint8",
          "name": "",
          "type": "uint8"
        }
      ],
      "stateMutability": "view",
      "type": "function"
    },
    {
      "inputs": [
        {
          "internalType": "address",
          "name": "spender",
          "type": "address"
        },
        {
          "internalType": "uint256",
          "name": "subtractedValue",
          "type": "uint256"
        }
      ],
      "name": "decreaseAllowance",
      "outputs": [
        {
          "internalType": "bool",
          "name": "",
          "type": "bool"
        }
      ],
      "stateMutability": "nonpayable",
      "type": "function"
    },
    {
      "inputs": [
        {
          "internalType": "uint256",
          "name": "assets",
          "type": "uint256"
        },
        {
          "internalType": "address",
          "name": "receiver",
          "type": "address"
        }
      ],
      "name": "deposit",
      "outputs": [
        {
          "internalType": "uint256",
          "name": "shares",
          "type": "uint256"
        }
      ],
      "stateMutability": "nonpayable",
      "type": "function"
    },
    {
      "inputs": [
        {
          "components": [
            {
              "internalType": "contract ISCYStrategy",
              "name": "strategy",
              "type": "address"
            },
            {
              "internalType": "uint256",
              "name": "amountIn",
              "type": "uint256"
            },
            {
              "internalType": "uint256",
              "name": "minSharesOut",
              "type": "uint256"
            }
          ],
          "internalType": "struct DepositParams[]",
          "name": "params",
          "type": "tuple[]"
        }
      ],
      "name": "depositIntoStrategies",
      "outputs": [],
      "stateMutability": "nonpayable",
      "type": "function"
    },
    {
      "inputs": [
        {
          "internalType": "address",
          "name": "target",
          "type": "address"
        },
        {
          "internalType": "bytes",
          "name": "callData",
          "type": "bytes"
        }
      ],
      "name": "emergencyAction",
      "outputs": [],
      "stateMutability": "nonpayable",
      "type": "function"
    },
    {
      "inputs": [],
      "name": "emergencyRedeem",
      "outputs": [],
      "stateMutability": "nonpayable",
      "type": "function"
    },
    {
      "inputs": [],
      "name": "enterEmergency",
      "outputs": [],
      "stateMutability": "nonpayable",
      "type": "function"
    },
    {
      "inputs": [
        {
          "internalType": "address",
          "name": "user",
          "type": "address"
        }
      ],
      "name": "estimateUnderlyingBalance",
      "outputs": [
        {
          "internalType": "uint256",
          "name": "",
          "type": "uint256"
        }
      ],
      "stateMutability": "view",
      "type": "function"
    },
    {
      "inputs": [],
      "name": "floatAmnt",
      "outputs": [
        {
          "internalType": "uint256",
          "name": "",
          "type": "uint256"
        }
      ],
      "stateMutability": "view",
      "type": "function"
    },
    {
      "inputs": [],
      "name": "getAllStrategies",
      "outputs": [
        {
          "internalType": "address[]",
          "name": "",
          "type": "address[]"
        }
      ],
      "stateMutability": "view",
      "type": "function"
    },
    {
      "inputs": [],
      "name": "getPenalty",
      "outputs": [
        {
          "internalType": "uint256",
          "name": "",
          "type": "uint256"
        }
      ],
      "stateMutability": "view",
      "type": "function"
    },
    {
      "inputs": [
        {
          "internalType": "bytes32",
          "name": "role",
          "type": "bytes32"
        }
      ],
      "name": "getRoleAdmin",
      "outputs": [
        {
          "internalType": "bytes32",
          "name": "",
          "type": "bytes32"
        }
      ],
      "stateMutability": "view",
      "type": "function"
    },
    {
      "inputs": [],
      "name": "getTvl",
      "outputs": [
        {
          "internalType": "uint256",
          "name": "tvl",
          "type": "uint256"
        }
      ],
      "stateMutability": "view",
      "type": "function"
    },
    {
      "inputs": [
        {
          "internalType": "address",
          "name": "user",
          "type": "address"
        }
      ],
      "name": "getWithdrawStatus",
      "outputs": [
        {
          "components": [
            {
              "internalType": "uint256",
              "name": "timestamp",
              "type": "uint256"
            },
            {
              "internalType": "uint256",
              "name": "shares",
              "type": "uint256"
            },
            {
              "internalType": "uint256",
              "name": "value",
              "type": "uint256"
            }
          ],
          "internalType": "struct WithdrawRecord",
          "name": "",
          "type": "tuple"
        }
      ],
      "stateMutability": "view",
      "type": "function"
    },
    {
      "inputs": [
        {
          "internalType": "bytes32",
          "name": "role",
          "type": "bytes32"
        },
        {
          "internalType": "address",
          "name": "account",
          "type": "address"
        }
      ],
      "name": "grantRole",
      "outputs": [],
      "stateMutability": "nonpayable",
      "type": "function"
    },
    {
      "inputs": [
        {
          "internalType": "uint256",
          "name": "expectedTvl",
          "type": "uint256"
        },
        {
          "internalType": "uint256",
          "name": "maxDelta",
          "type": "uint256"
        }
      ],
      "name": "harvest",
      "outputs": [],
      "stateMutability": "nonpayable",
      "type": "function"
    },
    {
      "inputs": [
        {
          "internalType": "bytes32",
          "name": "role",
          "type": "bytes32"
        },
        {
          "internalType": "address",
          "name": "account",
          "type": "address"
        }
      ],
      "name": "hasRole",
      "outputs": [
        {
          "internalType": "bool",
          "name": "",
          "type": "bool"
        }
      ],
      "stateMutability": "view",
      "type": "function"
    },
    {
      "inputs": [
        {
          "internalType": "address",
          "name": "spender",
          "type": "address"
        },
        {
          "internalType": "uint256",
          "name": "addedValue",
          "type": "uint256"
        }
      ],
      "name": "increaseAllowance",
      "outputs": [
        {
          "internalType": "bool",
          "name": "",
          "type": "bool"
        }
      ],
      "stateMutability": "nonpayable",
      "type": "function"
    },
    {
      "inputs": [],
      "name": "lastHarvestTimestamp",
      "outputs": [
        {
          "internalType": "uint256",
          "name": "",
          "type": "uint256"
        }
      ],
      "stateMutability": "view",
      "type": "function"
    },
    {
      "inputs": [
        {
          "internalType": "uint16",
          "name": "_postmanId",
          "type": "uint16"
        },
        {
          "internalType": "uint16",
          "name": "_chainId",
          "type": "uint16"
        },
        {
          "internalType": "address",
          "name": "_postman",
          "type": "address"
        }
      ],
      "name": "managePostman",
      "outputs": [],
      "stateMutability": "nonpayable",
      "type": "function"
    },
    {
      "inputs": [],
      "name": "managementFee",
      "outputs": [
        {
          "internalType": "uint256",
          "name": "",
          "type": "uint256"
        }
      ],
      "stateMutability": "view",
      "type": "function"
    },
    {
      "inputs": [
        {
          "internalType": "address",
          "name": "",
          "type": "address"
        }
      ],
      "name": "maxDeposit",
      "outputs": [
        {
          "internalType": "uint256",
          "name": "",
          "type": "uint256"
        }
      ],
      "stateMutability": "view",
      "type": "function"
    },
    {
      "inputs": [
        {
          "internalType": "address",
          "name": "",
          "type": "address"
        }
      ],
      "name": "maxMint",
      "outputs": [
        {
          "internalType": "uint256",
          "name": "",
          "type": "uint256"
        }
      ],
      "stateMutability": "view",
      "type": "function"
    },
    {
      "inputs": [
        {
          "internalType": "address",
          "name": "owner",
          "type": "address"
        }
      ],
      "name": "maxRedeem",
      "outputs": [
        {
          "internalType": "uint256",
          "name": "",
          "type": "uint256"
        }
      ],
      "stateMutability": "view",
      "type": "function"
    },
    {
      "inputs": [
        {
          "internalType": "address",
          "name": "owner",
          "type": "address"
        }
      ],
      "name": "maxWithdraw",
      "outputs": [
        {
          "internalType": "uint256",
          "name": "",
          "type": "uint256"
        }
      ],
      "stateMutability": "view",
      "type": "function"
    },
    {
      "inputs": [
        {
          "internalType": "uint256",
          "name": "shares",
          "type": "uint256"
        },
        {
          "internalType": "address",
          "name": "receiver",
          "type": "address"
        }
      ],
      "name": "mint",
      "outputs": [
        {
          "internalType": "uint256",
          "name": "assets",
          "type": "uint256"
        }
      ],
      "stateMutability": "nonpayable",
      "type": "function"
    },
    {
      "inputs": [],
      "name": "name",
      "outputs": [
        {
          "internalType": "string",
          "name": "",
          "type": "string"
        }
      ],
      "stateMutability": "view",
      "type": "function"
    },
    {
      "inputs": [],
      "name": "owner",
      "outputs": [
        {
          "internalType": "address",
          "name": "",
          "type": "address"
        }
      ],
      "stateMutability": "view",
      "type": "function"
    },
    {
      "inputs": [],
      "name": "pendingOwner",
      "outputs": [
        {
          "internalType": "address",
          "name": "",
          "type": "address"
        }
      ],
      "stateMutability": "view",
      "type": "function"
    },
    {
      "inputs": [],
      "name": "pendingWithdraw",
      "outputs": [
        {
          "internalType": "uint256",
          "name": "",
          "type": "uint256"
        }
      ],
      "stateMutability": "view",
      "type": "function"
    },
    {
      "inputs": [],
      "name": "performanceFee",
      "outputs": [
        {
          "internalType": "uint256",
          "name": "",
          "type": "uint256"
        }
      ],
      "stateMutability": "view",
      "type": "function"
    },
    {
      "inputs": [
        {
          "internalType": "uint16",
          "name": "",
          "type": "uint16"
        },
        {
          "internalType": "uint16",
          "name": "",
          "type": "uint16"
        }
      ],
      "name": "postmanAddr",
      "outputs": [
        {
          "internalType": "address",
          "name": "",
          "type": "address"
        }
      ],
      "stateMutability": "view",
      "type": "function"
    },
    {
      "inputs": [
        {
          "internalType": "uint256",
          "name": "assets",
          "type": "uint256"
        }
      ],
      "name": "previewDeposit",
      "outputs": [
        {
          "internalType": "uint256",
          "name": "",
          "type": "uint256"
        }
      ],
      "stateMutability": "view",
      "type": "function"
    },
    {
      "inputs": [
        {
          "internalType": "uint256",
          "name": "shares",
          "type": "uint256"
        }
      ],
      "name": "previewMint",
      "outputs": [
        {
          "internalType": "uint256",
          "name": "",
          "type": "uint256"
        }
      ],
      "stateMutability": "view",
      "type": "function"
    },
    {
      "inputs": [
        {
          "internalType": "uint256",
          "name": "shares",
          "type": "uint256"
        }
      ],
      "name": "previewRedeem",
      "outputs": [
        {
          "internalType": "uint256",
          "name": "",
          "type": "uint256"
        }
      ],
      "stateMutability": "view",
      "type": "function"
    },
    {
      "inputs": [
        {
          "internalType": "uint256",
          "name": "assets",
          "type": "uint256"
        }
      ],
      "name": "previewWithdraw",
      "outputs": [
        {
          "internalType": "uint256",
          "name": "",
          "type": "uint256"
        }
      ],
      "stateMutability": "view",
      "type": "function"
    },
    {
      "inputs": [],
      "name": "processIncomingXFunds",
      "outputs": [],
      "stateMutability": "nonpayable",
      "type": "function"
    },
    {
      "inputs": [
        {
          "components": [
            {
              "internalType": "address",
              "name": "vaultAddr",
              "type": "address"
            },
            {
              "internalType": "uint256",
              "name": "amount",
              "type": "uint256"
            },
            {
              "internalType": "address",
              "name": "allowanceTarget",
              "type": "address"
            },
            {
              "internalType": "address",
              "name": "registry",
              "type": "address"
            },
            {
              "internalType": "bytes",
              "name": "txData",
              "type": "bytes"
            }
          ],
          "internalType": "struct Request[]",
          "name": "requests",
          "type": "tuple[]"
        }
      ],
      "name": "processXWithdraw",
      "outputs": [],
      "stateMutability": "nonpayable",
      "type": "function"
    },
    {
      "inputs": [
        {
          "components": [
            {
              "internalType": "uint256",
              "name": "value",
              "type": "uint256"
            },
            {
              "internalType": "address",
              "name": "sender",
              "type": "address"
            },
            {
              "internalType": "address",
              "name": "client",
              "type": "address"
            },
            {
              "internalType": "uint16",
              "name": "chainId",
              "type": "uint16"
            }
          ],
          "internalType": "struct Message",
          "name": "_msg",
          "type": "tuple"
        },
        {
          "internalType": "enum messageType",
          "name": "_type",
          "type": "uint8"
        }
      ],
      "name": "receiveMessage",
      "outputs": [],
      "stateMutability": "nonpayable",
      "type": "function"
    },
    {
      "inputs": [
        {
          "internalType": "address",
          "name": "receiver",
          "type": "address"
        }
      ],
      "name": "redeem",
      "outputs": [
        {
          "internalType": "uint256",
          "name": "amountOut",
          "type": "uint256"
        }
      ],
      "stateMutability": "nonpayable",
      "type": "function"
    },
    {
      "inputs": [
        {
          "internalType": "uint256",
          "name": "",
          "type": "uint256"
        },
        {
          "internalType": "address",
          "name": "receiver",
          "type": "address"
        },
        {
          "internalType": "address",
          "name": "",
          "type": "address"
        }
      ],
      "name": "redeem",
      "outputs": [
        {
          "internalType": "uint256",
          "name": "amountOut",
          "type": "uint256"
        }
      ],
      "stateMutability": "nonpayable",
      "type": "function"
    },
    {
      "inputs": [],
      "name": "redeem",
      "outputs": [
        {
          "internalType": "uint256",
          "name": "amountOut",
          "type": "uint256"
        }
      ],
      "stateMutability": "nonpayable",
      "type": "function"
    },
    {
      "inputs": [
        {
          "internalType": "address",
          "name": "user",
          "type": "address"
        }
      ],
      "name": "redeemIsReady",
      "outputs": [
        {
          "internalType": "bool",
          "name": "",
          "type": "bool"
        }
      ],
      "stateMutability": "view",
      "type": "function"
    },
    {
      "inputs": [
        {
          "internalType": "contract ISCYStrategy",
          "name": "strategy",
          "type": "address"
        }
      ],
      "name": "removeStrategy",
      "outputs": [],
      "stateMutability": "nonpayable",
      "type": "function"
    },
    {
      "inputs": [
        {
          "internalType": "bytes32",
          "name": "role",
          "type": "bytes32"
        },
        {
          "internalType": "address",
          "name": "account",
          "type": "address"
        }
      ],
      "name": "renounceRole",
      "outputs": [],
      "stateMutability": "nonpayable",
      "type": "function"
    },
    {
      "inputs": [
        {
          "internalType": "uint256",
          "name": "shares",
          "type": "uint256"
        },
        {
          "internalType": "address",
          "name": "owner",
          "type": "address"
        }
      ],
      "name": "requestRedeem",
      "outputs": [],
      "stateMutability": "nonpayable",
      "type": "function"
    },
    {
      "inputs": [
        {
          "internalType": "uint256",
          "name": "shares",
          "type": "uint256"
        }
      ],
      "name": "requestRedeem",
      "outputs": [],
      "stateMutability": "nonpayable",
      "type": "function"
    },
    {
      "inputs": [
        {
          "internalType": "bytes32",
          "name": "role",
          "type": "bytes32"
        },
        {
          "internalType": "address",
          "name": "account",
          "type": "address"
        }
      ],
      "name": "revokeRole",
      "outputs": [],
      "stateMutability": "nonpayable",
      "type": "function"
    },
    {
      "inputs": [
        {
          "internalType": "uint256",
          "name": "_managementFee",
          "type": "uint256"
        }
      ],
      "name": "setManagementFee",
      "outputs": [],
      "stateMutability": "nonpayable",
      "type": "function"
    },
    {
      "inputs": [
        {
          "internalType": "uint256",
          "name": "_performanceFee",
          "type": "uint256"
        }
      ],
      "name": "setPerformanceFee",
      "outputs": [],
      "stateMutability": "nonpayable",
      "type": "function"
    },
    {
      "inputs": [
        {
          "internalType": "address",
          "name": "_treasury",
          "type": "address"
        }
      ],
      "name": "setTreasury",
      "outputs": [],
      "stateMutability": "nonpayable",
      "type": "function"
    },
    {
      "inputs": [
        {
          "internalType": "uint256",
          "name": "shares",
          "type": "uint256"
        }
      ],
      "name": "sharesToUnderlying",
      "outputs": [
        {
          "internalType": "uint256",
          "name": "",
          "type": "uint256"
        }
      ],
      "stateMutability": "view",
      "type": "function"
    },
    {
      "inputs": [
        {
          "internalType": "contract ISCYStrategy",
          "name": "",
          "type": "address"
        }
      ],
      "name": "strategyExists",
      "outputs": [
        {
          "internalType": "bool",
          "name": "",
          "type": "bool"
        }
      ],
      "stateMutability": "view",
      "type": "function"
    },
    {
      "inputs": [
        {
          "internalType": "uint256",
          "name": "",
          "type": "uint256"
        }
      ],
      "name": "strategyIndex",
      "outputs": [
        {
          "internalType": "address",
          "name": "",
          "type": "address"
        }
      ],
      "stateMutability": "view",
      "type": "function"
    },
    {
      "inputs": [
        {
          "internalType": "bytes4",
          "name": "interfaceId",
          "type": "bytes4"
        }
      ],
      "name": "supportsInterface",
      "outputs": [
        {
          "internalType": "bool",
          "name": "",
          "type": "bool"
        }
      ],
      "stateMutability": "view",
      "type": "function"
    },
    {
      "inputs": [],
      "name": "symbol",
      "outputs": [
        {
          "internalType": "string",
          "name": "",
          "type": "string"
        }
      ],
      "stateMutability": "view",
      "type": "function"
    },
    {
      "inputs": [
        {
          "internalType": "uint256",
          "name": "assets",
          "type": "uint256"
        }
      ],
      "name": "toSharesAfterDeposit",
      "outputs": [
        {
          "internalType": "uint256",
          "name": "",
          "type": "uint256"
        }
      ],
      "stateMutability": "view",
      "type": "function"
    },
    {
      "inputs": [],
      "name": "totalAssets",
      "outputs": [
        {
          "internalType": "uint256",
          "name": "",
          "type": "uint256"
        }
      ],
      "stateMutability": "view",
      "type": "function"
    },
    {
      "inputs": [],
      "name": "totalChildHoldings",
      "outputs": [
        {
          "internalType": "uint256",
          "name": "",
          "type": "uint256"
        }
      ],
      "stateMutability": "view",
      "type": "function"
    },
    {
      "inputs": [],
      "name": "totalStrategies",
      "outputs": [
        {
          "internalType": "uint256",
          "name": "",
          "type": "uint256"
        }
      ],
      "stateMutability": "view",
      "type": "function"
    },
    {
      "inputs": [],
      "name": "totalStrategyHoldings",
      "outputs": [
        {
          "internalType": "uint256",
          "name": "",
          "type": "uint256"
        }
      ],
      "stateMutability": "view",
      "type": "function"
    },
    {
      "inputs": [],
      "name": "totalSupply",
      "outputs": [
        {
          "internalType": "uint256",
          "name": "",
          "type": "uint256"
        }
      ],
      "stateMutability": "view",
      "type": "function"
    },
    {
      "inputs": [
        {
          "internalType": "address",
          "name": "to",
          "type": "address"
        },
        {
          "internalType": "uint256",
          "name": "amount",
          "type": "uint256"
        }
      ],
      "name": "transfer",
      "outputs": [
        {
          "internalType": "bool",
          "name": "",
          "type": "bool"
        }
      ],
      "stateMutability": "nonpayable",
      "type": "function"
    },
    {
      "inputs": [
        {
          "internalType": "address",
          "name": "from",
          "type": "address"
        },
        {
          "internalType": "address",
          "name": "to",
          "type": "address"
        },
        {
          "internalType": "uint256",
          "name": "amount",
          "type": "uint256"
        }
      ],
      "name": "transferFrom",
      "outputs": [
        {
          "internalType": "bool",
          "name": "",
          "type": "bool"
        }
      ],
      "stateMutability": "nonpayable",
      "type": "function"
    },
    {
      "inputs": [
        {
          "internalType": "address",
          "name": "_pendingOwner",
          "type": "address"
        }
      ],
      "name": "transferOwnership",
      "outputs": [],
      "stateMutability": "nonpayable",
      "type": "function"
    },
    {
      "inputs": [],
      "name": "treasury",
      "outputs": [
        {
          "internalType": "address",
          "name": "",
          "type": "address"
        }
      ],
      "stateMutability": "view",
      "type": "function"
    },
    {
      "inputs": [],
      "name": "underlying",
      "outputs": [
        {
          "internalType": "address",
          "name": "",
          "type": "address"
        }
      ],
      "stateMutability": "view",
      "type": "function"
    },
    {
      "inputs": [
        {
          "internalType": "address",
          "name": "user",
          "type": "address"
        }
      ],
      "name": "underlyingBalance",
      "outputs": [
        {
          "internalType": "uint256",
          "name": "",
          "type": "uint256"
        }
      ],
      "stateMutability": "view",
      "type": "function"
    },
    {
      "inputs": [],
      "name": "underlyingDecimals",
      "outputs": [
        {
          "internalType": "uint8",
          "name": "",
          "type": "uint8"
        }
      ],
      "stateMutability": "view",
      "type": "function"
    },
    {
      "inputs": [
        {
          "internalType": "uint256",
          "name": "underlyingAmnt",
          "type": "uint256"
        }
      ],
      "name": "underlyingToShares",
      "outputs": [
        {
          "internalType": "uint256",
          "name": "",
          "type": "uint256"
        }
      ],
      "stateMutability": "view",
      "type": "function"
    },
    {
      "inputs": [
        {
          "internalType": "address",
          "name": "_vault",
          "type": "address"
        },
        {
          "internalType": "uint16",
          "name": "_postmanId",
          "type": "uint16"
        }
      ],
      "name": "updateVaultPostman",
      "outputs": [],
      "stateMutability": "nonpayable",
      "type": "function"
    },
    {
      "inputs": [
        {
          "internalType": "uint256",
          "name": "",
          "type": "uint256"
        },
        {
          "internalType": "address",
          "name": "",
          "type": "address"
        },
        {
          "internalType": "address",
          "name": "",
          "type": "address"
        }
      ],
      "name": "withdraw",
      "outputs": [
        {
          "internalType": "uint256",
          "name": "",
          "type": "uint256"
        }
      ],
      "stateMutability": "pure",
      "type": "function"
    },
    {
      "inputs": [
        {
          "components": [
            {
              "internalType": "contract ISCYStrategy",
              "name": "strategy",
              "type": "address"
            },
            {
              "internalType": "uint256",
              "name": "shares",
              "type": "uint256"
            },
            {
              "internalType": "uint256",
              "name": "minTokenOut",
              "type": "uint256"
            }
          ],
          "internalType": "struct RedeemParams[]",
          "name": "params",
          "type": "tuple[]"
        }
      ],
      "name": "withdrawFromStrategies",
      "outputs": [],
      "stateMutability": "nonpayable",
      "type": "function"
    },
    {
      "inputs": [
        {
          "internalType": "address",
          "name": "",
          "type": "address"
        }
      ],
      "name": "withdrawLedger",
      "outputs": [
        {
          "internalType": "uint256",
          "name": "timestamp",
          "type": "uint256"
        },
        {
          "internalType": "uint256",
          "name": "shares",
          "type": "uint256"
        },
        {
          "internalType": "uint256",
          "name": "value",
          "type": "uint256"
        }
      ],
      "stateMutability": "view",
      "type": "function"
    }
  ],
  "transactionHash": "0xd3eadeb0c178e11b47fb102461e407d8fcc99dfbfa34e50c8cfde80934cc04fd",
  "args": [
    "0x7F5c764cBc14f9669B88837ca1490cCa17c31607",
    "SectorVault",
    "SVLT",
    [
      "0xf09c27934A92c56c7C0dD6cBAc858C35fBd5170f",
      "0x6DdF9DA4C37DF97CB2458F85050E09994Cbb9C2A",
      "0x6DdF9DA4C37DF97CB2458F85050E09994Cbb9C2A"
    ],
    [
      "0xf09c27934A92c56c7C0dD6cBAc858C35fBd5170f",
      0,
      0
    ]
  ],
  "numDeployments": 1,
  "solcInputHash": "1f8e4266014ff4e1c4736348c6631364",
  "bytecode": "0x60c060405261ffff461660a0523480156200001957600080fd5b5060405162005dab38038062005dab8339810160408190526200003c916200051c565b8151600180546001600160a01b0319166001600160a01b0390921691821790556040805160008152602081019290925286918691869183918391879189917f8be0079c531659141344cd1fd0a4f28419497f9722a3daafe3b4186f6b6457e0910160405180910390a18051620000b590600090620002aa565b600154620000dd9060008051602062005d8b833981519152906001600160a01b0316620002aa565b6200010260008051602062005d8b8339815191528260200151620002aa60201b60201c565b8051620001209060008051602062005d6b83398151915290620002aa565b6200014560008051602062005d6b8339815191528260200151620002aa60201b60201c565b6200016a60008051602062005d6b8339815191528260400151620002aa60201b60201c565b6200019460008051602062005d6b83398151915260008051602062005d8b8339815191526200034b565b508051600580546001600160a01b0319166001600160a01b0390921691821790556020820151600355604080830151600455517fcb7ef3e545f5cdb893f5c568ba710fe08f336375a2d9fd66e161033f8fc09ef390600090a27f8b940a95968ad5b511f89b01075446a4fe9f614f2dc5fbb9e9a6b227d6d4fd7081602001516040516200022391815260200190565b60405180910390a17fd87632b1c6ebfa21acbca0e3279b3cf6385a377cb8fda51e5b866baa6e6012ab81604001516040516200026191815260200190565b60405180910390a15060096200027883826200069f565b50600a6200028782826200069f565b5050506001600160a01b03909216608052505042600b55506200076b9350505050565b6000828152602081815260408083206001600160a01b038516845290915290205460ff1662000347576000828152602081815260408083206001600160a01b03851684529091529020805460ff19166001179055620003063390565b6001600160a01b0316816001600160a01b0316837f2f8788117e7eff1d82e926ec794901d17c78024a50270940304540a733656f0d60405160405180910390a45b5050565b600082815260208190526040808220600101805490849055905190918391839186917fbd79b86ffe0ab8e8776151514217cd7cacd52c909f66475c3af44e129f0b00ff9190a4505050565b6001600160a01b0381168114620003ac57600080fd5b50565b634e487b7160e01b600052604160045260246000fd5b604051606081016001600160401b0381118282101715620003ea57620003ea620003af565b60405290565b604051601f8201601f191681016001600160401b03811182821017156200041b576200041b620003af565b604052919050565b600082601f8301126200043557600080fd5b81516001600160401b03811115620004515762000451620003af565b602062000467601f8301601f19168201620003f0565b82815285828487010111156200047c57600080fd5b60005b838110156200049c5785810183015182820184015282016200047f565b506000928101909101919091529392505050565b600060608284031215620004c357600080fd5b604051606081016001600160401b0381118282101715620004e857620004e8620003af565b80604052508091508251620004fd8162000396565b8082525060208301516020820152604083015160408201525092915050565b60008060008060008587036101208112156200053757600080fd5b8651620005448162000396565b60208801519096506001600160401b03808211156200056257600080fd5b620005708a838b0162000423565b965060408901519150808211156200058757600080fd5b506200059689828a0162000423565b9450506060605f1982011215620005ac57600080fd5b50620005b7620003c5565b6060870151620005c78162000396565b81526080870151620005d98162000396565b602082015260a0870151620005ee8162000396565b60408201529150620006048760c08801620004b0565b90509295509295909350565b600181811c908216806200062557607f821691505b6020821081036200064657634e487b7160e01b600052602260045260246000fd5b50919050565b601f8211156200069a57600081815260208120601f850160051c81016020861015620006755750805b601f850160051c820191505b81811015620006965782815560010162000681565b5050505b505050565b81516001600160401b03811115620006bb57620006bb620003af565b620006d381620006cc845462000610565b846200064c565b602080601f8311600181146200070b5760008415620006f25750858301515b600019600386901b1c1916600185901b17855562000696565b600085815260208120601f198616915b828110156200073c578886015182559484019460019091019084016200071b565b50858210156200075b5787850151600019600388901b60f8161c191681555b5050505050600190811b01905550565b60805160a051615571620007fa600039600081816114bb015281816115e1015281816122c7015281816133530152614183015260008181610f4d015281816110c7015281816116ef015281816117b501528181611a0b01528181611c1401528181611c5d01528181611ef90152818161207c0152818161211b015281816125c2015261288301526155716000f3fe608060405234801561001057600080fd5b50600436106104145760003560e01c806301e1d1141461041957806301ffc9a71461043457806306fdde031461045757806307a2d13a1461046c578063095ea7b31461047f5780630a28a47714610492578063107703ab146104a5578063175188e8146104ba57806318160ddd146104cd5780631b2df850146104d557806321b77d63146104ea578063223e5479146104f35780632257a7381461050657806323b872dd1461050f578063248a9ca31461052257806325a760c2146105355780632940ec001461054f5780632f2ff15d14610558578063313ce567146105355780633230b79b1461056b578063341a7b421461059857806336568abe146105ab57806339509351146105be5780633e642575146105d1578063402d267d146105e4578063415c49e2146105f9578063477978d71461060c5780634cdad5061461061f57806351a72964146106325780635b9d26581461066757806361d027b3146106b15780636e553f65146106d15780636f307dc3146106e457806370897b23146106ec57806370a08231146106ff578063724c184c1461071257806373b90eac14610727578063793361dc1461072f57806379ba5097146107425780638576829e1461074a57806387788782146107535780638954b3e01461075c5780638c871019146107645780638da5cb5b1461077757806391d148541461078a57806394bf804d1461079d57806395a2251f146107b057806395d89b41146107c357806396fbebcc146107cb5780639908840c146107de5780639c508d4a146107ec578063a217fddf14610820578063a457c2d714610828578063a6f7f5d61461083b578063a879f97614610844578063a9059cbb146108a2578063aa2f892d146108b5578063b3d7f6b9146108c8578063b460af94146108db578063b5ca7704146108ee578063b913d33d14610901578063ba08765214610909578063bdca91651461091c578063be040fb01461092b578063bf5ab6f514610933578063c3b2886414610946578063c63d75b6146105e4578063c6e6f5921461095b578063c737186a1461096e578063ce96cb7714610981578063cee027f214610994578063d075dd42146109a7578063d547741f146109af578063d7b9991c146109c2578063d905777e146109d5578063dd62ed3e146109e8578063e30c3978146109fb578063e3f62d5d14610a0e578063e4a4b7b114610a31578063e56e56db14610a44578063e6a2966614610a4c578063eacff5ba14610a54578063ecad956514610a67578063ef8b30f714610a70578063f0f4426014610a83578063f2d6f5a814610a96578063f2fde38b14610aa9578063f3e7387514610abc578063f96d7b8014610acf578063fc6b1ebe14610ad7578063fe56e23214610ae0578063fef5745a14610af3575b600080fd5b610421610b06565b6040519081526020015b60405180910390f35b61044761044236600461480e565b610b1d565b604051901515815260200161042b565b61045f610b54565b60405161042b919061485c565b61042161047a36600461488f565b610be6565b61044761048d3660046148bd565b610c1a565b6104216104a036600461488f565b610c32565b6104b86104b33660046148e9565b610c59565b005b6104b86104c8366004614919565b610d1f565b610421610edc565b61042160008051602061549c83398151915281565b6104216103e881565b6104b8610501366004614919565b610ee7565b610421600b5481565b61044761051d366004614936565b61108a565b61042161053036600461488f565b6110ae565b61053d6110c3565b60405160ff909116815260200161042b565b610421600c5481565b6104b86105663660046148e9565b611147565b610447610579366004614919565b6001600160a01b03166000908152600d6020526040902054600b541190565b6104b86105a6366004614985565b611168565b6104b86105b93660046148e9565b611201565b6104476105cc3660046148bd565b61127f565b6104216105df366004614919565b6112a1565b6104216105f2366004614919565b5060001990565b6104b86106073660046149c3565b6112b8565b6104b861061a366004614a0e565b61135e565b61042161062d36600461488f565b611664565b610645610640366004614919565b61166f565b604080518251815260208084015190820152918101519082015260600161042b565b610696610675366004614919565b600d6020526000908152604090208054600182015460029092015490919083565b6040805193845260208401929092529082015260600161042b565b6005546106c4906001600160a01b031681565b60405161042b9190614a82565b6104216106df3660046148e9565b6116d5565b6106c46117b3565b6104b86106fa36600461488f565b6117d7565b61042161070d366004614919565b611866565b6104216000805160206154bc83398151915281565b6104b8611881565b6104b861073d366004614ae1565b611af9565b6104b8611d4a565b61042160115481565b61042160035481565b6104b8611e95565b61042161077236600461488f565b612012565b6001546106c4906001600160a01b031681565b6104476107983660046148e9565b612039565b6104216107ab3660046148e9565b612062565b6104216107be366004614919565b6120f3565b61045f6121e1565b6104b86107d9366004614b22565b6121f0565b61042166b1a2bc2ec5000081565b6106c46107fa366004614b5a565b600f6020908152600092835260408084209091529082529020546001600160a01b031681565b610421600081565b6104476108363660046148bd565b612397565b61042160045481565b61087f610852366004614919565b600e6020526000908152604090205461ffff8082169162010000810490911690600160201b900460ff1683565b6040805161ffff948516815293909216602084015215159082015260600161042b565b6104476108b03660046148bd565b612412565b6104b86108c336600461488f565b612420565b6104216108d636600461488f565b61242d565b6104216108e9366004614b88565b612453565b6104216108fc366004614919565b61246e565b6104b86124ae565b610421610917366004614b88565b6124da565b6104216703782dace9d9000081565b6104216124ed565b6104b8610941366004614ae1565b6124f8565b61094e6126b7565b60405161042b9190614baf565b61042161096936600461488f565b612718565b6106c461097c36600461488f565b612737565b61042161098f366004614919565b612761565b6104b86109a2366004614bfc565b61276f565b6104216127ab565b6104b86109bd3660046148e9565b612909565b6106c46109d036600461488f565b612925565b6104216109e3366004614919565b612935565b6104216109f6366004614c58565b612940565b6002546106c4906001600160a01b031681565b610447610a1c366004614919565b60126020526000908152604090205460ff1681565b6104b8610a3f366004614c86565b61296b565b6104216129b5565b6104b8612a1d565b610421610a6236600461488f565b612abe565b61042160165481565b610421610a7e36600461488f565b612b10565b6104b8610a91366004614919565b612b1b565b6104b8610aa4366004614ca8565b612b8f565b6104b8610ab7366004614919565b612c90565b610421610aca36600461488f565b612d0e565b601354610421565b61042160105481565b6104b8610aee36600461488f565b612d2c565b6104b8610b01366004614cc6565b612db3565b6000601054601154610b189190614d60565b905090565b60006001600160e01b03198216637965db0b60e01b1480610b4e57506301ffc9a760e01b6001600160e01b03198316145b92915050565b606060098054610b6390614d73565b80601f0160208091040260200160405190810160405280929190818152602001828054610b8f90614d73565b8015610bdc5780601f10610bb157610100808354040283529160200191610bdc565b820191906000526020600020905b815481529060010190602001808311610bbf57829003601f168201915b5050505050905090565b600080610bf1610edc565b90508015610c1157610c0c610c04610b06565b849083612e51565b610c13565b825b9392505050565b600033610c28818585612e70565b5060019392505050565b600080610c3d610edc565b90508015610c1157610c0c81610c51610b06565b859190612f8c565b336001600160a01b03821614610c7457610c74813384612fba565b610c7f81308461302e565b336000908152600d6020526040812042815560018101805491928592610ca6908490614d60565b9091555060009050610cb784610be6565b905080826002018190555080600c6000828254610cd49190614d60565b90915550506040518481526001600160a01b0384169033907ff601bbafcf0d793cce0a8802057c8783aa5946889f76bd9dd47492217f59af1e9060200160405180910390a350505050565b6001546001600160a01b03163314610d525760405162461bcd60e51b8152600401610d4990614dad565b60405180910390fd5b6001600160a01b03811660009081526012602052604090205460ff16610d8b57604051632df15a4160e11b815260040160405180910390fd5b6001600160a01b0381166000908152601260205260408120805460ff19169055601354905b81811015610df95760138181548110610dcb57610dcb614dd1565b6000918252602090912001546001600160a01b03848116911614610df957610df281614de7565b9050610db0565b6013610e06600184614e00565b81548110610e1657610e16614dd1565b600091825260209091200154601380546001600160a01b039092169183908110610e4257610e42614dd1565b9060005260206000200160006101000a8154816001600160a01b0302191690836001600160a01b031602179055506013805480610e8157610e81614e13565b600082815260208120820160001990810180546001600160a01b03191690559091019091556040516001600160a01b038516917fd3281a40d50ae838fe77dc627744037b8f0fc6a5711d66119a9b670c5cde41af91a2505050565b6000610b1860085490565b6001546001600160a01b03163314610f115760405162461bcd60e51b8152600401610d4990614dad565b6001600160a01b03811660009081526012602052604090205460ff1615610f4b576040516325a2934b60e21b815260040160405180910390fd5b7f00000000000000000000000000000000000000000000000000000000000000006001600160a01b0316816001600160a01b0316636f307dc36040518163ffffffff1660e01b8152600401602060405180830381865afa158015610fb3573d6000803e3d6000fd5b505050506040513d601f19601f82011682018060405250810190610fd79190614e29565b6001600160a01b031614610ffe57604051632737e48360e11b815260040160405180910390fd5b6001600160a01b038116600081815260126020526040808220805460ff1916600190811790915560138054918201815583527f66de8ffda797e3de9c05e8fc57b3bf0ec28a930d40b0d285d93c06501cf6a0900180546001600160a01b03191684179055517f69887873d46778fb35539b0a9992d9176ca03c1820b0afb538bc3a6f63326b109190a250565b600033611098858285612fba565b6110a385858561302e565b506001949350505050565b60009081526020819052604090206001015490565b60007f00000000000000000000000000000000000000000000000000000000000000006001600160a01b031663313ce5676040518163ffffffff1660e01b8152600401602060405180830381865afa158015611123573d6000803e3d6000fd5b505050506040513d601f19601f82011682018060405250810190610b189190614e46565b611150826110ae565b611159816131ea565b61116383836131f4565b505050565b6001546001600160a01b031633146111925760405162461bcd60e51b8152600401610d4990614dad565b6001600160a01b0382166000818152600e6020526040908190208054841515600160201b0260ff60201b19909116179055517f85e07ba75a2f56a1a2ca8551cdddfb8c998f5781c1c9ab6f8d4ae42101c0d7f1906111f590841515815260200190565b60405180910390a25050565b6001600160a01b03811633146112715760405162461bcd60e51b815260206004820152602f60248201527f416363657373436f6e74726f6c3a2063616e206f6e6c792072656e6f756e636560448201526e103937b632b9903337b91039b2b63360891b6064820152608401610d49565b61127b8282613278565b5050565b600033610c288185856112928383612940565b61129c9190614d60565b612e70565b6000806112ad83611866565b9050610c1381610be6565b6001546001600160a01b031633146112e25760405162461bcd60e51b8152600401610d4990614dad565b61ffff8381166000818152600f602090815260408083209487168084529482529182902080546001600160a01b0319166001600160a01b03871690811790915582519485529084015290917f0a24add6dc7dd296687ea41961d576aa7afe43986fac38191ce40bb4e7f2bf5b91015b60405180910390a2505050565b60008051602061549c833981519152611376816131ea565b601454600080611387600184614e00565b90505b8015611651576000601482815481106113a5576113a5614dd1565b6000918252602090912001546001600160a01b03169050808787848181106113cf576113cf614dd1565b90506020028101906113e19190614e69565b6113ef906020810190614919565b6001600160a01b03161461141657604051631ed0662960e21b815260040160405180910390fd5b6000611421826132dd565b9050601480548061143457611434614e13565b60008281526020808220600019908401810180546001600160a01b03191690559092019092556001600160a01b0384168252600e81526040808320815160608082018452915461ffff8082168352620100008204811683870152600160201b90910460ff1615158285015283516080810185528781523095810195909552928401949094527f0000000000000000000000000000000000000000000000000000000000000000909116908201526114f090849083906002613335565b6115bd6114fb6117b3565b8a8a8781811061150d5761150d614dd1565b905060200281019061151f9190614e69565b611530906060810190604001614919565b8b8b8881811061154257611542614dd1565b90506020028101906115549190614e69565b611565906080810190606001614919565b6001600160a01b0387166000908152600e60205260409020548790879061ffff168f8f8c81811061159857611598614dd1565b90506020028101906115aa9190614e69565b6115b8906080810190614e89565b61345f565b6001600160a01b0383166000908152600e602090815260409182902054825161ffff7f000000000000000000000000000000000000000000000000000000000000000081168252909116918101919091529081018390527f8bdaf3de28c95336795fcfb09634aa6ee90e0ba358711340d92566bc6e3786269060600160405180910390a1509290920191506000190161138a565b5061165d8160006135b9565b5050505050565b6000610b4e82610be6565b61169360405180606001604052806000815260200160008152602001600081525090565b506001600160a01b03166000908152600d6020908152604091829020825160608101845281548152600182015492810192909252600201549181019190915290565b60006116e083612b10565b90506117176001600160a01b037f000000000000000000000000000000000000000000000000000000000000000016333086613610565b61171f610edc565b60000361176457806103e8111561174957604051630131cd7b60e51b815260040160405180910390fd5b6117556103e882614e00565b905061176460016103e8613668565b61176e8282613668565b816001600160a01b0316336001600160a01b031660008051602061551c83398151915285846040516117a1929190614ecf565b60405180910390a3610b4e8382613735565b7f000000000000000000000000000000000000000000000000000000000000000090565b6001546001600160a01b031633146118015760405162461bcd60e51b8152600401610d4990614dad565b6703782dace9d9000081111561182a57604051635b94d8b160e01b815260040160405180910390fd5b60038190556040518181527f8b940a95968ad5b511f89b01075446a4fe9f614f2dc5fbb9e9a6b227d6d4fd70906020015b60405180910390a150565b6001600160a01b031660009081526006602052604090205490565b60008051602061549c833981519152611899816131ea565b6015546000815b80156119ed57600060156118b5600184614e00565b815481106118c5576118c5614dd1565b6000918252602091829020604080516080810182526003939093029091018054835260018101546001600160a01b03908116948401949094526002015492831690820152600160a01b90910461ffff16606082015260158054919250908061192f5761192f614e13565b6000828152602081206003600019909301928302018181556001810180546001600160a01b031916905560020180546001600160b01b03191690559155815161197790612b10565b90508215801561198c575061198a610edc565b155b156119cf57806103e811156119b457604051630131cd7b60e51b815260040160405180910390fd5b6119c06103e882614e00565b90506119cf60016103e8613668565b6119dd826020015182613668565b50519190910190600019016118a0565b50600c546011546040516370a0823160e01b81526001600160a01b037f000000000000000000000000000000000000000000000000000000000000000016906370a0823190611a40903090600401614a82565b602060405180830381865afa158015611a5d573d6000803e3d6000fd5b505050506040513d601f19601f82011682018060405250810190611a819190614edd565b611a8b9190614e00565b611a959190614e00565b811115611ab5576040516337b481d960e01b815260040160405180910390fd5b611ac0816000613735565b6040518181527f4f5745f9a8198fa6e603922d263d7e2a62c3ac2ea9791f1f4679e40bdad52edd906020015b60405180910390a1505050565b60008051602061549c833981519152611b11816131ea565b8160005b8181101561165d576000858583818110611b3157611b31614dd1565b905060600201803603810190611b479190614fea565b60208101519091506000819003611b5f575050611d3a565b81516001600160a01b03811660009081526012602052604090205460ff16611b9a57604051632df15a4160e11b815260040160405180910390fd5b611ba58260006135b9565b611c3b816001600160a01b031663a8c62e766040518163ffffffff1660e01b8152600401602060405180830381865afa158015611be6573d6000803e3d6000fd5b505050506040513d601f19601f82011682018060405250810190611c0a9190614e29565b6001600160a01b037f0000000000000000000000000000000000000000000000000000000000000000169084613747565b60408381015190516320e8c56560e01b81523060048201526001600160a01b037f000000000000000000000000000000000000000000000000000000000000000081166024830152600060448301526064820192909252908216906320e8c565906084016020604051808303816000875af1158015611cbe573d6000803e3d6000fd5b505050506040513d601f19601f82011682018060405250810190611ce29190614edd565b508160106000828254611cf59190614d60565b90915550506040517f46a80100e8cfe18c4729e50ad8704a292622bb8b711d9b6e915a1911f349206490611d2e90339084908690615006565b60405180910390a15050505b611d4381614de7565b9050611b15565b6002546001600160a01b03163314611d995760405162461bcd60e51b815260206004820152601260248201527127a7262cafa822a72224a723afa7aba722a960711b6044820152606401610d49565b600180546002546001600160a01b031982166001600160a01b039182161790925516611dc6600082613278565b611dde6000805160206154bc83398151915282613278565b611df660008051602061549c83398151915282613278565b600154611e0e906000906001600160a01b03166131f4565b600154611e33906000805160206154bc833981519152906001600160a01b03166131f4565b600154611e589060008051602061549c833981519152906001600160a01b03166131f4565b6001546040517f8be0079c531659141344cd1fd0a4f28419497f9722a3daafe3b4186f6b6457e09161185b9184916001600160a01b03169061502a565b6000611e9f610edc565b90506000611eac33611866565b905080600003611eba575050565b611ec43382613766565b60008282601154611ed59190615044565b611edf9190615063565b9050611eec8160006135b9565b611f206001600160a01b037f0000000000000000000000000000000000000000000000000000000000000000163383613747565b60135460005b8181101561165d57600060138281548110611f4357611f43614dd1565b60009182526020822001546040516370a0823160e01b81526001600160a01b03909116925082906370a0823190611f7e903090600401614a82565b602060405180830381865afa158015611f9b573d6000803e3d6000fd5b505050506040513d601f19601f82011682018060405250810190611fbf9190614edd565b9050600087611fce8389615044565b611fd89190615063565b905080600003611fea57505050612002565b611ffe6001600160a01b0384163383613747565b5050505b61200b81614de7565b9050611f26565b60008061201d610edc565b90508015610c1157610c0c816120316127ab565b859190612e51565b6000918252602082815260408084206001600160a01b0393909316845291905290205460ff1690565b600061206d8361242d565b90506120a46001600160a01b037f000000000000000000000000000000000000000000000000000000000000000016333084613610565b6120ae8284613668565b816001600160a01b0316336001600160a01b031660008051602061551c83398151915283866040516120e1929190614ecf565b60405180910390a3610b4e8184613735565b6000806120ff336138a2565b60405163a9059cbb60e01b815291935091506001600160a01b037f0000000000000000000000000000000000000000000000000000000000000000169063a9059cbb906121529086908690600401615085565b6020604051808303816000875af1158015612171573d6000803e3d6000fd5b505050506040513d601f19601f82011682018060405250810190612195919061509e565b50336001600160a01b0316836001600160a01b0316336001600160a01b03166000805160206154dc83398151915285856040516121d3929190614ecf565b60405180910390a450919050565b6060600a8054610b6390614d73565b6000600e816122056040860160208701614919565b6001600160a01b0316815260208082019290925260409081016000208151606081018352905461ffff80821683526201000082041693820193909352600160201b90920460ff16158015918301919091529091508061227c5750805161ffff1661227560808501606086016150bb565b61ffff1614155b156122ab576122916040840160208501614919565b6040516368692cbb60e11b8152600401610d499190614a82565b60208181015161ffff9081166000908152600f835260408082207f00000000000000000000000000000000000000000000000000000000000000009093168252919092529020546001600160a01b0316331461231c57336040516306e02ebd60e11b8152600401610d499190614a82565b612326828461396a565b61233660808401606085016150bb565b61ffff1661234a6040850160208601614919565b6001600160a01b03167f649c8deb433503a93e61cbf3bd7afd938e936ce85fcf81928ab240068c6643a58560000135853360405161238a93929190615110565b60405180910390a3505050565b600033816123a58286612940565b9050838110156124055760405162461bcd60e51b815260206004820152602560248201527f45524332303a2064656372656173656420616c6c6f77616e63652062656c6f77604482015264207a65726f60d81b6064820152608401610d49565b6110a38286868403612e70565b600033610c2881858561302e565b61242a8133610c59565b50565b600080612438610edc565b90508015610c1157610c0c61244b610b06565b849083612f8c565b600060405163d623472560e01b815260040160405180910390fd5b60008061247a83611866565b9050600061248782610be6565b9050600061249483612d0e565b90508082116124a357816124a5565b805b95945050505050565b6001546001600160a01b031633146124d85760405162461bcd60e51b8152600401610d4990614dad565b565b60006124e5836120f3565b949350505050565b6000610b18336120f3565b60008051602061549c833981519152612510816131ea565b8160005b8181101561165d57600085858381811061253057612530614dd1565b9050606002018036038101906125469190614fea565b6020810151909150600081900361255e5750506126a7565b81516001600160a01b03811660009081526012602052604090205460ff1661259957604051632df15a4160e11b815260040160405180910390fd5b604083810151905163f3f094a160e01b8152306004820152602481018490526001600160a01b037f000000000000000000000000000000000000000000000000000000000000000081166044830152606482019290925260009183169063f3f094a1906084016020604051808303816000875af115801561261e573d6000803e3d6000fd5b505050506040513d601f19601f820116820180604052508101906126429190614edd565b905080601060008282546126569190614e00565b909155506126679050816000613735565b7f60e3ebbed9f935b37adbc6b7a8ad559873ced28247296a76a4d3b81a9e5eb19a33838360405161269a93929190615006565b60405180910390a1505050505b6126b081614de7565b9050612514565b60606013805480602002602001604051908101604052809291908181526020018280548015610bdc57602002820191906000526020600020905b81546001600160a01b031681526001909101906020018083116126f1575050505050905090565b600080612723610edc565b90508015610c1157610c0c81612031610b06565b6014818154811061274757600080fd5b6000918252602090912001546001600160a01b0316905081565b6000610b4e61047a83611866565b6001546001600160a01b031633146127995760405162461bcd60e51b8152600401610d4990614dad565b6127a584848484613a0b565b50505050565b601354600090815b8181101561286b576000601382815481106127d0576127d0614dd1565b600091825260209091200154604051633e64257560e01b81526001600160a01b0390911691508190633e6425759061280c903090600401614a82565b602060405180830381865afa158015612829573d6000803e3d6000fd5b505050506040513d601f19601f8201168201806040525081019061284d9190614edd565b6128579085614d60565b9350508061286490614de7565b90506127b3565b506040516370a0823160e01b81526001600160a01b037f000000000000000000000000000000000000000000000000000000000000000016906370a08231906128b8903090600401614a82565b602060405180830381865afa1580156128d5573d6000803e3d6000fd5b505050506040513d601f19601f820116820180604052508101906128f99190614edd565b6129039083614d60565b91505090565b612912826110ae565b61291b816131ea565b6111638383613278565b6013818154811061274757600080fd5b6000610b4e82611866565b6001600160a01b03918216600090815260076020908152604080832093909416825291909152205490565b60008051602061549c833981519152612983816131ea565b600061298d613b53565b905060006011548261299f9190614d60565b90506129ac858286613c1a565b61165d82613c5f565b336000908152600d6020526040812060018101546002820154836129d883610be6565b9050818110156129ed57600094505050505090565b816129f88183614e00565b612a0a90670de0b6b3a7640000615044565b612a149190615063565b94505050505090565b336000908152600d60205260408120600181015460028201549192909190612a4483610be6565b90506000846002018190555081600c6000828254612a629190614e00565b909155505081811015612a7a576127a530338561302e565b600081612a878486615044565b612a919190615063565b90506000612a9f8286614e00565b9050612aac30338461302e565b612ab63082613766565b505050505050565b600080612ac9610edc565b9050600083612ad6610b06565b612ae09190614e00565b905080600003612af257509192915050565b8115612b0857612b03848383612e51565b6124e5565b509192915050565b6000610b4e82612718565b6001546001600160a01b03163314612b455760405162461bcd60e51b8152600401610d4990614dad565b600580546001600160a01b0319166001600160a01b0383169081179091556040517fcb7ef3e545f5cdb893f5c568ba710fe08f336375a2d9fd66e161033f8fc09ef390600090a250565b6001546001600160a01b03163314612bb95760405162461bcd60e51b8152600401610d4990614dad565b6001600160a01b0382166000908152600e602090815260408083208151606081018352905461ffff80821680845262010000830490911694830194909452600160201b900460ff161515918101919091529103612c2b5782604051634ae8435d60e01b8152600401610d499190614a82565b6001600160a01b0383166000818152600e6020908152604091829020805463ffff000019166201000061ffff88169081029190911790915591519182527f1f97e73f29802f056373306e9e3198b79119f446f1b9595d0752ebc2a9146f2e9101611351565b6001546001600160a01b03163314612cba5760405162461bcd60e51b8152600401610d4990614dad565b600280546001600160a01b0319166001600160a01b038381169182179092556001546040517fb150023a879fd806e3599b6ca8ee3b60f0e360ab3846d128d67ebce1a391639a9361185b939216919061502a565b600080612d19610edc565b90508015610c1157610c0c610c046127ab565b6001546001600160a01b03163314612d565760405162461bcd60e51b8152600401610d4990614dad565b66b1a2bc2ec50000811115612d7e57604051635b94d8b160e01b815260040160405180910390fd5b60048190556040518181527fd87632b1c6ebfa21acbca0e3279b3cf6385a377cb8fda51e5b866baa6e6012ab9060200161185b565b6001546001600160a01b03163314612ddd5760405162461bcd60e51b8152600401610d4990614dad565b612e1d8383838080601f016020809104026020016040519081016040528093929190818152602001838380828437600092019190915250613e0992505050565b507fa9f1cb7eee5fc621e043c1ef431febb0f901998a6c0cbdf70147b0fe4d9f5a6a838383604051611aec9392919061513d565b828202811515841585830485141716612e6957600080fd5b0492915050565b6001600160a01b038316612ed25760405162461bcd60e51b8152602060048201526024808201527f45524332303a20617070726f76652066726f6d20746865207a65726f206164646044820152637265737360e01b6064820152608401610d49565b6001600160a01b038216612f335760405162461bcd60e51b815260206004820152602260248201527f45524332303a20617070726f766520746f20746865207a65726f206164647265604482015261737360f01b6064820152608401610d49565b6001600160a01b0383811660008181526007602090815260408083209487168084529482529182902085905590518481527f8c5be1e5ebec7d5bd14f71427d1e84f3dd0314c0f7b2291e5b200ac8c7c3b925910161238a565b828202811515841585830485141716612fa457600080fd5b6001826001830304018115150290509392505050565b6000612fc68484612940565b905060001981146127a557818110156130215760405162461bcd60e51b815260206004820152601d60248201527f45524332303a20696e73756666696369656e7420616c6c6f77616e63650000006044820152606401610d49565b6127a58484848403612e70565b6001600160a01b0383166130925760405162461bcd60e51b815260206004820152602560248201527f45524332303a207472616e736665722066726f6d20746865207a65726f206164604482015264647265737360d81b6064820152608401610d49565b6001600160a01b0382166130f45760405162461bcd60e51b815260206004820152602360248201527f45524332303a207472616e7366657220746f20746865207a65726f206164647260448201526265737360e81b6064820152608401610d49565b6001600160a01b0383166000908152600660205260409020548181101561316c5760405162461bcd60e51b815260206004820152602660248201527f45524332303a207472616e7366657220616d6f756e7420657863656564732062604482015265616c616e636560d01b6064820152608401610d49565b6001600160a01b038085166000908152600660205260408082208585039055918516815290812080548492906131a3908490614d60565b92505081905550826001600160a01b0316846001600160a01b03166000805160206154fc833981519152846040516131dd91815260200190565b60405180910390a36127a5565b61242a8133613e4b565b6131fe8282612039565b61127b576000828152602081815260408083206001600160a01b03851684529091529020805460ff191660011790556132343390565b6001600160a01b0316816001600160a01b0316837f2f8788117e7eff1d82e926ec794901d17c78024a50270940304540a733656f0d60405160405180910390a45050565b6132828282612039565b1561127b576000828152602081815260408083206001600160a01b0385168085529252808320805460ff1916905551339285917ff6391f5c32d9c69d2a47ea670b442974b53935d1edc7fd64eb21e047a839171b9190a45050565b6000806132e9836138a2565b90925090506132f83082613766565b826001600160a01b0316836001600160a01b0316846001600160a01b03166000805160206154dc83398151915285856040516121d3929190614ecf565b6020838101805161ffff9081166000908152600f80855260408083207f000000000000000000000000000000000000000000000000000000000000000085168452865280832054945184168352908552808220885190931682529190935291829020548551925163639cd8f960e01b81526001600160a01b03928316939290911691839163639cd8f9916133d39188918b9187918a9160040161517d565b600060405180830381600087803b1580156133ed57600080fd5b505af1158015613401573d6000803e3d6000fd5b50505050846000015161ffff16866001600160a01b03167ff3617f26552d0e4bd64927d1a7fe0d18f2278f99e2446ad6ac8f0a73c38840d88660000151868660405161344f93929190615110565b60405180910390a3505050505050565b60008051602061549c833981519152613477816131ea565b6134bb83838080601f0160208091040260200160405190810160405280939291908181526020018383808284376000920191909152508892508d91508a9050613eaf565b60405163095ea7b360e01b81526001600160a01b038a169063095ea7b3906134e9908b908990600401615085565b6020604051808303816000875af1158015613508573d6000803e3d6000fd5b505050506040513d601f19601f8201168201806040525081019061352c919061509e565b506000876001600160a01b031684846040516135499291906151ee565b6000604051808303816000865af19150503d8060008114613586576040519150601f19603f3d011682016040523d82523d6000602084013e61358b565b606091505b50509050806135ad5760405163e0fec00360e01b815260040160405180910390fd5b50505050505050505050565b8160115410806135d75750600c54826011546135d59190614e00565b105b156135f55760405163078cc1fb60e01b815260040160405180910390fd5b81601160008282546136079190614e00565b90915550505050565b6127a5846323b872dd60e01b85858560405160240161363193929190615006565b60408051601f198184030181529190526020810180516001600160e01b03166001600160e01b031990931692909217909152613fc6565b6001600160a01b0382166136be5760405162461bcd60e51b815260206004820152601f60248201527f45524332303a206d696e7420746f20746865207a65726f2061646472657373006044820152606401610d49565b80600860008282546136d09190614d60565b90915550506001600160a01b038216600090815260066020526040812080548392906136fd908490614d60565b90915550506040518181526001600160a01b038316906000906000805160206154fc8339815191529060200160405180910390a35050565b81601160008282546136079190614d60565b6111638363a9059cbb60e01b8484604051602401613631929190615085565b6001600160a01b0382166137c65760405162461bcd60e51b815260206004820152602160248201527f45524332303a206275726e2066726f6d20746865207a65726f206164647265736044820152607360f81b6064820152608401610d49565b6001600160a01b0382166000908152600660205260409020548181101561383a5760405162461bcd60e51b815260206004820152602260248201527f45524332303a206275726e20616d6f756e7420657863656564732062616c616e604482015261636560f01b6064820152608401610d49565b6001600160a01b0383166000908152600660205260408120838303905560088054849290613869908490614e00565b90915550506040518281526000906001600160a01b038516906000805160206154fc8339815191529060200160405180910390a3505050565b6001600160a01b0381166000908152600d60205260408120600281015482919082036138e157604051631f2a200560e01b815260040160405180910390fd5b600b5481541061390457604051634a44555360e11b815260040160405180910390fd5b60018101546002820154909250600061391c84610be6565b905081811061392b578161392d565b805b945081600c60008282546139419190614e00565b90915550613951905085856135b9565b600060028401556139623085613766565b505050915091565b600182600481111561397e5761397e6150d8565b0361398c5761127b81614098565b60048260048111156139a0576139a06150d8565b036139ae5761127b816140d9565b60028260048111156139c2576139c26150d8565b036139d05761127b816141b1565b60038260048111156139e4576139e46150d8565b036139f25761127b8161427b565b60405163d623472560e01b815260040160405180910390fd5b6001546001600160a01b03163314613a355760405162461bcd60e51b8152600401610d4990614dad565b6001600160a01b0384166000908152600e60209081526040918290208251606081018452905461ffff80821680845262010000830490911693830193909352600160201b900460ff1615159281019290925215613aa557604051630cb3e97f60e31b815260040160405180910390fd5b6040805160608101825261ffff86811680835286821660208085019182528715158587019081526001600160a01b038c166000818152600e845288902096518754945192511515600160201b0260ff60201b19938816620100000263ffffffff199096169190971617939093171693909317909355925192835290917fdfdecea9ea3fba2ae2104af96f9be11589a507814dfd462dadc83c581da372b0910160405180910390a25050505050565b601354600090815b81811015613c1557600060138281548110613b7857613b78614dd1565b600091825260209091200154604051631132ffbf60e11b81526001600160a01b0390911691508190632265ff7e90613bb4903090600401614a82565b6020604051808303816000875af1158015613bd3573d6000803e3d6000fd5b505050506040513d601f19601f82011682018060405250810190613bf79190614edd565b613c019085614d60565b93505080613c0e90614de7565b9050613b5b565b505090565b6000828411613c3257613c2d8484614e00565b613c3c565b613c3c8385614e00565b9050818111156127a557604051638199f5f360e01b815260040160405180910390fd5b600c546011541015613c845760405163078cc1fb60e01b815260040160405180910390fd5b60006010548211613c96576000613ca3565b601054613ca39083614e00565b6011549091504290600090613cb89085614d60565b6010859055905060008315613ced57670de0b6b3a764000060035485613cde9190615044565b613ce89190615063565b613cf0565b60005b90506000600454600014613d4b576301e13380670de0b6b3a7640000600b5486613d1a9190614e00565b85600454613d289190615044565b613d329190615044565b613d3c9190615063565b613d469190615063565b613d4e565b60005b90506000613d5c8284614d60565b905060008115613d9c57613d83613d71610edc565b613d7b8488614e00565b849190612e51565b600554909150613d9c906001600160a01b031682613668565b600554604080518981526020810187905290810185905260608101839052608081018790526001600160a01b03909116907feaedd1267621f4a8ee97011faf0e67800ad3063714bd179f078c980bb9a3fa3d9060a00160405180910390a2505050600b9290925550505050565b6060610c1383836040518060400160405280601e81526020017f416464726573733a206c6f772d6c6576656c2063616c6c206661696c6564000081525061432f565b613e558282612039565b61127b57613e6d816001600160a01b0316601461433e565b613e7883602061433e565b604051602001613e899291906151fe565b60408051601f198184030181529082905262461bcd60e51b8252610d499160040161485c565b613eb7614788565b613ec0856144d9565b905083816020015114613f075760405162461bcd60e51b815260206004820152600f60248201526e125b9d985b1a590818da185a5b9259608a1b6044820152606401610d49565b816001600160a01b031681600001516001600160a01b031614613f675760405162461bcd60e51b8152602060048201526018602482015277496e76616c6964207265636569766572206164647265737360401b6044820152606401610d49565b826001600160a01b03168160800151604001516001600160a01b03161461165d5760405162461bcd60e51b815260206004820152601360248201527224b73b30b634b21034b7383aba103a37b5b2b760691b6044820152606401610d49565b600061401b826040518060400160405280602081526020017f5361666545524332303a206c6f772d6c6576656c2063616c6c206661696c6564815250856001600160a01b031661432f9092919063ffffffff16565b8051909150156111635780806020019051810190614039919061509e565b6111635760405162461bcd60e51b815260206004820152602a60248201527f5361666545524332303a204552433230206f7065726174696f6e20646964206e6044820152691bdd081cdd58d8d9595960b21b6064820152608401610d49565b6015805460018101825560009190915281906003027f55f448fdea98c4d29eb340757ef0a66cd03dbb9538908a6a81d96026b71ec47501611163828261528d565b60006140ee6105df6040840160208501614919565b90506000600e816141056040860160208701614919565b6001600160a01b0316815260208082019290925260409081016000208151606081018352905461ffff80821683526201000082041682850152600160201b900460ff16151581830152925061116391614162918601908601614919565b6040805160808101825285815230602082015260009181019190915261ffff7f000000000000000000000000000000000000000000000000000000000000000016606082015283906004613335565b600d60006141c56040840160208501614919565b6001600160a01b03166001600160a01b03168152602001908152602001600020600201546000036142355760146142026040830160208401614919565b81546001810183556000928352602090922090910180546001600160a01b0319166001600160a01b039092169190911790555b600061424a61070d6040840160208501614919565b90506000606461425b838535615044565b6142659190615063565b9050611163816104b36040860160208701614919565b6000606461429261070d6040850160208601614919565b61429d908435615044565b6142a79190615063565b90506142d26142bc6040840160208501614919565b6142cc6060850160408601614919565b8361302e565b7ff24ef89f38eadc1bde50701ad6e4d6d11a2dc24f7cf834a486991f38833285046143036040840160208501614919565b6143136060850160408601614919565b8360405161432393929190615006565b60405180910390a15050565b60606124e58484600085614511565b6060600061434d836002615044565b614358906002614d60565b6001600160401b0381111561436f5761436f614ef6565b6040519080825280601f01601f191660200182016040528015614399576020820181803683370190505b509050600360fc1b816000815181106143b4576143b4614dd1565b60200101906001600160f81b031916908160001a905350600f60fb1b816001815181106143e3576143e3614dd1565b60200101906001600160f81b031916908160001a9053506000614407846002615044565b614412906001614d60565b90505b600181111561448a576f181899199a1a9b1b9c1cb0b131b232b360811b85600f166010811061444657614446614dd1565b1a60f81b82828151811061445c5761445c614dd1565b60200101906001600160f81b031916908160001a90535060049490941c93614483816152f6565b9050614415565b508315610c135760405162461bcd60e51b815260206004820181905260248201527f537472696e67733a20686578206c656e67746820696e73756666696369656e746044820152606401610d49565b6144e1614788565b60006144fb8360048086516144f69190614e00565b614642565b905080806020019051810190610c1391906153d0565b6060824710156145725760405162461bcd60e51b815260206004820152602660248201527f416464726573733a20696e73756666696369656e742062616c616e636520666f6044820152651c8818d85b1b60d21b6064820152608401610d49565b6001600160a01b0385163b6145c95760405162461bcd60e51b815260206004820152601d60248201527f416464726573733a2063616c6c20746f206e6f6e2d636f6e74726163740000006044820152606401610d49565b600080866001600160a01b031685876040516145e59190615489565b60006040518083038185875af1925050503d8060008114614622576040519150601f19603f3d011682016040523d82523d6000602084013e614627565b606091505b509150915061463782828661474f565b979650505050505050565b60608161465081601f614d60565b101561468f5760405162461bcd60e51b815260206004820152600e60248201526d736c6963655f6f766572666c6f7760901b6044820152606401610d49565b6146998284614d60565b845110156146dd5760405162461bcd60e51b8152602060048201526011602482015270736c6963655f6f75744f66426f756e647360781b6044820152606401610d49565b6060821580156146fc5760405191506000825260208201604052614746565b6040519150601f8416801560200281840101858101878315602002848b0101015b8183101561473557805183526020928301920161471d565b5050858452601f01601f1916604052505b50949350505050565b6060831561475e575081610c13565b82511561476e5782518084602001fd5b8160405162461bcd60e51b8152600401610d49919061485c565b6040518060a0016040528060006001600160a01b0316815260200160008152602001600081526020016147e56040518060800160405280600081526020016000815260200160006001600160a01b03168152602001606081525090565b815260408051608081018252600080825260208281018290529282015260608082015291015290565b60006020828403121561482057600080fd5b81356001600160e01b031981168114610c1357600080fd5b60005b8381101561485357818101518382015260200161483b565b50506000910152565b602081526000825180602084015261487b816040850160208701614838565b601f01601f19169190910160400192915050565b6000602082840312156148a157600080fd5b5035919050565b6001600160a01b038116811461242a57600080fd5b600080604083850312156148d057600080fd5b82356148db816148a8565b946020939093013593505050565b600080604083850312156148fc57600080fd5b82359150602083013561490e816148a8565b809150509250929050565b60006020828403121561492b57600080fd5b8135610c13816148a8565b60008060006060848603121561494b57600080fd5b8335614956816148a8565b92506020840135614966816148a8565b929592945050506040919091013590565b801515811461242a57600080fd5b6000806040838503121561499857600080fd5b82356149a3816148a8565b9150602083013561490e81614977565b61ffff8116811461242a57600080fd5b6000806000606084860312156149d857600080fd5b83356149e3816149b3565b925060208401356149f3816149b3565b91506040840135614a03816148a8565b809150509250925092565b60008060208385031215614a2157600080fd5b82356001600160401b0380821115614a3857600080fd5b818501915085601f830112614a4c57600080fd5b813581811115614a5b57600080fd5b8660208260051b8501011115614a7057600080fd5b60209290920196919550909350505050565b6001600160a01b0391909116815260200190565b60008083601f840112614aa857600080fd5b5081356001600160401b03811115614abf57600080fd5b602083019150836020606083028501011115614ada57600080fd5b9250929050565b60008060208385031215614af457600080fd5b82356001600160401b03811115614b0a57600080fd5b614b1685828601614a96565b90969095509350505050565b60008082840360a0811215614b3657600080fd5b6080811215614b4457600080fd5b5082915060808301356005811061490e57600080fd5b60008060408385031215614b6d57600080fd5b8235614b78816149b3565b9150602083013561490e816149b3565b600080600060608486031215614b9d57600080fd5b8335925060208401356149f3816148a8565b6020808252825182820181905260009190848201906040850190845b81811015614bf05783516001600160a01b031683529284019291840191600101614bcb565b50909695505050505050565b60008060008060808587031215614c1257600080fd5b8435614c1d816148a8565b93506020850135614c2d816149b3565b92506040850135614c3d816149b3565b91506060850135614c4d81614977565b939692955090935050565b60008060408385031215614c6b57600080fd5b8235614c76816148a8565b9150602083013561490e816148a8565b60008060408385031215614c9957600080fd5b50508035926020909101359150565b60008060408385031215614cbb57600080fd5b8235614b78816148a8565b600080600060408486031215614cdb57600080fd5b8335614ce6816148a8565b925060208401356001600160401b0380821115614d0257600080fd5b818601915086601f830112614d1657600080fd5b813581811115614d2557600080fd5b876020828501011115614d3757600080fd5b6020830194508093505050509250925092565b634e487b7160e01b600052601160045260246000fd5b80820180821115610b4e57610b4e614d4a565b600181811c90821680614d8757607f821691505b602082108103614da757634e487b7160e01b600052602260045260246000fd5b50919050565b6020808252600a908201526927a7262cafa7aba722a960b11b604082015260600190565b634e487b7160e01b600052603260045260246000fd5b600060018201614df957614df9614d4a565b5060010190565b81810381811115610b4e57610b4e614d4a565b634e487b7160e01b600052603160045260246000fd5b600060208284031215614e3b57600080fd5b8151610c13816148a8565b600060208284031215614e5857600080fd5b815160ff81168114610c1357600080fd5b60008235609e19833603018112614e7f57600080fd5b9190910192915050565b6000808335601e19843603018112614ea057600080fd5b8301803591506001600160401b03821115614eba57600080fd5b602001915036819003821315614ada57600080fd5b918252602082015260400190565b600060208284031215614eef57600080fd5b5051919050565b634e487b7160e01b600052604160045260246000fd5b604051608081016001600160401b0381118282101715614f2e57614f2e614ef6565b60405290565b60405160a081016001600160401b0381118282101715614f2e57614f2e614ef6565b604051601f8201601f191681016001600160401b0381118282101715614f7e57614f7e614ef6565b604052919050565b600060608284031215614f9857600080fd5b604051606081016001600160401b0381118282101715614fba57614fba614ef6565b6040529050808235614fcb816148a8565b8082525060208301356020820152604083013560408201525092915050565b600060608284031215614ffc57600080fd5b610c138383614f86565b6001600160a01b039384168152919092166020820152604081019190915260600190565b6001600160a01b0392831681529116602082015260400190565b600081600019048311821515161561505e5761505e614d4a565b500290565b60008261508057634e487b7160e01b600052601260045260246000fd5b500490565b6001600160a01b03929092168252602082015260400190565b6000602082840312156150b057600080fd5b8151610c1381614977565b6000602082840312156150cd57600080fd5b8135610c13816149b3565b634e487b7160e01b600052602160045260246000fd5b6005811061510c57634e487b7160e01b600052602160045260246000fd5b9052565b8381526060810161512460208301856150ee565b6001600160a01b03929092166040919091015292915050565b6001600160a01b03841681526040602082018190528101829052818360608301376000818301606090810191909152601f909201601f1916010192915050565b60006101008201905086518252602087015160018060a01b0380821660208501528060408a01511660408501526060890151915061ffff8083166060860152818916608086015281881660a08601526151d960c08601886150ee565b80861660e08601525050509695505050505050565b8183823760009101908152919050565b76020b1b1b2b9b9a1b7b73a3937b61d1030b1b1b7bab73a1604d1b815260008351615230816017850160208801614838565b7001034b99036b4b9b9b4b733903937b6329607d1b6017918401918201528351615261816028840160208801614838565b01602801949350505050565b80546001600160a01b0319166001600160a01b0392909216919091179055565b81358155602082013561529f816148a8565b6152ac816001840161526d565b506002810160408301356152bf816148a8565b6152c9818361526d565b5060608301356152d8816149b3565b815461ffff60a01b191660a09190911b61ffff60a01b161790555050565b60008161530557615305614d4a565b506000190190565b60006080828403121561531f57600080fd5b615327614f0c565b905081518152602080830151818301526040830151615345816148a8565b604083015260608301516001600160401b038082111561536457600080fd5b818501915085601f83011261537857600080fd5b81518181111561538a5761538a614ef6565b61539c601f8201601f19168501614f56565b915080825286848285010111156153b257600080fd5b6153c181858401868601614838565b50606084015250909392505050565b6000602082840312156153e257600080fd5b81516001600160401b03808211156153f957600080fd5b9083019060a0828603121561540d57600080fd5b615415614f34565b8251615420816148a8565b80825250602083015160208201526040830151604082015260608301518281111561544a57600080fd5b6154568782860161530d565b60608301525060808301518281111561546e57600080fd5b61547a8782860161530d565b60808301525095945050505050565b60008251614e7f81846020870161483856feaf290d8680820aad922855f39b306097b20e28774d6c1ad35a20325630c3a02c8b5b16d04624687fcf0d0228f19993c9157c1ed07b41d8d430fd9100eb099fe8fbde797d201c681b91056529119e0b02407c7bb96a4a2c75c01fc9667232c8dbddf252ad1be2c89b69c2b068fc378daa952ba7f163c4a11628f55a4df523b3efdcbc1c05240f31ff3ad067ef1ee35ce4997762752e3a095284754544f4c709d7a26469706673582212204fb8c36820ea6c37f4b4bf72a7114e02b7eeeabb570ce95e03cc3c7e383ee5ed64736f6c63430008100033af290d8680820aad922855f39b306097b20e28774d6c1ad35a20325630c3a02c8b5b16d04624687fcf0d0228f19993c9157c1ed07b41d8d430fd9100eb099fe8",
  "devdoc": {
    "kind": "dev",
    "methods": {
      "acceptOwnership()": {
        "details": "Accept transfer of ownership of the contract. Can only be called by the pendingOwner."
      },
      "allowance(address,address)": {
        "details": "See {IERC20-allowance}."
      },
      "approve(address,uint256)": {
        "details": "See {IERC20-approve}. NOTE: If `amount` is the maximum `uint256`, the allowance is not updated on `transferFrom`. This is semantically equivalent to an infinite approval. Requirements: - `spender` cannot be the zero address."
      },
      "balanceOf(address)": {
        "details": "See {IERC20-balanceOf}."
      },
      "decimals()": {
        "details": "Returns the number of decimals used to get its user representation. For example, if `decimals` equals `2`, a balance of `505` tokens should be displayed to a user as `5.05` (`505 / 10 ** 2`). Tokens usually opt for a value of 18, imitating the relationship between Ether and Wei. This is the value {ERC20} uses, unless this function is overridden; NOTE: This information is only used for _display_ purposes: it in no way affects any of the arithmetic of the contract, including {IERC20-balanceOf} and {IERC20-transfer}."
      },
      "decreaseAllowance(address,uint256)": {
        "details": "Atomically decreases the allowance granted to `spender` by the caller. This is an alternative to {approve} that can be used as a mitigation for problems described in {IERC20-approve}. Emits an {Approval} event indicating the updated allowance. Requirements: - `spender` cannot be the zero address. - `spender` must have allowance for the caller of at least `subtractedValue`."
      },
      "estimateUnderlyingBalance(address)": {
        "details": "returns accurate value used to estimate current value"
      },
      "getRoleAdmin(bytes32)": {
        "details": "Returns the admin role that controls `role`. See {grantRole} and {revokeRole}. To change a role's admin, use {_setRoleAdmin}."
      },
      "grantRole(bytes32,address)": {
        "details": "Grants `role` to `account`. If `account` had not been already granted `role`, emits a {RoleGranted} event. Requirements: - the caller must have ``role``'s admin role. May emit a {RoleGranted} event."
      },
      "hasRole(bytes32,address)": {
        "details": "Returns `true` if `account` has been granted `role`."
      },
      "increaseAllowance(address,uint256)": {
        "details": "Atomically increases the allowance granted to `spender` by the caller. This is an alternative to {approve} that can be used as a mitigation for problems described in {IERC20-approve}. Emits an {Approval} event indicating the updated allowance. Requirements: - `spender` cannot be the zero address."
      },
      "name()": {
        "details": "Returns the name of the token."
      },
      "redeem()": {
        "details": "safest UI method"
      },
      "renounceRole(bytes32,address)": {
        "details": "Revokes `role` from the calling account. Roles are often managed via {grantRole} and {revokeRole}: this function's purpose is to provide a mechanism for accounts to lose their privileges if they are compromised (such as when a trusted device is misplaced). If the calling account had been revoked `role`, emits a {RoleRevoked} event. Requirements: - the caller must be `account`. May emit a {RoleRevoked} event."
      },
      "revokeRole(bytes32,address)": {
        "details": "Revokes `role` from `account`. If `account` had been granted `role`, emits a {RoleRevoked} event. Requirements: - the caller must have ``role``'s admin role. May emit a {RoleRevoked} event."
      },
      "setManagementFee(uint256)": {
        "params": {
          "_managementFee": "The new performance fee."
        }
      },
      "setPerformanceFee(uint256)": {
        "params": {
          "_performanceFee": "The new performance fee."
        }
      },
      "setTreasury(address)": {
        "params": {
          "_treasury": "New treasury address."
        }
      },
      "sharesToUnderlying(uint256)": {
        "details": "current exchange rate (different from previewDeposit rate) this should be used for estiamtes of withdrawals"
      },
      "supportsInterface(bytes4)": {
        "details": "See {IERC165-supportsInterface}."
      },
      "symbol()": {
        "details": "Returns the symbol of the token, usually a shorter version of the name."
      },
      "transfer(address,uint256)": {
        "details": "See {IERC20-transfer}. Requirements: - `to` cannot be the zero address. - the caller must have a balance of at least `amount`."
      },
      "transferFrom(address,address,uint256)": {
        "details": "See {IERC20-transferFrom}. Emits an {Approval} event indicating the updated allowance. This is not required by the EIP. See the note at the beginning of {ERC20}. NOTE: Does not update the allowance if the current allowance is the maximum `uint256`. Requirements: - `from` and `to` cannot be the zero address. - `from` must have a balance of at least `amount`. - the caller must have allowance for ``from``'s tokens of at least `amount`."
      },
      "transferOwnership(address)": {
        "details": "Init transfer of ownership of the contract to a new account (`_pendingOwner`).",
        "params": {
          "_pendingOwner": "pending owner of contract Can only be called by the current owner."
        }
      },
      "underlyingBalance(address)": {
        "details": "returns a cached value used for withdrawals"
      },
      "underlyingToShares(uint256)": {
        "details": "current exchange rate (different from previewDeposit / previewWithdrawal rate) this should be used estimate of deposit fee"
      }
    },
    "version": 1
  },
  "userdoc": {
    "events": {
      "SetManagementFee(uint256)": {
        "notice": "Emitted when management fee is updated."
      },
      "SetPerformanceFee(uint256)": {
        "notice": "Emitted when performance fee is updated."
      }
    },
    "kind": "user",
    "methods": {
      "GUARDIAN()": {
        "notice": "Update vault params, perform time-sensitive operations, set manager"
      },
      "MANAGER()": {
        "notice": "Hot-wallet bots that route funds between vaults, rebalance and harvest strategies"
      },
      "depositIntoStrategies((address,uint256,uint256)[])": {
        "notice": "this can be done in parts in case gas limit is reached"
      },
      "emergencyAction(address,bytes)": {
        "notice": "this method allows an arbitrary method to be called by the owner in case of emergency owner must be a timelock contract in order to allow users to redeem funds in case they suspect this action to be malicious"
      },
      "getPenalty()": {
        "notice": "UI method to view cancellation penalty"
      },
      "getTvl()": {
        "notice": "returns expected tvl (used for estimate)"
      },
      "harvest(uint256,uint256)": {
        "notice": "We compute expected tvl off-chain first, to ensure this transactions isn't sandwitched"
      },
      "managementFee()": {
        "notice": "Annual management fee."
      },
      "owner()": {
        "notice": "Add and remove vaults and strategies and other critical operations behind timelock Default admin role There should only be one owner, so it is not a role"
      },
      "performanceFee()": {
        "notice": "The percentage of profit recognized each harvest to reserve as fees."
      },
      "redeemIsReady(address)": {
        "notice": "UTILS"
      },
      "setManagementFee(uint256)": {
        "notice": "Sets a new performanceFee."
      },
      "setPerformanceFee(uint256)": {
        "notice": "Sets a new performanceFee."
      },
      "setTreasury(address)": {
        "notice": "Updates treasury."
      },
      "treasury()": {
        "notice": "address where all fees are sent to"
      },
      "withdrawFromStrategies((address,uint256,uint256)[])": {
        "notice": "this can be done in parts in case gas limit is reached"
      }
    },
    "version": 1
  },
  "storageLayout": {
    "storage": [
      {
        "astId": 1634,
        "contract": "src/vaults/SectorVault.sol:SectorVault",
        "label": "_roles",
        "offset": 0,
        "slot": "0",
        "type": "t_mapping(t_bytes32,t_struct(RoleData)1629_storage)"
      },
      {
        "astId": 15515,
        "contract": "src/vaults/SectorVault.sol:SectorVault",
        "label": "owner",
        "offset": 0,
        "slot": "1",
        "type": "t_address"
      },
      {
        "astId": 15517,
        "contract": "src/vaults/SectorVault.sol:SectorVault",
        "label": "pendingOwner",
        "offset": 0,
        "slot": "2",
        "type": "t_address"
      },
      {
        "astId": 15859,
        "contract": "src/vaults/SectorVault.sol:SectorVault",
        "label": "performanceFee",
        "offset": 0,
        "slot": "3",
        "type": "t_uint256"
      },
      {
        "astId": 15862,
        "contract": "src/vaults/SectorVault.sol:SectorVault",
        "label": "managementFee",
        "offset": 0,
        "slot": "4",
        "type": "t_uint256"
      },
      {
        "astId": 15865,
        "contract": "src/vaults/SectorVault.sol:SectorVault",
        "label": "treasury",
        "offset": 0,
        "slot": "5",
        "type": "t_address"
      },
      {
        "astId": 2171,
        "contract": "src/vaults/SectorVault.sol:SectorVault",
        "label": "_balances",
        "offset": 0,
        "slot": "6",
        "type": "t_mapping(t_address,t_uint256)"
      },
      {
        "astId": 2177,
        "contract": "src/vaults/SectorVault.sol:SectorVault",
        "label": "_allowances",
        "offset": 0,
        "slot": "7",
        "type": "t_mapping(t_address,t_mapping(t_address,t_uint256))"
      },
      {
        "astId": 2179,
        "contract": "src/vaults/SectorVault.sol:SectorVault",
        "label": "_totalSupply",
        "offset": 0,
        "slot": "8",
        "type": "t_uint256"
      },
      {
        "astId": 2181,
        "contract": "src/vaults/SectorVault.sol:SectorVault",
        "label": "_name",
        "offset": 0,
        "slot": "9",
        "type": "t_string_storage"
      },
      {
        "astId": 2183,
        "contract": "src/vaults/SectorVault.sol:SectorVault",
        "label": "_symbol",
        "offset": 0,
        "slot": "10",
        "type": "t_string_storage"
      },
      {
        "astId": 28769,
        "contract": "src/vaults/SectorVault.sol:SectorVault",
        "label": "lastHarvestTimestamp",
        "offset": 0,
        "slot": "11",
        "type": "t_uint256"
      },
      {
        "astId": 28771,
        "contract": "src/vaults/SectorVault.sol:SectorVault",
        "label": "pendingWithdraw",
        "offset": 0,
        "slot": "12",
        "type": "t_uint256"
      },
      {
        "astId": 28776,
        "contract": "src/vaults/SectorVault.sol:SectorVault",
        "label": "withdrawLedger",
        "offset": 0,
        "slot": "13",
        "type": "t_mapping(t_address,t_struct(WithdrawRecord)28753_storage)"
      },
      {
        "astId": 16182,
        "contract": "src/vaults/SectorVault.sol:SectorVault",
        "label": "addrBook",
        "offset": 0,
        "slot": "14",
        "type": "t_mapping(t_address,t_struct(Vault)16908_storage)"
      },
      {
        "astId": 16188,
        "contract": "src/vaults/SectorVault.sol:SectorVault",
        "label": "postmanAddr",
        "offset": 0,
        "slot": "15",
        "type": "t_mapping(t_uint16,t_mapping(t_uint16,t_address))"
      },
      {
        "astId": 30440,
        "contract": "src/vaults/SectorVault.sol:SectorVault",
        "label": "totalChildHoldings",
        "offset": 0,
        "slot": "16",
        "type": "t_uint256"
      },
      {
        "astId": 30442,
        "contract": "src/vaults/SectorVault.sol:SectorVault",
        "label": "floatAmnt",
        "offset": 0,
        "slot": "17",
        "type": "t_uint256"
      },
      {
        "astId": 31624,
        "contract": "src/vaults/SectorVault.sol:SectorVault",
        "label": "strategyExists",
        "offset": 0,
        "slot": "18",
        "type": "t_mapping(t_contract(ISCYStrategy)18709,t_bool)"
      },
      {
        "astId": 31627,
        "contract": "src/vaults/SectorVault.sol:SectorVault",
        "label": "strategyIndex",
        "offset": 0,
        "slot": "19",
        "type": "t_array(t_address)dyn_storage"
      },
      {
        "astId": 31630,
        "contract": "src/vaults/SectorVault.sol:SectorVault",
        "label": "bridgeQueue",
        "offset": 0,
        "slot": "20",
        "type": "t_array(t_address)dyn_storage"
      },
      {
        "astId": 31634,
        "contract": "src/vaults/SectorVault.sol:SectorVault",
        "label": "depositQueue",
        "offset": 0,
        "slot": "21",
        "type": "t_array(t_struct(Message)16901_storage)dyn_storage"
      },
      {
        "astId": 31636,
        "contract": "src/vaults/SectorVault.sol:SectorVault",
        "label": "totalStrategyHoldings",
        "offset": 0,
        "slot": "22",
        "type": "t_uint256"
      }
    ],
    "types": {
      "t_address": {
        "encoding": "inplace",
        "label": "address",
        "numberOfBytes": "20"
      },
      "t_array(t_address)dyn_storage": {
        "base": "t_address",
        "encoding": "dynamic_array",
        "label": "address[]",
        "numberOfBytes": "32"
      },
      "t_array(t_struct(Message)16901_storage)dyn_storage": {
        "base": "t_struct(Message)16901_storage",
        "encoding": "dynamic_array",
        "label": "struct Message[]",
        "numberOfBytes": "32"
      },
      "t_bool": {
        "encoding": "inplace",
        "label": "bool",
        "numberOfBytes": "1"
      },
      "t_bytes32": {
        "encoding": "inplace",
        "label": "bytes32",
        "numberOfBytes": "32"
      },
      "t_contract(ISCYStrategy)18709": {
        "encoding": "inplace",
        "label": "contract ISCYStrategy",
        "numberOfBytes": "20"
      },
      "t_mapping(t_address,t_bool)": {
        "encoding": "mapping",
        "key": "t_address",
        "label": "mapping(address => bool)",
        "numberOfBytes": "32",
        "value": "t_bool"
      },
      "t_mapping(t_address,t_mapping(t_address,t_uint256))": {
        "encoding": "mapping",
        "key": "t_address",
        "label": "mapping(address => mapping(address => uint256))",
        "numberOfBytes": "32",
        "value": "t_mapping(t_address,t_uint256)"
      },
      "t_mapping(t_address,t_struct(Vault)16908_storage)": {
        "encoding": "mapping",
        "key": "t_address",
        "label": "mapping(address => struct Vault)",
        "numberOfBytes": "32",
        "value": "t_struct(Vault)16908_storage"
      },
      "t_mapping(t_address,t_struct(WithdrawRecord)28753_storage)": {
        "encoding": "mapping",
        "key": "t_address",
        "label": "mapping(address => struct WithdrawRecord)",
        "numberOfBytes": "32",
        "value": "t_struct(WithdrawRecord)28753_storage"
      },
      "t_mapping(t_address,t_uint256)": {
        "encoding": "mapping",
        "key": "t_address",
        "label": "mapping(address => uint256)",
        "numberOfBytes": "32",
        "value": "t_uint256"
      },
      "t_mapping(t_bytes32,t_struct(RoleData)1629_storage)": {
        "encoding": "mapping",
        "key": "t_bytes32",
        "label": "mapping(bytes32 => struct AccessControl.RoleData)",
        "numberOfBytes": "32",
        "value": "t_struct(RoleData)1629_storage"
      },
      "t_mapping(t_contract(ISCYStrategy)18709,t_bool)": {
        "encoding": "mapping",
        "key": "t_contract(ISCYStrategy)18709",
        "label": "mapping(contract ISCYStrategy => bool)",
        "numberOfBytes": "32",
        "value": "t_bool"
      },
      "t_mapping(t_uint16,t_address)": {
        "encoding": "mapping",
        "key": "t_uint16",
        "label": "mapping(uint16 => address)",
        "numberOfBytes": "32",
        "value": "t_address"
      },
      "t_mapping(t_uint16,t_mapping(t_uint16,t_address))": {
        "encoding": "mapping",
        "key": "t_uint16",
        "label": "mapping(uint16 => mapping(uint16 => address))",
        "numberOfBytes": "32",
        "value": "t_mapping(t_uint16,t_address)"
      },
      "t_string_storage": {
        "encoding": "bytes",
        "label": "string",
        "numberOfBytes": "32"
      },
      "t_struct(Message)16901_storage": {
        "encoding": "inplace",
        "label": "struct Message",
        "members": [
          {
            "astId": 16894,
            "contract": "src/vaults/SectorVault.sol:SectorVault",
            "label": "value",
            "offset": 0,
            "slot": "0",
            "type": "t_uint256"
          },
          {
            "astId": 16896,
            "contract": "src/vaults/SectorVault.sol:SectorVault",
            "label": "sender",
            "offset": 0,
            "slot": "1",
            "type": "t_address"
          },
          {
            "astId": 16898,
            "contract": "src/vaults/SectorVault.sol:SectorVault",
            "label": "client",
            "offset": 0,
            "slot": "2",
            "type": "t_address"
          },
          {
            "astId": 16900,
            "contract": "src/vaults/SectorVault.sol:SectorVault",
            "label": "chainId",
            "offset": 20,
            "slot": "2",
            "type": "t_uint16"
          }
        ],
        "numberOfBytes": "96"
      },
      "t_struct(RoleData)1629_storage": {
        "encoding": "inplace",
        "label": "struct AccessControl.RoleData",
        "members": [
          {
            "astId": 1626,
            "contract": "src/vaults/SectorVault.sol:SectorVault",
            "label": "members",
            "offset": 0,
            "slot": "0",
            "type": "t_mapping(t_address,t_bool)"
          },
          {
            "astId": 1628,
            "contract": "src/vaults/SectorVault.sol:SectorVault",
            "label": "adminRole",
            "offset": 0,
            "slot": "1",
            "type": "t_bytes32"
          }
        ],
        "numberOfBytes": "64"
      },
      "t_struct(Vault)16908_storage": {
        "encoding": "inplace",
        "label": "struct Vault",
        "members": [
          {
            "astId": 16903,
            "contract": "src/vaults/SectorVault.sol:SectorVault",
            "label": "chainId",
            "offset": 0,
            "slot": "0",
            "type": "t_uint16"
          },
          {
            "astId": 16905,
            "contract": "src/vaults/SectorVault.sol:SectorVault",
            "label": "postmanId",
            "offset": 2,
            "slot": "0",
            "type": "t_uint16"
          },
          {
            "astId": 16907,
            "contract": "src/vaults/SectorVault.sol:SectorVault",
            "label": "allowed",
            "offset": 4,
            "slot": "0",
            "type": "t_bool"
          }
        ],
        "numberOfBytes": "32"
      },
      "t_struct(WithdrawRecord)28753_storage": {
        "encoding": "inplace",
        "label": "struct WithdrawRecord",
        "members": [
          {
            "astId": 28748,
            "contract": "src/vaults/SectorVault.sol:SectorVault",
            "label": "timestamp",
            "offset": 0,
            "slot": "0",
            "type": "t_uint256"
          },
          {
            "astId": 28750,
            "contract": "src/vaults/SectorVault.sol:SectorVault",
            "label": "shares",
            "offset": 0,
            "slot": "1",
            "type": "t_uint256"
          },
          {
            "astId": 28752,
            "contract": "src/vaults/SectorVault.sol:SectorVault",
            "label": "value",
            "offset": 0,
            "slot": "2",
            "type": "t_uint256"
          }
        ],
        "numberOfBytes": "96"
      },
      "t_uint16": {
        "encoding": "inplace",
        "label": "uint16",
        "numberOfBytes": "2"
      },
      "t_uint256": {
        "encoding": "inplace",
        "label": "uint256",
        "numberOfBytes": "32"
      }
    }
  }
}