{
  "address": "0x75079AcAEB581e28040A049cA780e543F722eBdf",
  "abi": [
    {
      "inputs": [
        {
          "internalType": "contract ERC20",
          "name": "asset_",
          "type": "address"
        },
        {
          "internalType": "string",
          "name": "_name",
          "type": "string"
        },
        {
          "internalType": "string",
          "name": "_symbol",
          "type": "string"
        },
        {
          "components": [
            {
              "internalType": "address",
              "name": "owner",
              "type": "address"
            },
            {
              "internalType": "address",
              "name": "guardian",
              "type": "address"
            },
            {
              "internalType": "address",
              "name": "manager",
              "type": "address"
            }
          ],
          "internalType": "struct AuthConfig",
          "name": "authConfig",
          "type": "tuple"
        },
        {
          "components": [
            {
              "internalType": "address",
              "name": "treasury",
              "type": "address"
            },
            {
              "internalType": "uint256",
              "name": "performanceFee",
              "type": "uint256"
            },
            {
              "internalType": "uint256",
              "name": "managementFee",
              "type": "uint256"
            }
          ],
          "internalType": "struct FeeConfig",
          "name": "feeConfig",
          "type": "tuple"
        }
      ],
      "stateMutability": "nonpayable",
      "type": "constructor"
    },
    {
      "inputs": [],
      "name": "BridgeError",
      "type": "error"
    },
    {
      "inputs": [],
      "name": "Expired",
      "type": "error"
    },
    {
      "inputs": [],
      "name": "MaxRedeemNotZero",
      "type": "error"
    },
    {
      "inputs": [],
      "name": "MinLiquidity",
      "type": "error"
    },
    {
      "inputs": [],
      "name": "MissingDepositValue",
      "type": "error"
    },
    {
      "inputs": [],
      "name": "MissingIncomingXFunds",
      "type": "error"
    },
    {
      "inputs": [
        {
          "internalType": "uint16",
          "name": "postmanId",
          "type": "uint16"
        },
        {
          "internalType": "uint256",
          "name": "chainId",
          "type": "uint256"
        }
      ],
      "name": "MissingPostman",
      "type": "error"
    },
    {
      "inputs": [],
      "name": "NotEnoughtFloat",
      "type": "error"
    },
    {
      "inputs": [],
      "name": "NotImplemented",
      "type": "error"
    },
    {
      "inputs": [],
      "name": "NotReady",
      "type": "error"
    },
    {
      "inputs": [],
      "name": "OverMaxFee",
      "type": "error"
    },
    {
      "inputs": [],
      "name": "SameChainOperation",
      "type": "error"
    },
    {
      "inputs": [
        {
          "internalType": "address",
          "name": "sender",
          "type": "address"
        }
      ],
      "name": "SenderNotAllowed",
      "type": "error"
    },
    {
      "inputs": [],
      "name": "SlippageExceeded",
      "type": "error"
    },
    {
      "inputs": [],
      "name": "StrategyExists",
      "type": "error"
    },
    {
      "inputs": [],
      "name": "StrategyNotFound",
      "type": "error"
    },
    {
      "inputs": [],
      "name": "VaultAddressNotMatch",
      "type": "error"
    },
    {
      "inputs": [],
      "name": "VaultAlreadyAdded",
      "type": "error"
    },
    {
      "inputs": [
        {
          "internalType": "address",
          "name": "vault",
          "type": "address"
        }
      ],
      "name": "VaultMissing",
      "type": "error"
    },
    {
      "inputs": [
        {
          "internalType": "address",
          "name": "vault",
          "type": "address"
        }
      ],
      "name": "VaultNotAllowed",
      "type": "error"
    },
    {
      "inputs": [
        {
          "internalType": "address",
          "name": "postman",
          "type": "address"
        }
      ],
      "name": "WrongPostman",
      "type": "error"
    },
    {
      "inputs": [],
      "name": "WrongUnderlying",
      "type": "error"
    },
    {
      "inputs": [],
      "name": "ZeroAmount",
      "type": "error"
    },
    {
      "anonymous": false,
      "inputs": [
        {
          "indexed": true,
          "internalType": "address",
          "name": "strategy",
          "type": "address"
        }
      ],
      "name": "AddStrategy",
      "type": "event"
    },
    {
      "anonymous": false,
      "inputs": [
        {
          "indexed": true,
          "internalType": "address",
          "name": "vault",
          "type": "address"
        },
        {
          "indexed": false,
          "internalType": "uint16",
          "name": "chainId",
          "type": "uint16"
        }
      ],
      "name": "AddedVault",
      "type": "event"
    },
    {
      "anonymous": false,
      "inputs": [
        {
          "indexed": true,
          "internalType": "address",
          "name": "owner",
          "type": "address"
        },
        {
          "indexed": true,
          "internalType": "address",
          "name": "spender",
          "type": "address"
        },
        {
          "indexed": false,
          "internalType": "uint256",
          "name": "value",
          "type": "uint256"
        }
      ],
      "name": "Approval",
      "type": "event"
    },
    {
      "anonymous": false,
      "inputs": [
        {
          "indexed": false,
          "internalType": "uint16",
          "name": "_fromChainId",
          "type": "uint16"
        },
        {
          "indexed": false,
          "internalType": "uint16",
          "name": "_toChainId",
          "type": "uint16"
        },
        {
          "indexed": false,
          "internalType": "uint256",
          "name": "amount",
          "type": "uint256"
        }
      ],
      "name": "BridgeAsset",
      "type": "event"
    },
    {
      "anonymous": false,
      "inputs": [
        {
          "indexed": true,
          "internalType": "address",
          "name": "vault",
          "type": "address"
        },
        {
          "indexed": false,
          "internalType": "bool",
          "name": "status",
          "type": "bool"
        }
      ],
      "name": "ChangedVaultStatus",
      "type": "event"
    },
    {
      "anonymous": false,
      "inputs": [
        {
          "indexed": true,
          "internalType": "address",
          "name": "sender",
          "type": "address"
        },
        {
          "indexed": true,
          "internalType": "address",
          "name": "owner",
          "type": "address"
        },
        {
          "indexed": false,
          "internalType": "uint256",
          "name": "assets",
          "type": "uint256"
        },
        {
          "indexed": false,
          "internalType": "uint256",
          "name": "shares",
          "type": "uint256"
        }
      ],
      "name": "Deposit",
      "type": "event"
    },
    {
      "anonymous": false,
      "inputs": [
        {
          "indexed": false,
          "internalType": "address",
          "name": "caller",
          "type": "address"
        },
        {
          "indexed": false,
          "internalType": "address",
          "name": "strategy",
          "type": "address"
        },
        {
          "indexed": false,
          "internalType": "uint256",
          "name": "amount",
          "type": "uint256"
        }
      ],
      "name": "DepositIntoStrategy",
      "type": "event"
    },
    {
      "anonymous": false,
      "inputs": [
        {
          "indexed": false,
          "internalType": "address",
          "name": "target",
          "type": "address"
        },
        {
          "indexed": false,
          "internalType": "bytes",
          "name": "callData",
          "type": "bytes"
        }
      ],
      "name": "EmergencyAction",
      "type": "event"
    },
    {
      "anonymous": false,
      "inputs": [
        {
          "indexed": false,
          "internalType": "address",
          "name": "vault",
          "type": "address"
        },
        {
          "indexed": false,
          "internalType": "address",
          "name": "client",
          "type": "address"
        },
        {
          "indexed": false,
          "internalType": "uint256",
          "name": "shares",
          "type": "uint256"
        }
      ],
      "name": "EmergencyWithdraw",
      "type": "event"
    },
    {
      "anonymous": false,
      "inputs": [
        {
          "indexed": true,
          "internalType": "address",
          "name": "treasury",
          "type": "address"
        },
        {
          "indexed": false,
          "internalType": "uint256",
          "name": "underlyingProfit",
          "type": "uint256"
        },
        {
          "indexed": false,
          "internalType": "uint256",
          "name": "performanceFee",
          "type": "uint256"
        },
        {
          "indexed": false,
          "internalType": "uint256",
          "name": "managementFee",
          "type": "uint256"
        },
        {
          "indexed": false,
          "internalType": "uint256",
          "name": "sharesFees",
          "type": "uint256"
        },
        {
          "indexed": false,
          "internalType": "uint256",
          "name": "tvl",
          "type": "uint256"
        }
      ],
      "name": "Harvest",
      "type": "event"
    },
    {
      "anonymous": false,
      "inputs": [
        {
          "indexed": false,
          "internalType": "uint256",
          "name": "value",
          "type": "uint256"
        },
        {
          "indexed": true,
          "internalType": "address",
          "name": "sender",
          "type": "address"
        },
        {
          "indexed": true,
          "internalType": "uint16",
          "name": "srcChainId",
          "type": "uint16"
        },
        {
          "indexed": false,
          "internalType": "enum MessageType",
          "name": "mType",
          "type": "uint8"
        },
        {
          "indexed": false,
          "internalType": "address",
          "name": "postman",
          "type": "address"
        }
      ],
      "name": "MessageReceived",
      "type": "event"
    },
    {
      "anonymous": false,
      "inputs": [
        {
          "indexed": false,
          "internalType": "uint256",
          "name": "value",
          "type": "uint256"
        },
        {
          "indexed": true,
          "internalType": "address",
          "name": "receiver",
          "type": "address"
        },
        {
          "indexed": true,
          "internalType": "uint16",
          "name": "dstChainId",
          "type": "uint16"
        },
        {
          "indexed": false,
          "internalType": "enum MessageType",
          "name": "mtype",
          "type": "uint8"
        },
        {
          "indexed": false,
          "internalType": "address",
          "name": "postman",
          "type": "address"
        }
      ],
      "name": "MessageSent",
      "type": "event"
    },
    {
      "anonymous": false,
      "inputs": [
        {
          "indexed": false,
          "internalType": "address",
          "name": "owner",
          "type": "address"
        },
        {
          "indexed": false,
          "internalType": "address",
          "name": "pendingOwner",
          "type": "address"
        }
      ],
      "name": "OwnershipTransferInitiated",
      "type": "event"
    },
    {
      "anonymous": false,
      "inputs": [
        {
          "indexed": false,
          "internalType": "address",
          "name": "oldOwner",
          "type": "address"
        },
        {
          "indexed": false,
          "internalType": "address",
          "name": "newOwner",
          "type": "address"
        }
      ],
      "name": "OwnershipTransferred",
      "type": "event"
    },
    {
      "anonymous": false,
      "inputs": [
        {
          "indexed": true,
          "internalType": "uint16",
          "name": "postmanId",
          "type": "uint16"
        },
        {
          "indexed": false,
          "internalType": "uint16",
          "name": "chanId",
          "type": "uint16"
        },
        {
          "indexed": false,
          "internalType": "address",
          "name": "postman",
          "type": "address"
        }
      ],
      "name": "PostmanUpdated",
      "type": "event"
    },
    {
      "anonymous": false,
      "inputs": [
        {
          "indexed": false,
          "internalType": "uint256",
          "name": "total",
          "type": "uint256"
        }
      ],
      "name": "RegisterDeposit",
      "type": "event"
    },
    {
      "anonymous": false,
      "inputs": [
        {
          "indexed": false,
          "internalType": "uint256",
          "name": "total",
          "type": "uint256"
        }
      ],
      "name": "RegisterIncomingFunds",
      "type": "event"
    },
    {
      "anonymous": false,
      "inputs": [
        {
          "indexed": true,
          "internalType": "address",
          "name": "strategy",
          "type": "address"
        }
      ],
      "name": "RemoveStrategy",
      "type": "event"
    },
    {
      "anonymous": false,
      "inputs": [
        {
          "indexed": true,
          "internalType": "address",
          "name": "caller",
          "type": "address"
        },
        {
          "indexed": true,
          "internalType": "address",
          "name": "owner",
          "type": "address"
        },
        {
          "indexed": false,
          "internalType": "uint256",
          "name": "shares",
          "type": "uint256"
        }
      ],
      "name": "RequestWithdraw",
      "type": "event"
    },
    {
      "anonymous": false,
      "inputs": [
        {
          "indexed": true,
          "internalType": "bytes32",
          "name": "role",
          "type": "bytes32"
        },
        {
          "indexed": true,
          "internalType": "bytes32",
          "name": "previousAdminRole",
          "type": "bytes32"
        },
        {
          "indexed": true,
          "internalType": "bytes32",
          "name": "newAdminRole",
          "type": "bytes32"
        }
      ],
      "name": "RoleAdminChanged",
      "type": "event"
    },
    {
      "anonymous": false,
      "inputs": [
        {
          "indexed": true,
          "internalType": "bytes32",
          "name": "role",
          "type": "bytes32"
        },
        {
          "indexed": true,
          "internalType": "address",
          "name": "account",
          "type": "address"
        },
        {
          "indexed": true,
          "internalType": "address",
          "name": "sender",
          "type": "address"
        }
      ],
      "name": "RoleGranted",
      "type": "event"
    },
    {
      "anonymous": false,
      "inputs": [
        {
          "indexed": true,
          "internalType": "bytes32",
          "name": "role",
          "type": "bytes32"
        },
        {
          "indexed": true,
          "internalType": "address",
          "name": "account",
          "type": "address"
        },
        {
          "indexed": true,
          "internalType": "address",
          "name": "sender",
          "type": "address"
        }
      ],
      "name": "RoleRevoked",
      "type": "event"
    },
    {
      "anonymous": false,
      "inputs": [
        {
          "indexed": false,
          "internalType": "uint256",
          "name": "managementFee",
          "type": "uint256"
        }
      ],
      "name": "SetManagementFee",
      "type": "event"
    },
    {
      "anonymous": false,
      "inputs": [
        {
          "indexed": false,
          "internalType": "uint256",
          "name": "performanceFee",
          "type": "uint256"
        }
      ],
      "name": "SetPerformanceFee",
      "type": "event"
    },
    {
      "anonymous": false,
      "inputs": [
        {
          "indexed": true,
          "internalType": "address",
          "name": "treasury",
          "type": "address"
        }
      ],
      "name": "SetTreasury",
      "type": "event"
    },
    {
      "anonymous": false,
      "inputs": [
        {
          "indexed": true,
          "internalType": "address",
          "name": "from",
          "type": "address"
        },
        {
          "indexed": true,
          "internalType": "address",
          "name": "to",
          "type": "address"
        },
        {
          "indexed": false,
          "internalType": "uint256",
          "name": "value",
          "type": "uint256"
        }
      ],
      "name": "Transfer",
      "type": "event"
    },
    {
      "anonymous": false,
      "inputs": [
        {
          "indexed": true,
          "internalType": "address",
          "name": "vault",
          "type": "address"
        },
        {
          "indexed": false,
          "internalType": "uint16",
          "name": "postmanId",
          "type": "uint16"
        }
      ],
      "name": "UpdatedVaultPostman",
      "type": "event"
    },
    {
      "anonymous": false,
      "inputs": [
        {
          "indexed": true,
          "internalType": "address",
          "name": "sender",
          "type": "address"
        },
        {
          "indexed": true,
          "internalType": "address",
          "name": "receiver",
          "type": "address"
        },
        {
          "indexed": true,
          "internalType": "address",
          "name": "owner",
          "type": "address"
        },
        {
          "indexed": false,
          "internalType": "uint256",
          "name": "assets",
          "type": "uint256"
        },
        {
          "indexed": false,
          "internalType": "uint256",
          "name": "shares",
          "type": "uint256"
        }
      ],
      "name": "Withdraw",
      "type": "event"
    },
    {
      "anonymous": false,
      "inputs": [
        {
          "indexed": false,
          "internalType": "address",
          "name": "caller",
          "type": "address"
        },
        {
          "indexed": false,
          "internalType": "address",
          "name": "strategy",
          "type": "address"
        },
        {
          "indexed": false,
          "internalType": "uint256",
          "name": "amount",
          "type": "uint256"
        }
      ],
      "name": "WithdrawFromStrategy",
      "type": "event"
    },
    {
      "inputs": [],
      "name": "DEFAULT_ADMIN_ROLE",
      "outputs": [
        {
          "internalType": "bytes32",
          "name": "",
          "type": "bytes32"
        }
      ],
      "stateMutability": "view",
      "type": "function"
    },
    {
      "inputs": [],
      "name": "GUARDIAN",
      "outputs": [
        {
          "internalType": "bytes32",
          "name": "",
          "type": "bytes32"
        }
      ],
      "stateMutability": "view",
      "type": "function"
    },
    {
      "inputs": [],
      "name": "MANAGER",
      "outputs": [
        {
          "internalType": "bytes32",
          "name": "",
          "type": "bytes32"
        }
      ],
      "stateMutability": "view",
      "type": "function"
    },
    {
      "inputs": [],
      "name": "MAX_MANAGEMENT_FEE",
      "outputs": [
        {
          "internalType": "uint256",
          "name": "",
          "type": "uint256"
        }
      ],
      "stateMutability": "view",
      "type": "function"
    },
    {
      "inputs": [],
      "name": "MAX_PERFORMANCE_FEE",
      "outputs": [
        {
          "internalType": "uint256",
          "name": "",
          "type": "uint256"
        }
      ],
      "stateMutability": "view",
      "type": "function"
    },
    {
      "inputs": [],
      "name": "MIN_LIQUIDITY",
      "outputs": [
        {
          "internalType": "uint256",
          "name": "",
          "type": "uint256"
        }
      ],
      "stateMutability": "view",
      "type": "function"
    },
    {
      "inputs": [],
      "name": "acceptOwnership",
      "outputs": [],
      "stateMutability": "nonpayable",
      "type": "function"
    },
    {
      "inputs": [
        {
          "internalType": "contract ISCYStrategy",
          "name": "strategy",
          "type": "address"
        }
      ],
      "name": "addStrategy",
      "outputs": [],
      "stateMutability": "nonpayable",
      "type": "function"
    },
    {
      "inputs": [
        {
          "internalType": "address",
          "name": "_vault",
          "type": "address"
        },
        {
          "internalType": "uint16",
          "name": "_chainId",
          "type": "uint16"
        },
        {
          "internalType": "uint16",
          "name": "_postmanId",
          "type": "uint16"
        },
        {
          "internalType": "bool",
          "name": "_allowed",
          "type": "bool"
        }
      ],
      "name": "addVault",
      "outputs": [],
      "stateMutability": "nonpayable",
      "type": "function"
    },
    {
      "inputs": [
        {
          "internalType": "address",
          "name": "",
          "type": "address"
        }
      ],
      "name": "addrBook",
      "outputs": [
        {
          "internalType": "uint16",
          "name": "chainId",
          "type": "uint16"
        },
        {
          "internalType": "uint16",
          "name": "postmanId",
          "type": "uint16"
        },
        {
          "internalType": "bool",
          "name": "allowed",
          "type": "bool"
        }
      ],
      "stateMutability": "view",
      "type": "function"
    },
    {
      "inputs": [
        {
          "internalType": "address",
          "name": "owner",
          "type": "address"
        },
        {
          "internalType": "address",
          "name": "spender",
          "type": "address"
        }
      ],
      "name": "allowance",
      "outputs": [
        {
          "internalType": "uint256",
          "name": "",
          "type": "uint256"
        }
      ],
      "stateMutability": "view",
      "type": "function"
    },
    {
      "inputs": [
        {
          "internalType": "address",
          "name": "spender",
          "type": "address"
        },
        {
          "internalType": "uint256",
          "name": "amount",
          "type": "uint256"
        }
      ],
      "name": "approve",
      "outputs": [
        {
          "internalType": "bool",
          "name": "",
          "type": "bool"
        }
      ],
      "stateMutability": "nonpayable",
      "type": "function"
    },
    {
      "inputs": [
        {
          "internalType": "address",
          "name": "account",
          "type": "address"
        }
      ],
      "name": "balanceOf",
      "outputs": [
        {
          "internalType": "uint256",
          "name": "",
          "type": "uint256"
        }
      ],
      "stateMutability": "view",
      "type": "function"
    },
    {
      "inputs": [
        {
          "internalType": "uint256",
          "name": "",
          "type": "uint256"
        }
      ],
      "name": "bridgeQueue",
      "outputs": [
        {
          "internalType": "address",
          "name": "",
          "type": "address"
        }
      ],
      "stateMutability": "view",
      "type": "function"
    },
    {
      "inputs": [],
      "name": "cancelRedeem",
      "outputs": [],
      "stateMutability": "nonpayable",
      "type": "function"
    },
    {
      "inputs": [
        {
          "internalType": "address",
          "name": "_vault",
          "type": "address"
        },
        {
          "internalType": "bool",
          "name": "_allowed",
          "type": "bool"
        }
      ],
      "name": "changeVaultStatus",
      "outputs": [],
      "stateMutability": "nonpayable",
      "type": "function"
    },
    {
      "inputs": [
        {
          "internalType": "uint256",
          "name": "shares",
          "type": "uint256"
        }
      ],
      "name": "convertToAssets",
      "outputs": [
        {
          "internalType": "uint256",
          "name": "",
          "type": "uint256"
        }
      ],
      "stateMutability": "view",
      "type": "function"
    },
    {
      "inputs": [
        {
          "internalType": "uint256",
          "name": "assets",
          "type": "uint256"
        }
      ],
      "name": "convertToShares",
      "outputs": [
        {
          "internalType": "uint256",
          "name": "",
          "type": "uint256"
        }
      ],
      "stateMutability": "view",
      "type": "function"
    },
    {
      "inputs": [],
      "name": "decimals",
      "outputs": [
        {
          "internalType": "uint8",
          "name": "",
          "type": "uint8"
        }
      ],
      "stateMutability": "view",
      "type": "function"
    },
    {
      "inputs": [
        {
          "internalType": "address",
          "name": "spender",
          "type": "address"
        },
        {
          "internalType": "uint256",
          "name": "subtractedValue",
          "type": "uint256"
        }
      ],
      "name": "decreaseAllowance",
      "outputs": [
        {
          "internalType": "bool",
          "name": "",
          "type": "bool"
        }
      ],
      "stateMutability": "nonpayable",
      "type": "function"
    },
    {
      "inputs": [
        {
          "internalType": "uint256",
          "name": "assets",
          "type": "uint256"
        },
        {
          "internalType": "address",
          "name": "receiver",
          "type": "address"
        }
      ],
      "name": "deposit",
      "outputs": [
        {
          "internalType": "uint256",
          "name": "shares",
          "type": "uint256"
        }
      ],
      "stateMutability": "nonpayable",
      "type": "function"
    },
    {
      "inputs": [
        {
          "components": [
            {
              "internalType": "contract ISCYStrategy",
              "name": "strategy",
              "type": "address"
            },
            {
              "internalType": "uint256",
              "name": "amountIn",
              "type": "uint256"
            },
            {
              "internalType": "uint256",
              "name": "minSharesOut",
              "type": "uint256"
            }
          ],
          "internalType": "struct DepositParams[]",
          "name": "params",
          "type": "tuple[]"
        }
      ],
      "name": "depositIntoStrategies",
      "outputs": [],
      "stateMutability": "nonpayable",
      "type": "function"
    },
    {
      "inputs": [
        {
          "internalType": "address",
          "name": "target",
          "type": "address"
        },
        {
          "internalType": "bytes",
          "name": "callData",
          "type": "bytes"
        }
      ],
      "name": "emergencyAction",
      "outputs": [],
      "stateMutability": "nonpayable",
      "type": "function"
    },
    {
      "inputs": [],
      "name": "emergencyRedeem",
      "outputs": [],
      "stateMutability": "nonpayable",
      "type": "function"
    },
    {
      "inputs": [
        {
          "internalType": "address",
          "name": "user",
          "type": "address"
        }
      ],
      "name": "estimateUnderlyingBalance",
      "outputs": [
        {
          "internalType": "uint256",
          "name": "",
          "type": "uint256"
        }
      ],
      "stateMutability": "view",
      "type": "function"
    },
    {
      "inputs": [],
      "name": "floatAmnt",
      "outputs": [
        {
          "internalType": "uint256",
          "name": "",
          "type": "uint256"
        }
      ],
      "stateMutability": "view",
      "type": "function"
    },
    {
      "inputs": [],
      "name": "getAllStrategies",
      "outputs": [
        {
          "internalType": "address[]",
          "name": "",
          "type": "address[]"
        }
      ],
      "stateMutability": "view",
      "type": "function"
    },
    {
      "inputs": [],
      "name": "getPenalty",
      "outputs": [
        {
          "internalType": "uint256",
          "name": "",
          "type": "uint256"
        }
      ],
      "stateMutability": "view",
      "type": "function"
    },
    {
      "inputs": [
        {
          "internalType": "bytes32",
          "name": "role",
          "type": "bytes32"
        }
      ],
      "name": "getRoleAdmin",
      "outputs": [
        {
          "internalType": "bytes32",
          "name": "",
          "type": "bytes32"
        }
      ],
      "stateMutability": "view",
      "type": "function"
    },
    {
      "inputs": [],
      "name": "getTvl",
      "outputs": [
        {
          "internalType": "uint256",
          "name": "tvl",
          "type": "uint256"
        }
      ],
      "stateMutability": "view",
      "type": "function"
    },
    {
      "inputs": [
        {
          "internalType": "address",
          "name": "user",
          "type": "address"
        }
      ],
      "name": "getWithdrawStatus",
      "outputs": [
        {
          "components": [
            {
              "internalType": "uint256",
              "name": "timestamp",
              "type": "uint256"
            },
            {
              "internalType": "uint256",
              "name": "shares",
              "type": "uint256"
            },
            {
              "internalType": "uint256",
              "name": "value",
              "type": "uint256"
            }
          ],
          "internalType": "struct WithdrawRecord",
          "name": "",
          "type": "tuple"
        }
      ],
      "stateMutability": "view",
      "type": "function"
    },
    {
      "inputs": [
        {
          "internalType": "bytes32",
          "name": "role",
          "type": "bytes32"
        },
        {
          "internalType": "address",
          "name": "account",
          "type": "address"
        }
      ],
      "name": "grantRole",
      "outputs": [],
      "stateMutability": "nonpayable",
      "type": "function"
    },
    {
      "inputs": [
        {
          "internalType": "uint256",
          "name": "expectedTvl",
          "type": "uint256"
        },
        {
          "internalType": "uint256",
          "name": "maxDelta",
          "type": "uint256"
        }
      ],
      "name": "harvest",
      "outputs": [],
      "stateMutability": "nonpayable",
      "type": "function"
    },
    {
      "inputs": [
        {
          "internalType": "bytes32",
          "name": "role",
          "type": "bytes32"
        },
        {
          "internalType": "address",
          "name": "account",
          "type": "address"
        }
      ],
      "name": "hasRole",
      "outputs": [
        {
          "internalType": "bool",
          "name": "",
          "type": "bool"
        }
      ],
      "stateMutability": "view",
      "type": "function"
    },
    {
      "inputs": [
        {
          "internalType": "address",
          "name": "spender",
          "type": "address"
        },
        {
          "internalType": "uint256",
          "name": "addedValue",
          "type": "uint256"
        }
      ],
      "name": "increaseAllowance",
      "outputs": [
        {
          "internalType": "bool",
          "name": "",
          "type": "bool"
        }
      ],
      "stateMutability": "nonpayable",
      "type": "function"
    },
    {
      "inputs": [],
      "name": "lastHarvestTimestamp",
      "outputs": [
        {
          "internalType": "uint256",
          "name": "",
          "type": "uint256"
        }
      ],
      "stateMutability": "view",
      "type": "function"
    },
    {
      "inputs": [
        {
          "internalType": "uint16",
          "name": "_postmanId",
          "type": "uint16"
        },
        {
          "internalType": "uint16",
          "name": "_chainId",
          "type": "uint16"
        },
        {
          "internalType": "address",
          "name": "_postman",
          "type": "address"
        }
      ],
      "name": "managePostman",
      "outputs": [],
      "stateMutability": "nonpayable",
      "type": "function"
    },
    {
      "inputs": [],
      "name": "managementFee",
      "outputs": [
        {
          "internalType": "uint256",
          "name": "",
          "type": "uint256"
        }
      ],
      "stateMutability": "view",
      "type": "function"
    },
    {
      "inputs": [
        {
          "internalType": "address",
          "name": "",
          "type": "address"
        }
      ],
      "name": "maxDeposit",
      "outputs": [
        {
          "internalType": "uint256",
          "name": "",
          "type": "uint256"
        }
      ],
      "stateMutability": "view",
      "type": "function"
    },
    {
      "inputs": [
        {
          "internalType": "address",
          "name": "",
          "type": "address"
        }
      ],
      "name": "maxMint",
      "outputs": [
        {
          "internalType": "uint256",
          "name": "",
          "type": "uint256"
        }
      ],
      "stateMutability": "view",
      "type": "function"
    },
    {
      "inputs": [
        {
          "internalType": "address",
          "name": "owner",
          "type": "address"
        }
      ],
      "name": "maxRedeem",
      "outputs": [
        {
          "internalType": "uint256",
          "name": "",
          "type": "uint256"
        }
      ],
      "stateMutability": "view",
      "type": "function"
    },
    {
      "inputs": [
        {
          "internalType": "address",
          "name": "owner",
          "type": "address"
        }
      ],
      "name": "maxWithdraw",
      "outputs": [
        {
          "internalType": "uint256",
          "name": "",
          "type": "uint256"
        }
      ],
      "stateMutability": "view",
      "type": "function"
    },
    {
      "inputs": [
        {
          "internalType": "uint256",
          "name": "shares",
          "type": "uint256"
        },
        {
          "internalType": "address",
          "name": "receiver",
          "type": "address"
        }
      ],
      "name": "mint",
      "outputs": [
        {
          "internalType": "uint256",
          "name": "assets",
          "type": "uint256"
        }
      ],
      "stateMutability": "nonpayable",
      "type": "function"
    },
    {
      "inputs": [],
      "name": "name",
      "outputs": [
        {
          "internalType": "string",
          "name": "",
          "type": "string"
        }
      ],
      "stateMutability": "view",
      "type": "function"
    },
    {
      "inputs": [],
      "name": "owner",
      "outputs": [
        {
          "internalType": "address",
          "name": "",
          "type": "address"
        }
      ],
      "stateMutability": "view",
      "type": "function"
    },
    {
      "inputs": [],
      "name": "pendingOwner",
      "outputs": [
        {
          "internalType": "address",
          "name": "",
          "type": "address"
        }
      ],
      "stateMutability": "view",
      "type": "function"
    },
    {
      "inputs": [],
      "name": "pendingWithdraw",
      "outputs": [
        {
          "internalType": "uint256",
          "name": "",
          "type": "uint256"
        }
      ],
      "stateMutability": "view",
      "type": "function"
    },
    {
      "inputs": [],
      "name": "performanceFee",
      "outputs": [
        {
          "internalType": "uint256",
          "name": "",
          "type": "uint256"
        }
      ],
      "stateMutability": "view",
      "type": "function"
    },
    {
      "inputs": [
        {
          "internalType": "uint16",
          "name": "",
          "type": "uint16"
        },
        {
          "internalType": "uint16",
          "name": "",
          "type": "uint16"
        }
      ],
      "name": "postmanAddr",
      "outputs": [
        {
          "internalType": "address",
          "name": "",
          "type": "address"
        }
      ],
      "stateMutability": "view",
      "type": "function"
    },
    {
      "inputs": [
        {
          "internalType": "uint256",
          "name": "assets",
          "type": "uint256"
        }
      ],
      "name": "previewDeposit",
      "outputs": [
        {
          "internalType": "uint256",
          "name": "",
          "type": "uint256"
        }
      ],
      "stateMutability": "view",
      "type": "function"
    },
    {
      "inputs": [
        {
          "internalType": "uint256",
          "name": "shares",
          "type": "uint256"
        }
      ],
      "name": "previewMint",
      "outputs": [
        {
          "internalType": "uint256",
          "name": "",
          "type": "uint256"
        }
      ],
      "stateMutability": "view",
      "type": "function"
    },
    {
      "inputs": [
        {
          "internalType": "uint256",
          "name": "shares",
          "type": "uint256"
        }
      ],
      "name": "previewRedeem",
      "outputs": [
        {
          "internalType": "uint256",
          "name": "",
          "type": "uint256"
        }
      ],
      "stateMutability": "view",
      "type": "function"
    },
    {
      "inputs": [
        {
          "internalType": "uint256",
          "name": "assets",
          "type": "uint256"
        }
      ],
      "name": "previewWithdraw",
      "outputs": [
        {
          "internalType": "uint256",
          "name": "",
          "type": "uint256"
        }
      ],
      "stateMutability": "view",
      "type": "function"
    },
    {
      "inputs": [],
      "name": "processIncomingXFunds",
      "outputs": [],
      "stateMutability": "nonpayable",
      "type": "function"
    },
    {
      "inputs": [
        {
          "components": [
            {
              "internalType": "address",
              "name": "vaultAddr",
              "type": "address"
            },
            {
              "internalType": "uint256",
              "name": "amount",
              "type": "uint256"
            },
            {
              "internalType": "uint256",
              "name": "fee",
              "type": "uint256"
            },
            {
              "internalType": "address",
              "name": "allowanceTarget",
              "type": "address"
            },
            {
              "internalType": "address",
              "name": "registry",
              "type": "address"
            },
            {
              "internalType": "bytes",
              "name": "txData",
              "type": "bytes"
            }
          ],
          "internalType": "struct Request[]",
          "name": "requests",
          "type": "tuple[]"
        }
      ],
      "name": "processXWithdraw",
      "outputs": [],
      "stateMutability": "nonpayable",
      "type": "function"
    },
    {
      "inputs": [
        {
          "components": [
            {
              "internalType": "uint256",
              "name": "value",
              "type": "uint256"
            },
            {
              "internalType": "address",
              "name": "sender",
              "type": "address"
            },
            {
              "internalType": "address",
              "name": "client",
              "type": "address"
            },
            {
              "internalType": "uint16",
              "name": "chainId",
              "type": "uint16"
            }
          ],
          "internalType": "struct Message",
          "name": "_msg",
          "type": "tuple"
        },
        {
          "internalType": "enum MessageType",
          "name": "_type",
          "type": "uint8"
        }
      ],
      "name": "receiveMessage",
      "outputs": [],
      "stateMutability": "nonpayable",
      "type": "function"
    },
    {
      "inputs": [
        {
          "internalType": "address",
          "name": "receiver",
          "type": "address"
        }
      ],
      "name": "redeem",
      "outputs": [
        {
          "internalType": "uint256",
          "name": "amountOut",
          "type": "uint256"
        }
      ],
      "stateMutability": "nonpayable",
      "type": "function"
    },
    {
      "inputs": [
        {
          "internalType": "uint256",
          "name": "",
          "type": "uint256"
        },
        {
          "internalType": "address",
          "name": "receiver",
          "type": "address"
        },
        {
          "internalType": "address",
          "name": "",
          "type": "address"
        }
      ],
      "name": "redeem",
      "outputs": [
        {
          "internalType": "uint256",
          "name": "amountOut",
          "type": "uint256"
        }
      ],
      "stateMutability": "nonpayable",
      "type": "function"
    },
    {
      "inputs": [],
      "name": "redeem",
      "outputs": [
        {
          "internalType": "uint256",
          "name": "amountOut",
          "type": "uint256"
        }
      ],
      "stateMutability": "nonpayable",
      "type": "function"
    },
    {
      "inputs": [
        {
          "internalType": "address",
          "name": "user",
          "type": "address"
        }
      ],
      "name": "redeemIsReady",
      "outputs": [
        {
          "internalType": "bool",
          "name": "",
          "type": "bool"
        }
      ],
      "stateMutability": "view",
      "type": "function"
    },
    {
      "inputs": [
        {
          "internalType": "contract ISCYStrategy",
          "name": "strategy",
          "type": "address"
        }
      ],
      "name": "removeStrategy",
      "outputs": [],
      "stateMutability": "nonpayable",
      "type": "function"
    },
    {
      "inputs": [
        {
          "internalType": "bytes32",
          "name": "role",
          "type": "bytes32"
        },
        {
          "internalType": "address",
          "name": "account",
          "type": "address"
        }
      ],
      "name": "renounceRole",
      "outputs": [],
      "stateMutability": "nonpayable",
      "type": "function"
    },
    {
      "inputs": [
        {
          "internalType": "uint256",
          "name": "shares",
          "type": "uint256"
        },
        {
          "internalType": "address",
          "name": "owner",
          "type": "address"
        }
      ],
      "name": "requestRedeem",
      "outputs": [],
      "stateMutability": "nonpayable",
      "type": "function"
    },
    {
      "inputs": [
        {
          "internalType": "uint256",
          "name": "shares",
          "type": "uint256"
        }
      ],
      "name": "requestRedeem",
      "outputs": [],
      "stateMutability": "nonpayable",
      "type": "function"
    },
    {
      "inputs": [
        {
          "internalType": "bytes32",
          "name": "role",
          "type": "bytes32"
        },
        {
          "internalType": "address",
          "name": "account",
          "type": "address"
        }
      ],
      "name": "revokeRole",
      "outputs": [],
      "stateMutability": "nonpayable",
      "type": "function"
    },
    {
      "inputs": [
        {
          "internalType": "uint256",
          "name": "_managementFee",
          "type": "uint256"
        }
      ],
      "name": "setManagementFee",
      "outputs": [],
      "stateMutability": "nonpayable",
      "type": "function"
    },
    {
      "inputs": [
        {
          "internalType": "uint256",
          "name": "_performanceFee",
          "type": "uint256"
        }
      ],
      "name": "setPerformanceFee",
      "outputs": [],
      "stateMutability": "nonpayable",
      "type": "function"
    },
    {
      "inputs": [
        {
          "internalType": "address",
          "name": "_treasury",
          "type": "address"
        }
      ],
      "name": "setTreasury",
      "outputs": [],
      "stateMutability": "nonpayable",
      "type": "function"
    },
    {
      "inputs": [
        {
          "internalType": "uint256",
          "name": "shares",
          "type": "uint256"
        }
      ],
      "name": "sharesToUnderlying",
      "outputs": [
        {
          "internalType": "uint256",
          "name": "",
          "type": "uint256"
        }
      ],
      "stateMutability": "view",
      "type": "function"
    },
    {
      "inputs": [
        {
          "internalType": "contract ISCYStrategy",
          "name": "",
          "type": "address"
        }
      ],
      "name": "strategyExists",
      "outputs": [
        {
          "internalType": "bool",
          "name": "",
          "type": "bool"
        }
      ],
      "stateMutability": "view",
      "type": "function"
    },
    {
      "inputs": [
        {
          "internalType": "uint256",
          "name": "",
          "type": "uint256"
        }
      ],
      "name": "strategyIndex",
      "outputs": [
        {
          "internalType": "address",
          "name": "",
          "type": "address"
        }
      ],
      "stateMutability": "view",
      "type": "function"
    },
    {
      "inputs": [
        {
          "internalType": "bytes4",
          "name": "interfaceId",
          "type": "bytes4"
        }
      ],
      "name": "supportsInterface",
      "outputs": [
        {
          "internalType": "bool",
          "name": "",
          "type": "bool"
        }
      ],
      "stateMutability": "view",
      "type": "function"
    },
    {
      "inputs": [],
      "name": "symbol",
      "outputs": [
        {
          "internalType": "string",
          "name": "",
          "type": "string"
        }
      ],
      "stateMutability": "view",
      "type": "function"
    },
    {
      "inputs": [
        {
          "internalType": "uint256",
          "name": "assets",
          "type": "uint256"
        }
      ],
      "name": "toSharesAfterDeposit",
      "outputs": [
        {
          "internalType": "uint256",
          "name": "",
          "type": "uint256"
        }
      ],
      "stateMutability": "view",
      "type": "function"
    },
    {
      "inputs": [],
      "name": "totalAssets",
      "outputs": [
        {
          "internalType": "uint256",
          "name": "",
          "type": "uint256"
        }
      ],
      "stateMutability": "view",
      "type": "function"
    },
    {
      "inputs": [],
      "name": "totalChildHoldings",
      "outputs": [
        {
          "internalType": "uint256",
          "name": "",
          "type": "uint256"
        }
      ],
      "stateMutability": "view",
      "type": "function"
    },
    {
      "inputs": [],
      "name": "totalStrategies",
      "outputs": [
        {
          "internalType": "uint256",
          "name": "",
          "type": "uint256"
        }
      ],
      "stateMutability": "view",
      "type": "function"
    },
    {
      "inputs": [],
      "name": "totalStrategyHoldings",
      "outputs": [
        {
          "internalType": "uint256",
          "name": "",
          "type": "uint256"
        }
      ],
      "stateMutability": "view",
      "type": "function"
    },
    {
      "inputs": [],
      "name": "totalSupply",
      "outputs": [
        {
          "internalType": "uint256",
          "name": "",
          "type": "uint256"
        }
      ],
      "stateMutability": "view",
      "type": "function"
    },
    {
      "inputs": [
        {
          "internalType": "address",
          "name": "to",
          "type": "address"
        },
        {
          "internalType": "uint256",
          "name": "amount",
          "type": "uint256"
        }
      ],
      "name": "transfer",
      "outputs": [
        {
          "internalType": "bool",
          "name": "",
          "type": "bool"
        }
      ],
      "stateMutability": "nonpayable",
      "type": "function"
    },
    {
      "inputs": [
        {
          "internalType": "address",
          "name": "from",
          "type": "address"
        },
        {
          "internalType": "address",
          "name": "to",
          "type": "address"
        },
        {
          "internalType": "uint256",
          "name": "amount",
          "type": "uint256"
        }
      ],
      "name": "transferFrom",
      "outputs": [
        {
          "internalType": "bool",
          "name": "",
          "type": "bool"
        }
      ],
      "stateMutability": "nonpayable",
      "type": "function"
    },
    {
      "inputs": [
        {
          "internalType": "address",
          "name": "_pendingOwner",
          "type": "address"
        }
      ],
      "name": "transferOwnership",
      "outputs": [],
      "stateMutability": "nonpayable",
      "type": "function"
    },
    {
      "inputs": [],
      "name": "treasury",
      "outputs": [
        {
          "internalType": "address",
          "name": "",
          "type": "address"
        }
      ],
      "stateMutability": "view",
      "type": "function"
    },
    {
      "inputs": [],
      "name": "underlying",
      "outputs": [
        {
          "internalType": "address",
          "name": "",
          "type": "address"
        }
      ],
      "stateMutability": "view",
      "type": "function"
    },
    {
      "inputs": [
        {
          "internalType": "address",
          "name": "user",
          "type": "address"
        }
      ],
      "name": "underlyingBalance",
      "outputs": [
        {
          "internalType": "uint256",
          "name": "",
          "type": "uint256"
        }
      ],
      "stateMutability": "view",
      "type": "function"
    },
    {
      "inputs": [],
      "name": "underlyingDecimals",
      "outputs": [
        {
          "internalType": "uint8",
          "name": "",
          "type": "uint8"
        }
      ],
      "stateMutability": "view",
      "type": "function"
    },
    {
      "inputs": [
        {
          "internalType": "uint256",
          "name": "underlyingAmnt",
          "type": "uint256"
        }
      ],
      "name": "underlyingToShares",
      "outputs": [
        {
          "internalType": "uint256",
          "name": "",
          "type": "uint256"
        }
      ],
      "stateMutability": "view",
      "type": "function"
    },
    {
      "inputs": [
        {
          "internalType": "address",
          "name": "_vault",
          "type": "address"
        },
        {
          "internalType": "uint16",
          "name": "_postmanId",
          "type": "uint16"
        }
      ],
      "name": "updateVaultPostman",
      "outputs": [],
      "stateMutability": "nonpayable",
      "type": "function"
    },
    {
      "inputs": [
        {
          "internalType": "uint256",
          "name": "",
          "type": "uint256"
        },
        {
          "internalType": "address",
          "name": "",
          "type": "address"
        },
        {
          "internalType": "address",
          "name": "",
          "type": "address"
        }
      ],
      "name": "withdraw",
      "outputs": [
        {
          "internalType": "uint256",
          "name": "",
          "type": "uint256"
        }
      ],
      "stateMutability": "pure",
      "type": "function"
    },
    {
      "inputs": [
        {
          "components": [
            {
              "internalType": "contract ISCYStrategy",
              "name": "strategy",
              "type": "address"
            },
            {
              "internalType": "uint256",
              "name": "shares",
              "type": "uint256"
            },
            {
              "internalType": "uint256",
              "name": "minTokenOut",
              "type": "uint256"
            }
          ],
          "internalType": "struct RedeemParams[]",
          "name": "params",
          "type": "tuple[]"
        }
      ],
      "name": "withdrawFromStrategies",
      "outputs": [],
      "stateMutability": "nonpayable",
      "type": "function"
    },
    {
      "inputs": [
        {
          "internalType": "address",
          "name": "",
          "type": "address"
        }
      ],
      "name": "withdrawLedger",
      "outputs": [
        {
          "internalType": "uint256",
          "name": "timestamp",
          "type": "uint256"
        },
        {
          "internalType": "uint256",
          "name": "shares",
          "type": "uint256"
        },
        {
          "internalType": "uint256",
          "name": "value",
          "type": "uint256"
        }
      ],
      "stateMutability": "view",
      "type": "function"
    }
  ],
  "transactionHash": "0x63ba0892a6992c4159b88db057ae28b93e5e3894b41ee11211bd667ce1f6a0e0",
  "args": [
    "0x7F5c764cBc14f9669B88837ca1490cCa17c31607",
    "SectorVault",
    "SVLT",
    [
      "0xf09c27934A92c56c7C0dD6cBAc858C35fBd5170f",
      "0x6DdF9DA4C37DF97CB2458F85050E09994Cbb9C2A",
      "0x6DdF9DA4C37DF97CB2458F85050E09994Cbb9C2A"
    ],
    [
      "0xf09c27934A92c56c7C0dD6cBAc858C35fBd5170f",
      0,
      0
    ]
  ],
  "numDeployments": 2,
  "solcInputHash": "a84ac658bf96a2081aa45f4ba4df3f0e",
  "bytecode": "0x60c060405261ffff461660a0523480156200001957600080fd5b5060405162005e1d38038062005e1d8339810160408190526200003c916200051c565b8151600180546001600160a01b0319166001600160a01b0390921691821790556040805160008152602081019290925286918691869183918391879189917f8be0079c531659141344cd1fd0a4f28419497f9722a3daafe3b4186f6b6457e0910160405180910390a18051620000b590600090620002aa565b600154620000dd9060008051602062005dfd833981519152906001600160a01b0316620002aa565b6200010260008051602062005dfd8339815191528260200151620002aa60201b60201c565b8051620001209060008051602062005ddd83398151915290620002aa565b6200014560008051602062005ddd8339815191528260200151620002aa60201b60201c565b6200016a60008051602062005ddd8339815191528260400151620002aa60201b60201c565b6200019460008051602062005ddd83398151915260008051602062005dfd8339815191526200034b565b508051600580546001600160a01b0319166001600160a01b0390921691821790556020820151600355604080830151600455517fcb7ef3e545f5cdb893f5c568ba710fe08f336375a2d9fd66e161033f8fc09ef390600090a27f8b940a95968ad5b511f89b01075446a4fe9f614f2dc5fbb9e9a6b227d6d4fd7081602001516040516200022391815260200190565b60405180910390a17fd87632b1c6ebfa21acbca0e3279b3cf6385a377cb8fda51e5b866baa6e6012ab81604001516040516200026191815260200190565b60405180910390a15060096200027883826200069f565b50600a6200028782826200069f565b5050506001600160a01b03909216608052505042600b55506200076b9350505050565b6000828152602081815260408083206001600160a01b038516845290915290205460ff1662000347576000828152602081815260408083206001600160a01b03851684529091529020805460ff19166001179055620003063390565b6001600160a01b0316816001600160a01b0316837f2f8788117e7eff1d82e926ec794901d17c78024a50270940304540a733656f0d60405160405180910390a45b5050565b600082815260208190526040808220600101805490849055905190918391839186917fbd79b86ffe0ab8e8776151514217cd7cacd52c909f66475c3af44e129f0b00ff9190a4505050565b6001600160a01b0381168114620003ac57600080fd5b50565b634e487b7160e01b600052604160045260246000fd5b604051606081016001600160401b0381118282101715620003ea57620003ea620003af565b60405290565b604051601f8201601f191681016001600160401b03811182821017156200041b576200041b620003af565b604052919050565b600082601f8301126200043557600080fd5b81516001600160401b03811115620004515762000451620003af565b602062000467601f8301601f19168201620003f0565b82815285828487010111156200047c57600080fd5b60005b838110156200049c5785810183015182820184015282016200047f565b506000928101909101919091529392505050565b600060608284031215620004c357600080fd5b604051606081016001600160401b0381118282101715620004e857620004e8620003af565b80604052508091508251620004fd8162000396565b8082525060208301516020820152604083015160408201525092915050565b60008060008060008587036101208112156200053757600080fd5b8651620005448162000396565b60208801519096506001600160401b03808211156200056257600080fd5b620005708a838b0162000423565b965060408901519150808211156200058757600080fd5b506200059689828a0162000423565b9450506060605f1982011215620005ac57600080fd5b50620005b7620003c5565b6060870151620005c78162000396565b81526080870151620005d98162000396565b602082015260a0870151620005ee8162000396565b60408201529150620006048760c08801620004b0565b90509295509295909350565b600181811c908216806200062557607f821691505b6020821081036200064657634e487b7160e01b600052602260045260246000fd5b50919050565b601f8211156200069a57600081815260208120601f850160051c81016020861015620006755750805b601f850160051c820191505b81811015620006965782815560010162000681565b5050505b505050565b81516001600160401b03811115620006bb57620006bb620003af565b620006d381620006cc845462000610565b846200064c565b602080601f8311600181146200070b5760008415620006f25750858301515b600019600386901b1c1916600185901b17855562000696565b600085815260208120601f198616915b828110156200073c578886015182559484019460019091019084016200071b565b50858210156200075b5787850151600019600388901b60f8161c191681555b5050505050600190811b01905550565b60805160a0516155dc6200080160003960008181611291015281816113b7015281816122b40152818161322b0152818161328801526141c1015260008181610f3a015281816110b4015281816116dc015281816117a2015281816119f801528181611c0101528181611c4a01528181611ee6015281816120690152818161210801528181612583015261284401526155dc6000f3fe608060405234801561001057600080fd5b50600436106104095760003560e01c806301e1d1141461040e57806301ffc9a71461042957806306fdde031461044c57806307a2d13a14610461578063095ea7b3146104745780630a28a47714610487578063107703ab1461049a578063175188e8146104af57806318160ddd146104c25780631b2df850146104ca57806321b77d63146104df578063223e5479146104e85780632257a738146104fb57806323b872dd14610504578063248a9ca31461051757806325a760c21461052a57806326d83182146105445780632940ec00146105575780632f2ff15d14610560578063313ce5671461052a5780633230b79b14610573578063341a7b42146105a057806336568abe146105b357806339509351146105c65780633e642575146105d9578063402d267d146105ec578063415c49e2146106015780634cdad5061461061457806351a72964146106275780635b9d26581461065c57806361d027b3146106a65780636e553f65146106c65780636f307dc3146106d957806370897b23146106e157806370a08231146106f4578063724c184c1461070757806373b90eac1461071c578063793361dc1461072457806379ba5097146107375780638576829e1461073f57806387788782146107485780638954b3e0146107515780638c871019146107595780638da5cb5b1461076c57806391d148541461077f57806394bf804d1461079257806395a2251f146107a557806395d89b41146107b857806396fbebcc146107c05780639908840c146107d35780639c508d4a146107e1578063a217fddf14610815578063a457c2d71461081d578063a6f7f5d614610830578063a879f97614610839578063a9059cbb14610897578063aa2f892d146108aa578063b3d7f6b9146108bd578063b460af94146108d0578063b5ca7704146108e3578063ba087652146108f6578063bdca916514610909578063be040fb014610918578063bf5ab6f514610920578063c3b2886414610933578063c63d75b6146105ec578063c6e6f59214610948578063c737186a1461095b578063ce96cb771461096e578063cee027f214610981578063d075dd4214610994578063d547741f1461099c578063d7b9991c146109af578063d905777e146109c2578063dd62ed3e146109d5578063e30c3978146109e8578063e3f62d5d146109fb578063e4a4b7b114610a1e578063e56e56db14610a31578063e6a2966614610a39578063eacff5ba14610a41578063ecad956514610a54578063ef8b30f714610a5d578063f0f4426014610a70578063f2d6f5a814610a83578063f2fde38b14610a96578063f3e7387514610aa9578063f96d7b8014610abc578063fc6b1ebe14610ac4578063fe56e23214610acd578063fef5745a14610ae0575b600080fd5b610416610af3565b6040519081526020015b60405180910390f35b61043c61043736600461485a565b610b0a565b6040519015158152602001610420565b610454610b41565b60405161042091906148a8565b61041661046f3660046148db565b610bd3565b61043c610482366004614909565b610c07565b6104166104953660046148db565b610c1f565b6104ad6104a8366004614935565b610c46565b005b6104ad6104bd366004614965565b610d0c565b610416610ec9565b61041660008051602061550783398151915281565b6104166103e881565b6104ad6104f6366004614965565b610ed4565b610416600b5481565b61043c610512366004614982565b611077565b6104166105253660046148db565b61109b565b6105326110b0565b60405160ff9091168152602001610420565b6104ad6105523660046149c3565b611134565b610416600c5481565b6104ad61056e366004614935565b61143a565b61043c610581366004614965565b6001600160a01b03166000908152600d6020526040902054600b541190565b6104ad6105ae366004614a45565b61145b565b6104ad6105c1366004614935565b6114f4565b61043c6105d4366004614909565b611572565b6104166105e7366004614965565b611594565b6104166105fa366004614965565b5060001990565b6104ad61060f366004614a83565b6115ab565b6104166106223660046148db565b611651565b61063a610635366004614965565b61165c565b6040805182518152602080840151908201529181015190820152606001610420565b61068b61066a366004614965565b600d6020526000908152604090208054600182015460029092015490919083565b60408051938452602084019290925290820152606001610420565b6005546106b9906001600160a01b031681565b6040516104209190614ace565b6104166106d4366004614935565b6116c2565b6106b96117a0565b6104ad6106ef3660046148db565b6117c4565b610416610702366004614965565b611853565b61041660008051602061552783398151915281565b6104ad61186e565b6104ad610732366004614b2d565b611ae6565b6104ad611d37565b61041660115481565b61041660035481565b6104ad611e82565b6104166107673660046148db565b611fff565b6001546106b9906001600160a01b031681565b61043c61078d366004614935565b612026565b6104166107a0366004614935565b61204f565b6104166107b3366004614965565b6120e0565b6104546121ce565b6104ad6107ce366004614b6e565b6121dd565b61041666b1a2bc2ec5000081565b6106b96107ef366004614ba6565b600f6020908152600092835260408084209091529082529020546001600160a01b031681565b610416600081565b61043c61082b366004614909565b612384565b61041660045481565b610874610847366004614965565b600e6020526000908152604090205461ffff8082169162010000810490911690600160201b900460ff1683565b6040805161ffff9485168152939092166020840152151590820152606001610420565b61043c6108a5366004614909565b6123ff565b6104ad6108b83660046148db565b61240d565b6104166108cb3660046148db565b61241a565b6104166108de366004614bd4565b612440565b6104166108f1366004614965565b61245b565b610416610904366004614bd4565b61249b565b6104166703782dace9d9000081565b6104166124ae565b6104ad61092e366004614b2d565b6124b9565b61093b612678565b6040516104209190614bfb565b6104166109563660046148db565b6126d9565b6106b96109693660046148db565b6126f8565b61041661097c366004614965565b612722565b6104ad61098f366004614c48565b612730565b61041661276c565b6104ad6109aa366004614935565b6128ca565b6106b96109bd3660046148db565b6128e6565b6104166109d0366004614965565b6128f6565b6104166109e3366004614ca4565b612901565b6002546106b9906001600160a01b031681565b61043c610a09366004614965565b60126020526000908152604090205460ff1681565b6104ad610a2c366004614cd2565b61292c565b610416612976565b6104ad6129de565b610416610a4f3660046148db565b612a7f565b61041660165481565b610416610a6b3660046148db565b612ad1565b6104ad610a7e366004614965565b612adc565b6104ad610a91366004614cf4565b612b50565b6104ad610aa4366004614965565b612c51565b610416610ab73660046148db565b612ccf565b601354610416565b61041660105481565b6104ad610adb3660046148db565b612ced565b6104ad610aee366004614d12565b612d74565b6000601054601154610b059190614dac565b905090565b60006001600160e01b03198216637965db0b60e01b1480610b3b57506301ffc9a760e01b6001600160e01b03198316145b92915050565b606060098054610b5090614dbf565b80601f0160208091040260200160405190810160405280929190818152602001828054610b7c90614dbf565b8015610bc95780601f10610b9e57610100808354040283529160200191610bc9565b820191906000526020600020905b815481529060010190602001808311610bac57829003601f168201915b5050505050905090565b600080610bde610ec9565b90508015610bfe57610bf9610bf1610af3565b849083612e12565b610c00565b825b9392505050565b600033610c15818585612e31565b5060019392505050565b600080610c2a610ec9565b90508015610bfe57610bf981610c3e610af3565b859190612f4d565b336001600160a01b03821614610c6157610c61813384612f7b565b610c6c813084612fef565b336000908152600d6020526040812042815560018101805491928592610c93908490614dac565b9091555060009050610ca484610bd3565b905080826002018190555080600c6000828254610cc19190614dac565b90915550506040518481526001600160a01b0384169033907ff601bbafcf0d793cce0a8802057c8783aa5946889f76bd9dd47492217f59af1e9060200160405180910390a350505050565b6001546001600160a01b03163314610d3f5760405162461bcd60e51b8152600401610d3690614df9565b60405180910390fd5b6001600160a01b03811660009081526012602052604090205460ff16610d7857604051632df15a4160e11b815260040160405180910390fd5b6001600160a01b0381166000908152601260205260408120805460ff19169055601354905b81811015610de65760138181548110610db857610db8614e1d565b6000918252602090912001546001600160a01b03848116911614610de657610ddf81614e33565b9050610d9d565b6013610df3600184614e4c565b81548110610e0357610e03614e1d565b600091825260209091200154601380546001600160a01b039092169183908110610e2f57610e2f614e1d565b9060005260206000200160006101000a8154816001600160a01b0302191690836001600160a01b031602179055506013805480610e6e57610e6e614e5f565b600082815260208120820160001990810180546001600160a01b03191690559091019091556040516001600160a01b038516917fd3281a40d50ae838fe77dc627744037b8f0fc6a5711d66119a9b670c5cde41af91a2505050565b6000610b0560085490565b6001546001600160a01b03163314610efe5760405162461bcd60e51b8152600401610d3690614df9565b6001600160a01b03811660009081526012602052604090205460ff1615610f38576040516325a2934b60e21b815260040160405180910390fd5b7f00000000000000000000000000000000000000000000000000000000000000006001600160a01b0316816001600160a01b0316636f307dc36040518163ffffffff1660e01b8152600401602060405180830381865afa158015610fa0573d6000803e3d6000fd5b505050506040513d601f19601f82011682018060405250810190610fc49190614e75565b6001600160a01b031614610feb57604051632737e48360e11b815260040160405180910390fd5b6001600160a01b038116600081815260126020526040808220805460ff1916600190811790915560138054918201815583527f66de8ffda797e3de9c05e8fc57b3bf0ec28a930d40b0d285d93c06501cf6a0900180546001600160a01b03191684179055517f69887873d46778fb35539b0a9992d9176ca03c1820b0afb538bc3a6f63326b109190a250565b600033611085858285612f7b565b611090858585612fef565b506001949350505050565b60009081526020819052604090206001015490565b60007f00000000000000000000000000000000000000000000000000000000000000006001600160a01b031663313ce5676040518163ffffffff1660e01b8152600401602060405180830381865afa158015611110573d6000803e3d6000fd5b505050506040513d601f19601f82011682018060405250810190610b059190614e92565b60008051602061550783398151915261114c816131ab565b60145460008061115d600184614e4c565b90505b80156114275760006014828154811061117b5761117b614e1d565b6000918252602090912001546001600160a01b03169050808787848181106111a5576111a5614e1d565b90506020028101906111b79190614eb5565b6111c5906020810190614965565b6001600160a01b0316146111ec57604051631ed0662960e21b815260040160405180910390fd5b60006111f7826131b5565b9050601480548061120a5761120a614e5f565b60008281526020808220600019908401810180546001600160a01b03191690559092019092556001600160a01b0384168252600e81526040808320815160608082018452915461ffff8082168352620100008204811683870152600160201b90910460ff1615158285015283516080810185528781523095810195909552928401949094527f0000000000000000000000000000000000000000000000000000000000000000909116908201526112c69084908390600261320d565b6113936112d16117a0565b8a8a878181106112e3576112e3614e1d565b90506020028101906112f59190614eb5565b611306906080810190606001614965565b8b8b8881811061131857611318614e1d565b905060200281019061132a9190614eb5565b61133b9060a0810190608001614965565b6001600160a01b0387166000908152600e60205260409020548790879061ffff168f8f8c81811061136e5761136e614e1d565b90506020028101906113809190614eb5565b61138e9060a0810190614ed5565b6133b5565b6001600160a01b0383166000908152600e602090815260409182902054825161ffff7f000000000000000000000000000000000000000000000000000000000000000081168252909116918101919091529081018390527f8bdaf3de28c95336795fcfb09634aa6ee90e0ba358711340d92566bc6e3786269060600160405180910390a15092909201915060001901611160565b5061143381600061350f565b5050505050565b6114438261109b565b61144c816131ab565b6114568383613566565b505050565b6001546001600160a01b031633146114855760405162461bcd60e51b8152600401610d3690614df9565b6001600160a01b0382166000818152600e6020526040908190208054841515600160201b0260ff60201b19909116179055517f85e07ba75a2f56a1a2ca8551cdddfb8c998f5781c1c9ab6f8d4ae42101c0d7f1906114e890841515815260200190565b60405180910390a25050565b6001600160a01b03811633146115645760405162461bcd60e51b815260206004820152602f60248201527f416363657373436f6e74726f6c3a2063616e206f6e6c792072656e6f756e636560448201526e103937b632b9903337b91039b2b63360891b6064820152608401610d36565b61156e82826135ea565b5050565b600033610c158185856115858383612901565b61158f9190614dac565b612e31565b6000806115a083611853565b9050610c0081610bd3565b6001546001600160a01b031633146115d55760405162461bcd60e51b8152600401610d3690614df9565b61ffff8381166000818152600f602090815260408083209487168084529482529182902080546001600160a01b0319166001600160a01b03871690811790915582519485529084015290917f0a24add6dc7dd296687ea41961d576aa7afe43986fac38191ce40bb4e7f2bf5b91015b60405180910390a2505050565b6000610b3b82610bd3565b61168060405180606001604052806000815260200160008152602001600081525090565b506001600160a01b03166000908152600d6020908152604091829020825160608101845281548152600182015492810192909252600201549181019190915290565b60006116cd83612ad1565b90506117046001600160a01b037f00000000000000000000000000000000000000000000000000000000000000001633308661364f565b61170c610ec9565b60000361175157806103e8111561173657604051630131cd7b60e51b815260040160405180910390fd5b6117426103e882614e4c565b905061175160016103e86136a7565b61175b82826136a7565b816001600160a01b0316336001600160a01b0316600080516020615587833981519152858460405161178e929190614f1b565b60405180910390a3610b3b8382613774565b7f000000000000000000000000000000000000000000000000000000000000000090565b6001546001600160a01b031633146117ee5760405162461bcd60e51b8152600401610d3690614df9565b6703782dace9d9000081111561181757604051635b94d8b160e01b815260040160405180910390fd5b60038190556040518181527f8b940a95968ad5b511f89b01075446a4fe9f614f2dc5fbb9e9a6b227d6d4fd70906020015b60405180910390a150565b6001600160a01b031660009081526006602052604090205490565b600080516020615507833981519152611886816131ab565b6015546000815b80156119da57600060156118a2600184614e4c565b815481106118b2576118b2614e1d565b6000918252602091829020604080516080810182526003939093029091018054835260018101546001600160a01b03908116948401949094526002015492831690820152600160a01b90910461ffff16606082015260158054919250908061191c5761191c614e5f565b6000828152602081206003600019909301928302018181556001810180546001600160a01b031916905560020180546001600160b01b03191690559155815161196490612ad1565b9050821580156119795750611977610ec9565b155b156119bc57806103e811156119a157604051630131cd7b60e51b815260040160405180910390fd5b6119ad6103e882614e4c565b90506119bc60016103e86136a7565b6119ca8260200151826136a7565b505191909101906000190161188d565b50600c546011546040516370a0823160e01b81526001600160a01b037f000000000000000000000000000000000000000000000000000000000000000016906370a0823190611a2d903090600401614ace565b602060405180830381865afa158015611a4a573d6000803e3d6000fd5b505050506040513d601f19601f82011682018060405250810190611a6e9190614f29565b611a789190614e4c565b611a829190614e4c565b811115611aa2576040516337b481d960e01b815260040160405180910390fd5b611aad816000613774565b6040518181527f4f5745f9a8198fa6e603922d263d7e2a62c3ac2ea9791f1f4679e40bdad52edd906020015b60405180910390a1505050565b600080516020615507833981519152611afe816131ab565b8160005b81811015611433576000858583818110611b1e57611b1e614e1d565b905060600201803603810190611b349190615036565b60208101519091506000819003611b4c575050611d27565b81516001600160a01b03811660009081526012602052604090205460ff16611b8757604051632df15a4160e11b815260040160405180910390fd5b611b9282600061350f565b611c28816001600160a01b031663a8c62e766040518163ffffffff1660e01b8152600401602060405180830381865afa158015611bd3573d6000803e3d6000fd5b505050506040513d601f19601f82011682018060405250810190611bf79190614e75565b6001600160a01b037f0000000000000000000000000000000000000000000000000000000000000000169084613786565b60408381015190516320e8c56560e01b81523060048201526001600160a01b037f000000000000000000000000000000000000000000000000000000000000000081166024830152600060448301526064820192909252908216906320e8c565906084016020604051808303816000875af1158015611cab573d6000803e3d6000fd5b505050506040513d601f19601f82011682018060405250810190611ccf9190614f29565b508160106000828254611ce29190614dac565b90915550506040517f46a80100e8cfe18c4729e50ad8704a292622bb8b711d9b6e915a1911f349206490611d1b90339084908690615052565b60405180910390a15050505b611d3081614e33565b9050611b02565b6002546001600160a01b03163314611d865760405162461bcd60e51b815260206004820152601260248201527127a7262cafa822a72224a723afa7aba722a960711b6044820152606401610d36565b600180546002546001600160a01b031982166001600160a01b039182161790925516611db36000826135ea565b611dcb600080516020615527833981519152826135ea565b611de3600080516020615507833981519152826135ea565b600154611dfb906000906001600160a01b0316613566565b600154611e2090600080516020615527833981519152906001600160a01b0316613566565b600154611e4590600080516020615507833981519152906001600160a01b0316613566565b6001546040517f8be0079c531659141344cd1fd0a4f28419497f9722a3daafe3b4186f6b6457e0916118489184916001600160a01b031690615076565b6000611e8c610ec9565b90506000611e9933611853565b905080600003611ea7575050565b611eb133826137a5565b60008282601154611ec29190615090565b611ecc91906150af565b9050611ed981600061350f565b611f0d6001600160a01b037f0000000000000000000000000000000000000000000000000000000000000000163383613786565b60135460005b8181101561143357600060138281548110611f3057611f30614e1d565b60009182526020822001546040516370a0823160e01b81526001600160a01b03909116925082906370a0823190611f6b903090600401614ace565b602060405180830381865afa158015611f88573d6000803e3d6000fd5b505050506040513d601f19601f82011682018060405250810190611fac9190614f29565b9050600087611fbb8389615090565b611fc591906150af565b905080600003611fd757505050611fef565b611feb6001600160a01b0384163383613786565b5050505b611ff881614e33565b9050611f13565b60008061200a610ec9565b90508015610bfe57610bf98161201e61276c565b859190612e12565b6000918252602082815260408084206001600160a01b0393909316845291905290205460ff1690565b600061205a8361241a565b90506120916001600160a01b037f00000000000000000000000000000000000000000000000000000000000000001633308461364f565b61209b82846136a7565b816001600160a01b0316336001600160a01b031660008051602061558783398151915283866040516120ce929190614f1b565b60405180910390a3610b3b8184613774565b6000806120ec336138e1565b60405163a9059cbb60e01b815291935091506001600160a01b037f0000000000000000000000000000000000000000000000000000000000000000169063a9059cbb9061213f90869086906004016150d1565b6020604051808303816000875af115801561215e573d6000803e3d6000fd5b505050506040513d601f19601f8201168201806040525081019061218291906150ea565b50336001600160a01b0316836001600160a01b0316336001600160a01b031660008051602061554783398151915285856040516121c0929190614f1b565b60405180910390a450919050565b6060600a8054610b5090614dbf565b6000600e816121f26040860160208701614965565b6001600160a01b0316815260208082019290925260409081016000208151606081018352905461ffff80821683526201000082041693820193909352600160201b90920460ff1615801591830191909152909150806122695750805161ffff166122626080850160608601615107565b61ffff1614155b156122985761227e6040840160208501614965565b6040516368692cbb60e11b8152600401610d369190614ace565b60208181015161ffff9081166000908152600f835260408082207f00000000000000000000000000000000000000000000000000000000000000009093168252919092529020546001600160a01b0316331461230957336040516306e02ebd60e11b8152600401610d369190614ace565b61231382846139a9565b6123236080840160608501615107565b61ffff166123376040850160208601614965565b6001600160a01b03167f649c8deb433503a93e61cbf3bd7afd938e936ce85fcf81928ab240068c6643a5856000013585336040516123779392919061515c565b60405180910390a3505050565b600033816123928286612901565b9050838110156123f25760405162461bcd60e51b815260206004820152602560248201527f45524332303a2064656372656173656420616c6c6f77616e63652062656c6f77604482015264207a65726f60d81b6064820152608401610d36565b6110908286868403612e31565b600033610c15818585612fef565b6124178133610c46565b50565b600080612425610ec9565b90508015610bfe57610bf9612438610af3565b849083612f4d565b600060405163d623472560e01b815260040160405180910390fd5b60008061246783611853565b9050600061247482610bd3565b9050600061248183612ccf565b90508082116124905781612492565b805b95945050505050565b60006124a6836120e0565b949350505050565b6000610b05336120e0565b6000805160206155078339815191526124d1816131ab565b8160005b818110156114335760008585838181106124f1576124f1614e1d565b9050606002018036038101906125079190615036565b6020810151909150600081900361251f575050612668565b81516001600160a01b03811660009081526012602052604090205460ff1661255a57604051632df15a4160e11b815260040160405180910390fd5b604083810151905163f3f094a160e01b8152306004820152602481018490526001600160a01b037f000000000000000000000000000000000000000000000000000000000000000081166044830152606482019290925260009183169063f3f094a1906084016020604051808303816000875af11580156125df573d6000803e3d6000fd5b505050506040513d601f19601f820116820180604052508101906126039190614f29565b905080601060008282546126179190614e4c565b909155506126289050816000613774565b7f60e3ebbed9f935b37adbc6b7a8ad559873ced28247296a76a4d3b81a9e5eb19a33838360405161265b93929190615052565b60405180910390a1505050505b61267181614e33565b90506124d5565b60606013805480602002602001604051908101604052809291908181526020018280548015610bc957602002820191906000526020600020905b81546001600160a01b031681526001909101906020018083116126b2575050505050905090565b6000806126e4610ec9565b90508015610bfe57610bf98161201e610af3565b6014818154811061270857600080fd5b6000918252602090912001546001600160a01b0316905081565b6000610b3b61046f83611853565b6001546001600160a01b0316331461275a5760405162461bcd60e51b8152600401610d3690614df9565b61276684848484613a4a565b50505050565b601354600090815b8181101561282c5760006013828154811061279157612791614e1d565b600091825260209091200154604051633e64257560e01b81526001600160a01b0390911691508190633e642575906127cd903090600401614ace565b602060405180830381865afa1580156127ea573d6000803e3d6000fd5b505050506040513d601f19601f8201168201806040525081019061280e9190614f29565b6128189085614dac565b9350508061282590614e33565b9050612774565b506040516370a0823160e01b81526001600160a01b037f000000000000000000000000000000000000000000000000000000000000000016906370a0823190612879903090600401614ace565b602060405180830381865afa158015612896573d6000803e3d6000fd5b505050506040513d601f19601f820116820180604052508101906128ba9190614f29565b6128c49083614dac565b91505090565b6128d38261109b565b6128dc816131ab565b61145683836135ea565b6013818154811061270857600080fd5b6000610b3b82611853565b6001600160a01b03918216600090815260076020908152604080832093909416825291909152205490565b600080516020615507833981519152612944816131ab565b600061294e613b91565b90506000601154826129609190614dac565b905061296d858286613c58565b61143382613c9d565b336000908152600d60205260408120600181015460028201548361299983610bd3565b9050818110156129ae57600094505050505090565b816129b98183614e4c565b6129cb90670de0b6b3a7640000615090565b6129d591906150af565b94505050505090565b336000908152600d60205260408120600181015460028201549192909190612a0583610bd3565b90506000846002018190555081600c6000828254612a239190614e4c565b909155505081811015612a3b57612766303385612fef565b600081612a488486615090565b612a5291906150af565b90506000612a608286614e4c565b9050612a6d303384612fef565b612a7730826137a5565b505050505050565b600080612a8a610ec9565b9050600083612a97610af3565b612aa19190614e4c565b905080600003612ab357509192915050565b8115612ac957612ac4848383612e12565b6124a6565b509192915050565b6000610b3b826126d9565b6001546001600160a01b03163314612b065760405162461bcd60e51b8152600401610d3690614df9565b600580546001600160a01b0319166001600160a01b0383169081179091556040517fcb7ef3e545f5cdb893f5c568ba710fe08f336375a2d9fd66e161033f8fc09ef390600090a250565b6001546001600160a01b03163314612b7a5760405162461bcd60e51b8152600401610d3690614df9565b6001600160a01b0382166000908152600e602090815260408083208151606081018352905461ffff80821680845262010000830490911694830194909452600160201b900460ff161515918101919091529103612bec5782604051634ae8435d60e01b8152600401610d369190614ace565b6001600160a01b0383166000818152600e6020908152604091829020805463ffff000019166201000061ffff88169081029190911790915591519182527f1f97e73f29802f056373306e9e3198b79119f446f1b9595d0752ebc2a9146f2e9101611644565b6001546001600160a01b03163314612c7b5760405162461bcd60e51b8152600401610d3690614df9565b600280546001600160a01b0319166001600160a01b038381169182179092556001546040517fb150023a879fd806e3599b6ca8ee3b60f0e360ab3846d128d67ebce1a391639a936118489392169190615076565b600080612cda610ec9565b90508015610bfe57610bf9610bf161276c565b6001546001600160a01b03163314612d175760405162461bcd60e51b8152600401610d3690614df9565b66b1a2bc2ec50000811115612d3f57604051635b94d8b160e01b815260040160405180910390fd5b60048190556040518181527fd87632b1c6ebfa21acbca0e3279b3cf6385a377cb8fda51e5b866baa6e6012ab90602001611848565b6001546001600160a01b03163314612d9e5760405162461bcd60e51b8152600401610d3690614df9565b612dde8383838080601f016020809104026020016040519081016040528093929190818152602001838380828437600092019190915250613e4792505050565b507fa9f1cb7eee5fc621e043c1ef431febb0f901998a6c0cbdf70147b0fe4d9f5a6a838383604051611ad993929190615189565b828202811515841585830485141716612e2a57600080fd5b0492915050565b6001600160a01b038316612e935760405162461bcd60e51b8152602060048201526024808201527f45524332303a20617070726f76652066726f6d20746865207a65726f206164646044820152637265737360e01b6064820152608401610d36565b6001600160a01b038216612ef45760405162461bcd60e51b815260206004820152602260248201527f45524332303a20617070726f766520746f20746865207a65726f206164647265604482015261737360f01b6064820152608401610d36565b6001600160a01b0383811660008181526007602090815260408083209487168084529482529182902085905590518481527f8c5be1e5ebec7d5bd14f71427d1e84f3dd0314c0f7b2291e5b200ac8c7c3b9259101612377565b828202811515841585830485141716612f6557600080fd5b6001826001830304018115150290509392505050565b6000612f878484612901565b905060001981146127665781811015612fe25760405162461bcd60e51b815260206004820152601d60248201527f45524332303a20696e73756666696369656e7420616c6c6f77616e63650000006044820152606401610d36565b6127668484848403612e31565b6001600160a01b0383166130535760405162461bcd60e51b815260206004820152602560248201527f45524332303a207472616e736665722066726f6d20746865207a65726f206164604482015264647265737360d81b6064820152608401610d36565b6001600160a01b0382166130b55760405162461bcd60e51b815260206004820152602360248201527f45524332303a207472616e7366657220746f20746865207a65726f206164647260448201526265737360e81b6064820152608401610d36565b6001600160a01b0383166000908152600660205260409020548181101561312d5760405162461bcd60e51b815260206004820152602660248201527f45524332303a207472616e7366657220616d6f756e7420657863656564732062604482015265616c616e636560d01b6064820152608401610d36565b6001600160a01b03808516600090815260066020526040808220858503905591851681529081208054849290613164908490614dac565b92505081905550826001600160a01b0316846001600160a01b03166000805160206155678339815191528460405161319e91815260200190565b60405180910390a3612766565b6124178133613e89565b6000806131c1836138e1565b90925090506131d030826137a5565b826001600160a01b0316836001600160a01b0316846001600160a01b031660008051602061554783398151915285856040516121c0929190614f1b565b6020808401805161ffff9081166000908152600f80855260408083207f0000000000000000000000000000000000000000000000000000000000000000851684528652808320549451841683529085528082208851909316825291909352909120546001600160a01b039182169116816132c25784602001517f00000000000000000000000000000000000000000000000000000000000000006040516328a4ac9160e11b8152600401610d369291906151c9565b6001600160a01b0381166132f257602085015185516040516328a4ac9160e11b8152610d369291906004016151c9565b8451604051630e510a7760e41b81526001600160a01b0384169163e510a770916133299188918b9187918a919033906004016151de565b600060405180830381600087803b15801561334357600080fd5b505af1158015613357573d6000803e3d6000fd5b50505050846000015161ffff16866001600160a01b03167ff3617f26552d0e4bd64927d1a7fe0d18f2278f99e2446ad6ac8f0a73c38840d8866000015186866040516133a59392919061515c565b60405180910390a3505050505050565b6000805160206155078339815191526133cd816131ab565b61341183838080601f0160208091040260200160405190810160405280939291908181526020018383808284376000920191909152508892508d91508a9050613eed565b60405163095ea7b360e01b81526001600160a01b038a169063095ea7b39061343f908b9089906004016150d1565b6020604051808303816000875af115801561345e573d6000803e3d6000fd5b505050506040513d601f19601f8201168201806040525081019061348291906150ea565b506000876001600160a01b0316848460405161349f929190615259565b6000604051808303816000865af19150503d80600081146134dc576040519150601f19603f3d011682016040523d82523d6000602084013e6134e1565b606091505b50509050806135035760405163e0fec00360e01b815260040160405180910390fd5b50505050505050505050565b81601154108061352d5750600c548260115461352b9190614e4c565b105b1561354b5760405163078cc1fb60e01b815260040160405180910390fd5b816011600082825461355d9190614e4c565b90915550505050565b6135708282612026565b61156e576000828152602081815260408083206001600160a01b03851684529091529020805460ff191660011790556135a63390565b6001600160a01b0316816001600160a01b0316837f2f8788117e7eff1d82e926ec794901d17c78024a50270940304540a733656f0d60405160405180910390a45050565b6135f48282612026565b1561156e576000828152602081815260408083206001600160a01b0385168085529252808320805460ff1916905551339285917ff6391f5c32d9c69d2a47ea670b442974b53935d1edc7fd64eb21e047a839171b9190a45050565b612766846323b872dd60e01b85858560405160240161367093929190615052565b60408051601f198184030181529190526020810180516001600160e01b03166001600160e01b031990931692909217909152614004565b6001600160a01b0382166136fd5760405162461bcd60e51b815260206004820152601f60248201527f45524332303a206d696e7420746f20746865207a65726f2061646472657373006044820152606401610d36565b806008600082825461370f9190614dac565b90915550506001600160a01b0382166000908152600660205260408120805483929061373c908490614dac565b90915550506040518181526001600160a01b038316906000906000805160206155678339815191529060200160405180910390a35050565b816011600082825461355d9190614dac565b6114568363a9059cbb60e01b84846040516024016136709291906150d1565b6001600160a01b0382166138055760405162461bcd60e51b815260206004820152602160248201527f45524332303a206275726e2066726f6d20746865207a65726f206164647265736044820152607360f81b6064820152608401610d36565b6001600160a01b038216600090815260066020526040902054818110156138795760405162461bcd60e51b815260206004820152602260248201527f45524332303a206275726e20616d6f756e7420657863656564732062616c616e604482015261636560f01b6064820152608401610d36565b6001600160a01b03831660009081526006602052604081208383039055600880548492906138a8908490614e4c565b90915550506040518281526000906001600160a01b038516906000805160206155678339815191529060200160405180910390a3505050565b6001600160a01b0381166000908152600d602052604081206002810154829190820361392057604051631f2a200560e01b815260040160405180910390fd5b600b5481541061394357604051634a44555360e11b815260040160405180910390fd5b60018101546002820154909250600061395b84610bd3565b905081811061396a578161396c565b805b945081600c60008282546139809190614e4c565b909155506139909050858561350f565b600060028401556139a130856137a5565b505050915091565b60018260048111156139bd576139bd615124565b036139cb5761156e816140d6565b60048260048111156139df576139df615124565b036139ed5761156e81614117565b6002826004811115613a0157613a01615124565b03613a0f5761156e816141ef565b6003826004811115613a2357613a23615124565b03613a315761156e816142c0565b60405163d623472560e01b815260040160405180910390fd5b6001546001600160a01b03163314613a745760405162461bcd60e51b8152600401610d3690614df9565b6001600160a01b0384166000908152600e60209081526040918290208251606081018452905461ffff80821683526201000082041692820192909252600160201b90910460ff161580159282019290925290613ae357604051630cb3e97f60e31b815260040160405180910390fd5b6040805160608101825261ffff86811680835286821660208085019182528715158587019081526001600160a01b038c166000818152600e845288902096518754945192511515600160201b0260ff60201b19938816620100000263ffffffff199096169190971617939093171693909317909355925192835290917fdfdecea9ea3fba2ae2104af96f9be11589a507814dfd462dadc83c581da372b0910160405180910390a25050505050565b601354600090815b81811015613c5357600060138281548110613bb657613bb6614e1d565b600091825260209091200154604051631132ffbf60e11b81526001600160a01b0390911691508190632265ff7e90613bf2903090600401614ace565b6020604051808303816000875af1158015613c11573d6000803e3d6000fd5b505050506040513d601f19601f82011682018060405250810190613c359190614f29565b613c3f9085614dac565b93505080613c4c90614e33565b9050613b99565b505090565b6000828411613c7057613c6b8484614e4c565b613c7a565b613c7a8385614e4c565b90508181111561276657604051638199f5f360e01b815260040160405180910390fd5b600c546011541015613cc25760405163078cc1fb60e01b815260040160405180910390fd5b60006010548211613cd4576000613ce1565b601054613ce19083614e4c565b6011549091504290600090613cf69085614dac565b6010859055905060008315613d2b57670de0b6b3a764000060035485613d1c9190615090565b613d2691906150af565b613d2e565b60005b90506000600454600014613d89576301e13380670de0b6b3a7640000600b5486613d589190614e4c565b85600454613d669190615090565b613d709190615090565b613d7a91906150af565b613d8491906150af565b613d8c565b60005b90506000613d9a8284614dac565b905060008115613dda57613dc1613daf610ec9565b613db98488614e4c565b849190612e12565b600554909150613dda906001600160a01b0316826136a7565b600554604080518981526020810187905290810185905260608101839052608081018790526001600160a01b03909116907feaedd1267621f4a8ee97011faf0e67800ad3063714bd179f078c980bb9a3fa3d9060a00160405180910390a2505050600b9290925550505050565b6060610c0083836040518060400160405280601e81526020017f416464726573733a206c6f772d6c6576656c2063616c6c206661696c6564000081525061437b565b613e938282612026565b61156e57613eab816001600160a01b0316601461438a565b613eb683602061438a565b604051602001613ec7929190615269565b60408051601f198184030181529082905262461bcd60e51b8252610d36916004016148a8565b613ef56147d4565b613efe85614525565b905083816020015114613f455760405162461bcd60e51b815260206004820152600f60248201526e125b9d985b1a590818da185a5b9259608a1b6044820152606401610d36565b816001600160a01b031681600001516001600160a01b031614613fa55760405162461bcd60e51b8152602060048201526018602482015277496e76616c6964207265636569766572206164647265737360401b6044820152606401610d36565b826001600160a01b03168160800151604001516001600160a01b0316146114335760405162461bcd60e51b815260206004820152601360248201527224b73b30b634b21034b7383aba103a37b5b2b760691b6044820152606401610d36565b6000614059826040518060400160405280602081526020017f5361666545524332303a206c6f772d6c6576656c2063616c6c206661696c6564815250856001600160a01b031661437b9092919063ffffffff16565b805190915015611456578080602001905181019061407791906150ea565b6114565760405162461bcd60e51b815260206004820152602a60248201527f5361666545524332303a204552433230206f7065726174696f6e20646964206e6044820152691bdd081cdd58d8d9595960b21b6064820152608401610d36565b6015805460018101825560009190915281906003027f55f448fdea98c4d29eb340757ef0a66cd03dbb9538908a6a81d96026b71ec4750161145682826152f8565b600061412c6105e76040840160208501614965565b90506000600e816141436040860160208701614965565b6001600160a01b0316815260208082019290925260409081016000208151606081018352905461ffff80821683526201000082041682850152600160201b900460ff161515818301529250611456916141a0918601908601614965565b6040805160808101825285815230602082015260009181019190915261ffff7f00000000000000000000000000000000000000000000000000000000000000001660608201528390600461320d565b600d60006142036040840160208501614965565b6001600160a01b03166001600160a01b03168152602001908152602001600020600201546000036142735760146142406040830160208401614965565b81546001810183556000928352602090922090910180546001600160a01b0319166001600160a01b039092169190911790555b60006142886107026040840160208501614965565b90506000670de0b6b3a76400006142a0838535615090565b6142aa91906150af565b9050611456816104a86040860160208701614965565b6000670de0b6b3a76400006142de6107026040850160208601614965565b6142e9908435615090565b6142f391906150af565b905061431e6143086040840160208501614965565b6143186060850160408601614965565b83612fef565b7ff24ef89f38eadc1bde50701ad6e4d6d11a2dc24f7cf834a486991f388332850461434f6040840160208501614965565b61435f6060850160408601614965565b8360405161436f93929190615052565b60405180910390a15050565b60606124a6848460008561455d565b60606000614399836002615090565b6143a4906002614dac565b6001600160401b038111156143bb576143bb614f42565b6040519080825280601f01601f1916602001820160405280156143e5576020820181803683370190505b509050600360fc1b8160008151811061440057614400614e1d565b60200101906001600160f81b031916908160001a905350600f60fb1b8160018151811061442f5761442f614e1d565b60200101906001600160f81b031916908160001a9053506000614453846002615090565b61445e906001614dac565b90505b60018111156144d6576f181899199a1a9b1b9c1cb0b131b232b360811b85600f166010811061449257614492614e1d565b1a60f81b8282815181106144a8576144a8614e1d565b60200101906001600160f81b031916908160001a90535060049490941c936144cf81615361565b9050614461565b508315610c005760405162461bcd60e51b815260206004820181905260248201527f537472696e67733a20686578206c656e67746820696e73756666696369656e746044820152606401610d36565b61452d6147d4565b60006145478360048086516145429190614e4c565b61468e565b905080806020019051810190610c00919061543b565b6060824710156145be5760405162461bcd60e51b815260206004820152602660248201527f416464726573733a20696e73756666696369656e742062616c616e636520666f6044820152651c8818d85b1b60d21b6064820152608401610d36565b6001600160a01b0385163b6146155760405162461bcd60e51b815260206004820152601d60248201527f416464726573733a2063616c6c20746f206e6f6e2d636f6e74726163740000006044820152606401610d36565b600080866001600160a01b0316858760405161463191906154f4565b60006040518083038185875af1925050503d806000811461466e576040519150601f19603f3d011682016040523d82523d6000602084013e614673565b606091505b509150915061468382828661479b565b979650505050505050565b60608161469c81601f614dac565b10156146db5760405162461bcd60e51b815260206004820152600e60248201526d736c6963655f6f766572666c6f7760901b6044820152606401610d36565b6146e58284614dac565b845110156147295760405162461bcd60e51b8152602060048201526011602482015270736c6963655f6f75744f66426f756e647360781b6044820152606401610d36565b6060821580156147485760405191506000825260208201604052614792565b6040519150601f8416801560200281840101858101878315602002848b0101015b81831015614781578051835260209283019201614769565b5050858452601f01601f1916604052505b50949350505050565b606083156147aa575081610c00565b8251156147ba5782518084602001fd5b8160405162461bcd60e51b8152600401610d3691906148a8565b6040518060a0016040528060006001600160a01b0316815260200160008152602001600081526020016148316040518060800160405280600081526020016000815260200160006001600160a01b03168152602001606081525090565b815260408051608081018252600080825260208281018290529282015260608082015291015290565b60006020828403121561486c57600080fd5b81356001600160e01b031981168114610c0057600080fd5b60005b8381101561489f578181015183820152602001614887565b50506000910152565b60208152600082518060208401526148c7816040850160208701614884565b601f01601f19169190910160400192915050565b6000602082840312156148ed57600080fd5b5035919050565b6001600160a01b038116811461241757600080fd5b6000806040838503121561491c57600080fd5b8235614927816148f4565b946020939093013593505050565b6000806040838503121561494857600080fd5b82359150602083013561495a816148f4565b809150509250929050565b60006020828403121561497757600080fd5b8135610c00816148f4565b60008060006060848603121561499757600080fd5b83356149a2816148f4565b925060208401356149b2816148f4565b929592945050506040919091013590565b600080602083850312156149d657600080fd5b82356001600160401b03808211156149ed57600080fd5b818501915085601f830112614a0157600080fd5b813581811115614a1057600080fd5b8660208260051b8501011115614a2557600080fd5b60209290920196919550909350505050565b801515811461241757600080fd5b60008060408385031215614a5857600080fd5b8235614a63816148f4565b9150602083013561495a81614a37565b61ffff8116811461241757600080fd5b600080600060608486031215614a9857600080fd5b8335614aa381614a73565b92506020840135614ab381614a73565b91506040840135614ac3816148f4565b809150509250925092565b6001600160a01b0391909116815260200190565b60008083601f840112614af457600080fd5b5081356001600160401b03811115614b0b57600080fd5b602083019150836020606083028501011115614b2657600080fd5b9250929050565b60008060208385031215614b4057600080fd5b82356001600160401b03811115614b5657600080fd5b614b6285828601614ae2565b90969095509350505050565b60008082840360a0811215614b8257600080fd5b6080811215614b9057600080fd5b5082915060808301356005811061495a57600080fd5b60008060408385031215614bb957600080fd5b8235614bc481614a73565b9150602083013561495a81614a73565b600080600060608486031215614be957600080fd5b833592506020840135614ab3816148f4565b6020808252825182820181905260009190848201906040850190845b81811015614c3c5783516001600160a01b031683529284019291840191600101614c17565b50909695505050505050565b60008060008060808587031215614c5e57600080fd5b8435614c69816148f4565b93506020850135614c7981614a73565b92506040850135614c8981614a73565b91506060850135614c9981614a37565b939692955090935050565b60008060408385031215614cb757600080fd5b8235614cc2816148f4565b9150602083013561495a816148f4565b60008060408385031215614ce557600080fd5b50508035926020909101359150565b60008060408385031215614d0757600080fd5b8235614bc4816148f4565b600080600060408486031215614d2757600080fd5b8335614d32816148f4565b925060208401356001600160401b0380821115614d4e57600080fd5b818601915086601f830112614d6257600080fd5b813581811115614d7157600080fd5b876020828501011115614d8357600080fd5b6020830194508093505050509250925092565b634e487b7160e01b600052601160045260246000fd5b80820180821115610b3b57610b3b614d96565b600181811c90821680614dd357607f821691505b602082108103614df357634e487b7160e01b600052602260045260246000fd5b50919050565b6020808252600a908201526927a7262cafa7aba722a960b11b604082015260600190565b634e487b7160e01b600052603260045260246000fd5b600060018201614e4557614e45614d96565b5060010190565b81810381811115610b3b57610b3b614d96565b634e487b7160e01b600052603160045260246000fd5b600060208284031215614e8757600080fd5b8151610c00816148f4565b600060208284031215614ea457600080fd5b815160ff81168114610c0057600080fd5b6000823560be19833603018112614ecb57600080fd5b9190910192915050565b6000808335601e19843603018112614eec57600080fd5b8301803591506001600160401b03821115614f0657600080fd5b602001915036819003821315614b2657600080fd5b918252602082015260400190565b600060208284031215614f3b57600080fd5b5051919050565b634e487b7160e01b600052604160045260246000fd5b604051608081016001600160401b0381118282101715614f7a57614f7a614f42565b60405290565b60405160a081016001600160401b0381118282101715614f7a57614f7a614f42565b604051601f8201601f191681016001600160401b0381118282101715614fca57614fca614f42565b604052919050565b600060608284031215614fe457600080fd5b604051606081016001600160401b038111828210171561500657615006614f42565b6040529050808235615017816148f4565b8082525060208301356020820152604083013560408201525092915050565b60006060828403121561504857600080fd5b610c008383614fd2565b6001600160a01b039384168152919092166020820152604081019190915260600190565b6001600160a01b0392831681529116602082015260400190565b60008160001904831182151516156150aa576150aa614d96565b500290565b6000826150cc57634e487b7160e01b600052601260045260246000fd5b500490565b6001600160a01b03929092168252602082015260400190565b6000602082840312156150fc57600080fd5b8151610c0081614a37565b60006020828403121561511957600080fd5b8135610c0081614a73565b634e487b7160e01b600052602160045260246000fd5b6005811061515857634e487b7160e01b600052602160045260246000fd5b9052565b83815260608101615170602083018561513a565b6001600160a01b03929092166040919091015292915050565b6001600160a01b03841681526040602082018190528101829052818360608301376000818301606090810191909152601f909201601f1916010192915050565b61ffff92831681529116602082015260400190565b60006101208201905087518252602088015160018060a01b0380821660208501528060408b015116604085015260608a0151915061ffff8083166060860152818a16608086015281891660a086015261523a60c086018961513a565b80871660e0860152508085166101008501525050979650505050505050565b8183823760009101908152919050565b76020b1b1b2b9b9a1b7b73a3937b61d1030b1b1b7bab73a1604d1b81526000835161529b816017850160208801614884565b7001034b99036b4b9b9b4b733903937b6329607d1b60179184019182015283516152cc816028840160208801614884565b01602801949350505050565b80546001600160a01b0319166001600160a01b0392909216919091179055565b81358155602082013561530a816148f4565b61531781600184016152d8565b5060028101604083013561532a816148f4565b61533481836152d8565b50606083013561534381614a73565b815461ffff60a01b191660a09190911b61ffff60a01b161790555050565b60008161537057615370614d96565b506000190190565b60006080828403121561538a57600080fd5b615392614f58565b9050815181526020808301518183015260408301516153b0816148f4565b604083015260608301516001600160401b03808211156153cf57600080fd5b818501915085601f8301126153e357600080fd5b8151818111156153f5576153f5614f42565b615407601f8201601f19168501614fa2565b9150808252868482850101111561541d57600080fd5b61542c81858401868601614884565b50606084015250909392505050565b60006020828403121561544d57600080fd5b81516001600160401b038082111561546457600080fd5b9083019060a0828603121561547857600080fd5b615480614f80565b825161548b816148f4565b8082525060208301516020820152604083015160408201526060830151828111156154b557600080fd5b6154c187828601615378565b6060830152506080830151828111156154d957600080fd5b6154e587828601615378565b60808301525095945050505050565b60008251614ecb81846020870161488456feaf290d8680820aad922855f39b306097b20e28774d6c1ad35a20325630c3a02c8b5b16d04624687fcf0d0228f19993c9157c1ed07b41d8d430fd9100eb099fe8fbde797d201c681b91056529119e0b02407c7bb96a4a2c75c01fc9667232c8dbddf252ad1be2c89b69c2b068fc378daa952ba7f163c4a11628f55a4df523b3efdcbc1c05240f31ff3ad067ef1ee35ce4997762752e3a095284754544f4c709d7a2646970667358221220a2d91bc73eeee3831833e5c1ddef5832abd2d8e71421704795c9fc3a855cb51164736f6c63430008100033af290d8680820aad922855f39b306097b20e28774d6c1ad35a20325630c3a02c8b5b16d04624687fcf0d0228f19993c9157c1ed07b41d8d430fd9100eb099fe8",
  "devdoc": {
    "kind": "dev",
    "methods": {
      "acceptOwnership()": {
        "details": "Accept transfer of ownership of the contract. Can only be called by the pendingOwner."
      },
      "allowance(address,address)": {
        "details": "See {IERC20-allowance}."
      },
      "approve(address,uint256)": {
        "details": "See {IERC20-approve}. NOTE: If `amount` is the maximum `uint256`, the allowance is not updated on `transferFrom`. This is semantically equivalent to an infinite approval. Requirements: - `spender` cannot be the zero address."
      },
      "balanceOf(address)": {
        "details": "See {IERC20-balanceOf}."
      },
      "decimals()": {
        "details": "Returns the number of decimals used to get its user representation. For example, if `decimals` equals `2`, a balance of `505` tokens should be displayed to a user as `5.05` (`505 / 10 ** 2`). Tokens usually opt for a value of 18, imitating the relationship between Ether and Wei. This is the value {ERC20} uses, unless this function is overridden; NOTE: This information is only used for _display_ purposes: it in no way affects any of the arithmetic of the contract, including {IERC20-balanceOf} and {IERC20-transfer}."
      },
      "decreaseAllowance(address,uint256)": {
        "details": "Atomically decreases the allowance granted to `spender` by the caller. This is an alternative to {approve} that can be used as a mitigation for problems described in {IERC20-approve}. Emits an {Approval} event indicating the updated allowance. Requirements: - `spender` cannot be the zero address. - `spender` must have allowance for the caller of at least `subtractedValue`."
      },
      "estimateUnderlyingBalance(address)": {
        "details": "returns accurate value used to estimate current value"
      },
      "getRoleAdmin(bytes32)": {
        "details": "Returns the admin role that controls `role`. See {grantRole} and {revokeRole}. To change a role's admin, use {_setRoleAdmin}."
      },
      "grantRole(bytes32,address)": {
        "details": "Grants `role` to `account`. If `account` had not been already granted `role`, emits a {RoleGranted} event. Requirements: - the caller must have ``role``'s admin role. May emit a {RoleGranted} event."
      },
      "hasRole(bytes32,address)": {
        "details": "Returns `true` if `account` has been granted `role`."
      },
      "increaseAllowance(address,uint256)": {
        "details": "Atomically increases the allowance granted to `spender` by the caller. This is an alternative to {approve} that can be used as a mitigation for problems described in {IERC20-approve}. Emits an {Approval} event indicating the updated allowance. Requirements: - `spender` cannot be the zero address."
      },
      "name()": {
        "details": "Returns the name of the token."
      },
      "redeem()": {
        "details": "safest UI method"
      },
      "renounceRole(bytes32,address)": {
        "details": "Revokes `role` from the calling account. Roles are often managed via {grantRole} and {revokeRole}: this function's purpose is to provide a mechanism for accounts to lose their privileges if they are compromised (such as when a trusted device is misplaced). If the calling account had been revoked `role`, emits a {RoleRevoked} event. Requirements: - the caller must be `account`. May emit a {RoleRevoked} event."
      },
      "revokeRole(bytes32,address)": {
        "details": "Revokes `role` from `account`. If `account` had been granted `role`, emits a {RoleRevoked} event. Requirements: - the caller must have ``role``'s admin role. May emit a {RoleRevoked} event."
      },
      "setManagementFee(uint256)": {
        "params": {
          "_managementFee": "The new performance fee."
        }
      },
      "setPerformanceFee(uint256)": {
        "params": {
          "_performanceFee": "The new performance fee."
        }
      },
      "setTreasury(address)": {
        "params": {
          "_treasury": "New treasury address."
        }
      },
      "sharesToUnderlying(uint256)": {
        "details": "current exchange rate (different from previewDeposit rate) this should be used for estiamtes of withdrawals"
      },
      "supportsInterface(bytes4)": {
        "details": "See {IERC165-supportsInterface}."
      },
      "symbol()": {
        "details": "Returns the symbol of the token, usually a shorter version of the name."
      },
      "transfer(address,uint256)": {
        "details": "See {IERC20-transfer}. Requirements: - `to` cannot be the zero address. - the caller must have a balance of at least `amount`."
      },
      "transferFrom(address,address,uint256)": {
        "details": "See {IERC20-transferFrom}. Emits an {Approval} event indicating the updated allowance. This is not required by the EIP. See the note at the beginning of {ERC20}. NOTE: Does not update the allowance if the current allowance is the maximum `uint256`. Requirements: - `from` and `to` cannot be the zero address. - `from` must have a balance of at least `amount`. - the caller must have allowance for ``from``'s tokens of at least `amount`."
      },
      "transferOwnership(address)": {
        "details": "Init transfer of ownership of the contract to a new account (`_pendingOwner`).",
        "params": {
          "_pendingOwner": "pending owner of contract Can only be called by the current owner."
        }
      },
      "underlyingBalance(address)": {
        "details": "returns a cached value used for withdrawals"
      },
      "underlyingToShares(uint256)": {
        "details": "current exchange rate (different from previewDeposit / previewWithdrawal rate) this should be used estimate of deposit fee"
      }
    },
    "version": 1
  },
  "userdoc": {
    "events": {
      "SetManagementFee(uint256)": {
        "notice": "Emitted when management fee is updated."
      },
      "SetPerformanceFee(uint256)": {
        "notice": "Emitted when performance fee is updated."
      }
    },
    "kind": "user",
    "methods": {
      "GUARDIAN()": {
        "notice": "Update vault params, perform time-sensitive operations, set manager"
      },
      "MANAGER()": {
        "notice": "Hot-wallet bots that route funds between vaults, rebalance and harvest strategies"
      },
      "depositIntoStrategies((address,uint256,uint256)[])": {
        "notice": "this can be done in parts in case gas limit is reached"
      },
      "emergencyAction(address,bytes)": {
        "notice": "this method allows an arbitrary method to be called by the owner in case of emergency owner must be a timelock contract in order to allow users to redeem funds in case they suspect this action to be malicious"
      },
      "getPenalty()": {
        "notice": "UI method to view cancellation penalty"
      },
      "getTvl()": {
        "notice": "returns expected tvl (used for estimate)"
      },
      "harvest(uint256,uint256)": {
        "notice": "We compute expected tvl off-chain first, to ensure this transactions isn't sandwitched"
      },
      "managementFee()": {
        "notice": "Annual management fee."
      },
      "owner()": {
        "notice": "Add and remove vaults and strategies and other critical operations behind timelock Default admin role There should only be one owner, so it is not a role"
      },
      "performanceFee()": {
        "notice": "The percentage of profit recognized each harvest to reserve as fees."
      },
      "redeemIsReady(address)": {
        "notice": "UTILS"
      },
      "setManagementFee(uint256)": {
        "notice": "Sets a new performanceFee."
      },
      "setPerformanceFee(uint256)": {
        "notice": "Sets a new performanceFee."
      },
      "setTreasury(address)": {
        "notice": "Updates treasury."
      },
      "treasury()": {
        "notice": "address where all fees are sent to"
      },
      "withdrawFromStrategies((address,uint256,uint256)[])": {
        "notice": "this can be done in parts in case gas limit is reached"
      }
    },
    "version": 1
  },
  "storageLayout": {
    "storage": [
      {
        "astId": 1634,
        "contract": "src/vaults/SectorVault.sol:SectorVault",
        "label": "_roles",
        "offset": 0,
        "slot": "0",
        "type": "t_mapping(t_bytes32,t_struct(RoleData)1629_storage)"
      },
      {
        "astId": 15515,
        "contract": "src/vaults/SectorVault.sol:SectorVault",
        "label": "owner",
        "offset": 0,
        "slot": "1",
        "type": "t_address"
      },
      {
        "astId": 15517,
        "contract": "src/vaults/SectorVault.sol:SectorVault",
        "label": "pendingOwner",
        "offset": 0,
        "slot": "2",
        "type": "t_address"
      },
      {
        "astId": 15859,
        "contract": "src/vaults/SectorVault.sol:SectorVault",
        "label": "performanceFee",
        "offset": 0,
        "slot": "3",
        "type": "t_uint256"
      },
      {
        "astId": 15862,
        "contract": "src/vaults/SectorVault.sol:SectorVault",
        "label": "managementFee",
        "offset": 0,
        "slot": "4",
        "type": "t_uint256"
      },
      {
        "astId": 15865,
        "contract": "src/vaults/SectorVault.sol:SectorVault",
        "label": "treasury",
        "offset": 0,
        "slot": "5",
        "type": "t_address"
      },
      {
        "astId": 2171,
        "contract": "src/vaults/SectorVault.sol:SectorVault",
        "label": "_balances",
        "offset": 0,
        "slot": "6",
        "type": "t_mapping(t_address,t_uint256)"
      },
      {
        "astId": 2177,
        "contract": "src/vaults/SectorVault.sol:SectorVault",
        "label": "_allowances",
        "offset": 0,
        "slot": "7",
        "type": "t_mapping(t_address,t_mapping(t_address,t_uint256))"
      },
      {
        "astId": 2179,
        "contract": "src/vaults/SectorVault.sol:SectorVault",
        "label": "_totalSupply",
        "offset": 0,
        "slot": "8",
        "type": "t_uint256"
      },
      {
        "astId": 2181,
        "contract": "src/vaults/SectorVault.sol:SectorVault",
        "label": "_name",
        "offset": 0,
        "slot": "9",
        "type": "t_string_storage"
      },
      {
        "astId": 2183,
        "contract": "src/vaults/SectorVault.sol:SectorVault",
        "label": "_symbol",
        "offset": 0,
        "slot": "10",
        "type": "t_string_storage"
      },
      {
        "astId": 28890,
        "contract": "src/vaults/SectorVault.sol:SectorVault",
        "label": "lastHarvestTimestamp",
        "offset": 0,
        "slot": "11",
        "type": "t_uint256"
      },
      {
        "astId": 28892,
        "contract": "src/vaults/SectorVault.sol:SectorVault",
        "label": "pendingWithdraw",
        "offset": 0,
        "slot": "12",
        "type": "t_uint256"
      },
      {
        "astId": 28897,
        "contract": "src/vaults/SectorVault.sol:SectorVault",
        "label": "withdrawLedger",
        "offset": 0,
        "slot": "13",
        "type": "t_mapping(t_address,t_struct(WithdrawRecord)28874_storage)"
      },
      {
        "astId": 16181,
        "contract": "src/vaults/SectorVault.sol:SectorVault",
        "label": "addrBook",
        "offset": 0,
        "slot": "14",
        "type": "t_mapping(t_address,t_struct(Vault)16940_storage)"
      },
      {
        "astId": 16187,
        "contract": "src/vaults/SectorVault.sol:SectorVault",
        "label": "postmanAddr",
        "offset": 0,
        "slot": "15",
        "type": "t_mapping(t_uint16,t_mapping(t_uint16,t_address))"
      },
      {
        "astId": 30560,
        "contract": "src/vaults/SectorVault.sol:SectorVault",
        "label": "totalChildHoldings",
        "offset": 0,
        "slot": "16",
        "type": "t_uint256"
      },
      {
        "astId": 30562,
        "contract": "src/vaults/SectorVault.sol:SectorVault",
        "label": "floatAmnt",
        "offset": 0,
        "slot": "17",
        "type": "t_uint256"
      },
      {
        "astId": 31750,
        "contract": "src/vaults/SectorVault.sol:SectorVault",
        "label": "strategyExists",
        "offset": 0,
        "slot": "18",
        "type": "t_mapping(t_contract(ISCYStrategy)18745,t_bool)"
      },
      {
        "astId": 31753,
        "contract": "src/vaults/SectorVault.sol:SectorVault",
        "label": "strategyIndex",
        "offset": 0,
        "slot": "19",
        "type": "t_array(t_address)dyn_storage"
      },
      {
        "astId": 31756,
        "contract": "src/vaults/SectorVault.sol:SectorVault",
        "label": "bridgeQueue",
        "offset": 0,
        "slot": "20",
        "type": "t_array(t_address)dyn_storage"
      },
      {
        "astId": 31760,
        "contract": "src/vaults/SectorVault.sol:SectorVault",
        "label": "depositQueue",
        "offset": 0,
        "slot": "21",
        "type": "t_array(t_struct(Message)16933_storage)dyn_storage"
      },
      {
        "astId": 31762,
        "contract": "src/vaults/SectorVault.sol:SectorVault",
        "label": "totalStrategyHoldings",
        "offset": 0,
        "slot": "22",
        "type": "t_uint256"
      }
    ],
    "types": {
      "t_address": {
        "encoding": "inplace",
        "label": "address",
        "numberOfBytes": "20"
      },
      "t_array(t_address)dyn_storage": {
        "base": "t_address",
        "encoding": "dynamic_array",
        "label": "address[]",
        "numberOfBytes": "32"
      },
      "t_array(t_struct(Message)16933_storage)dyn_storage": {
        "base": "t_struct(Message)16933_storage",
        "encoding": "dynamic_array",
        "label": "struct Message[]",
        "numberOfBytes": "32"
      },
      "t_bool": {
        "encoding": "inplace",
        "label": "bool",
        "numberOfBytes": "1"
      },
      "t_bytes32": {
        "encoding": "inplace",
        "label": "bytes32",
        "numberOfBytes": "32"
      },
      "t_contract(ISCYStrategy)18745": {
        "encoding": "inplace",
        "label": "contract ISCYStrategy",
        "numberOfBytes": "20"
      },
      "t_mapping(t_address,t_bool)": {
        "encoding": "mapping",
        "key": "t_address",
        "label": "mapping(address => bool)",
        "numberOfBytes": "32",
        "value": "t_bool"
      },
      "t_mapping(t_address,t_mapping(t_address,t_uint256))": {
        "encoding": "mapping",
        "key": "t_address",
        "label": "mapping(address => mapping(address => uint256))",
        "numberOfBytes": "32",
        "value": "t_mapping(t_address,t_uint256)"
      },
      "t_mapping(t_address,t_struct(Vault)16940_storage)": {
        "encoding": "mapping",
        "key": "t_address",
        "label": "mapping(address => struct Vault)",
        "numberOfBytes": "32",
        "value": "t_struct(Vault)16940_storage"
      },
      "t_mapping(t_address,t_struct(WithdrawRecord)28874_storage)": {
        "encoding": "mapping",
        "key": "t_address",
        "label": "mapping(address => struct WithdrawRecord)",
        "numberOfBytes": "32",
        "value": "t_struct(WithdrawRecord)28874_storage"
      },
      "t_mapping(t_address,t_uint256)": {
        "encoding": "mapping",
        "key": "t_address",
        "label": "mapping(address => uint256)",
        "numberOfBytes": "32",
        "value": "t_uint256"
      },
      "t_mapping(t_bytes32,t_struct(RoleData)1629_storage)": {
        "encoding": "mapping",
        "key": "t_bytes32",
        "label": "mapping(bytes32 => struct AccessControl.RoleData)",
        "numberOfBytes": "32",
        "value": "t_struct(RoleData)1629_storage"
      },
      "t_mapping(t_contract(ISCYStrategy)18745,t_bool)": {
        "encoding": "mapping",
        "key": "t_contract(ISCYStrategy)18745",
        "label": "mapping(contract ISCYStrategy => bool)",
        "numberOfBytes": "32",
        "value": "t_bool"
      },
      "t_mapping(t_uint16,t_address)": {
        "encoding": "mapping",
        "key": "t_uint16",
        "label": "mapping(uint16 => address)",
        "numberOfBytes": "32",
        "value": "t_address"
      },
      "t_mapping(t_uint16,t_mapping(t_uint16,t_address))": {
        "encoding": "mapping",
        "key": "t_uint16",
        "label": "mapping(uint16 => mapping(uint16 => address))",
        "numberOfBytes": "32",
        "value": "t_mapping(t_uint16,t_address)"
      },
      "t_string_storage": {
        "encoding": "bytes",
        "label": "string",
        "numberOfBytes": "32"
      },
      "t_struct(Message)16933_storage": {
        "encoding": "inplace",
        "label": "struct Message",
        "members": [
          {
            "astId": 16926,
            "contract": "src/vaults/SectorVault.sol:SectorVault",
            "label": "value",
            "offset": 0,
            "slot": "0",
            "type": "t_uint256"
          },
          {
            "astId": 16928,
            "contract": "src/vaults/SectorVault.sol:SectorVault",
            "label": "sender",
            "offset": 0,
            "slot": "1",
            "type": "t_address"
          },
          {
            "astId": 16930,
            "contract": "src/vaults/SectorVault.sol:SectorVault",
            "label": "client",
            "offset": 0,
            "slot": "2",
            "type": "t_address"
          },
          {
            "astId": 16932,
            "contract": "src/vaults/SectorVault.sol:SectorVault",
            "label": "chainId",
            "offset": 20,
            "slot": "2",
            "type": "t_uint16"
          }
        ],
        "numberOfBytes": "96"
      },
      "t_struct(RoleData)1629_storage": {
        "encoding": "inplace",
        "label": "struct AccessControl.RoleData",
        "members": [
          {
            "astId": 1626,
            "contract": "src/vaults/SectorVault.sol:SectorVault",
            "label": "members",
            "offset": 0,
            "slot": "0",
            "type": "t_mapping(t_address,t_bool)"
          },
          {
            "astId": 1628,
            "contract": "src/vaults/SectorVault.sol:SectorVault",
            "label": "adminRole",
            "offset": 0,
            "slot": "1",
            "type": "t_bytes32"
          }
        ],
        "numberOfBytes": "64"
      },
      "t_struct(Vault)16940_storage": {
        "encoding": "inplace",
        "label": "struct Vault",
        "members": [
          {
            "astId": 16935,
            "contract": "src/vaults/SectorVault.sol:SectorVault",
            "label": "chainId",
            "offset": 0,
            "slot": "0",
            "type": "t_uint16"
          },
          {
            "astId": 16937,
            "contract": "src/vaults/SectorVault.sol:SectorVault",
            "label": "postmanId",
            "offset": 2,
            "slot": "0",
            "type": "t_uint16"
          },
          {
            "astId": 16939,
            "contract": "src/vaults/SectorVault.sol:SectorVault",
            "label": "allowed",
            "offset": 4,
            "slot": "0",
            "type": "t_bool"
          }
        ],
        "numberOfBytes": "32"
      },
      "t_struct(WithdrawRecord)28874_storage": {
        "encoding": "inplace",
        "label": "struct WithdrawRecord",
        "members": [
          {
            "astId": 28869,
            "contract": "src/vaults/SectorVault.sol:SectorVault",
            "label": "timestamp",
            "offset": 0,
            "slot": "0",
            "type": "t_uint256"
          },
          {
            "astId": 28871,
            "contract": "src/vaults/SectorVault.sol:SectorVault",
            "label": "shares",
            "offset": 0,
            "slot": "1",
            "type": "t_uint256"
          },
          {
            "astId": 28873,
            "contract": "src/vaults/SectorVault.sol:SectorVault",
            "label": "value",
            "offset": 0,
            "slot": "2",
            "type": "t_uint256"
          }
        ],
        "numberOfBytes": "96"
      },
      "t_uint16": {
        "encoding": "inplace",
        "label": "uint16",
        "numberOfBytes": "2"
      },
      "t_uint256": {
        "encoding": "inplace",
        "label": "uint256",
        "numberOfBytes": "32"
      }
    }
  }
}