{
  "address": "0x514eF3171a7D2Fb36aec5EE6F7B131132F5e898E",
  "abi": [
    {
      "inputs": [
        {
          "internalType": "contract ERC20",
          "name": "_asset",
          "type": "address"
        },
        {
          "internalType": "string",
          "name": "_name",
          "type": "string"
        },
        {
          "internalType": "string",
          "name": "_symbol",
          "type": "string"
        },
        {
          "internalType": "address",
          "name": "_owner",
          "type": "address"
        },
        {
          "internalType": "address",
          "name": "_guardian",
          "type": "address"
        },
        {
          "internalType": "address",
          "name": "_manager",
          "type": "address"
        },
        {
          "internalType": "address",
          "name": "_treasury",
          "type": "address"
        },
        {
          "internalType": "uint256",
          "name": "_perforamanceFee",
          "type": "uint256"
        }
      ],
      "stateMutability": "nonpayable",
      "type": "constructor"
    },
    {
      "inputs": [],
      "name": "BridgeError",
      "type": "error"
    },
    {
      "inputs": [],
      "name": "EmergencyNotEnabled",
      "type": "error"
    },
    {
      "inputs": [],
      "name": "HarvestNotOpen",
      "type": "error"
    },
    {
      "inputs": [],
      "name": "InputSizeNotAppropriate",
      "type": "error"
    },
    {
      "inputs": [],
      "name": "MinLiquidity",
      "type": "error"
    },
    {
      "inputs": [],
      "name": "NotImplemented",
      "type": "error"
    },
    {
      "inputs": [],
      "name": "NotReady",
      "type": "error"
    },
    {
      "inputs": [],
      "name": "OnGoingHarvest",
      "type": "error"
    },
    {
      "inputs": [],
      "name": "SlippageExceeded",
      "type": "error"
    },
    {
      "inputs": [],
      "name": "VaultAlreadyAdded",
      "type": "error"
    },
    {
      "inputs": [
        {
          "internalType": "address",
          "name": "vault",
          "type": "address"
        }
      ],
      "name": "VaultNotAllowed",
      "type": "error"
    },
    {
      "inputs": [],
      "name": "ZeroAmount",
      "type": "error"
    },
    {
      "anonymous": false,
      "inputs": [
        {
          "indexed": false,
          "internalType": "address",
          "name": "vault",
          "type": "address"
        },
        {
          "indexed": false,
          "internalType": "uint16",
          "name": "chainId",
          "type": "uint16"
        },
        {
          "indexed": false,
          "internalType": "address",
          "name": "adapter",
          "type": "address"
        }
      ],
      "name": "AddVault",
      "type": "event"
    },
    {
      "anonymous": false,
      "inputs": [
        {
          "indexed": true,
          "internalType": "address",
          "name": "owner",
          "type": "address"
        },
        {
          "indexed": true,
          "internalType": "address",
          "name": "spender",
          "type": "address"
        },
        {
          "indexed": false,
          "internalType": "uint256",
          "name": "value",
          "type": "uint256"
        }
      ],
      "name": "Approval",
      "type": "event"
    },
    {
      "anonymous": false,
      "inputs": [
        {
          "indexed": false,
          "internalType": "uint32",
          "name": "_fromChainId",
          "type": "uint32"
        },
        {
          "indexed": false,
          "internalType": "uint32",
          "name": "_toChainId",
          "type": "uint32"
        },
        {
          "indexed": false,
          "internalType": "uint256",
          "name": "amount",
          "type": "uint256"
        }
      ],
      "name": "BridgeAsset",
      "type": "event"
    },
    {
      "anonymous": false,
      "inputs": [
        {
          "indexed": false,
          "internalType": "address",
          "name": "vault",
          "type": "address"
        },
        {
          "indexed": false,
          "internalType": "bool",
          "name": "status",
          "type": "bool"
        }
      ],
      "name": "ChangeVaultStatus",
      "type": "event"
    },
    {
      "anonymous": false,
      "inputs": [
        {
          "indexed": true,
          "internalType": "address",
          "name": "sender",
          "type": "address"
        },
        {
          "indexed": true,
          "internalType": "address",
          "name": "owner",
          "type": "address"
        },
        {
          "indexed": false,
          "internalType": "uint256",
          "name": "assets",
          "type": "uint256"
        },
        {
          "indexed": false,
          "internalType": "uint256",
          "name": "shares",
          "type": "uint256"
        }
      ],
      "name": "Deposit",
      "type": "event"
    },
    {
      "anonymous": false,
      "inputs": [
        {
          "indexed": false,
          "internalType": "address",
          "name": "owner",
          "type": "address"
        },
        {
          "indexed": false,
          "internalType": "address",
          "name": "pendingOwner",
          "type": "address"
        }
      ],
      "name": "OwnershipTransferInitiated",
      "type": "event"
    },
    {
      "anonymous": false,
      "inputs": [
        {
          "indexed": false,
          "internalType": "address",
          "name": "oldOwner",
          "type": "address"
        },
        {
          "indexed": false,
          "internalType": "address",
          "name": "newOwner",
          "type": "address"
        }
      ],
      "name": "OwnershipTransferred",
      "type": "event"
    },
    {
      "anonymous": false,
      "inputs": [
        {
          "indexed": true,
          "internalType": "address",
          "name": "caller",
          "type": "address"
        },
        {
          "indexed": true,
          "internalType": "address",
          "name": "owner",
          "type": "address"
        },
        {
          "indexed": false,
          "internalType": "uint256",
          "name": "shares",
          "type": "uint256"
        }
      ],
      "name": "RequestWithdraw",
      "type": "event"
    },
    {
      "anonymous": false,
      "inputs": [
        {
          "indexed": true,
          "internalType": "bytes32",
          "name": "role",
          "type": "bytes32"
        },
        {
          "indexed": true,
          "internalType": "bytes32",
          "name": "previousAdminRole",
          "type": "bytes32"
        },
        {
          "indexed": true,
          "internalType": "bytes32",
          "name": "newAdminRole",
          "type": "bytes32"
        }
      ],
      "name": "RoleAdminChanged",
      "type": "event"
    },
    {
      "anonymous": false,
      "inputs": [
        {
          "indexed": true,
          "internalType": "bytes32",
          "name": "role",
          "type": "bytes32"
        },
        {
          "indexed": true,
          "internalType": "address",
          "name": "account",
          "type": "address"
        },
        {
          "indexed": true,
          "internalType": "address",
          "name": "sender",
          "type": "address"
        }
      ],
      "name": "RoleGranted",
      "type": "event"
    },
    {
      "anonymous": false,
      "inputs": [
        {
          "indexed": true,
          "internalType": "bytes32",
          "name": "role",
          "type": "bytes32"
        },
        {
          "indexed": true,
          "internalType": "address",
          "name": "account",
          "type": "address"
        },
        {
          "indexed": true,
          "internalType": "address",
          "name": "sender",
          "type": "address"
        }
      ],
      "name": "RoleRevoked",
      "type": "event"
    },
    {
      "anonymous": false,
      "inputs": [
        {
          "indexed": false,
          "internalType": "uint256",
          "name": "performanceFee",
          "type": "uint256"
        }
      ],
      "name": "SetPerformanceFee",
      "type": "event"
    },
    {
      "anonymous": false,
      "inputs": [
        {
          "indexed": true,
          "internalType": "address",
          "name": "treasury",
          "type": "address"
        }
      ],
      "name": "SetTreasury",
      "type": "event"
    },
    {
      "anonymous": false,
      "inputs": [
        {
          "indexed": true,
          "internalType": "address",
          "name": "from",
          "type": "address"
        },
        {
          "indexed": true,
          "internalType": "address",
          "name": "to",
          "type": "address"
        },
        {
          "indexed": false,
          "internalType": "uint256",
          "name": "value",
          "type": "uint256"
        }
      ],
      "name": "Transfer",
      "type": "event"
    },
    {
      "anonymous": false,
      "inputs": [
        {
          "indexed": false,
          "internalType": "address",
          "name": "vault",
          "type": "address"
        },
        {
          "indexed": false,
          "internalType": "address",
          "name": "adapter",
          "type": "address"
        }
      ],
      "name": "UpdateVaultAdapter",
      "type": "event"
    },
    {
      "anonymous": false,
      "inputs": [
        {
          "indexed": true,
          "internalType": "address",
          "name": "sender",
          "type": "address"
        },
        {
          "indexed": true,
          "internalType": "address",
          "name": "receiver",
          "type": "address"
        },
        {
          "indexed": true,
          "internalType": "address",
          "name": "owner",
          "type": "address"
        },
        {
          "indexed": false,
          "internalType": "uint256",
          "name": "assets",
          "type": "uint256"
        },
        {
          "indexed": false,
          "internalType": "uint256",
          "name": "shares",
          "type": "uint256"
        }
      ],
      "name": "Withdraw",
      "type": "event"
    },
    {
      "inputs": [],
      "name": "DEFAULT_ADMIN_ROLE",
      "outputs": [
        {
          "internalType": "bytes32",
          "name": "",
          "type": "bytes32"
        }
      ],
      "stateMutability": "view",
      "type": "function"
    },
    {
      "inputs": [],
      "name": "GUARDIAN",
      "outputs": [
        {
          "internalType": "bytes32",
          "name": "",
          "type": "bytes32"
        }
      ],
      "stateMutability": "view",
      "type": "function"
    },
    {
      "inputs": [],
      "name": "MANAGER",
      "outputs": [
        {
          "internalType": "bytes32",
          "name": "",
          "type": "bytes32"
        }
      ],
      "stateMutability": "view",
      "type": "function"
    },
    {
      "inputs": [],
      "name": "MIN_LIQUIDITY",
      "outputs": [
        {
          "internalType": "uint256",
          "name": "",
          "type": "uint256"
        }
      ],
      "stateMutability": "view",
      "type": "function"
    },
    {
      "inputs": [],
      "name": "acceptOwnership",
      "outputs": [],
      "stateMutability": "nonpayable",
      "type": "function"
    },
    {
      "inputs": [
        {
          "internalType": "address",
          "name": "vault",
          "type": "address"
        },
        {
          "internalType": "uint16",
          "name": "chainId",
          "type": "uint16"
        },
        {
          "internalType": "address",
          "name": "adapter",
          "type": "address"
        },
        {
          "internalType": "bool",
          "name": "allowed",
          "type": "bool"
        }
      ],
      "name": "addVault",
      "outputs": [],
      "stateMutability": "nonpayable",
      "type": "function"
    },
    {
      "inputs": [
        {
          "internalType": "address",
          "name": "owner",
          "type": "address"
        },
        {
          "internalType": "address",
          "name": "spender",
          "type": "address"
        }
      ],
      "name": "allowance",
      "outputs": [
        {
          "internalType": "uint256",
          "name": "",
          "type": "uint256"
        }
      ],
      "stateMutability": "view",
      "type": "function"
    },
    {
      "inputs": [
        {
          "internalType": "address",
          "name": "spender",
          "type": "address"
        },
        {
          "internalType": "uint256",
          "name": "amount",
          "type": "uint256"
        }
      ],
      "name": "approve",
      "outputs": [
        {
          "internalType": "bool",
          "name": "",
          "type": "bool"
        }
      ],
      "stateMutability": "nonpayable",
      "type": "function"
    },
    {
      "inputs": [
        {
          "internalType": "address",
          "name": "account",
          "type": "address"
        }
      ],
      "name": "balanceOf",
      "outputs": [
        {
          "internalType": "uint256",
          "name": "",
          "type": "uint256"
        }
      ],
      "stateMutability": "view",
      "type": "function"
    },
    {
      "inputs": [
        {
          "internalType": "address",
          "name": "vault",
          "type": "address"
        },
        {
          "internalType": "bool",
          "name": "allowed",
          "type": "bool"
        }
      ],
      "name": "changeVaultStatus",
      "outputs": [],
      "stateMutability": "nonpayable",
      "type": "function"
    },
    {
      "inputs": [
        {
          "internalType": "uint256",
          "name": "shares",
          "type": "uint256"
        }
      ],
      "name": "convertToAssets",
      "outputs": [
        {
          "internalType": "uint256",
          "name": "",
          "type": "uint256"
        }
      ],
      "stateMutability": "view",
      "type": "function"
    },
    {
      "inputs": [
        {
          "internalType": "uint256",
          "name": "assets",
          "type": "uint256"
        }
      ],
      "name": "convertToShares",
      "outputs": [
        {
          "internalType": "uint256",
          "name": "",
          "type": "uint256"
        }
      ],
      "stateMutability": "view",
      "type": "function"
    },
    {
      "inputs": [],
      "name": "decimals",
      "outputs": [
        {
          "internalType": "uint8",
          "name": "",
          "type": "uint8"
        }
      ],
      "stateMutability": "view",
      "type": "function"
    },
    {
      "inputs": [
        {
          "internalType": "address",
          "name": "spender",
          "type": "address"
        },
        {
          "internalType": "uint256",
          "name": "subtractedValue",
          "type": "uint256"
        }
      ],
      "name": "decreaseAllowance",
      "outputs": [
        {
          "internalType": "bool",
          "name": "",
          "type": "bool"
        }
      ],
      "stateMutability": "nonpayable",
      "type": "function"
    },
    {
      "inputs": [
        {
          "internalType": "uint256",
          "name": "assets",
          "type": "uint256"
        },
        {
          "internalType": "address",
          "name": "receiver",
          "type": "address"
        }
      ],
      "name": "deposit",
      "outputs": [
        {
          "internalType": "uint256",
          "name": "shares",
          "type": "uint256"
        }
      ],
      "stateMutability": "nonpayable",
      "type": "function"
    },
    {
      "inputs": [
        {
          "internalType": "address[]",
          "name": "vaults",
          "type": "address[]"
        },
        {
          "internalType": "uint256[]",
          "name": "amounts",
          "type": "uint256[]"
        }
      ],
      "name": "depositIntoVaults",
      "outputs": [],
      "stateMutability": "nonpayable",
      "type": "function"
    },
    {
      "inputs": [
        {
          "internalType": "address",
          "name": "",
          "type": "address"
        }
      ],
      "name": "depositedVaults",
      "outputs": [
        {
          "internalType": "uint16",
          "name": "chainId",
          "type": "uint16"
        },
        {
          "internalType": "address",
          "name": "adapter",
          "type": "address"
        },
        {
          "internalType": "bool",
          "name": "allowed",
          "type": "bool"
        }
      ],
      "stateMutability": "view",
      "type": "function"
    },
    {
      "inputs": [],
      "name": "emergencyWithdraw",
      "outputs": [],
      "stateMutability": "nonpayable",
      "type": "function"
    },
    {
      "inputs": [
        {
          "internalType": "uint256",
          "name": "expectedValue",
          "type": "uint256"
        },
        {
          "internalType": "uint256",
          "name": "maxDelta",
          "type": "uint256"
        }
      ],
      "name": "finalizeHarvest",
      "outputs": [],
      "stateMutability": "nonpayable",
      "type": "function"
    },
    {
      "inputs": [
        {
          "internalType": "bytes32",
          "name": "role",
          "type": "bytes32"
        }
      ],
      "name": "getRoleAdmin",
      "outputs": [
        {
          "internalType": "bytes32",
          "name": "",
          "type": "bytes32"
        }
      ],
      "stateMutability": "view",
      "type": "function"
    },
    {
      "inputs": [
        {
          "internalType": "address",
          "name": "user",
          "type": "address"
        }
      ],
      "name": "getWithdrawStatus",
      "outputs": [
        {
          "components": [
            {
              "internalType": "uint256",
              "name": "timestamp",
              "type": "uint256"
            },
            {
              "internalType": "uint256",
              "name": "amount",
              "type": "uint256"
            }
          ],
          "internalType": "struct WithdrawRecord",
          "name": "",
          "type": "tuple"
        }
      ],
      "stateMutability": "view",
      "type": "function"
    },
    {
      "inputs": [
        {
          "internalType": "bytes32",
          "name": "role",
          "type": "bytes32"
        },
        {
          "internalType": "address",
          "name": "account",
          "type": "address"
        }
      ],
      "name": "grantRole",
      "outputs": [],
      "stateMutability": "nonpayable",
      "type": "function"
    },
    {
      "inputs": [],
      "name": "harvestLedger",
      "outputs": [
        {
          "internalType": "uint256",
          "name": "depositValue",
          "type": "uint256"
        },
        {
          "internalType": "bool",
          "name": "isOpen",
          "type": "bool"
        },
        {
          "internalType": "uint256",
          "name": "openIndex",
          "type": "uint256"
        }
      ],
      "stateMutability": "view",
      "type": "function"
    },
    {
      "inputs": [
        {
          "internalType": "address[]",
          "name": "vaults",
          "type": "address[]"
        }
      ],
      "name": "harvestVaults",
      "outputs": [],
      "stateMutability": "nonpayable",
      "type": "function"
    },
    {
      "inputs": [
        {
          "internalType": "bytes32",
          "name": "role",
          "type": "bytes32"
        },
        {
          "internalType": "address",
          "name": "account",
          "type": "address"
        }
      ],
      "name": "hasRole",
      "outputs": [
        {
          "internalType": "bool",
          "name": "",
          "type": "bool"
        }
      ],
      "stateMutability": "view",
      "type": "function"
    },
    {
      "inputs": [
        {
          "internalType": "address",
          "name": "spender",
          "type": "address"
        },
        {
          "internalType": "uint256",
          "name": "addedValue",
          "type": "uint256"
        }
      ],
      "name": "increaseAllowance",
      "outputs": [
        {
          "internalType": "bool",
          "name": "",
          "type": "bool"
        }
      ],
      "stateMutability": "nonpayable",
      "type": "function"
    },
    {
      "inputs": [
        {
          "internalType": "address",
          "name": "",
          "type": "address"
        }
      ],
      "name": "maxDeposit",
      "outputs": [
        {
          "internalType": "uint256",
          "name": "",
          "type": "uint256"
        }
      ],
      "stateMutability": "view",
      "type": "function"
    },
    {
      "inputs": [
        {
          "internalType": "address",
          "name": "",
          "type": "address"
        }
      ],
      "name": "maxMint",
      "outputs": [
        {
          "internalType": "uint256",
          "name": "",
          "type": "uint256"
        }
      ],
      "stateMutability": "view",
      "type": "function"
    },
    {
      "inputs": [
        {
          "internalType": "address",
          "name": "owner",
          "type": "address"
        }
      ],
      "name": "maxRedeem",
      "outputs": [
        {
          "internalType": "uint256",
          "name": "",
          "type": "uint256"
        }
      ],
      "stateMutability": "view",
      "type": "function"
    },
    {
      "inputs": [
        {
          "internalType": "address",
          "name": "owner",
          "type": "address"
        }
      ],
      "name": "maxWithdraw",
      "outputs": [
        {
          "internalType": "uint256",
          "name": "",
          "type": "uint256"
        }
      ],
      "stateMutability": "view",
      "type": "function"
    },
    {
      "inputs": [
        {
          "internalType": "uint256",
          "name": "shares",
          "type": "uint256"
        },
        {
          "internalType": "address",
          "name": "receiver",
          "type": "address"
        }
      ],
      "name": "mint",
      "outputs": [
        {
          "internalType": "uint256",
          "name": "assets",
          "type": "uint256"
        }
      ],
      "stateMutability": "nonpayable",
      "type": "function"
    },
    {
      "inputs": [],
      "name": "name",
      "outputs": [
        {
          "internalType": "string",
          "name": "",
          "type": "string"
        }
      ],
      "stateMutability": "view",
      "type": "function"
    },
    {
      "inputs": [],
      "name": "owner",
      "outputs": [
        {
          "internalType": "address",
          "name": "",
          "type": "address"
        }
      ],
      "stateMutability": "view",
      "type": "function"
    },
    {
      "inputs": [],
      "name": "pendingOwner",
      "outputs": [
        {
          "internalType": "address",
          "name": "",
          "type": "address"
        }
      ],
      "stateMutability": "view",
      "type": "function"
    },
    {
      "inputs": [],
      "name": "pendingWithdrawal",
      "outputs": [
        {
          "internalType": "uint256",
          "name": "",
          "type": "uint256"
        }
      ],
      "stateMutability": "view",
      "type": "function"
    },
    {
      "inputs": [],
      "name": "performanceFee",
      "outputs": [
        {
          "internalType": "uint256",
          "name": "",
          "type": "uint256"
        }
      ],
      "stateMutability": "view",
      "type": "function"
    },
    {
      "inputs": [
        {
          "internalType": "uint256",
          "name": "assets",
          "type": "uint256"
        }
      ],
      "name": "previewDeposit",
      "outputs": [
        {
          "internalType": "uint256",
          "name": "",
          "type": "uint256"
        }
      ],
      "stateMutability": "view",
      "type": "function"
    },
    {
      "inputs": [
        {
          "internalType": "uint256",
          "name": "shares",
          "type": "uint256"
        }
      ],
      "name": "previewMint",
      "outputs": [
        {
          "internalType": "uint256",
          "name": "",
          "type": "uint256"
        }
      ],
      "stateMutability": "view",
      "type": "function"
    },
    {
      "inputs": [
        {
          "internalType": "uint256",
          "name": "shares",
          "type": "uint256"
        }
      ],
      "name": "previewRedeem",
      "outputs": [
        {
          "internalType": "uint256",
          "name": "",
          "type": "uint256"
        }
      ],
      "stateMutability": "view",
      "type": "function"
    },
    {
      "inputs": [
        {
          "internalType": "uint256",
          "name": "assets",
          "type": "uint256"
        }
      ],
      "name": "previewWithdraw",
      "outputs": [
        {
          "internalType": "uint256",
          "name": "",
          "type": "uint256"
        }
      ],
      "stateMutability": "view",
      "type": "function"
    },
    {
      "inputs": [
        {
          "internalType": "address",
          "name": "receiver",
          "type": "address"
        }
      ],
      "name": "redeem",
      "outputs": [
        {
          "internalType": "uint256",
          "name": "amountOut",
          "type": "uint256"
        }
      ],
      "stateMutability": "nonpayable",
      "type": "function"
    },
    {
      "inputs": [
        {
          "internalType": "uint256",
          "name": "",
          "type": "uint256"
        },
        {
          "internalType": "address",
          "name": "receiver",
          "type": "address"
        },
        {
          "internalType": "address",
          "name": "",
          "type": "address"
        }
      ],
      "name": "redeem",
      "outputs": [
        {
          "internalType": "uint256",
          "name": "amountOut",
          "type": "uint256"
        }
      ],
      "stateMutability": "nonpayable",
      "type": "function"
    },
    {
      "inputs": [],
      "name": "redeem",
      "outputs": [
        {
          "internalType": "uint256",
          "name": "amountOut",
          "type": "uint256"
        }
      ],
      "stateMutability": "nonpayable",
      "type": "function"
    },
    {
      "inputs": [
        {
          "internalType": "address[]",
          "name": "vaults",
          "type": "address[]"
        },
        {
          "internalType": "uint256[]",
          "name": "shares",
          "type": "uint256[]"
        }
      ],
      "name": "redeemFromVaults",
      "outputs": [],
      "stateMutability": "nonpayable",
      "type": "function"
    },
    {
      "inputs": [
        {
          "internalType": "address",
          "name": "user",
          "type": "address"
        }
      ],
      "name": "redeemIsReady",
      "outputs": [
        {
          "internalType": "bool",
          "name": "",
          "type": "bool"
        }
      ],
      "stateMutability": "view",
      "type": "function"
    },
    {
      "inputs": [
        {
          "internalType": "bytes32",
          "name": "role",
          "type": "bytes32"
        },
        {
          "internalType": "address",
          "name": "account",
          "type": "address"
        }
      ],
      "name": "renounceRole",
      "outputs": [],
      "stateMutability": "nonpayable",
      "type": "function"
    },
    {
      "inputs": [
        {
          "internalType": "uint256",
          "name": "shares",
          "type": "uint256"
        },
        {
          "internalType": "address",
          "name": "owner",
          "type": "address"
        }
      ],
      "name": "requestRedeem",
      "outputs": [],
      "stateMutability": "nonpayable",
      "type": "function"
    },
    {
      "inputs": [
        {
          "internalType": "uint256",
          "name": "shares",
          "type": "uint256"
        }
      ],
      "name": "requestRedeem",
      "outputs": [],
      "stateMutability": "nonpayable",
      "type": "function"
    },
    {
      "inputs": [
        {
          "internalType": "address[]",
          "name": "vaults",
          "type": "address[]"
        },
        {
          "internalType": "uint256[]",
          "name": "shares",
          "type": "uint256[]"
        }
      ],
      "name": "requestRedeemFromVaults",
      "outputs": [],
      "stateMutability": "nonpayable",
      "type": "function"
    },
    {
      "inputs": [
        {
          "internalType": "bytes32",
          "name": "role",
          "type": "bytes32"
        },
        {
          "internalType": "address",
          "name": "account",
          "type": "address"
        }
      ],
      "name": "revokeRole",
      "outputs": [],
      "stateMutability": "nonpayable",
      "type": "function"
    },
    {
      "inputs": [
        {
          "internalType": "address",
          "name": "asset",
          "type": "address"
        },
        {
          "internalType": "address",
          "name": "allowanceTarget",
          "type": "address"
        },
        {
          "internalType": "address",
          "name": "socketRegistry",
          "type": "address"
        },
        {
          "internalType": "address",
          "name": "destinationAddress",
          "type": "address"
        },
        {
          "internalType": "uint256",
          "name": "amount",
          "type": "uint256"
        },
        {
          "internalType": "uint256",
          "name": "destinationChainId",
          "type": "uint256"
        },
        {
          "internalType": "bytes",
          "name": "data",
          "type": "bytes"
        }
      ],
      "name": "sendTokens",
      "outputs": [],
      "stateMutability": "nonpayable",
      "type": "function"
    },
    {
      "inputs": [
        {
          "internalType": "uint256",
          "name": "_performanceFee",
          "type": "uint256"
        }
      ],
      "name": "setPerformanceFee",
      "outputs": [],
      "stateMutability": "nonpayable",
      "type": "function"
    },
    {
      "inputs": [
        {
          "internalType": "address",
          "name": "_treasury",
          "type": "address"
        }
      ],
      "name": "setTreasury",
      "outputs": [],
      "stateMutability": "nonpayable",
      "type": "function"
    },
    {
      "inputs": [
        {
          "internalType": "uint32",
          "name": "_fromChainId",
          "type": "uint32"
        },
        {
          "internalType": "uint32",
          "name": "_toChainId",
          "type": "uint32"
        },
        {
          "internalType": "uint256",
          "name": "amount",
          "type": "uint256"
        }
      ],
      "name": "startBridgeRoute",
      "outputs": [],
      "stateMutability": "nonpayable",
      "type": "function"
    },
    {
      "inputs": [
        {
          "internalType": "bytes4",
          "name": "interfaceId",
          "type": "bytes4"
        }
      ],
      "name": "supportsInterface",
      "outputs": [
        {
          "internalType": "bool",
          "name": "",
          "type": "bool"
        }
      ],
      "stateMutability": "view",
      "type": "function"
    },
    {
      "inputs": [],
      "name": "symbol",
      "outputs": [
        {
          "internalType": "string",
          "name": "",
          "type": "string"
        }
      ],
      "stateMutability": "view",
      "type": "function"
    },
    {
      "inputs": [
        {
          "internalType": "uint256",
          "name": "assets",
          "type": "uint256"
        }
      ],
      "name": "toSharesAfterDeposit",
      "outputs": [
        {
          "internalType": "uint256",
          "name": "",
          "type": "uint256"
        }
      ],
      "stateMutability": "view",
      "type": "function"
    },
    {
      "inputs": [],
      "name": "totalAssets",
      "outputs": [
        {
          "internalType": "uint256",
          "name": "",
          "type": "uint256"
        }
      ],
      "stateMutability": "view",
      "type": "function"
    },
    {
      "inputs": [],
      "name": "totalSupply",
      "outputs": [
        {
          "internalType": "uint256",
          "name": "",
          "type": "uint256"
        }
      ],
      "stateMutability": "view",
      "type": "function"
    },
    {
      "inputs": [
        {
          "internalType": "address",
          "name": "to",
          "type": "address"
        },
        {
          "internalType": "uint256",
          "name": "amount",
          "type": "uint256"
        }
      ],
      "name": "transfer",
      "outputs": [
        {
          "internalType": "bool",
          "name": "",
          "type": "bool"
        }
      ],
      "stateMutability": "nonpayable",
      "type": "function"
    },
    {
      "inputs": [
        {
          "internalType": "address",
          "name": "from",
          "type": "address"
        },
        {
          "internalType": "address",
          "name": "to",
          "type": "address"
        },
        {
          "internalType": "uint256",
          "name": "amount",
          "type": "uint256"
        }
      ],
      "name": "transferFrom",
      "outputs": [
        {
          "internalType": "bool",
          "name": "",
          "type": "bool"
        }
      ],
      "stateMutability": "nonpayable",
      "type": "function"
    },
    {
      "inputs": [
        {
          "internalType": "address",
          "name": "_pendingOwner",
          "type": "address"
        }
      ],
      "name": "transferOwnership",
      "outputs": [],
      "stateMutability": "nonpayable",
      "type": "function"
    },
    {
      "inputs": [],
      "name": "treasury",
      "outputs": [
        {
          "internalType": "address",
          "name": "",
          "type": "address"
        }
      ],
      "stateMutability": "view",
      "type": "function"
    },
    {
      "inputs": [
        {
          "internalType": "address",
          "name": "vault",
          "type": "address"
        },
        {
          "internalType": "address",
          "name": "adapter",
          "type": "address"
        }
      ],
      "name": "updateVaultAdapter",
      "outputs": [],
      "stateMutability": "nonpayable",
      "type": "function"
    },
    {
      "inputs": [
        {
          "internalType": "uint256",
          "name": "",
          "type": "uint256"
        },
        {
          "internalType": "address",
          "name": "",
          "type": "address"
        },
        {
          "internalType": "address",
          "name": "",
          "type": "address"
        }
      ],
      "name": "withdraw",
      "outputs": [
        {
          "internalType": "uint256",
          "name": "",
          "type": "uint256"
        }
      ],
      "stateMutability": "pure",
      "type": "function"
    },
    {
      "inputs": [
        {
          "internalType": "address",
          "name": "",
          "type": "address"
        }
      ],
      "name": "withdrawLedger",
      "outputs": [
        {
          "internalType": "uint256",
          "name": "timestamp",
          "type": "uint256"
        },
        {
          "internalType": "uint256",
          "name": "amount",
          "type": "uint256"
        }
      ],
      "stateMutability": "view",
      "type": "function"
    },
    {
      "inputs": [],
      "name": "withdrawSharePrice",
      "outputs": [
        {
          "internalType": "uint256",
          "name": "",
          "type": "uint256"
        }
      ],
      "stateMutability": "view",
      "type": "function"
    },
    {
      "inputs": [],
      "name": "withdrawTimestamp",
      "outputs": [
        {
          "internalType": "uint256",
          "name": "",
          "type": "uint256"
        }
      ],
      "stateMutability": "view",
      "type": "function"
    }
  ],
  "transactionHash": "0xc7495c5b963840df9b6774902fa34ac190704bada3066858f39055332ee1e654",
  "args": [
    "0xF725B63cE5761b387438b03Da25ec22090dDD2cC",
    "PichaToken",
    "PTK",
    "0xACDB303129dD772DCd717bf75b8667A06C00089A",
    "0xACDB303129dD772DCd717bf75b8667A06C00089A",
    "0xACDB303129dD772DCd717bf75b8667A06C00089A",
    "0xACDB303129dD772DCd717bf75b8667A06C00089A",
    0
  ],
  "numDeployments": 1,
  "solcInputHash": "e35dc96bd5272bb938dcb5c798de84d2",
  "bytecode": "0x60a06040526014805460ff191690553480156200001b57600080fd5b5060405162004982380380620049828339810160408190526200003e9162000443565b600180546001600160a01b0319166001600160a01b038716908117909155604080516000815260208101929092528991899189918991899189918991899188918891859185918a918a918a917f8be0079c531659141344cd1fd0a4f28419497f9722a3daafe3b4186f6b6457e0910160405180910390a1600154620000cf906000906001600160a01b031662000279565b600154620000f79060008051602062004962833981519152906001600160a01b031662000279565b62000112600080516020620049628339815191528362000279565b6001546200013a9060008051602062004942833981519152906001600160a01b031662000279565b62000155600080516020620049428339815191528362000279565b62000170600080516020620049428339815191528262000279565b6200019a60008051602062004942833981519152600080516020620049628339815191526200031a565b5050600480546001600160a01b0319166001600160a01b03851690811790915560038390556040519091507fcb7ef3e545f5cdb893f5c568ba710fe08f336375a2d9fd66e161033f8fc09ef390600090a26040518181527f8b940a95968ad5b511f89b01075446a4fe9f614f2dc5fbb9e9a6b227d6d4fd709060200160405180910390a150600890506200022f8382620005b3565b5060096200023e8282620005b3565b5050506001600160a01b039097166080525050600060128190556011805460ff19169055601055506200067f9b505050505050505050505050565b6000828152602081815260408083206001600160a01b038516845290915290205460ff1662000316576000828152602081815260408083206001600160a01b03851684529091529020805460ff19166001179055620002d53390565b6001600160a01b0316816001600160a01b0316837f2f8788117e7eff1d82e926ec794901d17c78024a50270940304540a733656f0d60405160405180910390a45b5050565b600082815260208190526040808220600101805490849055905190918391839186917fbd79b86ffe0ab8e8776151514217cd7cacd52c909f66475c3af44e129f0b00ff9190a4505050565b6001600160a01b03811681146200037b57600080fd5b50565b634e487b7160e01b600052604160045260246000fd5b600082601f830112620003a657600080fd5b81516001600160401b0380821115620003c357620003c36200037e565b604051601f8301601f19908116603f01168101908282118183101715620003ee57620003ee6200037e565b816040528381526020925086838588010111156200040b57600080fd5b600091505b838210156200042f578582018301518183018401529082019062000410565b600093810190920192909252949350505050565b600080600080600080600080610100898b0312156200046157600080fd5b88516200046e8162000365565b60208a01519098506001600160401b03808211156200048c57600080fd5b6200049a8c838d0162000394565b985060408b0151915080821115620004b157600080fd5b50620004c08b828c0162000394565b9650506060890151620004d38162000365565b60808a0151909550620004e68162000365565b60a08a0151909450620004f98162000365565b60c08a01519093506200050c8162000365565b8092505060e089015190509295985092959890939650565b600181811c908216806200053957607f821691505b6020821081036200055a57634e487b7160e01b600052602260045260246000fd5b50919050565b601f821115620005ae57600081815260208120601f850160051c81016020861015620005895750805b601f850160051c820191505b81811015620005aa5782815560010162000595565b5050505b505050565b81516001600160401b03811115620005cf57620005cf6200037e565b620005e781620005e0845462000524565b8462000560565b602080601f8311600181146200061f5760008415620006065750858301515b600019600386901b1c1916600185901b178555620005aa565b600085815260208120601f198616915b8281101562000650578886015182559484019460019091019084016200062f565b50858210156200066f5787850151600019600388901b60f8161c191681555b5050505050600190811b01905550565b60805161428b620006b7600039600081816108f401528181610bc501528181610e41015281816116580152611787015261428b6000f3fe608060405234801561001057600080fd5b506004361061030c5760003560e01c806301e1d1141461031157806301ffc9a71461032c57806306fdde031461034f57806307a2d13a14610364578063095ea7b3146103775780630a28a4771461038a578063107703ab1461039d57806318160ddd146103b25780631b2df850146103ba57806321b77d63146103cf57806323b872dd146103d8578063248a9ca3146103eb5780632f2ff15d146103fe578063313ce5671461041157806331b38d571461042b5780633230b79b14610434578063341a7b421461046257806336568abe1461047557806336d31c5c14610488578063395093511461049b578063402d267d146104ae5780634cdad506146104c357806351a72964146104d6578063526e8153146105465780635b9d26581461054f57806361d027b3146105845780636e553f65146105a457806370897b23146105b757806370a08231146105ca578063724c184c146105dd57806375bdd9f4146105f257806375dd7d381461060557806379ba5097146106185780637a70b7bc146106205780637e28882214610633578063877887821461063c5780638da5cb5b1461064557806391d148541461065857806393c77f1f1461066b57806394bf804d146106d557806395a2251f146106e857806395d89b41146106fb578063a217fddf14610703578063a457c2d71461070b578063a750dabb1461071e578063a9059cbb14610731578063aa2f892d14610744578063b3d7f6b914610757578063b460af941461076a578063ba0876521461077d578063be040fb014610790578063c61b603f14610798578063c63d75b6146104ae578063c6e6f592146107c8578063ce96cb77146107db578063ce9d94b1146107ee578063d547741f14610801578063d905777e14610814578063d9a59c8e14610827578063db2e21bc1461083a578063dd62ed3e14610842578063e30c397814610855578063eacff5ba14610868578063ef8b30f71461087b578063f0f442601461088e578063f2fde38b146108a1578063f7ee3be9146108b4578063f80e4f31146108c7575b600080fd5b6103196108da565b6040519081526020015b60405180910390f35b61033f61033a366004613868565b61096f565b6040519015158152602001610323565b6103576109a6565b60405161032391906138b6565b6103196103723660046138e9565b610a38565b61033f610385366004613917565b610a6c565b6103196103983660046138e9565b610a84565b6103b06103ab366004613943565b610aab565b005b610319610b5c565b6103196000805160206141b683398151915281565b6103196103e881565b61033f6103e6366004613973565b610b67565b6103196103f93660046138e9565b610b8b565b6103b061040c366004613943565b610ba0565b610419610bc1565b60405160ff9091168152602001610323565b610319600b5481565b61033f6104423660046139b4565b6001600160a01b03166000908152600d6020526040902054600a54101590565b6103b06104703660046139df565b610c45565b6103b0610483366004613943565b610ce8565b6103b0610496366004613a0d565b610d66565b61033f6104a9366004613917565b610dfa565b6103196104bc3660046139b4565b5060001990565b6103196104d13660046138e9565b610e1c565b61052b6104e43660046139b4565b6040805180820190915260008082526020820152506001600160a01b03166000908152600d6020908152604091829020825180840190935280548352600101549082015290565b60408051825181526020928301519281019290925201610323565b610319600a5481565b61057661055d3660046139b4565b600d602052600090815260409020805460019091015482565b604051610323929190613a3b565b600454610597906001600160a01b031681565b6040516103239190613a49565b6103196105b2366004613943565b610e27565b6103b06105c53660046138e9565b610f00565b6103196105d83660046139b4565b610fad565b6103196000805160206141d683398151915281565b6103b0610600366004613a76565b610fc8565b6103b0610613366004613ab2565b61101c565b6103b06112fe565b6103b061062e366004613ad4565b611449565b610319600c5481565b61031960035481565b600154610597906001600160a01b031681565b61033f610666366004613943565b611615565b6106ab6106793660046139b4565b600e6020526000908152604090205461ffff8116906201000081046001600160a01b031690600160b01b900460ff1683565b6040805161ffff90941684526001600160a01b039092166020840152151590820152606001610323565b6103196106e3366004613943565b61163e565b6103196106f63660046139b4565b6116bd565b610357611857565b610319600081565b61033f610719366004613917565b611866565b6103b061072c366004613ba3565b6118e1565b61033f61073f366004613917565b611a61565b6103b06107523660046138e9565b611a6f565b6103196107653660046138e9565b611a7c565b610319610778366004613c06565b611aa2565b61031961078b366004613c06565b611abd565b610319611ad0565b6010546011546012546107ad929160ff169083565b60408051938452911515602084015290820152606001610323565b6103196107d63660046138e9565b611adb565b6103196107e93660046139b4565b611b02565b6103b06107fc366004613c93565b611b10565b6103b061080f366004613943565b611d94565b6103196108223660046139b4565b611db0565b6103b0610835366004613cfe565b611dbb565b6103b0612116565b610319610850366004613a0d565b6123bd565b600254610597906001600160a01b031681565b6103196108763660046138e9565b6123e8565b6103196108893660046138e9565b612411565b6103b061089c3660046139b4565b61241c565b6103b06108af3660046139b4565b612490565b6103b06108c2366004613c93565b61250e565b6103b06108d5366004613c93565b6127d2565b6040516370a0823160e01b81526000906001600160a01b037f000000000000000000000000000000000000000000000000000000000000000016906370a0823190610929903090600401613a49565b602060405180830381865afa158015610946573d6000803e3d6000fd5b505050506040513d601f19601f8201168201806040525081019061096a9190613d3f565b905090565b60006001600160e01b03198216637965db0b60e01b14806109a057506301ffc9a760e01b6001600160e01b03198316145b92915050565b6060600880546109b590613d58565b80601f01602080910402602001604051908101604052809291908181526020018280546109e190613d58565b8015610a2e5780601f10610a0357610100808354040283529160200191610a2e565b820191906000526020600020905b815481529060010190602001808311610a1157829003601f168201915b5050505050905090565b600080610a43610b5c565b90508015610a6357610a5e610a566108da565b849083612a40565b610a65565b825b9392505050565b600033610a7a818585612a5f565b5060019392505050565b600080610a8f610b5c565b90508015610a6357610a5e81610aa36108da565b859190612b7b565b336001600160a01b03821614610ac657610ac6813384612ba9565b610ad1813084612c23565b336000908152600d6020526040812042815560018101805491928592610af8908490613da8565b9250508190555082600c6000828254610b119190613da8565b90915550506040518381526001600160a01b0383169033907ff601bbafcf0d793cce0a8802057c8783aa5946889f76bd9dd47492217f59af1e906020015b60405180910390a3505050565b600061096a60075490565b600033610b75858285612ba9565b610b80858585612c23565b506001949350505050565b60009081526020819052604090206001015490565b610ba982610b8b565b610bb281612ddf565b610bbc8383612de9565b505050565b60007f00000000000000000000000000000000000000000000000000000000000000006001600160a01b031663313ce5676040518163ffffffff1660e01b8152600401602060405180830381865afa158015610c21573d6000803e3d6000fd5b505050506040513d601f19601f8201168201806040525081019061096a9190613dbb565b6001546001600160a01b03163314610c785760405162461bcd60e51b8152600401610c6f90613dde565b60405180910390fd5b6001600160a01b0382166000818152600e6020908152604091829020805460ff60b01b1916600160b01b861515908102919091179091558251938452908301527f7adba08974ddcc1aeb4b4ebe0f6938b06d7bb23a2df7a841612d03d8ae31ccc291015b60405180910390a15050565b6001600160a01b0381163314610d585760405162461bcd60e51b815260206004820152602f60248201527f416363657373436f6e74726f6c3a2063616e206f6e6c792072656e6f756e636560448201526e103937b632b9903337b91039b2b63360891b6064820152608401610c6f565b610d628282612e6d565b5050565b6001546001600160a01b03163314610d905760405162461bcd60e51b8152600401610c6f90613dde565b6001600160a01b038083166000908152600e6020526040908190208054928416620100000262010000600160b01b031990931692909217909155517f21c518d5613bfe56e95658f99bac7ec1689590df975925fdad08304170c3cfe490610cdc9084908490613e02565b600033610a7a818585610e0d83836123bd565b610e179190613da8565b612a5f565b60006109a082610a38565b6000610e3283612411565b9050610e696001600160a01b037f000000000000000000000000000000000000000000000000000000000000000016333086612ed2565b610e71610b5c565b600003610eb657806103e81115610e9b57604051630131cd7b60e51b815260040160405180910390fd5b610ea76103e882613e1c565b9050610eb660016103e8612f2c565b610ec08282612f2c565b816001600160a01b0316336001600160a01b03166000805160206142368339815191528584604051610ef3929190613a3b565b60405180910390a36109a0565b6001546001600160a01b03163314610f2a5760405162461bcd60e51b8152600401610c6f90613dde565b670de0b6b3a7640000811115610f715760405162461bcd60e51b815260206004820152600c60248201526b08c8a8abea89e9ebe90928e960a31b6044820152606401610c6f565b60038190556040518181527f8b940a95968ad5b511f89b01075446a4fe9f614f2dc5fbb9e9a6b227d6d4fd70906020015b60405180910390a150565b6001600160a01b031660009081526005602052604090205490565b6000805160206141b6833981519152610fe081612ddf565b6040805163ffffffff8087168252851660208201529081018390526000805160206141f68339815191529060600160405180910390a150505050565b6000805160206141b683398151915261103481612ddf565b6040805160808101825260108054825260115460ff1615156020808401919091526012548385015260138054855181840281018401909652808652600095606086019390929190879084015b828210156110d5576000848152602090819020604080516060810182526003860290920180548352600180820154848601526002909101546001600160a01b0316918301919091529083529092019101611080565b505050508152505090506000816020015161110357604051630951089360e21b815260040160405180910390fd5b60408201515b82606001515181101561127d576000600e60008560600151848151811061113257611132613e2f565b6020908102919091018101516040908101516001600160a01b039081168452838301949094529182016000908120835160608082018652915461ffff81168252620100008104909616938101849052600160b01b90950460ff1615159385019390935291870151805193945091929091631d96ffbb91869081106111b8576111b8613e2f565b6020026020010151604001518460000151886060015187815181106111df576111df613e2f565b6020908102919091010151516040516001600160e01b031960e086901b1681526001600160a01b03909316600484015261ffff909116602483015260448201526064016020604051808303816000875af1158015611241573d6000803e3d6000fd5b505050506040513d601f19601f820116820180604052508101906112659190613d3f565b90506112718185613da8565b93505050600101611109565b6000828711611295576112908784613e1c565b61129f565b61129f8388613e1c565b9050858111156112c257604051638199f5f360e01b815260040160405180910390fd5b6112ca610b5c565b84516112d7908590613da8565b6112e19190613e45565b600b55506012555050600060105550506011805460ff1916905550565b6002546001600160a01b0316331461134d5760405162461bcd60e51b815260206004820152601260248201527127a7262cafa822a72224a723afa7aba722a960711b6044820152606401610c6f565b600180546002546001600160a01b031982166001600160a01b03918216179092551661137a600082612e6d565b6113926000805160206141d683398151915282612e6d565b6113aa6000805160206141b683398151915282612e6d565b6001546113c2906000906001600160a01b0316612de9565b6001546113e7906000805160206141d6833981519152906001600160a01b0316612de9565b60015461140c906000805160206141b6833981519152906001600160a01b0316612de9565b6001546040517f8be0079c531659141344cd1fd0a4f28419497f9722a3daafe3b4186f6b6457e091610fa29184916001600160a01b031690613e02565b6000805160206141b683398151915261146181612ddf565b6114a583838080601f0160208091040260200160405190810160405280939291908181526020018383808284376000920191909152508892508d91508a9050612ff9565b60405163095ea7b360e01b81526001600160a01b038a169063095ea7b3906114d39033908990600401613e67565b6020604051808303816000875af11580156114f2573d6000803e3d6000fd5b505050506040513d601f19601f820116820180604052508101906115169190613e80565b5060405163095ea7b360e01b81526001600160a01b038a169063095ea7b390611545908b908990600401613e67565b6020604051808303816000875af1158015611564573d6000803e3d6000fd5b505050506040513d601f19601f820116820180604052508101906115889190613e80565b506000876001600160a01b031684846040516115a5929190613e9d565b6000604051808303816000865af19150503d80600081146115e2576040519150601f19603f3d011682016040523d82523d6000602084013e6115e7565b606091505b50509050806116095760405163e0fec00360e01b815260040160405180910390fd5b50505050505050505050565b6000918252602082815260408084206001600160a01b0393909316845291905290205460ff1690565b600061164983611a7c565b90506116806001600160a01b037f000000000000000000000000000000000000000000000000000000000000000016333084612ed2565b61168a8284612f2c565b816001600160a01b0316336001600160a01b03166000805160206142368339815191528386604051610ef3929190613a3b565b336000908152600d60205260408120600181015482036116f057604051631f2a200560e01b815260040160405180910390fd5b600a548154111561171457604051634a44555360e11b815260040160405180910390fd5b670de0b6b3a7640000600b54826001015461172f9190613ead565b6117399190613e45565b91506000816001015490508160010154600c600082825461175a9190613e1c565b9091555050600060018301556117703082613117565b60405163a9059cbb60e01b81526001600160a01b037f0000000000000000000000000000000000000000000000000000000000000000169063a9059cbb906117be9087908790600401613e67565b6020604051808303816000875af11580156117dd573d6000803e3d6000fd5b505050506040513d601f19601f820116820180604052508101906118019190613e80565b506001546040516001600160a01b039182169186169033907ffbde797d201c681b91056529119e0b02407c7bb96a4a2c75c01fc9667232c8db906118489088908790613a3b565b60405180910390a45050919050565b6060600980546109b590613d58565b6000338161187482866123bd565b9050838110156118d45760405162461bcd60e51b815260206004820152602560248201527f45524332303a2064656372656173656420616c6c6f77616e63652062656c6f77604482015264207a65726f60d81b6064820152608401610c6f565b610b808286868403612a5f565b6001546001600160a01b0316331461190b5760405162461bcd60e51b8152600401610c6f90613dde565b6001600160a01b038481166000908152600e60209081526040918290208251606081018452905461ffff811680835262010000820490951692820192909252600160b01b90910460ff1615159181019190915290151580611978575060208101516001600160a01b031615155b806119865750604081015115155b156119a457604051630cb3e97f60e31b815260040160405180910390fd5b604080516060808201835261ffff8781168084526001600160a01b0388811660208087018281528a1515888a019081528e85166000818152600e85528b902099518a54935192511515600160b01b0260ff60b01b199390971662010000026001600160b01b03199094169816979097179190911716929092179095558551928352820152928301919091527f5a43f32ed963cc1ecfdfe86611f56f2f5a05d34ed978191910ca400d32248895910160405180910390a15050505050565b600033610a7a818585612c23565b611a798133610aab565b50565b600080611a87610b5c565b90508015610a6357610a5e611a9a6108da565b849083612b7b565b600060405163d623472560e01b815260040160405180910390fd5b6000611ac8836116bd565b949350505050565b600061096a336116bd565b600080611ae6610b5c565b90508015610a6357610a5e81611afa6108da565b859190612a40565b60006109a061037283610fad565b6000805160206141b6833981519152611b2881612ddf565b8382808214611b4a5760405163b054fd5160e01b815260040160405180910390fd5b60005b86811015611d8a576000600e60008a8a85818110611b6d57611b6d613e2f565b9050602002016020810190611b8291906139b4565b6001600160a01b03908116825260208083019390935260409182016000208251606081018452905461ffff8116825262010000810490921693810193909352600160b01b900460ff161515908201819052909150611c1b57888883818110611bec57611bec613e2f565b9050602002016020810190611c0191906139b4565b6040516318ef3f8360e01b8152600401610c6f9190613a49565b60208101516001600160a01b0316611cd057888883818110611c3f57611c3f613e2f565b9050602002016020810190611c5491906139b4565b6001600160a01b031663aa2f892d888885818110611c7457611c74613e2f565b905060200201356040518263ffffffff1660e01b8152600401611c9991815260200190565b600060405180830381600087803b158015611cb357600080fd5b505af1158015611cc7573d6000803e3d6000fd5b50505050611d81565b80602001516001600160a01b031663bc26def5888885818110611cf557611cf5613e2f565b905060200201358b8b86818110611d0e57611d0e613e2f565b9050602002016020810190611d2391906139b4565b84516040516001600160e01b031960e086901b168152611d4e93929130916003904690600401613ecc565b600060405180830381600087803b158015611d6857600080fd5b505af1158015611d7c573d6000803e3d6000fd5b505050505b50600101611b4d565b5050505050505050565b611d9d82610b8b565b611da681612ddf565b610bbc8383612e6d565b60006109a082610fad565b6000805160206141b6833981519152611dd381612ddf565b60115460009060ff1615611dfa5760405163835eaa8f60e01b815260040160405180910390fd5b60005b83811015612100576000600e6000878785818110611e1d57611e1d613e2f565b9050602002016020810190611e3291906139b4565b6001600160a01b03908116825260208083019390935260409182016000208251606081018452905461ffff81168252620100008104909216938101849052600160b01b90910460ff161515918101919091529150611fc057858583818110611e9c57611e9c613e2f565b9050602002016020810190611eb191906139b4565b6001600160a01b03166331b38d576040518163ffffffff1660e01b8152600401602060405180830381865afa158015611eee573d6000803e3d6000fd5b505050506040513d601f19601f82011682018060405250810190611f129190613d3f565b868684818110611f2457611f24613e2f565b9050602002016020810190611f3991906139b4565b6001600160a01b03166370a08231306040518263ffffffff1660e01b8152600401611f649190613a49565b602060405180830381865afa158015611f81573d6000803e3d6000fd5b505050506040513d601f19601f82011682018060405250810190611fa59190613d3f565b611faf9190613ead565b611fb99084613da8565b92506120f7565b80602001516001600160a01b031663bc26def56000888886818110611fe757611fe7613e2f565b9050602002016020810190611ffc91906139b4565b84516040516001600160e01b031960e086901b168152612026939291309160049046908201613ecc565b600060405180830381600087803b15801561204057600080fd5b505af1158015612054573d6000803e3d6000fd5b505060408051606081018252428152845161ffff166020820152601393509150810188888681811061208857612088613e2f565b905060200201602081019061209d91906139b4565b6001600160a01b03908116909152825460018082018555600094855260209485902084516003909302019182559383015193810193909355604090910151600290920180546001600160a01b031916929091169190911790555b50600101611dfd565b5060105550506011805460ff1916600117905550565b60145460ff1661213957604051630a46455b60e31b815260040160405180910390fd5b600061214433610fad565b90506121503382613117565b600061215a610b5c565b6121649083613e45565b905060005b600f54811015610bbc576000600e6000600f848154811061218c5761218c613e2f565b6000918252602080832091909101546001600160a01b03908116845283820194909452604092830182208351606081018552905461ffff8116825262010000810490951691810191909152600160b01b90930460ff16151591830191909152600f805492935090918490811061220457612204613e2f565b60009182526020822001546040516370a0823160e01b81526001600160a01b039091169250859083906370a0823190612241903090600401613a49565b602060405180830381865afa15801561225e573d6000803e3d6000fd5b505050506040513d601f19601f820116820180604052508101906122829190613d3f565b61228c9190613ead565b60208401519091506001600160a01b03166123185760405163a9059cbb60e01b81526001600160a01b0383169063a9059cbb906122cf9033908590600401613e67565b6020604051808303816000875af11580156122ee573d6000803e3d6000fd5b505050506040513d601f19601f820116820180604052508101906123129190613e80565b506123b2565b82602001516001600160a01b031663bc26def582600f878154811061233f5761233f613e2f565b60009182526020909120015486516040516001600160e01b031960e086901b16815261237f93926001600160a01b03169130916005904690600401613ecc565b600060405180830381600087803b15801561239957600080fd5b505af11580156123ad573d6000803e3d6000fd5b505050505b505050600101612169565b6001600160a01b03918216600090815260066020908152604080832093909416825291909152205490565b600080826123f46108da565b6123fe9190613e1c565b90508015610a6357610a5e838280612a40565b60006109a082611adb565b6001546001600160a01b031633146124465760405162461bcd60e51b8152600401610c6f90613dde565b600480546001600160a01b0319166001600160a01b0383169081179091556040517fcb7ef3e545f5cdb893f5c568ba710fe08f336375a2d9fd66e161033f8fc09ef390600090a250565b6001546001600160a01b031633146124ba5760405162461bcd60e51b8152600401610c6f90613dde565b600280546001600160a01b0319166001600160a01b038381169182179092556001546040517fb150023a879fd806e3599b6ca8ee3b60f0e360ab3846d128d67ebce1a391639a93610fa29392169190613e02565b6000805160206141b683398151915261252681612ddf565b83828082146125485760405163b054fd5160e01b815260040160405180910390fd5b60005b86811015611d8a576000600e60008a8a8581811061256b5761256b613e2f565b905060200201602081019061258091906139b4565b6001600160a01b03908116825260208083019390935260409182016000208251606081018452905461ffff8116825262010000810490921693810193909352600160b01b900460ff1615159082018190529091506125ea57888883818110611bec57611bec613e2f565b60208101516001600160a01b03166126b95788888381811061260e5761260e613e2f565b905060200201602081019061262391906139b4565b6001600160a01b0316636e553f6588888581811061264357612643613e2f565b6040516001600160e01b031960e086901b168152602090910292909201356004830152503060248201526044016020604051808303816000875af115801561268f573d6000803e3d6000fd5b505050506040513d601f19601f820116820180604052508101906126b39190613d3f565b506127c9565b80602001516001600160a01b031663bc26def58888858181106126de576126de613e2f565b905060200201358b8b868181106126f7576126f7613e2f565b905060200201602081019061270c91906139b4565b84516040516001600160e01b031960e086901b16815261273793929130916001904690600401613ecc565b600060405180830381600087803b15801561275157600080fd5b505af1158015612765573d6000803e3d6000fd5b505050506000805160206141f683398151915246826000015189898681811061279057612790613e2f565b905060200201356040516127c09392919061ffff9384168152919092166020820152604081019190915260600190565b60405180910390a15b5060010161254b565b6000805160206141b68339815191526127ea81612ddf565b838280821461280c5760405163b054fd5160e01b815260040160405180910390fd5b60005b86811015611d8a576000600e60008a8a8581811061282f5761282f613e2f565b905060200201602081019061284491906139b4565b6001600160a01b03908116825260208083019390935260409182016000208251606081018452905461ffff8116825262010000810490921693810193909352600160b01b900460ff16158015918301919091529091506128b057888883818110611bec57611bec613e2f565b60208101516001600160a01b0316612986578888838181106128d4576128d4613e2f565b90506020020160208101906128e991906139b4565b6001600160a01b031663ba08765288888581811061290957612909613e2f565b6040516001600160e01b031960e086901b16815260209091029290920135600483015250306024820181905260448201526064016020604051808303816000875af115801561295c573d6000803e3d6000fd5b505050506040513d601f19601f820116820180604052508101906129809190613d3f565b50612a37565b80602001516001600160a01b031663bc26def58888858181106129ab576129ab613e2f565b905060200201358b8b868181106129c4576129c4613e2f565b90506020020160208101906129d991906139b4565b84516040516001600160e01b031960e086901b168152612a0493929130916002904690600401613ecc565b600060405180830381600087803b158015612a1e57600080fd5b505af1158015612a32573d6000803e3d6000fd5b505050505b5060010161280f565b828202811515841585830485141716612a5857600080fd5b0492915050565b6001600160a01b038316612ac15760405162461bcd60e51b8152602060048201526024808201527f45524332303a20617070726f76652066726f6d20746865207a65726f206164646044820152637265737360e01b6064820152608401610c6f565b6001600160a01b038216612b225760405162461bcd60e51b815260206004820152602260248201527f45524332303a20617070726f766520746f20746865207a65726f206164647265604482015261737360f01b6064820152608401610c6f565b6001600160a01b0383811660008181526006602090815260408083209487168084529482529182902085905590518481527f8c5be1e5ebec7d5bd14f71427d1e84f3dd0314c0f7b2291e5b200ac8c7c3b9259101610b4f565b828202811515841585830485141716612b9357600080fd5b6001826001830304018115150290509392505050565b6000612bb584846123bd565b90506000198114612c1d5781811015612c105760405162461bcd60e51b815260206004820152601d60248201527f45524332303a20696e73756666696369656e7420616c6c6f77616e63650000006044820152606401610c6f565b612c1d8484848403612a5f565b50505050565b6001600160a01b038316612c875760405162461bcd60e51b815260206004820152602560248201527f45524332303a207472616e736665722066726f6d20746865207a65726f206164604482015264647265737360d81b6064820152608401610c6f565b6001600160a01b038216612ce95760405162461bcd60e51b815260206004820152602360248201527f45524332303a207472616e7366657220746f20746865207a65726f206164647260448201526265737360e81b6064820152608401610c6f565b6001600160a01b03831660009081526005602052604090205481811015612d615760405162461bcd60e51b815260206004820152602660248201527f45524332303a207472616e7366657220616d6f756e7420657863656564732062604482015265616c616e636560d01b6064820152608401610c6f565b6001600160a01b03808516600090815260056020526040808220858503905591851681529081208054849290612d98908490613da8565b92505081905550826001600160a01b0316846001600160a01b031660008051602061421683398151915284604051612dd291815260200190565b60405180910390a3612c1d565b611a798133613253565b612df38282611615565b610d62576000828152602081815260408083206001600160a01b03851684529091529020805460ff19166001179055612e293390565b6001600160a01b0316816001600160a01b0316837f2f8788117e7eff1d82e926ec794901d17c78024a50270940304540a733656f0d60405160405180910390a45050565b612e778282611615565b15610d62576000828152602081815260408083206001600160a01b0385168085529252808320805460ff1916905551339285917ff6391f5c32d9c69d2a47ea670b442974b53935d1edc7fd64eb21e047a839171b9190a45050565b604080516001600160a01b0385811660248301528416604482015260648082018490528251808303909101815260849091019091526020810180516001600160e01b03166323b872dd60e01b179052612c1d9085906132b7565b6001600160a01b038216612f825760405162461bcd60e51b815260206004820152601f60248201527f45524332303a206d696e7420746f20746865207a65726f2061646472657373006044820152606401610c6f565b8060076000828254612f949190613da8565b90915550506001600160a01b03821660009081526005602052604081208054839290612fc1908490613da8565b90915550506040518181526001600160a01b038316906000906000805160206142168339815191529060200160405180910390a35050565b6130016137e2565b61300a85613389565b9050838160200151146130515760405162461bcd60e51b815260206004820152600f60248201526e125b9d985b1a590818da185a5b9259608a1b6044820152606401610c6f565b816001600160a01b031681600001516001600160a01b0316146130b15760405162461bcd60e51b8152602060048201526018602482015277496e76616c6964207265636569766572206164647265737360401b6044820152606401610c6f565b826001600160a01b03168160800151604001516001600160a01b0316146131105760405162461bcd60e51b815260206004820152601360248201527224b73b30b634b21034b7383aba103a37b5b2b760691b6044820152606401610c6f565b5050505050565b6001600160a01b0382166131775760405162461bcd60e51b815260206004820152602160248201527f45524332303a206275726e2066726f6d20746865207a65726f206164647265736044820152607360f81b6064820152608401610c6f565b6001600160a01b038216600090815260056020526040902054818110156131eb5760405162461bcd60e51b815260206004820152602260248201527f45524332303a206275726e20616d6f756e7420657863656564732062616c616e604482015261636560f01b6064820152608401610c6f565b6001600160a01b038316600090815260056020526040812083830390556007805484929061321a908490613e1c565b90915550506040518281526000906001600160a01b038516906000805160206142168339815191529060200160405180910390a3505050565b61325d8282611615565b610d6257613275816001600160a01b031660146133c1565b6132808360206133c1565b604051602001613291929190613f07565b60408051601f198184030181529082905262461bcd60e51b8252610c6f916004016138b6565b600061330c826040518060400160405280602081526020017f5361666545524332303a206c6f772d6c6576656c2063616c6c206661696c6564815250856001600160a01b031661355c9092919063ffffffff16565b805190915015610bbc578080602001905181019061332a9190613e80565b610bbc5760405162461bcd60e51b815260206004820152602a60248201527f5361666545524332303a204552433230206f7065726174696f6e20646964206e6044820152691bdd081cdd58d8d9595960b21b6064820152608401610c6f565b6133916137e2565b60006133ab8360048086516133a69190613e1c565b61356b565b905080806020019051810190610a6591906140c9565b606060006133d0836002613ead565b6133db906002613da8565b6001600160401b038111156133f2576133f2613f76565b6040519080825280601f01601f19166020018201604052801561341c576020820181803683370190505b509050600360fc1b8160008151811061343757613437613e2f565b60200101906001600160f81b031916908160001a905350600f60fb1b8160018151811061346657613466613e2f565b60200101906001600160f81b031916908160001a905350600061348a846002613ead565b613495906001613da8565b90505b600181111561350d576f181899199a1a9b1b9c1cb0b131b232b360811b85600f16601081106134c9576134c9613e2f565b1a60f81b8282815181106134df576134df613e2f565b60200101906001600160f81b031916908160001a90535060049490941c9361350681614182565b9050613498565b508315610a655760405162461bcd60e51b815260206004820181905260248201527f537472696e67733a20686578206c656e67746820696e73756666696369656e746044820152606401610c6f565b6060611ac88484600085613678565b60608161357981601f613da8565b10156135b85760405162461bcd60e51b815260206004820152600e60248201526d736c6963655f6f766572666c6f7760901b6044820152606401610c6f565b6135c28284613da8565b845110156136065760405162461bcd60e51b8152602060048201526011602482015270736c6963655f6f75744f66426f756e647360781b6044820152606401610c6f565b606082158015613625576040519150600082526020820160405261366f565b6040519150601f8416801560200281840101858101878315602002848b0101015b8183101561365e578051835260209283019201613646565b5050858452601f01601f1916604052505b50949350505050565b6060824710156136d95760405162461bcd60e51b815260206004820152602660248201527f416464726573733a20696e73756666696369656e742062616c616e636520666f6044820152651c8818d85b1b60d21b6064820152608401610c6f565b6001600160a01b0385163b6137305760405162461bcd60e51b815260206004820152601d60248201527f416464726573733a2063616c6c20746f206e6f6e2d636f6e74726163740000006044820152606401610c6f565b600080866001600160a01b0316858760405161374c9190614199565b60006040518083038185875af1925050503d8060008114613789576040519150601f19603f3d011682016040523d82523d6000602084013e61378e565b606091505b509150915061379e8282866137a9565b979650505050505050565b606083156137b8575081610a65565b8251156137c85782518084602001fd5b8160405162461bcd60e51b8152600401610c6f91906138b6565b6040518060a0016040528060006001600160a01b03168152602001600081526020016000815260200161383f6040518060800160405280600081526020016000815260200160006001600160a01b03168152602001606081525090565b815260408051608081018252600080825260208281018290529282015260608082015291015290565b60006020828403121561387a57600080fd5b81356001600160e01b031981168114610a6557600080fd5b60005b838110156138ad578181015183820152602001613895565b50506000910152565b60208152600082518060208401526138d5816040850160208701613892565b601f01601f19169190910160400192915050565b6000602082840312156138fb57600080fd5b5035919050565b6001600160a01b0381168114611a7957600080fd5b6000806040838503121561392a57600080fd5b823561393581613902565b946020939093013593505050565b6000806040838503121561395657600080fd5b82359150602083013561396881613902565b809150509250929050565b60008060006060848603121561398857600080fd5b833561399381613902565b925060208401356139a381613902565b929592945050506040919091013590565b6000602082840312156139c657600080fd5b8135610a6581613902565b8015158114611a7957600080fd5b600080604083850312156139f257600080fd5b82356139fd81613902565b91506020830135613968816139d1565b60008060408385031215613a2057600080fd5b8235613a2b81613902565b9150602083013561396881613902565b918252602082015260400190565b6001600160a01b0391909116815260200190565b803563ffffffff81168114613a7157600080fd5b919050565b600080600060608486031215613a8b57600080fd5b613a9484613a5d565b9250613aa260208501613a5d565b9150604084013590509250925092565b60008060408385031215613ac557600080fd5b50508035926020909101359150565b60008060008060008060008060e0898b031215613af057600080fd5b8835613afb81613902565b97506020890135613b0b81613902565b96506040890135613b1b81613902565b95506060890135613b2b81613902565b94506080890135935060a0890135925060c08901356001600160401b0380821115613b5557600080fd5b818b0191508b601f830112613b6957600080fd5b813581811115613b7857600080fd5b8c6020828501011115613b8a57600080fd5b6020830194508093505050509295985092959890939650565b60008060008060808587031215613bb957600080fd5b8435613bc481613902565b9350602085013561ffff81168114613bdb57600080fd5b92506040850135613beb81613902565b91506060850135613bfb816139d1565b939692955090935050565b600080600060608486031215613c1b57600080fd5b833592506020840135613c2d81613902565b91506040840135613c3d81613902565b809150509250925092565b60008083601f840112613c5a57600080fd5b5081356001600160401b03811115613c7157600080fd5b6020830191508360208260051b8501011115613c8c57600080fd5b9250929050565b60008060008060408587031215613ca957600080fd5b84356001600160401b0380821115613cc057600080fd5b613ccc88838901613c48565b90965094506020870135915080821115613ce557600080fd5b50613cf287828801613c48565b95989497509550505050565b60008060208385031215613d1157600080fd5b82356001600160401b03811115613d2757600080fd5b613d3385828601613c48565b90969095509350505050565b600060208284031215613d5157600080fd5b5051919050565b600181811c90821680613d6c57607f821691505b602082108103613d8c57634e487b7160e01b600052602260045260246000fd5b50919050565b634e487b7160e01b600052601160045260246000fd5b808201808211156109a0576109a0613d92565b600060208284031215613dcd57600080fd5b815160ff81168114610a6557600080fd5b6020808252600a908201526927a7262cafa7aba722a960b11b604082015260600190565b6001600160a01b0392831681529116602082015260400190565b818103818111156109a0576109a0613d92565b634e487b7160e01b600052603260045260246000fd5b600082613e6257634e487b7160e01b600052601260045260246000fd5b500490565b6001600160a01b03929092168252602082015260400190565b600060208284031215613e9257600080fd5b8151610a65816139d1565b8183823760009101908152919050565b6000816000190483118215151615613ec757613ec7613d92565b500290565b9586526001600160a01b03948516602087015292909316604085015261ffff908116606085015291821660808401521660a082015260c00190565b76020b1b1b2b9b9a1b7b73a3937b61d1030b1b1b7bab73a1604d1b815260008351613f39816017850160208801613892565b7001034b99036b4b9b9b4b733903937b6329607d1b6017918401918201528351613f6a816028840160208801613892565b01602801949350505050565b634e487b7160e01b600052604160045260246000fd5b604051608081016001600160401b0381118282101715613fae57613fae613f76565b60405290565b60405160a081016001600160401b0381118282101715613fae57613fae613f76565b604051601f8201601f191681016001600160401b0381118282101715613ffe57613ffe613f76565b604052919050565b60006080828403121561401857600080fd5b614020613f8c565b90508151815260208083015181830152604083015161403e81613902565b604083015260608301516001600160401b038082111561405d57600080fd5b818501915085601f83011261407157600080fd5b81518181111561408357614083613f76565b614095601f8201601f19168501613fd6565b915080825286848285010111156140ab57600080fd5b6140ba81858401868601613892565b50606084015250909392505050565b6000602082840312156140db57600080fd5b81516001600160401b03808211156140f257600080fd5b9083019060a0828603121561410657600080fd5b61410e613fb4565b825161411981613902565b80825250602083015160208201526040830151604082015260608301518281111561414357600080fd5b61414f87828601614006565b60608301525060808301518281111561416757600080fd5b61417387828601614006565b60808301525095945050505050565b60008161419157614191613d92565b506000190190565b600082516141ab818460208701613892565b919091019291505056feaf290d8680820aad922855f39b306097b20e28774d6c1ad35a20325630c3a02c8b5b16d04624687fcf0d0228f19993c9157c1ed07b41d8d430fd9100eb099fe8a2e156cbd72e7efc53149022996849380cdc926c5a894ce7fcd28079f0bf7a36ddf252ad1be2c89b69c2b068fc378daa952ba7f163c4a11628f55a4df523b3efdcbc1c05240f31ff3ad067ef1ee35ce4997762752e3a095284754544f4c709d7a2646970667358221220b15cc4d88920b4f9e36957c2b4c74d81a1416e105fe5c5baea8055fc71f5dfb764736f6c63430008100033af290d8680820aad922855f39b306097b20e28774d6c1ad35a20325630c3a02c8b5b16d04624687fcf0d0228f19993c9157c1ed07b41d8d430fd9100eb099fe8",
  "devdoc": {
    "kind": "dev",
    "methods": {
      "acceptOwnership()": {
        "details": "Accept transfer of ownership of the contract. Can only be called by the pendingOwner."
      },
      "allowance(address,address)": {
        "details": "See {IERC20-allowance}."
      },
      "approve(address,uint256)": {
        "details": "See {IERC20-approve}. NOTE: If `amount` is the maximum `uint256`, the allowance is not updated on `transferFrom`. This is semantically equivalent to an infinite approval. Requirements: - `spender` cannot be the zero address."
      },
      "balanceOf(address)": {
        "details": "See {IERC20-balanceOf}."
      },
      "decimals()": {
        "details": "Returns the number of decimals used to get its user representation. For example, if `decimals` equals `2`, a balance of `505` tokens should be displayed to a user as `5.05` (`505 / 10 ** 2`). Tokens usually opt for a value of 18, imitating the relationship between Ether and Wei. This is the value {ERC20} uses, unless this function is overridden; NOTE: This information is only used for _display_ purposes: it in no way affects any of the arithmetic of the contract, including {IERC20-balanceOf} and {IERC20-transfer}."
      },
      "decreaseAllowance(address,uint256)": {
        "details": "Atomically decreases the allowance granted to `spender` by the caller. This is an alternative to {approve} that can be used as a mitigation for problems described in {IERC20-approve}. Emits an {Approval} event indicating the updated allowance. Requirements: - `spender` cannot be the zero address. - `spender` must have allowance for the caller of at least `subtractedValue`."
      },
      "getRoleAdmin(bytes32)": {
        "details": "Returns the admin role that controls `role`. See {grantRole} and {revokeRole}. To change a role's admin, use {_setRoleAdmin}."
      },
      "grantRole(bytes32,address)": {
        "details": "Grants `role` to `account`. If `account` had not been already granted `role`, emits a {RoleGranted} event. Requirements: - the caller must have ``role``'s admin role. May emit a {RoleGranted} event."
      },
      "hasRole(bytes32,address)": {
        "details": "Returns `true` if `account` has been granted `role`."
      },
      "increaseAllowance(address,uint256)": {
        "details": "Atomically increases the allowance granted to `spender` by the caller. This is an alternative to {approve} that can be used as a mitigation for problems described in {IERC20-approve}. Emits an {Approval} event indicating the updated allowance. Requirements: - `spender` cannot be the zero address."
      },
      "name()": {
        "details": "Returns the name of the token."
      },
      "redeem()": {
        "details": "safest UI method"
      },
      "renounceRole(bytes32,address)": {
        "details": "Revokes `role` from the calling account. Roles are often managed via {grantRole} and {revokeRole}: this function's purpose is to provide a mechanism for accounts to lose their privileges if they are compromised (such as when a trusted device is misplaced). If the calling account had been revoked `role`, emits a {RoleRevoked} event. Requirements: - the caller must be `account`. May emit a {RoleRevoked} event."
      },
      "revokeRole(bytes32,address)": {
        "details": "Revokes `role` from `account`. If `account` had been granted `role`, emits a {RoleRevoked} event. Requirements: - the caller must have ``role``'s admin role. May emit a {RoleRevoked} event."
      },
      "sendTokens(address,address,address,address,uint256,uint256,bytes)": {
        "details": "Currently not verifying the middleware request calldata. Use very carefully",
        "params": {
          "allowanceTarget": "address to allow tokens to swipe",
          "amount": "amount of tokens to bridge",
          "data": "calldata of txn to be sent",
          "destinationAddress": "address of receiver",
          "destinationChainId": "chain Id of receiving chain",
          "socketRegistry": "address to send bridge txn to"
        }
      },
      "setPerformanceFee(uint256)": {
        "params": {
          "_performanceFee": "The new performance fee."
        }
      },
      "setTreasury(address)": {
        "params": {
          "_treasury": "New treasury address."
        }
      },
      "supportsInterface(bytes4)": {
        "details": "See {IERC165-supportsInterface}."
      },
      "symbol()": {
        "details": "Returns the symbol of the token, usually a shorter version of the name."
      },
      "transfer(address,uint256)": {
        "details": "See {IERC20-transfer}. Requirements: - `to` cannot be the zero address. - the caller must have a balance of at least `amount`."
      },
      "transferFrom(address,address,uint256)": {
        "details": "See {IERC20-transferFrom}. Emits an {Approval} event indicating the updated allowance. This is not required by the EIP. See the note at the beginning of {ERC20}. NOTE: Does not update the allowance if the current allowance is the maximum `uint256`. Requirements: - `from` and `to` cannot be the zero address. - `from` must have a balance of at least `amount`. - the caller must have allowance for ``from``'s tokens of at least `amount`."
      },
      "transferOwnership(address)": {
        "details": "Init transfer of ownership of the contract to a new account (`_pendingOwner`).",
        "params": {
          "_pendingOwner": "pending owner of contract Can only be called by the current owner."
        }
      }
    },
    "version": 1
  },
  "userdoc": {
    "events": {
      "SetPerformanceFee(uint256)": {
        "notice": "Emitted when the fee percentage is updated."
      }
    },
    "kind": "user",
    "methods": {
      "GUARDIAN()": {
        "notice": "Update vault params, perform time-sensitive operations, set manager"
      },
      "MANAGER()": {
        "notice": "Hot-wallet bots that route funds between vaults, rebalance and harvest strategies"
      },
      "owner()": {
        "notice": "Add and remove vaults and strategies and other critical operations behind timelock Default admin role There should only be one owner, so it is not a role"
      },
      "performanceFee()": {
        "notice": "The percentage of profit recognized each harvest to reserve as fees."
      },
      "redeemIsReady(address)": {
        "notice": "UTILS"
      },
      "sendTokens(address,address,address,address,uint256,uint256,bytes)": {
        "notice": "Sends tokens using Bungee middleware. Assumes tokens already present in contract. Manages allowance and transfer."
      },
      "setPerformanceFee(uint256)": {
        "notice": "Sets a new performanceFee."
      },
      "setTreasury(address)": {
        "notice": "Updates treasury."
      }
    },
    "version": 1
  },
  "storageLayout": {
    "storage": [
      {
        "astId": 1634,
        "contract": "src/vaults/SectorCrossVault.sol:SectorCrossVault",
        "label": "_roles",
        "offset": 0,
        "slot": "0",
        "type": "t_mapping(t_bytes32,t_struct(RoleData)1629_storage)"
      },
      {
        "astId": 18596,
        "contract": "src/vaults/SectorCrossVault.sol:SectorCrossVault",
        "label": "owner",
        "offset": 0,
        "slot": "1",
        "type": "t_address"
      },
      {
        "astId": 18598,
        "contract": "src/vaults/SectorCrossVault.sol:SectorCrossVault",
        "label": "pendingOwner",
        "offset": 0,
        "slot": "2",
        "type": "t_address"
      },
      {
        "astId": 18957,
        "contract": "src/vaults/SectorCrossVault.sol:SectorCrossVault",
        "label": "performanceFee",
        "offset": 0,
        "slot": "3",
        "type": "t_uint256"
      },
      {
        "astId": 18959,
        "contract": "src/vaults/SectorCrossVault.sol:SectorCrossVault",
        "label": "treasury",
        "offset": 0,
        "slot": "4",
        "type": "t_address"
      },
      {
        "astId": 3729,
        "contract": "src/vaults/SectorCrossVault.sol:SectorCrossVault",
        "label": "_balances",
        "offset": 0,
        "slot": "5",
        "type": "t_mapping(t_address,t_uint256)"
      },
      {
        "astId": 3735,
        "contract": "src/vaults/SectorCrossVault.sol:SectorCrossVault",
        "label": "_allowances",
        "offset": 0,
        "slot": "6",
        "type": "t_mapping(t_address,t_mapping(t_address,t_uint256))"
      },
      {
        "astId": 3737,
        "contract": "src/vaults/SectorCrossVault.sol:SectorCrossVault",
        "label": "_totalSupply",
        "offset": 0,
        "slot": "7",
        "type": "t_uint256"
      },
      {
        "astId": 3739,
        "contract": "src/vaults/SectorCrossVault.sol:SectorCrossVault",
        "label": "_name",
        "offset": 0,
        "slot": "8",
        "type": "t_string_storage"
      },
      {
        "astId": 3741,
        "contract": "src/vaults/SectorCrossVault.sol:SectorCrossVault",
        "label": "_symbol",
        "offset": 0,
        "slot": "9",
        "type": "t_string_storage"
      },
      {
        "astId": 26038,
        "contract": "src/vaults/SectorCrossVault.sol:SectorCrossVault",
        "label": "withdrawTimestamp",
        "offset": 0,
        "slot": "10",
        "type": "t_uint256"
      },
      {
        "astId": 26040,
        "contract": "src/vaults/SectorCrossVault.sol:SectorCrossVault",
        "label": "withdrawSharePrice",
        "offset": 0,
        "slot": "11",
        "type": "t_uint256"
      },
      {
        "astId": 26042,
        "contract": "src/vaults/SectorCrossVault.sol:SectorCrossVault",
        "label": "pendingWithdrawal",
        "offset": 0,
        "slot": "12",
        "type": "t_uint256"
      },
      {
        "astId": 26047,
        "contract": "src/vaults/SectorCrossVault.sol:SectorCrossVault",
        "label": "withdrawLedger",
        "offset": 0,
        "slot": "13",
        "type": "t_mapping(t_address,t_struct(WithdrawRecord)26021_storage)"
      },
      {
        "astId": 27290,
        "contract": "src/vaults/SectorCrossVault.sol:SectorCrossVault",
        "label": "depositedVaults",
        "offset": 0,
        "slot": "14",
        "type": "t_mapping(t_address,t_struct(Vault)27267_storage)"
      },
      {
        "astId": 27293,
        "contract": "src/vaults/SectorCrossVault.sol:SectorCrossVault",
        "label": "vaultsArr",
        "offset": 0,
        "slot": "15",
        "type": "t_array(t_address)dyn_storage"
      },
      {
        "astId": 27296,
        "contract": "src/vaults/SectorCrossVault.sol:SectorCrossVault",
        "label": "harvestLedger",
        "offset": 0,
        "slot": "16",
        "type": "t_struct(HarvestLedger)27285_storage"
      },
      {
        "astId": 27299,
        "contract": "src/vaults/SectorCrossVault.sol:SectorCrossVault",
        "label": "emergencyEnabled",
        "offset": 0,
        "slot": "20",
        "type": "t_bool"
      }
    ],
    "types": {
      "t_address": {
        "encoding": "inplace",
        "label": "address",
        "numberOfBytes": "20"
      },
      "t_array(t_address)dyn_storage": {
        "base": "t_address",
        "encoding": "dynamic_array",
        "label": "address[]",
        "numberOfBytes": "32"
      },
      "t_array(t_struct(Request)27274_storage)dyn_storage": {
        "base": "t_struct(Request)27274_storage",
        "encoding": "dynamic_array",
        "label": "struct SectorCrossVault.Request[]",
        "numberOfBytes": "32"
      },
      "t_bool": {
        "encoding": "inplace",
        "label": "bool",
        "numberOfBytes": "1"
      },
      "t_bytes32": {
        "encoding": "inplace",
        "label": "bytes32",
        "numberOfBytes": "32"
      },
      "t_mapping(t_address,t_bool)": {
        "encoding": "mapping",
        "key": "t_address",
        "label": "mapping(address => bool)",
        "numberOfBytes": "32",
        "value": "t_bool"
      },
      "t_mapping(t_address,t_mapping(t_address,t_uint256))": {
        "encoding": "mapping",
        "key": "t_address",
        "label": "mapping(address => mapping(address => uint256))",
        "numberOfBytes": "32",
        "value": "t_mapping(t_address,t_uint256)"
      },
      "t_mapping(t_address,t_struct(Vault)27267_storage)": {
        "encoding": "mapping",
        "key": "t_address",
        "label": "mapping(address => struct SectorCrossVault.Vault)",
        "numberOfBytes": "32",
        "value": "t_struct(Vault)27267_storage"
      },
      "t_mapping(t_address,t_struct(WithdrawRecord)26021_storage)": {
        "encoding": "mapping",
        "key": "t_address",
        "label": "mapping(address => struct WithdrawRecord)",
        "numberOfBytes": "32",
        "value": "t_struct(WithdrawRecord)26021_storage"
      },
      "t_mapping(t_address,t_uint256)": {
        "encoding": "mapping",
        "key": "t_address",
        "label": "mapping(address => uint256)",
        "numberOfBytes": "32",
        "value": "t_uint256"
      },
      "t_mapping(t_bytes32,t_struct(RoleData)1629_storage)": {
        "encoding": "mapping",
        "key": "t_bytes32",
        "label": "mapping(bytes32 => struct AccessControl.RoleData)",
        "numberOfBytes": "32",
        "value": "t_struct(RoleData)1629_storage"
      },
      "t_string_storage": {
        "encoding": "bytes",
        "label": "string",
        "numberOfBytes": "32"
      },
      "t_struct(HarvestLedger)27285_storage": {
        "encoding": "inplace",
        "label": "struct SectorCrossVault.HarvestLedger",
        "members": [
          {
            "astId": 27276,
            "contract": "src/vaults/SectorCrossVault.sol:SectorCrossVault",
            "label": "depositValue",
            "offset": 0,
            "slot": "0",
            "type": "t_uint256"
          },
          {
            "astId": 27278,
            "contract": "src/vaults/SectorCrossVault.sol:SectorCrossVault",
            "label": "isOpen",
            "offset": 0,
            "slot": "1",
            "type": "t_bool"
          },
          {
            "astId": 27280,
            "contract": "src/vaults/SectorCrossVault.sol:SectorCrossVault",
            "label": "openIndex",
            "offset": 0,
            "slot": "2",
            "type": "t_uint256"
          },
          {
            "astId": 27284,
            "contract": "src/vaults/SectorCrossVault.sol:SectorCrossVault",
            "label": "request",
            "offset": 0,
            "slot": "3",
            "type": "t_array(t_struct(Request)27274_storage)dyn_storage"
          }
        ],
        "numberOfBytes": "128"
      },
      "t_struct(Request)27274_storage": {
        "encoding": "inplace",
        "label": "struct SectorCrossVault.Request",
        "members": [
          {
            "astId": 27269,
            "contract": "src/vaults/SectorCrossVault.sol:SectorCrossVault",
            "label": "timestamp",
            "offset": 0,
            "slot": "0",
            "type": "t_uint256"
          },
          {
            "astId": 27271,
            "contract": "src/vaults/SectorCrossVault.sol:SectorCrossVault",
            "label": "chainId",
            "offset": 0,
            "slot": "1",
            "type": "t_uint256"
          },
          {
            "astId": 27273,
            "contract": "src/vaults/SectorCrossVault.sol:SectorCrossVault",
            "label": "vault",
            "offset": 0,
            "slot": "2",
            "type": "t_address"
          }
        ],
        "numberOfBytes": "96"
      },
      "t_struct(RoleData)1629_storage": {
        "encoding": "inplace",
        "label": "struct AccessControl.RoleData",
        "members": [
          {
            "astId": 1626,
            "contract": "src/vaults/SectorCrossVault.sol:SectorCrossVault",
            "label": "members",
            "offset": 0,
            "slot": "0",
            "type": "t_mapping(t_address,t_bool)"
          },
          {
            "astId": 1628,
            "contract": "src/vaults/SectorCrossVault.sol:SectorCrossVault",
            "label": "adminRole",
            "offset": 0,
            "slot": "1",
            "type": "t_bytes32"
          }
        ],
        "numberOfBytes": "64"
      },
      "t_struct(Vault)27267_storage": {
        "encoding": "inplace",
        "label": "struct SectorCrossVault.Vault",
        "members": [
          {
            "astId": 27262,
            "contract": "src/vaults/SectorCrossVault.sol:SectorCrossVault",
            "label": "chainId",
            "offset": 0,
            "slot": "0",
            "type": "t_uint16"
          },
          {
            "astId": 27264,
            "contract": "src/vaults/SectorCrossVault.sol:SectorCrossVault",
            "label": "adapter",
            "offset": 2,
            "slot": "0",
            "type": "t_address"
          },
          {
            "astId": 27266,
            "contract": "src/vaults/SectorCrossVault.sol:SectorCrossVault",
            "label": "allowed",
            "offset": 22,
            "slot": "0",
            "type": "t_bool"
          }
        ],
        "numberOfBytes": "32"
      },
      "t_struct(WithdrawRecord)26021_storage": {
        "encoding": "inplace",
        "label": "struct WithdrawRecord",
        "members": [
          {
            "astId": 26018,
            "contract": "src/vaults/SectorCrossVault.sol:SectorCrossVault",
            "label": "timestamp",
            "offset": 0,
            "slot": "0",
            "type": "t_uint256"
          },
          {
            "astId": 26020,
            "contract": "src/vaults/SectorCrossVault.sol:SectorCrossVault",
            "label": "amount",
            "offset": 0,
            "slot": "1",
            "type": "t_uint256"
          }
        ],
        "numberOfBytes": "64"
      },
      "t_uint16": {
        "encoding": "inplace",
        "label": "uint16",
        "numberOfBytes": "2"
      },
      "t_uint256": {
        "encoding": "inplace",
        "label": "uint256",
        "numberOfBytes": "32"
      }
    }
  }
}