{
  "address": "0x989A9667DdEb1a59fcB78e5850a36cB8549E12e2",
  "abi": [
    {
      "inputs": [
        {
          "internalType": "contract ERC20",
          "name": "_asset",
          "type": "address"
        },
        {
          "internalType": "string",
          "name": "_name",
          "type": "string"
        },
        {
          "internalType": "string",
          "name": "_symbol",
          "type": "string"
        },
        {
          "internalType": "address",
          "name": "_owner",
          "type": "address"
        },
        {
          "internalType": "address",
          "name": "_guardian",
          "type": "address"
        },
        {
          "internalType": "address",
          "name": "_manager",
          "type": "address"
        },
        {
          "internalType": "address",
          "name": "_treasury",
          "type": "address"
        },
        {
          "internalType": "uint256",
          "name": "_perforamanceFee",
          "type": "uint256"
        }
      ],
      "stateMutability": "nonpayable",
      "type": "constructor"
    },
    {
      "inputs": [],
      "name": "BridgeError",
      "type": "error"
    },
    {
      "inputs": [],
      "name": "MinLiquidity",
      "type": "error"
    },
    {
      "inputs": [],
      "name": "NotImplemented",
      "type": "error"
    },
    {
      "inputs": [],
      "name": "NotReady",
      "type": "error"
    },
    {
      "inputs": [],
      "name": "ZeroAmount",
      "type": "error"
    },
    {
      "anonymous": false,
      "inputs": [
        {
          "indexed": true,
          "internalType": "address",
          "name": "owner",
          "type": "address"
        },
        {
          "indexed": true,
          "internalType": "address",
          "name": "spender",
          "type": "address"
        },
        {
          "indexed": false,
          "internalType": "uint256",
          "name": "value",
          "type": "uint256"
        }
      ],
      "name": "Approval",
      "type": "event"
    },
    {
      "anonymous": false,
      "inputs": [
        {
          "indexed": false,
          "internalType": "uint32",
          "name": "_fromChainId",
          "type": "uint32"
        },
        {
          "indexed": false,
          "internalType": "uint32",
          "name": "_toChainId",
          "type": "uint32"
        },
        {
          "indexed": false,
          "internalType": "uint256",
          "name": "amount",
          "type": "uint256"
        }
      ],
      "name": "BridgeAsset",
      "type": "event"
    },
    {
      "anonymous": false,
      "inputs": [
        {
          "indexed": true,
          "internalType": "address",
          "name": "sender",
          "type": "address"
        },
        {
          "indexed": true,
          "internalType": "address",
          "name": "owner",
          "type": "address"
        },
        {
          "indexed": false,
          "internalType": "uint256",
          "name": "assets",
          "type": "uint256"
        },
        {
          "indexed": false,
          "internalType": "uint256",
          "name": "shares",
          "type": "uint256"
        }
      ],
      "name": "Deposit",
      "type": "event"
    },
    {
      "anonymous": false,
      "inputs": [
        {
          "indexed": false,
          "internalType": "address",
          "name": "owner",
          "type": "address"
        },
        {
          "indexed": false,
          "internalType": "address",
          "name": "pendingOwner",
          "type": "address"
        }
      ],
      "name": "OwnershipTransferInitiated",
      "type": "event"
    },
    {
      "anonymous": false,
      "inputs": [
        {
          "indexed": false,
          "internalType": "address",
          "name": "oldOwner",
          "type": "address"
        },
        {
          "indexed": false,
          "internalType": "address",
          "name": "newOwner",
          "type": "address"
        }
      ],
      "name": "OwnershipTransferred",
      "type": "event"
    },
    {
      "anonymous": false,
      "inputs": [
        {
          "indexed": true,
          "internalType": "address",
          "name": "caller",
          "type": "address"
        },
        {
          "indexed": true,
          "internalType": "address",
          "name": "owner",
          "type": "address"
        },
        {
          "indexed": false,
          "internalType": "uint256",
          "name": "shares",
          "type": "uint256"
        }
      ],
      "name": "RequestWithdraw",
      "type": "event"
    },
    {
      "anonymous": false,
      "inputs": [
        {
          "indexed": true,
          "internalType": "bytes32",
          "name": "role",
          "type": "bytes32"
        },
        {
          "indexed": true,
          "internalType": "bytes32",
          "name": "previousAdminRole",
          "type": "bytes32"
        },
        {
          "indexed": true,
          "internalType": "bytes32",
          "name": "newAdminRole",
          "type": "bytes32"
        }
      ],
      "name": "RoleAdminChanged",
      "type": "event"
    },
    {
      "anonymous": false,
      "inputs": [
        {
          "indexed": true,
          "internalType": "bytes32",
          "name": "role",
          "type": "bytes32"
        },
        {
          "indexed": true,
          "internalType": "address",
          "name": "account",
          "type": "address"
        },
        {
          "indexed": true,
          "internalType": "address",
          "name": "sender",
          "type": "address"
        }
      ],
      "name": "RoleGranted",
      "type": "event"
    },
    {
      "anonymous": false,
      "inputs": [
        {
          "indexed": true,
          "internalType": "bytes32",
          "name": "role",
          "type": "bytes32"
        },
        {
          "indexed": true,
          "internalType": "address",
          "name": "account",
          "type": "address"
        },
        {
          "indexed": true,
          "internalType": "address",
          "name": "sender",
          "type": "address"
        }
      ],
      "name": "RoleRevoked",
      "type": "event"
    },
    {
      "anonymous": false,
      "inputs": [
        {
          "indexed": false,
          "internalType": "uint256",
          "name": "performanceFee",
          "type": "uint256"
        }
      ],
      "name": "SetPerformanceFee",
      "type": "event"
    },
    {
      "anonymous": false,
      "inputs": [
        {
          "indexed": true,
          "internalType": "address",
          "name": "treasury",
          "type": "address"
        }
      ],
      "name": "SetTreasury",
      "type": "event"
    },
    {
      "anonymous": false,
      "inputs": [
        {
          "indexed": true,
          "internalType": "address",
          "name": "from",
          "type": "address"
        },
        {
          "indexed": true,
          "internalType": "address",
          "name": "to",
          "type": "address"
        },
        {
          "indexed": false,
          "internalType": "uint256",
          "name": "value",
          "type": "uint256"
        }
      ],
      "name": "Transfer",
      "type": "event"
    },
    {
      "anonymous": false,
      "inputs": [
        {
          "indexed": true,
          "internalType": "address",
          "name": "sender",
          "type": "address"
        },
        {
          "indexed": true,
          "internalType": "address",
          "name": "receiver",
          "type": "address"
        },
        {
          "indexed": true,
          "internalType": "address",
          "name": "owner",
          "type": "address"
        },
        {
          "indexed": false,
          "internalType": "uint256",
          "name": "assets",
          "type": "uint256"
        },
        {
          "indexed": false,
          "internalType": "uint256",
          "name": "shares",
          "type": "uint256"
        }
      ],
      "name": "Withdraw",
      "type": "event"
    },
    {
      "inputs": [],
      "name": "DEFAULT_ADMIN_ROLE",
      "outputs": [
        {
          "internalType": "bytes32",
          "name": "",
          "type": "bytes32"
        }
      ],
      "stateMutability": "view",
      "type": "function"
    },
    {
      "inputs": [],
      "name": "GUARDIAN",
      "outputs": [
        {
          "internalType": "bytes32",
          "name": "",
          "type": "bytes32"
        }
      ],
      "stateMutability": "view",
      "type": "function"
    },
    {
      "inputs": [],
      "name": "MANAGER",
      "outputs": [
        {
          "internalType": "bytes32",
          "name": "",
          "type": "bytes32"
        }
      ],
      "stateMutability": "view",
      "type": "function"
    },
    {
      "inputs": [],
      "name": "MIN_LIQUIDITY",
      "outputs": [
        {
          "internalType": "uint256",
          "name": "",
          "type": "uint256"
        }
      ],
      "stateMutability": "view",
      "type": "function"
    },
    {
      "inputs": [],
      "name": "acceptOwnership",
      "outputs": [],
      "stateMutability": "nonpayable",
      "type": "function"
    },
    {
      "inputs": [
        {
          "internalType": "address",
          "name": "owner",
          "type": "address"
        },
        {
          "internalType": "address",
          "name": "spender",
          "type": "address"
        }
      ],
      "name": "allowance",
      "outputs": [
        {
          "internalType": "uint256",
          "name": "",
          "type": "uint256"
        }
      ],
      "stateMutability": "view",
      "type": "function"
    },
    {
      "inputs": [
        {
          "internalType": "address",
          "name": "spender",
          "type": "address"
        },
        {
          "internalType": "uint256",
          "name": "amount",
          "type": "uint256"
        }
      ],
      "name": "approve",
      "outputs": [
        {
          "internalType": "bool",
          "name": "",
          "type": "bool"
        }
      ],
      "stateMutability": "nonpayable",
      "type": "function"
    },
    {
      "inputs": [
        {
          "internalType": "address",
          "name": "account",
          "type": "address"
        }
      ],
      "name": "balanceOf",
      "outputs": [
        {
          "internalType": "uint256",
          "name": "",
          "type": "uint256"
        }
      ],
      "stateMutability": "view",
      "type": "function"
    },
    {
      "inputs": [
        {
          "internalType": "uint256",
          "name": "shares",
          "type": "uint256"
        }
      ],
      "name": "convertToAssets",
      "outputs": [
        {
          "internalType": "uint256",
          "name": "",
          "type": "uint256"
        }
      ],
      "stateMutability": "view",
      "type": "function"
    },
    {
      "inputs": [
        {
          "internalType": "uint256",
          "name": "assets",
          "type": "uint256"
        }
      ],
      "name": "convertToShares",
      "outputs": [
        {
          "internalType": "uint256",
          "name": "",
          "type": "uint256"
        }
      ],
      "stateMutability": "view",
      "type": "function"
    },
    {
      "inputs": [],
      "name": "decimals",
      "outputs": [
        {
          "internalType": "uint8",
          "name": "",
          "type": "uint8"
        }
      ],
      "stateMutability": "view",
      "type": "function"
    },
    {
      "inputs": [
        {
          "internalType": "address",
          "name": "spender",
          "type": "address"
        },
        {
          "internalType": "uint256",
          "name": "subtractedValue",
          "type": "uint256"
        }
      ],
      "name": "decreaseAllowance",
      "outputs": [
        {
          "internalType": "bool",
          "name": "",
          "type": "bool"
        }
      ],
      "stateMutability": "nonpayable",
      "type": "function"
    },
    {
      "inputs": [
        {
          "internalType": "uint256",
          "name": "assets",
          "type": "uint256"
        },
        {
          "internalType": "address",
          "name": "receiver",
          "type": "address"
        }
      ],
      "name": "deposit",
      "outputs": [
        {
          "internalType": "uint256",
          "name": "shares",
          "type": "uint256"
        }
      ],
      "stateMutability": "nonpayable",
      "type": "function"
    },
    {
      "inputs": [
        {
          "internalType": "address",
          "name": "",
          "type": "address"
        }
      ],
      "name": "depositedVaults",
      "outputs": [
        {
          "internalType": "uint16",
          "name": "chainId",
          "type": "uint16"
        },
        {
          "internalType": "bool",
          "name": "allowed",
          "type": "bool"
        }
      ],
      "stateMutability": "view",
      "type": "function"
    },
    {
      "inputs": [
        {
          "internalType": "bytes32",
          "name": "role",
          "type": "bytes32"
        }
      ],
      "name": "getRoleAdmin",
      "outputs": [
        {
          "internalType": "bytes32",
          "name": "",
          "type": "bytes32"
        }
      ],
      "stateMutability": "view",
      "type": "function"
    },
    {
      "inputs": [
        {
          "internalType": "address",
          "name": "user",
          "type": "address"
        }
      ],
      "name": "getWithdrawStatus",
      "outputs": [
        {
          "components": [
            {
              "internalType": "uint256",
              "name": "timestamp",
              "type": "uint256"
            },
            {
              "internalType": "uint256",
              "name": "amount",
              "type": "uint256"
            }
          ],
          "internalType": "struct WithdrawRecord",
          "name": "",
          "type": "tuple"
        }
      ],
      "stateMutability": "view",
      "type": "function"
    },
    {
      "inputs": [
        {
          "internalType": "bytes32",
          "name": "role",
          "type": "bytes32"
        },
        {
          "internalType": "address",
          "name": "account",
          "type": "address"
        }
      ],
      "name": "grantRole",
      "outputs": [],
      "stateMutability": "nonpayable",
      "type": "function"
    },
    {
      "inputs": [],
      "name": "harvestLedger",
      "outputs": [
        {
          "internalType": "uint256",
          "name": "localDepositValue",
          "type": "uint256"
        },
        {
          "internalType": "bool",
          "name": "isOpen",
          "type": "bool"
        },
        {
          "internalType": "uint256",
          "name": "openIndex",
          "type": "uint256"
        }
      ],
      "stateMutability": "view",
      "type": "function"
    },
    {
      "inputs": [
        {
          "internalType": "bytes32",
          "name": "role",
          "type": "bytes32"
        },
        {
          "internalType": "address",
          "name": "account",
          "type": "address"
        }
      ],
      "name": "hasRole",
      "outputs": [
        {
          "internalType": "bool",
          "name": "",
          "type": "bool"
        }
      ],
      "stateMutability": "view",
      "type": "function"
    },
    {
      "inputs": [
        {
          "internalType": "address",
          "name": "spender",
          "type": "address"
        },
        {
          "internalType": "uint256",
          "name": "addedValue",
          "type": "uint256"
        }
      ],
      "name": "increaseAllowance",
      "outputs": [
        {
          "internalType": "bool",
          "name": "",
          "type": "bool"
        }
      ],
      "stateMutability": "nonpayable",
      "type": "function"
    },
    {
      "inputs": [
        {
          "components": [
            {
              "internalType": "uint256",
              "name": "value",
              "type": "uint256"
            },
            {
              "internalType": "address",
              "name": "sender",
              "type": "address"
            },
            {
              "internalType": "uint16",
              "name": "chainId",
              "type": "uint16"
            }
          ],
          "internalType": "struct Message",
          "name": "message",
          "type": "tuple"
        }
      ],
      "name": "isSenderAllowed",
      "outputs": [
        {
          "internalType": "bool",
          "name": "",
          "type": "bool"
        }
      ],
      "stateMutability": "view",
      "type": "function"
    },
    {
      "inputs": [
        {
          "internalType": "address",
          "name": "",
          "type": "address"
        }
      ],
      "name": "maxDeposit",
      "outputs": [
        {
          "internalType": "uint256",
          "name": "",
          "type": "uint256"
        }
      ],
      "stateMutability": "view",
      "type": "function"
    },
    {
      "inputs": [
        {
          "internalType": "address",
          "name": "",
          "type": "address"
        }
      ],
      "name": "maxMint",
      "outputs": [
        {
          "internalType": "uint256",
          "name": "",
          "type": "uint256"
        }
      ],
      "stateMutability": "view",
      "type": "function"
    },
    {
      "inputs": [
        {
          "internalType": "address",
          "name": "owner",
          "type": "address"
        }
      ],
      "name": "maxRedeem",
      "outputs": [
        {
          "internalType": "uint256",
          "name": "",
          "type": "uint256"
        }
      ],
      "stateMutability": "view",
      "type": "function"
    },
    {
      "inputs": [
        {
          "internalType": "address",
          "name": "owner",
          "type": "address"
        }
      ],
      "name": "maxWithdraw",
      "outputs": [
        {
          "internalType": "uint256",
          "name": "",
          "type": "uint256"
        }
      ],
      "stateMutability": "view",
      "type": "function"
    },
    {
      "inputs": [
        {
          "internalType": "uint256",
          "name": "shares",
          "type": "uint256"
        },
        {
          "internalType": "address",
          "name": "receiver",
          "type": "address"
        }
      ],
      "name": "mint",
      "outputs": [
        {
          "internalType": "uint256",
          "name": "assets",
          "type": "uint256"
        }
      ],
      "stateMutability": "nonpayable",
      "type": "function"
    },
    {
      "inputs": [],
      "name": "name",
      "outputs": [
        {
          "internalType": "string",
          "name": "",
          "type": "string"
        }
      ],
      "stateMutability": "view",
      "type": "function"
    },
    {
      "inputs": [],
      "name": "owner",
      "outputs": [
        {
          "internalType": "address",
          "name": "",
          "type": "address"
        }
      ],
      "stateMutability": "view",
      "type": "function"
    },
    {
      "inputs": [],
      "name": "pendingOwner",
      "outputs": [
        {
          "internalType": "address",
          "name": "",
          "type": "address"
        }
      ],
      "stateMutability": "view",
      "type": "function"
    },
    {
      "inputs": [],
      "name": "pendingWithdrawal",
      "outputs": [
        {
          "internalType": "uint256",
          "name": "",
          "type": "uint256"
        }
      ],
      "stateMutability": "view",
      "type": "function"
    },
    {
      "inputs": [],
      "name": "performanceFee",
      "outputs": [
        {
          "internalType": "uint256",
          "name": "",
          "type": "uint256"
        }
      ],
      "stateMutability": "view",
      "type": "function"
    },
    {
      "inputs": [
        {
          "internalType": "uint256",
          "name": "assets",
          "type": "uint256"
        }
      ],
      "name": "previewDeposit",
      "outputs": [
        {
          "internalType": "uint256",
          "name": "",
          "type": "uint256"
        }
      ],
      "stateMutability": "view",
      "type": "function"
    },
    {
      "inputs": [
        {
          "internalType": "uint256",
          "name": "shares",
          "type": "uint256"
        }
      ],
      "name": "previewMint",
      "outputs": [
        {
          "internalType": "uint256",
          "name": "",
          "type": "uint256"
        }
      ],
      "stateMutability": "view",
      "type": "function"
    },
    {
      "inputs": [
        {
          "internalType": "uint256",
          "name": "shares",
          "type": "uint256"
        }
      ],
      "name": "previewRedeem",
      "outputs": [
        {
          "internalType": "uint256",
          "name": "",
          "type": "uint256"
        }
      ],
      "stateMutability": "view",
      "type": "function"
    },
    {
      "inputs": [
        {
          "internalType": "uint256",
          "name": "assets",
          "type": "uint256"
        }
      ],
      "name": "previewWithdraw",
      "outputs": [
        {
          "internalType": "uint256",
          "name": "",
          "type": "uint256"
        }
      ],
      "stateMutability": "view",
      "type": "function"
    },
    {
      "inputs": [
        {
          "internalType": "address",
          "name": "receiver",
          "type": "address"
        }
      ],
      "name": "redeem",
      "outputs": [
        {
          "internalType": "uint256",
          "name": "amountOut",
          "type": "uint256"
        }
      ],
      "stateMutability": "nonpayable",
      "type": "function"
    },
    {
      "inputs": [
        {
          "internalType": "uint256",
          "name": "",
          "type": "uint256"
        },
        {
          "internalType": "address",
          "name": "receiver",
          "type": "address"
        },
        {
          "internalType": "address",
          "name": "",
          "type": "address"
        }
      ],
      "name": "redeem",
      "outputs": [
        {
          "internalType": "uint256",
          "name": "amountOut",
          "type": "uint256"
        }
      ],
      "stateMutability": "nonpayable",
      "type": "function"
    },
    {
      "inputs": [],
      "name": "redeem",
      "outputs": [
        {
          "internalType": "uint256",
          "name": "amountOut",
          "type": "uint256"
        }
      ],
      "stateMutability": "nonpayable",
      "type": "function"
    },
    {
      "inputs": [
        {
          "internalType": "address",
          "name": "user",
          "type": "address"
        }
      ],
      "name": "redeemIsReady",
      "outputs": [
        {
          "internalType": "bool",
          "name": "",
          "type": "bool"
        }
      ],
      "stateMutability": "view",
      "type": "function"
    },
    {
      "inputs": [
        {
          "internalType": "bytes32",
          "name": "role",
          "type": "bytes32"
        },
        {
          "internalType": "address",
          "name": "account",
          "type": "address"
        }
      ],
      "name": "renounceRole",
      "outputs": [],
      "stateMutability": "nonpayable",
      "type": "function"
    },
    {
      "inputs": [
        {
          "internalType": "uint256",
          "name": "shares",
          "type": "uint256"
        },
        {
          "internalType": "address",
          "name": "owner",
          "type": "address"
        }
      ],
      "name": "requestRedeem",
      "outputs": [],
      "stateMutability": "nonpayable",
      "type": "function"
    },
    {
      "inputs": [
        {
          "internalType": "uint256",
          "name": "shares",
          "type": "uint256"
        }
      ],
      "name": "requestRedeem",
      "outputs": [],
      "stateMutability": "nonpayable",
      "type": "function"
    },
    {
      "inputs": [
        {
          "internalType": "bytes32",
          "name": "role",
          "type": "bytes32"
        },
        {
          "internalType": "address",
          "name": "account",
          "type": "address"
        }
      ],
      "name": "revokeRole",
      "outputs": [],
      "stateMutability": "nonpayable",
      "type": "function"
    },
    {
      "inputs": [
        {
          "internalType": "address",
          "name": "asset",
          "type": "address"
        },
        {
          "internalType": "address",
          "name": "allowanceTarget",
          "type": "address"
        },
        {
          "internalType": "address",
          "name": "socketRegistry",
          "type": "address"
        },
        {
          "internalType": "address",
          "name": "destinationAddress",
          "type": "address"
        },
        {
          "internalType": "uint256",
          "name": "amount",
          "type": "uint256"
        },
        {
          "internalType": "uint256",
          "name": "destinationChainId",
          "type": "uint256"
        },
        {
          "internalType": "bytes",
          "name": "data",
          "type": "bytes"
        }
      ],
      "name": "sendTokens",
      "outputs": [],
      "stateMutability": "nonpayable",
      "type": "function"
    },
    {
      "inputs": [
        {
          "internalType": "uint256",
          "name": "_performanceFee",
          "type": "uint256"
        }
      ],
      "name": "setPerformanceFee",
      "outputs": [],
      "stateMutability": "nonpayable",
      "type": "function"
    },
    {
      "inputs": [
        {
          "internalType": "address",
          "name": "_treasury",
          "type": "address"
        }
      ],
      "name": "setTreasury",
      "outputs": [],
      "stateMutability": "nonpayable",
      "type": "function"
    },
    {
      "inputs": [
        {
          "internalType": "uint32",
          "name": "_fromChainId",
          "type": "uint32"
        },
        {
          "internalType": "uint32",
          "name": "_toChainId",
          "type": "uint32"
        },
        {
          "internalType": "uint256",
          "name": "amount",
          "type": "uint256"
        }
      ],
      "name": "startBridgeRoute",
      "outputs": [],
      "stateMutability": "nonpayable",
      "type": "function"
    },
    {
      "inputs": [
        {
          "internalType": "bytes4",
          "name": "interfaceId",
          "type": "bytes4"
        }
      ],
      "name": "supportsInterface",
      "outputs": [
        {
          "internalType": "bool",
          "name": "",
          "type": "bool"
        }
      ],
      "stateMutability": "view",
      "type": "function"
    },
    {
      "inputs": [],
      "name": "symbol",
      "outputs": [
        {
          "internalType": "string",
          "name": "",
          "type": "string"
        }
      ],
      "stateMutability": "view",
      "type": "function"
    },
    {
      "inputs": [
        {
          "internalType": "uint256",
          "name": "assets",
          "type": "uint256"
        }
      ],
      "name": "toSharesAfterDeposit",
      "outputs": [
        {
          "internalType": "uint256",
          "name": "",
          "type": "uint256"
        }
      ],
      "stateMutability": "view",
      "type": "function"
    },
    {
      "inputs": [],
      "name": "totalAssets",
      "outputs": [
        {
          "internalType": "uint256",
          "name": "",
          "type": "uint256"
        }
      ],
      "stateMutability": "view",
      "type": "function"
    },
    {
      "inputs": [],
      "name": "totalSupply",
      "outputs": [
        {
          "internalType": "uint256",
          "name": "",
          "type": "uint256"
        }
      ],
      "stateMutability": "view",
      "type": "function"
    },
    {
      "inputs": [
        {
          "internalType": "address",
          "name": "to",
          "type": "address"
        },
        {
          "internalType": "uint256",
          "name": "amount",
          "type": "uint256"
        }
      ],
      "name": "transfer",
      "outputs": [
        {
          "internalType": "bool",
          "name": "",
          "type": "bool"
        }
      ],
      "stateMutability": "nonpayable",
      "type": "function"
    },
    {
      "inputs": [
        {
          "internalType": "address",
          "name": "from",
          "type": "address"
        },
        {
          "internalType": "address",
          "name": "to",
          "type": "address"
        },
        {
          "internalType": "uint256",
          "name": "amount",
          "type": "uint256"
        }
      ],
      "name": "transferFrom",
      "outputs": [
        {
          "internalType": "bool",
          "name": "",
          "type": "bool"
        }
      ],
      "stateMutability": "nonpayable",
      "type": "function"
    },
    {
      "inputs": [
        {
          "internalType": "address",
          "name": "_pendingOwner",
          "type": "address"
        }
      ],
      "name": "transferOwnership",
      "outputs": [],
      "stateMutability": "nonpayable",
      "type": "function"
    },
    {
      "inputs": [],
      "name": "treasury",
      "outputs": [
        {
          "internalType": "address",
          "name": "",
          "type": "address"
        }
      ],
      "stateMutability": "view",
      "type": "function"
    },
    {
      "inputs": [
        {
          "internalType": "uint256",
          "name": "",
          "type": "uint256"
        },
        {
          "internalType": "address",
          "name": "",
          "type": "address"
        },
        {
          "internalType": "address",
          "name": "",
          "type": "address"
        }
      ],
      "name": "withdraw",
      "outputs": [
        {
          "internalType": "uint256",
          "name": "",
          "type": "uint256"
        }
      ],
      "stateMutability": "pure",
      "type": "function"
    },
    {
      "inputs": [
        {
          "internalType": "address",
          "name": "",
          "type": "address"
        }
      ],
      "name": "withdrawLedger",
      "outputs": [
        {
          "internalType": "uint256",
          "name": "timestamp",
          "type": "uint256"
        },
        {
          "internalType": "uint256",
          "name": "amount",
          "type": "uint256"
        }
      ],
      "stateMutability": "view",
      "type": "function"
    },
    {
      "inputs": [],
      "name": "withdrawSharePrice",
      "outputs": [
        {
          "internalType": "uint256",
          "name": "",
          "type": "uint256"
        }
      ],
      "stateMutability": "view",
      "type": "function"
    },
    {
      "inputs": [],
      "name": "withdrawTimestamp",
      "outputs": [
        {
          "internalType": "uint256",
          "name": "",
          "type": "uint256"
        }
      ],
      "stateMutability": "view",
      "type": "function"
    }
  ],
  "transactionHash": "0xfdc49dc6c1c948e08ffba2a0fe8bb3e7e602f9d67cd4f6198083d5733c27306c",
  "args": [
    "0x280FA06116E5be4D510fe4C7854D079D2fE85372",
    "PichaToken",
    "PTK",
    "0xACDB303129dD772DCd717bf75b8667A06C00089A",
    "0xACDB303129dD772DCd717bf75b8667A06C00089A",
    "0xACDB303129dD772DCd717bf75b8667A06C00089A",
    "0xACDB303129dD772DCd717bf75b8667A06C00089A",
    0
  ],
  "numDeployments": 1,
  "solcInputHash": "95a3bba700e7a2f5925b330e71933cb3",
  "bytecode": "0x60a06040526014805460ff191690553480156200001b57600080fd5b50604051620032fe380380620032fe8339810160408190526200003e916200042f565b600180546001600160a01b0319166001600160a01b038716908117909155604080516000815260208101929092528991899189918991899189918991899188918891859185918a918a918a917f8be0079c531659141344cd1fd0a4f28419497f9722a3daafe3b4186f6b6457e0910160405180910390a1600154620000cf906000906001600160a01b031662000265565b600154620000f790600080516020620032de833981519152906001600160a01b031662000265565b62000112600080516020620032de8339815191528362000265565b6001546200013a90600080516020620032be833981519152906001600160a01b031662000265565b62000155600080516020620032be8339815191528362000265565b62000170600080516020620032be8339815191528262000265565b6200019a600080516020620032be833981519152600080516020620032de83398151915262000306565b5050600480546001600160a01b0319166001600160a01b03851690811790915560038390556040519091507fcb7ef3e545f5cdb893f5c568ba710fe08f336375a2d9fd66e161033f8fc09ef390600090a26040518181527f8b940a95968ad5b511f89b01075446a4fe9f614f2dc5fbb9e9a6b227d6d4fd709060200160405180910390a150600890506200022f83826200059f565b5060096200023e82826200059f565b5050506001600160a01b03909716608052506200066b9d5050505050505050505050505050565b6000828152602081815260408083206001600160a01b038516845290915290205460ff1662000302576000828152602081815260408083206001600160a01b03851684529091529020805460ff19166001179055620002c13390565b6001600160a01b0316816001600160a01b0316837f2f8788117e7eff1d82e926ec794901d17c78024a50270940304540a733656f0d60405160405180910390a45b5050565b600082815260208190526040808220600101805490849055905190918391839186917fbd79b86ffe0ab8e8776151514217cd7cacd52c909f66475c3af44e129f0b00ff9190a4505050565b6001600160a01b03811681146200036757600080fd5b50565b634e487b7160e01b600052604160045260246000fd5b600082601f8301126200039257600080fd5b81516001600160401b0380821115620003af57620003af6200036a565b604051601f8301601f19908116603f01168101908282118183101715620003da57620003da6200036a565b81604052838152602092508683858801011115620003f757600080fd5b600091505b838210156200041b5785820183015181830184015290820190620003fc565b600093810190920192909252949350505050565b600080600080600080600080610100898b0312156200044d57600080fd5b88516200045a8162000351565b60208a01519098506001600160401b03808211156200047857600080fd5b620004868c838d0162000380565b985060408b01519150808211156200049d57600080fd5b50620004ac8b828c0162000380565b9650506060890151620004bf8162000351565b60808a0151909550620004d28162000351565b60a08a0151909450620004e58162000351565b60c08a0151909350620004f88162000351565b8092505060e089015190509295985092959890939650565b600181811c908216806200052557607f821691505b6020821081036200054657634e487b7160e01b600052602260045260246000fd5b50919050565b601f8211156200059a57600081815260208120601f850160051c81016020861015620005755750805b601f850160051c820191505b81811015620005965782815560010162000581565b5050505b505050565b81516001600160401b03811115620005bb57620005bb6200036a565b620005d381620005cc845462000510565b846200054c565b602080601f8311600181146200060b5760008415620005f25750858301515b600019600386901b1c1916600185901b17855562000596565b600085815260208120601f198616915b828110156200063c578886015182559484019460019091019084016200061b565b50858210156200065b5787850151600019600388901b60f8161c191681555b5050505050600190811b01905550565b608051612c1b620006a3600039600081816107ee01528181610afd01528181610c470152818161111c015261124b0152612c1b6000f3fe608060405234801561001057600080fd5b50600436106102b45760003560e01c806301e1d114146102b957806301ffc9a7146102d457806306fdde03146102f757806307a2d13a1461030c578063095ea7b31461031f5780630a28a47714610332578063107703ab1461034557806318160ddd1461035a5780631b2df8501461036257806321b77d631461037757806321f2fdee1461038057806323b872dd14610393578063248a9ca3146103a65780632f2ff15d146103b9578063313ce567146103cc57806331b38d57146103e65780633230b79b146103ef57806336568abe1461041d5780633950935114610430578063402d267d146104435780634cdad5061461045857806351a729641461046b578063526e8153146104db5780635b9d2658146104e457806361d027b3146105195780636e553f651461053957806370897b231461054c57806370a082311461055f578063724c184c1461057257806375bdd9f41461058757806379ba50971461059a5780637a70b7bc146105a25780637e288822146105b557806387788782146105be5780638da5cb5b146105c757806391d14854146105da57806393c77f1f146105ed57806394bf804d1461063657806395a2251f1461064957806395d89b411461065c578063a217fddf14610664578063a457c2d71461066c578063a9059cbb1461067f578063aa2f892d14610692578063b3d7f6b9146106a5578063b460af94146106b8578063ba087652146106cb578063be040fb0146106de578063c61b603f146106e6578063c63d75b614610443578063c6e6f59214610716578063ce96cb7714610729578063d547741f1461073c578063d905777e1461074f578063dd62ed3e14610762578063e30c397814610775578063eacff5ba14610788578063ef8b30f71461079b578063f0f44260146107ae578063f2fde38b146107c1575b600080fd5b6102c16107d4565b6040519081526020015b60405180910390f35b6102e76102e23660046123f4565b610869565b60405190151581526020016102cb565b6102ff6108a0565b6040516102cb9190612442565b6102c161031a366004612475565b610932565b6102e761032d3660046124a3565b610966565b6102c1610340366004612475565b61097e565b6103586103533660046124cf565b6109a5565b005b6102c1610a56565b6102c1600080516020612b6683398151915281565b6102c16103e881565b6102e761038e3660046124ff565b610a61565b6102e76103a1366004612517565b610a9f565b6102c16103b4366004612475565b610ac3565b6103586103c73660046124cf565b610ad8565b6103d4610af9565b60405160ff90911681526020016102cb565b6102c1600b5481565b6102e76103fd366004612558565b6001600160a01b03166000908152600d6020526040902054600a54101590565b61035861042b3660046124cf565b610b7d565b6102e761043e3660046124a3565b610c00565b6102c1610451366004612558565b5060001990565b6102c1610466366004612475565b610c22565b6104c0610479366004612558565b6040805180820190915260008082526020820152506001600160a01b03166000908152600d6020908152604091829020825180840190935280548352600101549082015290565b604080518251815260209283015192810192909252016102cb565b6102c1600a5481565b61050b6104f2366004612558565b600d602052600090815260409020805460019091015482565b6040516102cb929190612575565b60045461052c906001600160a01b031681565b6040516102cb9190612583565b6102c16105473660046124cf565b610c2d565b61035861055a366004612475565b610d06565b6102c161056d366004612558565b610db3565b6102c1600080516020612b8683398151915281565b6103586105953660046125b0565b610dce565b610358610e34565b6103586105b03660046125ec565b610f7f565b6102c1600c5481565b6102c160035481565b60015461052c906001600160a01b031681565b6102e76105e83660046124cf565b6110d9565b61061c6105fb366004612558565b600e6020526000908152604090205461ffff81169062010000900460ff1682565b6040805161ffff90931683529015156020830152016102cb565b6102c16106443660046124cf565b611102565b6102c1610657366004612558565b611181565b6102ff61131b565b6102c1600081565b6102e761067a3660046124a3565b61132a565b6102e761068d3660046124a3565b6113a5565b6103586106a0366004612475565b6113b3565b6102c16106b3366004612475565b6113c0565b6102c16106c63660046126bb565b6113e6565b6102c16106d93660046126bb565b611401565b6102c1611414565b6010546011546012546106fb929160ff169083565b604080519384529115156020840152908201526060016102cb565b6102c1610724366004612475565b61141f565b6102c1610737366004612558565b611446565b61035861074a3660046124cf565b611454565b6102c161075d366004612558565b611470565b6102c16107703660046126fd565b61147b565b60025461052c906001600160a01b031681565b6102c1610796366004612475565b6114a6565b6102c16107a9366004612475565b6114cf565b6103586107bc366004612558565b6114da565b6103586107cf366004612558565b61154e565b6040516370a0823160e01b81526000906001600160a01b037f000000000000000000000000000000000000000000000000000000000000000016906370a0823190610823903090600401612583565b602060405180830381865afa158015610840573d6000803e3d6000fd5b505050506040513d601f19601f82011682018060405250810190610864919061272b565b905090565b60006001600160e01b03198216637965db0b60e01b148061089a57506301ffc9a760e01b6001600160e01b03198316145b92915050565b6060600880546108af90612744565b80601f01602080910402602001604051908101604052809291908181526020018280546108db90612744565b80156109285780601f106108fd57610100808354040283529160200191610928565b820191906000526020600020905b81548152906001019060200180831161090b57829003601f168201915b5050505050905090565b60008061093d610a56565b9050801561095d576109586109506107d4565b8490836115cc565b61095f565b825b9392505050565b6000336109748185856115eb565b5060019392505050565b600080610989610a56565b9050801561095d576109588161099d6107d4565b859190611707565b336001600160a01b038216146109c0576109c0813384611735565b6109cb8130846117af565b336000908152600d60205260408120428155600181018054919285926109f290849061278e565b9250508190555082600c6000828254610a0b919061278e565b90915550506040518381526001600160a01b0383169033907ff601bbafcf0d793cce0a8802057c8783aa5946889f76bd9dd47492217f59af1e906020015b60405180910390a3505050565b600061086460075490565b6000600e81610a766040850160208601612558565b6001600160a01b0316815260208101919091526040016000205462010000900460ff1692915050565b600033610aad858285611735565b610ab88585856117af565b506001949350505050565b60009081526020819052604090206001015490565b610ae182610ac3565b610aea8161196b565b610af48383611975565b505050565b60007f00000000000000000000000000000000000000000000000000000000000000006001600160a01b031663313ce5676040518163ffffffff1660e01b8152600401602060405180830381865afa158015610b59573d6000803e3d6000fd5b505050506040513d601f19601f8201168201806040525081019061086491906127a1565b6001600160a01b0381163314610bf25760405162461bcd60e51b815260206004820152602f60248201527f416363657373436f6e74726f6c3a2063616e206f6e6c792072656e6f756e636560448201526e103937b632b9903337b91039b2b63360891b60648201526084015b60405180910390fd5b610bfc82826119f9565b5050565b600033610974818585610c13838361147b565b610c1d919061278e565b6115eb565b600061089a82610932565b6000610c38836114cf565b9050610c6f6001600160a01b037f000000000000000000000000000000000000000000000000000000000000000016333086611a5e565b610c77610a56565b600003610cbc57806103e81115610ca157604051630131cd7b60e51b815260040160405180910390fd5b610cad6103e8826127c4565b9050610cbc60016103e8611ab8565b610cc68282611ab8565b816001600160a01b0316336001600160a01b0316600080516020612bc68339815191528584604051610cf9929190612575565b60405180910390a361089a565b6001546001600160a01b03163314610d305760405162461bcd60e51b8152600401610be9906127d7565b670de0b6b3a7640000811115610d775760405162461bcd60e51b815260206004820152600c60248201526b08c8a8abea89e9ebe90928e960a31b6044820152606401610be9565b60038190556040518181527f8b940a95968ad5b511f89b01075446a4fe9f614f2dc5fbb9e9a6b227d6d4fd70906020015b60405180910390a150565b6001600160a01b031660009081526005602052604090205490565b600080516020612b66833981519152610de68161196b565b6040805163ffffffff8087168252851660208201529081018390527fa2e156cbd72e7efc53149022996849380cdc926c5a894ce7fcd28079f0bf7a369060600160405180910390a150505050565b6002546001600160a01b03163314610e835760405162461bcd60e51b815260206004820152601260248201527127a7262cafa822a72224a723afa7aba722a960711b6044820152606401610be9565b600180546002546001600160a01b031982166001600160a01b039182161790925516610eb06000826119f9565b610ec8600080516020612b86833981519152826119f9565b610ee0600080516020612b66833981519152826119f9565b600154610ef8906000906001600160a01b0316611975565b600154610f1d90600080516020612b86833981519152906001600160a01b0316611975565b600154610f4290600080516020612b66833981519152906001600160a01b0316611975565b6001546040517f8be0079c531659141344cd1fd0a4f28419497f9722a3daafe3b4186f6b6457e091610da89184916001600160a01b0316906127fb565b600080516020612b66833981519152610f978161196b565b610fdb83838080601f0160208091040260200160405190810160405280939291908181526020018383808284376000920191909152508892508d91508a9050611b85565b60405163095ea7b360e01b81526001600160a01b038a169063095ea7b390611009908b908990600401612815565b6020604051808303816000875af1158015611028573d6000803e3d6000fd5b505050506040513d601f19601f8201168201806040525081019061104c919061282e565b506000876001600160a01b03168484604051611069929190612850565b6000604051808303816000865af19150503d80600081146110a6576040519150601f19603f3d011682016040523d82523d6000602084013e6110ab565b606091505b50509050806110cd5760405163e0fec00360e01b815260040160405180910390fd5b50505050505050505050565b6000918252602082815260408084206001600160a01b0393909316845291905290205460ff1690565b600061110d836113c0565b90506111446001600160a01b037f000000000000000000000000000000000000000000000000000000000000000016333084611a5e565b61114e8284611ab8565b816001600160a01b0316336001600160a01b0316600080516020612bc68339815191528386604051610cf9929190612575565b336000908152600d60205260408120600181015482036111b457604051631f2a200560e01b815260040160405180910390fd5b600a54815411156111d857604051634a44555360e11b815260040160405180910390fd5b670de0b6b3a7640000600b5482600101546111f39190612860565b6111fd919061287f565b91506000816001015490508160010154600c600082825461121e91906127c4565b9091555050600060018301556112343082611ca3565b60405163a9059cbb60e01b81526001600160a01b037f0000000000000000000000000000000000000000000000000000000000000000169063a9059cbb906112829087908790600401612815565b6020604051808303816000875af11580156112a1573d6000803e3d6000fd5b505050506040513d601f19601f820116820180604052508101906112c5919061282e565b506001546040516001600160a01b039182169186169033907ffbde797d201c681b91056529119e0b02407c7bb96a4a2c75c01fc9667232c8db9061130c9088908790612575565b60405180910390a45050919050565b6060600980546108af90612744565b60003381611338828661147b565b9050838110156113985760405162461bcd60e51b815260206004820152602560248201527f45524332303a2064656372656173656420616c6c6f77616e63652062656c6f77604482015264207a65726f60d81b6064820152608401610be9565b610ab882868684036115eb565b6000336109748185856117af565b6113bd81336109a5565b50565b6000806113cb610a56565b9050801561095d576109586113de6107d4565b849083611707565b600060405163d623472560e01b815260040160405180910390fd5b600061140c83611181565b949350505050565b600061086433611181565b60008061142a610a56565b9050801561095d576109588161143e6107d4565b8591906115cc565b600061089a61031a83610db3565b61145d82610ac3565b6114668161196b565b610af483836119f9565b600061089a82610db3565b6001600160a01b03918216600090815260066020908152604080832093909416825291909152205490565b600080826114b26107d4565b6114bc91906127c4565b9050801561095d576109588382806115cc565b600061089a8261141f565b6001546001600160a01b031633146115045760405162461bcd60e51b8152600401610be9906127d7565b600480546001600160a01b0319166001600160a01b0383169081179091556040517fcb7ef3e545f5cdb893f5c568ba710fe08f336375a2d9fd66e161033f8fc09ef390600090a250565b6001546001600160a01b031633146115785760405162461bcd60e51b8152600401610be9906127d7565b600280546001600160a01b0319166001600160a01b038381169182179092556001546040517fb150023a879fd806e3599b6ca8ee3b60f0e360ab3846d128d67ebce1a391639a93610da893921691906127fb565b8282028115158415858304851417166115e457600080fd5b0492915050565b6001600160a01b03831661164d5760405162461bcd60e51b8152602060048201526024808201527f45524332303a20617070726f76652066726f6d20746865207a65726f206164646044820152637265737360e01b6064820152608401610be9565b6001600160a01b0382166116ae5760405162461bcd60e51b815260206004820152602260248201527f45524332303a20617070726f766520746f20746865207a65726f206164647265604482015261737360f01b6064820152608401610be9565b6001600160a01b0383811660008181526006602090815260408083209487168084529482529182902085905590518481527f8c5be1e5ebec7d5bd14f71427d1e84f3dd0314c0f7b2291e5b200ac8c7c3b9259101610a49565b82820281151584158583048514171661171f57600080fd5b6001826001830304018115150290509392505050565b6000611741848461147b565b905060001981146117a9578181101561179c5760405162461bcd60e51b815260206004820152601d60248201527f45524332303a20696e73756666696369656e7420616c6c6f77616e63650000006044820152606401610be9565b6117a984848484036115eb565b50505050565b6001600160a01b0383166118135760405162461bcd60e51b815260206004820152602560248201527f45524332303a207472616e736665722066726f6d20746865207a65726f206164604482015264647265737360d81b6064820152608401610be9565b6001600160a01b0382166118755760405162461bcd60e51b815260206004820152602360248201527f45524332303a207472616e7366657220746f20746865207a65726f206164647260448201526265737360e81b6064820152608401610be9565b6001600160a01b038316600090815260056020526040902054818110156118ed5760405162461bcd60e51b815260206004820152602660248201527f45524332303a207472616e7366657220616d6f756e7420657863656564732062604482015265616c616e636560d01b6064820152608401610be9565b6001600160a01b0380851660009081526005602052604080822085850390559185168152908120805484929061192490849061278e565b92505081905550826001600160a01b0316846001600160a01b0316600080516020612ba68339815191528460405161195e91815260200190565b60405180910390a36117a9565b6113bd8133611ddf565b61197f82826110d9565b610bfc576000828152602081815260408083206001600160a01b03851684529091529020805460ff191660011790556119b53390565b6001600160a01b0316816001600160a01b0316837f2f8788117e7eff1d82e926ec794901d17c78024a50270940304540a733656f0d60405160405180910390a45050565b611a0382826110d9565b15610bfc576000828152602081815260408083206001600160a01b0385168085529252808320805460ff1916905551339285917ff6391f5c32d9c69d2a47ea670b442974b53935d1edc7fd64eb21e047a839171b9190a45050565b604080516001600160a01b0385811660248301528416604482015260648082018490528251808303909101815260849091019091526020810180516001600160e01b03166323b872dd60e01b1790526117a9908590611e43565b6001600160a01b038216611b0e5760405162461bcd60e51b815260206004820152601f60248201527f45524332303a206d696e7420746f20746865207a65726f2061646472657373006044820152606401610be9565b8060076000828254611b20919061278e565b90915550506001600160a01b03821660009081526005602052604081208054839290611b4d90849061278e565b90915550506040518181526001600160a01b03831690600090600080516020612ba68339815191529060200160405180910390a35050565b611b8d61236e565b611b9685611f15565b905083816020015114611bdd5760405162461bcd60e51b815260206004820152600f60248201526e125b9d985b1a590818da185a5b9259608a1b6044820152606401610be9565b816001600160a01b031681600001516001600160a01b031614611c3d5760405162461bcd60e51b8152602060048201526018602482015277496e76616c6964207265636569766572206164647265737360401b6044820152606401610be9565b826001600160a01b03168160800151604001516001600160a01b031614611c9c5760405162461bcd60e51b815260206004820152601360248201527224b73b30b634b21034b7383aba103a37b5b2b760691b6044820152606401610be9565b5050505050565b6001600160a01b038216611d035760405162461bcd60e51b815260206004820152602160248201527f45524332303a206275726e2066726f6d20746865207a65726f206164647265736044820152607360f81b6064820152608401610be9565b6001600160a01b03821660009081526005602052604090205481811015611d775760405162461bcd60e51b815260206004820152602260248201527f45524332303a206275726e20616d6f756e7420657863656564732062616c616e604482015261636560f01b6064820152608401610be9565b6001600160a01b0383166000908152600560205260408120838303905560078054849290611da69084906127c4565b90915550506040518281526000906001600160a01b03851690600080516020612ba68339815191529060200160405180910390a3505050565b611de982826110d9565b610bfc57611e01816001600160a01b03166014611f4d565b611e0c836020611f4d565b604051602001611e1d9291906128a1565b60408051601f198184030181529082905262461bcd60e51b8252610be991600401612442565b6000611e98826040518060400160405280602081526020017f5361666545524332303a206c6f772d6c6576656c2063616c6c206661696c6564815250856001600160a01b03166120e89092919063ffffffff16565b805190915015610af45780806020019051810190611eb6919061282e565b610af45760405162461bcd60e51b815260206004820152602a60248201527f5361666545524332303a204552433230206f7065726174696f6e20646964206e6044820152691bdd081cdd58d8d9595960b21b6064820152608401610be9565b611f1d61236e565b6000611f37836004808651611f3291906127c4565b6120f7565b90508080602001905181019061095f9190612a63565b60606000611f5c836002612860565b611f6790600261278e565b6001600160401b03811115611f7e57611f7e612910565b6040519080825280601f01601f191660200182016040528015611fa8576020820181803683370190505b509050600360fc1b81600081518110611fc357611fc3612b1c565b60200101906001600160f81b031916908160001a905350600f60fb1b81600181518110611ff257611ff2612b1c565b60200101906001600160f81b031916908160001a9053506000612016846002612860565b61202190600161278e565b90505b6001811115612099576f181899199a1a9b1b9c1cb0b131b232b360811b85600f166010811061205557612055612b1c565b1a60f81b82828151811061206b5761206b612b1c565b60200101906001600160f81b031916908160001a90535060049490941c9361209281612b32565b9050612024565b50831561095f5760405162461bcd60e51b815260206004820181905260248201527f537472696e67733a20686578206c656e67746820696e73756666696369656e746044820152606401610be9565b606061140c8484600085612204565b60608161210581601f61278e565b10156121445760405162461bcd60e51b815260206004820152600e60248201526d736c6963655f6f766572666c6f7760901b6044820152606401610be9565b61214e828461278e565b845110156121925760405162461bcd60e51b8152602060048201526011602482015270736c6963655f6f75744f66426f756e647360781b6044820152606401610be9565b6060821580156121b157604051915060008252602082016040526121fb565b6040519150601f8416801560200281840101858101878315602002848b0101015b818310156121ea5780518352602092830192016121d2565b5050858452601f01601f1916604052505b50949350505050565b6060824710156122655760405162461bcd60e51b815260206004820152602660248201527f416464726573733a20696e73756666696369656e742062616c616e636520666f6044820152651c8818d85b1b60d21b6064820152608401610be9565b6001600160a01b0385163b6122bc5760405162461bcd60e51b815260206004820152601d60248201527f416464726573733a2063616c6c20746f206e6f6e2d636f6e74726163740000006044820152606401610be9565b600080866001600160a01b031685876040516122d89190612b49565b60006040518083038185875af1925050503d8060008114612315576040519150601f19603f3d011682016040523d82523d6000602084013e61231a565b606091505b509150915061232a828286612335565b979650505050505050565b6060831561234457508161095f565b8251156123545782518084602001fd5b8160405162461bcd60e51b8152600401610be99190612442565b6040518060a0016040528060006001600160a01b0316815260200160008152602001600081526020016123cb6040518060800160405280600081526020016000815260200160006001600160a01b03168152602001606081525090565b815260408051608081018252600080825260208281018290529282015260608082015291015290565b60006020828403121561240657600080fd5b81356001600160e01b03198116811461095f57600080fd5b60005b83811015612439578181015183820152602001612421565b50506000910152565b602081526000825180602084015261246181604085016020870161241e565b601f01601f19169190910160400192915050565b60006020828403121561248757600080fd5b5035919050565b6001600160a01b03811681146113bd57600080fd5b600080604083850312156124b657600080fd5b82356124c18161248e565b946020939093013593505050565b600080604083850312156124e257600080fd5b8235915060208301356124f48161248e565b809150509250929050565b60006060828403121561251157600080fd5b50919050565b60008060006060848603121561252c57600080fd5b83356125378161248e565b925060208401356125478161248e565b929592945050506040919091013590565b60006020828403121561256a57600080fd5b813561095f8161248e565b918252602082015260400190565b6001600160a01b0391909116815260200190565b803563ffffffff811681146125ab57600080fd5b919050565b6000806000606084860312156125c557600080fd5b6125ce84612597565b92506125dc60208501612597565b9150604084013590509250925092565b60008060008060008060008060e0898b03121561260857600080fd5b88356126138161248e565b975060208901356126238161248e565b965060408901356126338161248e565b955060608901356126438161248e565b94506080890135935060a0890135925060c08901356001600160401b038082111561266d57600080fd5b818b0191508b601f83011261268157600080fd5b81358181111561269057600080fd5b8c60208285010111156126a257600080fd5b6020830194508093505050509295985092959890939650565b6000806000606084860312156126d057600080fd5b8335925060208401356126e28161248e565b915060408401356126f28161248e565b809150509250925092565b6000806040838503121561271057600080fd5b823561271b8161248e565b915060208301356124f48161248e565b60006020828403121561273d57600080fd5b5051919050565b600181811c9082168061275857607f821691505b60208210810361251157634e487b7160e01b600052602260045260246000fd5b634e487b7160e01b600052601160045260246000fd5b8082018082111561089a5761089a612778565b6000602082840312156127b357600080fd5b815160ff8116811461095f57600080fd5b8181038181111561089a5761089a612778565b6020808252600a908201526927a7262cafa7aba722a960b11b604082015260600190565b6001600160a01b0392831681529116602082015260400190565b6001600160a01b03929092168252602082015260400190565b60006020828403121561284057600080fd5b8151801515811461095f57600080fd5b8183823760009101908152919050565b600081600019048311821515161561287a5761287a612778565b500290565b60008261289c57634e487b7160e01b600052601260045260246000fd5b500490565b76020b1b1b2b9b9a1b7b73a3937b61d1030b1b1b7bab73a1604d1b8152600083516128d381601785016020880161241e565b7001034b99036b4b9b9b4b733903937b6329607d1b601791840191820152835161290481602884016020880161241e565b01602801949350505050565b634e487b7160e01b600052604160045260246000fd5b604051608081016001600160401b038111828210171561294857612948612910565b60405290565b60405160a081016001600160401b038111828210171561294857612948612910565b604051601f8201601f191681016001600160401b038111828210171561299857612998612910565b604052919050565b6000608082840312156129b257600080fd5b6129ba612926565b9050815181526020808301518183015260408301516129d88161248e565b604083015260608301516001600160401b03808211156129f757600080fd5b818501915085601f830112612a0b57600080fd5b815181811115612a1d57612a1d612910565b612a2f601f8201601f19168501612970565b91508082528684828501011115612a4557600080fd5b612a548185840186860161241e565b50606084015250909392505050565b600060208284031215612a7557600080fd5b81516001600160401b0380821115612a8c57600080fd5b9083019060a08286031215612aa057600080fd5b612aa861294e565b8251612ab38161248e565b808252506020830151602082015260408301516040820152606083015182811115612add57600080fd5b612ae9878286016129a0565b606083015250608083015182811115612b0157600080fd5b612b0d878286016129a0565b60808301525095945050505050565b634e487b7160e01b600052603260045260246000fd5b600081612b4157612b41612778565b506000190190565b60008251612b5b81846020870161241e565b919091019291505056feaf290d8680820aad922855f39b306097b20e28774d6c1ad35a20325630c3a02c8b5b16d04624687fcf0d0228f19993c9157c1ed07b41d8d430fd9100eb099fe8ddf252ad1be2c89b69c2b068fc378daa952ba7f163c4a11628f55a4df523b3efdcbc1c05240f31ff3ad067ef1ee35ce4997762752e3a095284754544f4c709d7a264697066735822122050ba06ae1d7864c4630fbba320be94ce2afeabaf78e5fe55a556517239272f1d64736f6c63430008100033af290d8680820aad922855f39b306097b20e28774d6c1ad35a20325630c3a02c8b5b16d04624687fcf0d0228f19993c9157c1ed07b41d8d430fd9100eb099fe8",
  "devdoc": {
    "kind": "dev",
    "methods": {
      "acceptOwnership()": {
        "details": "Accept transfer of ownership of the contract. Can only be called by the pendingOwner."
      },
      "allowance(address,address)": {
        "details": "See {IERC20-allowance}."
      },
      "approve(address,uint256)": {
        "details": "See {IERC20-approve}. NOTE: If `amount` is the maximum `uint256`, the allowance is not updated on `transferFrom`. This is semantically equivalent to an infinite approval. Requirements: - `spender` cannot be the zero address."
      },
      "balanceOf(address)": {
        "details": "See {IERC20-balanceOf}."
      },
      "decimals()": {
        "details": "Returns the number of decimals used to get its user representation. For example, if `decimals` equals `2`, a balance of `505` tokens should be displayed to a user as `5.05` (`505 / 10 ** 2`). Tokens usually opt for a value of 18, imitating the relationship between Ether and Wei. This is the value {ERC20} uses, unless this function is overridden; NOTE: This information is only used for _display_ purposes: it in no way affects any of the arithmetic of the contract, including {IERC20-balanceOf} and {IERC20-transfer}."
      },
      "decreaseAllowance(address,uint256)": {
        "details": "Atomically decreases the allowance granted to `spender` by the caller. This is an alternative to {approve} that can be used as a mitigation for problems described in {IERC20-approve}. Emits an {Approval} event indicating the updated allowance. Requirements: - `spender` cannot be the zero address. - `spender` must have allowance for the caller of at least `subtractedValue`."
      },
      "getRoleAdmin(bytes32)": {
        "details": "Returns the admin role that controls `role`. See {grantRole} and {revokeRole}. To change a role's admin, use {_setRoleAdmin}."
      },
      "grantRole(bytes32,address)": {
        "details": "Grants `role` to `account`. If `account` had not been already granted `role`, emits a {RoleGranted} event. Requirements: - the caller must have ``role``'s admin role. May emit a {RoleGranted} event."
      },
      "hasRole(bytes32,address)": {
        "details": "Returns `true` if `account` has been granted `role`."
      },
      "increaseAllowance(address,uint256)": {
        "details": "Atomically increases the allowance granted to `spender` by the caller. This is an alternative to {approve} that can be used as a mitigation for problems described in {IERC20-approve}. Emits an {Approval} event indicating the updated allowance. Requirements: - `spender` cannot be the zero address."
      },
      "name()": {
        "details": "Returns the name of the token."
      },
      "redeem()": {
        "details": "safest UI method"
      },
      "renounceRole(bytes32,address)": {
        "details": "Revokes `role` from the calling account. Roles are often managed via {grantRole} and {revokeRole}: this function's purpose is to provide a mechanism for accounts to lose their privileges if they are compromised (such as when a trusted device is misplaced). If the calling account had been revoked `role`, emits a {RoleRevoked} event. Requirements: - the caller must be `account`. May emit a {RoleRevoked} event."
      },
      "revokeRole(bytes32,address)": {
        "details": "Revokes `role` from `account`. If `account` had been granted `role`, emits a {RoleRevoked} event. Requirements: - the caller must have ``role``'s admin role. May emit a {RoleRevoked} event."
      },
      "sendTokens(address,address,address,address,uint256,uint256,bytes)": {
        "details": "Currently not verifying the middleware request calldata. Use very carefully",
        "params": {
          "allowanceTarget": "address to allow tokens to swipe",
          "amount": "amount of tokens to bridge",
          "data": "calldata of txn to be sent",
          "destinationAddress": "address of receiver",
          "destinationChainId": "chain Id of receiving chain",
          "socketRegistry": "address to send bridge txn to"
        }
      },
      "setPerformanceFee(uint256)": {
        "params": {
          "_performanceFee": "The new performance fee."
        }
      },
      "setTreasury(address)": {
        "params": {
          "_treasury": "New treasury address."
        }
      },
      "supportsInterface(bytes4)": {
        "details": "See {IERC165-supportsInterface}."
      },
      "symbol()": {
        "details": "Returns the symbol of the token, usually a shorter version of the name."
      },
      "transfer(address,uint256)": {
        "details": "See {IERC20-transfer}. Requirements: - `to` cannot be the zero address. - the caller must have a balance of at least `amount`."
      },
      "transferFrom(address,address,uint256)": {
        "details": "See {IERC20-transferFrom}. Emits an {Approval} event indicating the updated allowance. This is not required by the EIP. See the note at the beginning of {ERC20}. NOTE: Does not update the allowance if the current allowance is the maximum `uint256`. Requirements: - `from` and `to` cannot be the zero address. - `from` must have a balance of at least `amount`. - the caller must have allowance for ``from``'s tokens of at least `amount`."
      },
      "transferOwnership(address)": {
        "details": "Init transfer of ownership of the contract to a new account (`_pendingOwner`).",
        "params": {
          "_pendingOwner": "pending owner of contract Can only be called by the current owner."
        }
      }
    },
    "version": 1
  },
  "userdoc": {
    "events": {
      "SetPerformanceFee(uint256)": {
        "notice": "Emitted when the fee percentage is updated."
      }
    },
    "kind": "user",
    "methods": {
      "GUARDIAN()": {
        "notice": "Update vault params, perform time-sensitive operations, set manager"
      },
      "MANAGER()": {
        "notice": "Hot-wallet bots that route funds between vaults, rebalance and harvest strategies"
      },
      "owner()": {
        "notice": "Add and remove vaults and strategies and other critical operations behind timelock Default admin role There should only be one owner, so it is not a role"
      },
      "performanceFee()": {
        "notice": "The percentage of profit recognized each harvest to reserve as fees."
      },
      "redeemIsReady(address)": {
        "notice": "UTILS"
      },
      "sendTokens(address,address,address,address,uint256,uint256,bytes)": {
        "notice": "Sends tokens using Bungee middleware. Assumes tokens already present in contract. Manages allowance and transfer."
      },
      "setPerformanceFee(uint256)": {
        "notice": "Sets a new performanceFee."
      },
      "setTreasury(address)": {
        "notice": "Updates treasury."
      }
    },
    "version": 1
  },
  "storageLayout": {
    "storage": [
      {
        "astId": 1634,
        "contract": "src/vaults/SectorXVault.sol:SectorXVault",
        "label": "_roles",
        "offset": 0,
        "slot": "0",
        "type": "t_mapping(t_bytes32,t_struct(RoleData)1629_storage)"
      },
      {
        "astId": 17925,
        "contract": "src/vaults/SectorXVault.sol:SectorXVault",
        "label": "owner",
        "offset": 0,
        "slot": "1",
        "type": "t_address"
      },
      {
        "astId": 17927,
        "contract": "src/vaults/SectorXVault.sol:SectorXVault",
        "label": "pendingOwner",
        "offset": 0,
        "slot": "2",
        "type": "t_address"
      },
      {
        "astId": 18286,
        "contract": "src/vaults/SectorXVault.sol:SectorXVault",
        "label": "performanceFee",
        "offset": 0,
        "slot": "3",
        "type": "t_uint256"
      },
      {
        "astId": 18288,
        "contract": "src/vaults/SectorXVault.sol:SectorXVault",
        "label": "treasury",
        "offset": 0,
        "slot": "4",
        "type": "t_address"
      },
      {
        "astId": 3729,
        "contract": "src/vaults/SectorXVault.sol:SectorXVault",
        "label": "_balances",
        "offset": 0,
        "slot": "5",
        "type": "t_mapping(t_address,t_uint256)"
      },
      {
        "astId": 3735,
        "contract": "src/vaults/SectorXVault.sol:SectorXVault",
        "label": "_allowances",
        "offset": 0,
        "slot": "6",
        "type": "t_mapping(t_address,t_mapping(t_address,t_uint256))"
      },
      {
        "astId": 3737,
        "contract": "src/vaults/SectorXVault.sol:SectorXVault",
        "label": "_totalSupply",
        "offset": 0,
        "slot": "7",
        "type": "t_uint256"
      },
      {
        "astId": 3739,
        "contract": "src/vaults/SectorXVault.sol:SectorXVault",
        "label": "_name",
        "offset": 0,
        "slot": "8",
        "type": "t_string_storage"
      },
      {
        "astId": 3741,
        "contract": "src/vaults/SectorXVault.sol:SectorXVault",
        "label": "_symbol",
        "offset": 0,
        "slot": "9",
        "type": "t_string_storage"
      },
      {
        "astId": 26734,
        "contract": "src/vaults/SectorXVault.sol:SectorXVault",
        "label": "withdrawTimestamp",
        "offset": 0,
        "slot": "10",
        "type": "t_uint256"
      },
      {
        "astId": 26736,
        "contract": "src/vaults/SectorXVault.sol:SectorXVault",
        "label": "withdrawSharePrice",
        "offset": 0,
        "slot": "11",
        "type": "t_uint256"
      },
      {
        "astId": 26738,
        "contract": "src/vaults/SectorXVault.sol:SectorXVault",
        "label": "pendingWithdrawal",
        "offset": 0,
        "slot": "12",
        "type": "t_uint256"
      },
      {
        "astId": 26743,
        "contract": "src/vaults/SectorXVault.sol:SectorXVault",
        "label": "withdrawLedger",
        "offset": 0,
        "slot": "13",
        "type": "t_mapping(t_address,t_struct(WithdrawRecord)26717_storage)"
      },
      {
        "astId": 18438,
        "contract": "src/vaults/SectorXVault.sol:SectorXVault",
        "label": "depositedVaults",
        "offset": 0,
        "slot": "14",
        "type": "t_mapping(t_address,t_struct(Vault)18433_storage)"
      },
      {
        "astId": 18441,
        "contract": "src/vaults/SectorXVault.sol:SectorXVault",
        "label": "vaultsArr",
        "offset": 0,
        "slot": "15",
        "type": "t_array(t_address)dyn_storage"
      },
      {
        "astId": 27980,
        "contract": "src/vaults/SectorXVault.sol:SectorXVault",
        "label": "harvestLedger",
        "offset": 0,
        "slot": "16",
        "type": "t_struct(HarvestLedger)27977_storage"
      },
      {
        "astId": 27983,
        "contract": "src/vaults/SectorXVault.sol:SectorXVault",
        "label": "emergencyEnabled",
        "offset": 0,
        "slot": "20",
        "type": "t_bool"
      }
    ],
    "types": {
      "t_address": {
        "encoding": "inplace",
        "label": "address",
        "numberOfBytes": "20"
      },
      "t_array(t_address)dyn_storage": {
        "base": "t_address",
        "encoding": "dynamic_array",
        "label": "address[]",
        "numberOfBytes": "32"
      },
      "t_array(t_struct(HarvestRequest)27966_storage)dyn_storage": {
        "base": "t_struct(HarvestRequest)27966_storage",
        "encoding": "dynamic_array",
        "label": "struct SectorXVault.HarvestRequest[]",
        "numberOfBytes": "32"
      },
      "t_bool": {
        "encoding": "inplace",
        "label": "bool",
        "numberOfBytes": "1"
      },
      "t_bytes32": {
        "encoding": "inplace",
        "label": "bytes32",
        "numberOfBytes": "32"
      },
      "t_mapping(t_address,t_bool)": {
        "encoding": "mapping",
        "key": "t_address",
        "label": "mapping(address => bool)",
        "numberOfBytes": "32",
        "value": "t_bool"
      },
      "t_mapping(t_address,t_mapping(t_address,t_uint256))": {
        "encoding": "mapping",
        "key": "t_address",
        "label": "mapping(address => mapping(address => uint256))",
        "numberOfBytes": "32",
        "value": "t_mapping(t_address,t_uint256)"
      },
      "t_mapping(t_address,t_struct(Vault)18433_storage)": {
        "encoding": "mapping",
        "key": "t_address",
        "label": "mapping(address => struct XChainIntegrator.Vault)",
        "numberOfBytes": "32",
        "value": "t_struct(Vault)18433_storage"
      },
      "t_mapping(t_address,t_struct(WithdrawRecord)26717_storage)": {
        "encoding": "mapping",
        "key": "t_address",
        "label": "mapping(address => struct WithdrawRecord)",
        "numberOfBytes": "32",
        "value": "t_struct(WithdrawRecord)26717_storage"
      },
      "t_mapping(t_address,t_uint256)": {
        "encoding": "mapping",
        "key": "t_address",
        "label": "mapping(address => uint256)",
        "numberOfBytes": "32",
        "value": "t_uint256"
      },
      "t_mapping(t_bytes32,t_struct(RoleData)1629_storage)": {
        "encoding": "mapping",
        "key": "t_bytes32",
        "label": "mapping(bytes32 => struct AccessControl.RoleData)",
        "numberOfBytes": "32",
        "value": "t_struct(RoleData)1629_storage"
      },
      "t_string_storage": {
        "encoding": "bytes",
        "label": "string",
        "numberOfBytes": "32"
      },
      "t_struct(HarvestLedger)27977_storage": {
        "encoding": "inplace",
        "label": "struct SectorXVault.HarvestLedger",
        "members": [
          {
            "astId": 27968,
            "contract": "src/vaults/SectorXVault.sol:SectorXVault",
            "label": "localDepositValue",
            "offset": 0,
            "slot": "0",
            "type": "t_uint256"
          },
          {
            "astId": 27970,
            "contract": "src/vaults/SectorXVault.sol:SectorXVault",
            "label": "isOpen",
            "offset": 0,
            "slot": "1",
            "type": "t_bool"
          },
          {
            "astId": 27972,
            "contract": "src/vaults/SectorXVault.sol:SectorXVault",
            "label": "openIndex",
            "offset": 0,
            "slot": "2",
            "type": "t_uint256"
          },
          {
            "astId": 27976,
            "contract": "src/vaults/SectorXVault.sol:SectorXVault",
            "label": "request",
            "offset": 0,
            "slot": "3",
            "type": "t_array(t_struct(HarvestRequest)27966_storage)dyn_storage"
          }
        ],
        "numberOfBytes": "128"
      },
      "t_struct(HarvestRequest)27966_storage": {
        "encoding": "inplace",
        "label": "struct SectorXVault.HarvestRequest",
        "members": [
          {
            "astId": 27961,
            "contract": "src/vaults/SectorXVault.sol:SectorXVault",
            "label": "timestamp",
            "offset": 0,
            "slot": "0",
            "type": "t_uint256"
          },
          {
            "astId": 27963,
            "contract": "src/vaults/SectorXVault.sol:SectorXVault",
            "label": "chainId",
            "offset": 0,
            "slot": "1",
            "type": "t_uint256"
          },
          {
            "astId": 27965,
            "contract": "src/vaults/SectorXVault.sol:SectorXVault",
            "label": "vault",
            "offset": 0,
            "slot": "2",
            "type": "t_address"
          }
        ],
        "numberOfBytes": "96"
      },
      "t_struct(RoleData)1629_storage": {
        "encoding": "inplace",
        "label": "struct AccessControl.RoleData",
        "members": [
          {
            "astId": 1626,
            "contract": "src/vaults/SectorXVault.sol:SectorXVault",
            "label": "members",
            "offset": 0,
            "slot": "0",
            "type": "t_mapping(t_address,t_bool)"
          },
          {
            "astId": 1628,
            "contract": "src/vaults/SectorXVault.sol:SectorXVault",
            "label": "adminRole",
            "offset": 0,
            "slot": "1",
            "type": "t_bytes32"
          }
        ],
        "numberOfBytes": "64"
      },
      "t_struct(Vault)18433_storage": {
        "encoding": "inplace",
        "label": "struct XChainIntegrator.Vault",
        "members": [
          {
            "astId": 18430,
            "contract": "src/vaults/SectorXVault.sol:SectorXVault",
            "label": "chainId",
            "offset": 0,
            "slot": "0",
            "type": "t_uint16"
          },
          {
            "astId": 18432,
            "contract": "src/vaults/SectorXVault.sol:SectorXVault",
            "label": "allowed",
            "offset": 2,
            "slot": "0",
            "type": "t_bool"
          }
        ],
        "numberOfBytes": "32"
      },
      "t_struct(WithdrawRecord)26717_storage": {
        "encoding": "inplace",
        "label": "struct WithdrawRecord",
        "members": [
          {
            "astId": 26714,
            "contract": "src/vaults/SectorXVault.sol:SectorXVault",
            "label": "timestamp",
            "offset": 0,
            "slot": "0",
            "type": "t_uint256"
          },
          {
            "astId": 26716,
            "contract": "src/vaults/SectorXVault.sol:SectorXVault",
            "label": "amount",
            "offset": 0,
            "slot": "1",
            "type": "t_uint256"
          }
        ],
        "numberOfBytes": "64"
      },
      "t_uint16": {
        "encoding": "inplace",
        "label": "uint16",
        "numberOfBytes": "2"
      },
      "t_uint256": {
        "encoding": "inplace",
        "label": "uint256",
        "numberOfBytes": "32"
      }
    }
  }
}