{
  "address": "0x92dBEa6fa85A1cd839b604D1F2852ABfb7Fa2897",
  "abi": [
    {
      "inputs": [
        {
          "internalType": "address",
          "name": "_layerZeroEndpoint",
          "type": "address"
        },
        {
          "components": [
            {
              "internalType": "uint16",
              "name": "from",
              "type": "uint16"
            },
            {
              "internalType": "uint16",
              "name": "to",
              "type": "uint16"
            }
          ],
          "internalType": "struct chainPair[]",
          "name": "chainPairArr",
          "type": "tuple[]"
        }
      ],
      "stateMutability": "nonpayable",
      "type": "constructor"
    },
    {
      "inputs": [],
      "name": "InsufficientBalanceToSendMessage",
      "type": "error"
    },
    {
      "inputs": [],
      "name": "NoBalance",
      "type": "error"
    },
    {
      "inputs": [],
      "name": "OnlyPostOffice",
      "type": "error"
    },
    {
      "inputs": [],
      "name": "Unauthorized",
      "type": "error"
    },
    {
      "anonymous": false,
      "inputs": [
        {
          "indexed": false,
          "internalType": "address",
          "name": "srcVaultAddress",
          "type": "address"
        },
        {
          "indexed": false,
          "internalType": "uint256",
          "name": "amount",
          "type": "uint256"
        },
        {
          "indexed": false,
          "internalType": "address",
          "name": "dstVaultAddress",
          "type": "address"
        },
        {
          "indexed": false,
          "internalType": "uint16",
          "name": "messageType",
          "type": "uint16"
        },
        {
          "indexed": false,
          "internalType": "uint256",
          "name": "srcChainId",
          "type": "uint256"
        }
      ],
      "name": "MessageReceived",
      "type": "event"
    },
    {
      "anonymous": false,
      "inputs": [
        {
          "indexed": true,
          "internalType": "address",
          "name": "previousOwner",
          "type": "address"
        },
        {
          "indexed": true,
          "internalType": "address",
          "name": "newOwner",
          "type": "address"
        }
      ],
      "name": "OwnershipTransferred",
      "type": "event"
    },
    {
      "stateMutability": "payable",
      "type": "fallback"
    },
    {
      "inputs": [
        {
          "components": [
            {
              "internalType": "uint256",
              "name": "value",
              "type": "uint256"
            },
            {
              "internalType": "address",
              "name": "sender",
              "type": "address"
            },
            {
              "internalType": "address",
              "name": "client",
              "type": "address"
            },
            {
              "internalType": "uint16",
              "name": "chainId",
              "type": "uint16"
            }
          ],
          "internalType": "struct Message",
          "name": "_msg",
          "type": "tuple"
        },
        {
          "internalType": "address",
          "name": "_dstVautAddress",
          "type": "address"
        },
        {
          "internalType": "address",
          "name": "_dstPostman",
          "type": "address"
        },
        {
          "internalType": "enum messageType",
          "name": "_messageType",
          "type": "uint8"
        },
        {
          "internalType": "uint16",
          "name": "_dstChainId",
          "type": "uint16"
        }
      ],
      "name": "deliverMessage",
      "outputs": [],
      "stateMutability": "nonpayable",
      "type": "function"
    },
    {
      "inputs": [],
      "name": "endpoint",
      "outputs": [
        {
          "internalType": "contract ILayerZeroEndpoint",
          "name": "",
          "type": "address"
        }
      ],
      "stateMutability": "view",
      "type": "function"
    },
    {
      "inputs": [
        {
          "internalType": "uint16",
          "name": "_srcChainId",
          "type": "uint16"
        },
        {
          "internalType": "bytes",
          "name": "_srcAddress",
          "type": "bytes"
        }
      ],
      "name": "forceResumeReceive",
      "outputs": [],
      "stateMutability": "nonpayable",
      "type": "function"
    },
    {
      "inputs": [
        {
          "internalType": "uint16",
          "name": "",
          "type": "uint16"
        },
        {
          "internalType": "uint16",
          "name": "_chainId",
          "type": "uint16"
        },
        {
          "internalType": "address",
          "name": "",
          "type": "address"
        },
        {
          "internalType": "uint256",
          "name": "_configType",
          "type": "uint256"
        }
      ],
      "name": "getConfig",
      "outputs": [
        {
          "internalType": "bytes",
          "name": "",
          "type": "bytes"
        }
      ],
      "stateMutability": "view",
      "type": "function"
    },
    {
      "inputs": [],
      "name": "getReceiveVersion",
      "outputs": [
        {
          "internalType": "uint16",
          "name": "",
          "type": "uint16"
        }
      ],
      "stateMutability": "view",
      "type": "function"
    },
    {
      "inputs": [],
      "name": "getSendVersion",
      "outputs": [
        {
          "internalType": "uint16",
          "name": "",
          "type": "uint16"
        }
      ],
      "stateMutability": "view",
      "type": "function"
    },
    {
      "inputs": [
        {
          "internalType": "uint16",
          "name": "_srcChainId",
          "type": "uint16"
        },
        {
          "internalType": "bytes",
          "name": "",
          "type": "bytes"
        },
        {
          "internalType": "uint64",
          "name": "",
          "type": "uint64"
        },
        {
          "internalType": "bytes",
          "name": "_payload",
          "type": "bytes"
        }
      ],
      "name": "lzReceive",
      "outputs": [],
      "stateMutability": "nonpayable",
      "type": "function"
    },
    {
      "inputs": [],
      "name": "owner",
      "outputs": [
        {
          "internalType": "address",
          "name": "",
          "type": "address"
        }
      ],
      "stateMutability": "view",
      "type": "function"
    },
    {
      "inputs": [],
      "name": "renounceOwnership",
      "outputs": [],
      "stateMutability": "nonpayable",
      "type": "function"
    },
    {
      "inputs": [
        {
          "internalType": "uint16",
          "name": "_chainId",
          "type": "uint16"
        },
        {
          "internalType": "uint16",
          "name": "_lzChainId",
          "type": "uint16"
        }
      ],
      "name": "setChain",
      "outputs": [],
      "stateMutability": "nonpayable",
      "type": "function"
    },
    {
      "inputs": [
        {
          "internalType": "uint16",
          "name": "",
          "type": "uint16"
        },
        {
          "internalType": "uint16",
          "name": "_dstChainId",
          "type": "uint16"
        },
        {
          "internalType": "uint256",
          "name": "_configType",
          "type": "uint256"
        },
        {
          "internalType": "bytes",
          "name": "_config",
          "type": "bytes"
        }
      ],
      "name": "setConfig",
      "outputs": [],
      "stateMutability": "nonpayable",
      "type": "function"
    },
    {
      "inputs": [
        {
          "internalType": "uint16",
          "name": "version",
          "type": "uint16"
        }
      ],
      "name": "setReceiveVersion",
      "outputs": [],
      "stateMutability": "nonpayable",
      "type": "function"
    },
    {
      "inputs": [
        {
          "internalType": "uint16",
          "name": "version",
          "type": "uint16"
        }
      ],
      "name": "setSendVersion",
      "outputs": [],
      "stateMutability": "nonpayable",
      "type": "function"
    },
    {
      "inputs": [
        {
          "internalType": "address",
          "name": "newOwner",
          "type": "address"
        }
      ],
      "name": "transferOwnership",
      "outputs": [],
      "stateMutability": "nonpayable",
      "type": "function"
    },
    {
      "stateMutability": "payable",
      "type": "receive"
    }
  ],
  "transactionHash": "0x3500a218dafc6667896488b15f1ad96047a7c082c635bfedd6c545a8204e2337",
  "args": [
    "0x3c2269811836af69497E5F486A85D7316753cf62",
    [
      [
        250,
        112
      ],
      [
        43114,
        106
      ],
      [
        1284,
        126
      ],
      [
        5,
        10121
      ],
      [
        43113,
        10106
      ],
      [
        4002,
        10112
      ],
      [
        42161,
        110
      ],
      [
        10,
        111
      ],
      [
        1,
        101
      ]
    ]
  ],
  "numDeployments": 1,
  "solcInputHash": "1f8e4266014ff4e1c4736348c6631364",
  "bytecode": "0x60806040523480156200001157600080fd5b50604051620014d7380380620014d78339810160408190526200003491620001a7565b6200003f33620000cb565b600180546001600160a01b0319166001600160a01b038416179055805160005b81811015620000c15760008382815181106200007f576200007f620002b6565b60209081029190910181015180820151905161ffff908116600090815260029093526040909220805461ffff191692909116919091179055506001016200005f565b50505050620002cc565b600080546001600160a01b038381166001600160a01b0319831681178455604051919092169283917f8be0079c531659141344cd1fd0a4f28419497f9722a3daafe3b4186f6b6457e09190a35050565b634e487b7160e01b600052604160045260246000fd5b604080519081016001600160401b03811182821017156200015657620001566200011b565b60405290565b604051601f8201601f191681016001600160401b03811182821017156200018757620001876200011b565b604052919050565b805161ffff81168114620001a257600080fd5b919050565b6000806040808486031215620001bc57600080fd5b83516001600160a01b0381168114620001d457600080fd5b602085810151919450906001600160401b0380821115620001f457600080fd5b818701915087601f8301126200020957600080fd5b8151818111156200021e576200021e6200011b565b6200022e848260051b016200015c565b818152848101925060069190911b8301840190898211156200024f57600080fd5b928401925b81841015620002a65785848b0312156200026e5760008081fd5b6200027862000131565b62000283856200018f565b8152620002928686016200018f565b818701528352928501929184019162000254565b8096505050505050509250929050565b634e487b7160e01b600052603260045260246000fd5b6111fb80620002dc6000396000f3fe6080604052600436106100ad5760003560e01c80621d3567146100b657806307e0db17146100d657806310ddb137146100f657806342d65a8d1461011657806354a5beda146101365780635e280f1114610163578063639cd8f914610190578063715018a6146101b05780638da5cb5b146101c5578063c658ebcd146101da578063cbed8b9c146101fa578063cf5d14711461021a578063f2fde38b1461022f578063f5ecbdbc1461024f57005b366100b457005b005b3480156100c257600080fd5b506100b46100d1366004610b37565b61027c565b3480156100e257600080fd5b506100b46100f1366004610bc6565b6103ab565b34801561010257600080fd5b506100b4610111366004610bc6565b610418565b34801561012257600080fd5b506100b4610131366004610bea565b505050565b34801561014257600080fd5b5061014b610454565b60405161ffff90911681526020015b60405180910390f35b34801561016f57600080fd5b50600154610183906001600160a01b031681565b60405161015a9190610c6e565b34801561019c57600080fd5b506100b46101ab366004610c97565b6104cb565b3480156101bc57600080fd5b506100b46106c1565b3480156101d157600080fd5b506101836106d5565b3480156101e657600080fd5b506100b46101f5366004610d13565b6106e4565b34801561020657600080fd5b506100b4610215366004610d4c565b610710565b34801561022657600080fd5b5061014b610805565b34801561023b57600080fd5b506100b461024a366004610dab565b610836565b34801561025b57600080fd5b5061026f61026a366004610dc8565b6108b4565b60405161015a9190610e69565b6001546001600160a01b031633146102a6576040516282b42960e81b815260040160405180910390fd5b6000806000838060200190518101906102bf9190610e7c565b6020808401518451604080516001600160a01b039384168152938401919091529084169082015261ffff80831660608301528b16608082015292955090935091507fc02a0d79f61556ace1b13af5c6f57ba59370de4e6887cb4217dad0192ca9fe2d9060a00160405180910390a1816001600160a01b03166396fbebcc848361ffff16600481111561035357610353610f30565b6040518363ffffffff1660e01b8152600401610370929190610f68565b600060405180830381600087803b15801561038a57600080fd5b505af115801561039e573d6000803e3d6000fd5b5050505050505050505050565b6103b36109b5565b6001546040516307e0db1760e01b815261ffff831660048201526001600160a01b03909116906307e0db17906024015b600060405180830381600087803b1580156103fd57600080fd5b505af1158015610411573d6000803e3d6000fd5b5050505050565b6104206109b5565b6001546040516310ddb13760e01b815261ffff831660048201526001600160a01b03909116906310ddb137906024016103e3565b6001546040516304b2b47b60e11b81526000916001600160a01b03169063096568f690610485903090600401610c6e565b602060405180830381865afa1580156104a2573d6000803e3d6000fd5b505050506040513d601f19601f820116820180604052508101906104c69190610fb0565b905090565b476000036104ec57604051636165515360e11b815260040160405180910390fd5b600085858460405160200161050393929190610fcd565b60408051808303601f1901815290829052600160f01b6020830152620557306022830181905290925060019160009060420160408051601f1981840301815282825260015461ffff808a16600090815260026020529384205463040a7bb160e41b865292955092936001600160a01b03909116926340a7bb10926105949291169030908a9087908990600401611039565b6040805180830381865afa1580156105b0573d6000803e3d6000fd5b505050506040513d601f19601f820116820180604052508101906105d4919061108d565b509050804710156105f85760405163566b103f60e01b815260040160405180910390fd5b60015461ffff878116600090815260026020908152604080832054815160608f811b6001600160601b031990811695830195909552309081901b909416603482015282516028818303018152604882019384905262c5803160e81b9093526001600160a01b039096169563c5803100958895610683959390911693928d929091908b90604c016110b1565b6000604051808303818588803b15801561069c57600080fd5b505af11580156106b0573d6000803e3d6000fd5b505050505050505050505050505050565b6106c96109b5565b6106d36000610a14565b565b6000546001600160a01b031690565b6106ec6109b5565b61ffff9182166000908152600260205260409020805461ffff191691909216179055565b6107186109b5565b60015461ffff808516600090815260026020526040908190205490516304b2b47b60e11b81526001600160a01b039093169263cbed8b9c929190911690839063096568f69061076b903090600401610c6e565b602060405180830381865afa158015610788573d6000803e3d6000fd5b505050506040513d601f19601f820116820180604052508101906107ac9190610fb0565b85856040518563ffffffff1660e01b81526004016107cd9493929190611118565b600060405180830381600087803b1580156107e757600080fd5b505af11580156107fb573d6000803e3d6000fd5b5050505050505050565b600154604051636d0d3e4d60e11b81526000916001600160a01b03169063da1a7c9a90610485903090600401610c6e565b61083e6109b5565b6001600160a01b0381166108a85760405162461bcd60e51b815260206004820152602660248201527f4f776e61626c653a206e6577206f776e657220697320746865207a65726f206160448201526564647265737360d01b60648201526084015b60405180910390fd5b6108b181610a14565b50565b6001546040516304b2b47b60e11b81526060916001600160a01b03169063f5ecbdbc90829063096568f6906108ed903090600401610c6e565b602060405180830381865afa15801561090a573d6000803e3d6000fd5b505050506040513d601f19601f8201168201806040525081019061092e9190610fb0565b6040516001600160e01b031960e084901b16815261ffff9182166004820152908716602482015230604482015260648101859052608401600060405180830381865afa158015610982573d6000803e3d6000fd5b505050506040513d6000823e601f3d908101601f191682016040526109aa919081019061114f565b90505b949350505050565b336109be6106d5565b6001600160a01b0316146106d35760405162461bcd60e51b815260206004820181905260248201527f4f776e61626c653a2063616c6c6572206973206e6f7420746865206f776e6572604482015260640161089f565b600080546001600160a01b038381166001600160a01b0319831681178455604051919092169283917f8be0079c531659141344cd1fd0a4f28419497f9722a3daafe3b4186f6b6457e09190a35050565b61ffff811681146108b157600080fd5b634e487b7160e01b600052604160045260246000fd5b604051601f8201601f191681016001600160401b0381118282101715610ab257610ab2610a74565b604052919050565b60006001600160401b03821115610ad357610ad3610a74565b50601f01601f191660200190565b600082601f830112610af257600080fd5b8135610b05610b0082610aba565b610a8a565b818152846020838601011115610b1a57600080fd5b816020850160208301376000918101602001919091529392505050565b60008060008060808587031215610b4d57600080fd5b8435610b5881610a64565b935060208501356001600160401b0380821115610b7457600080fd5b610b8088838901610ae1565b9450604087013591508082168214610b9757600080fd5b90925060608601359080821115610bad57600080fd5b50610bba87828801610ae1565b91505092959194509250565b600060208284031215610bd857600080fd5b8135610be381610a64565b9392505050565b600080600060408486031215610bff57600080fd5b8335610c0a81610a64565b925060208401356001600160401b0380821115610c2657600080fd5b818601915086601f830112610c3a57600080fd5b813581811115610c4957600080fd5b876020828501011115610c5b57600080fd5b6020830194508093505050509250925092565b6001600160a01b0391909116815260200190565b6001600160a01b03811681146108b157600080fd5b6000806000806000858703610100811215610cb157600080fd5b6080811215610cbf57600080fd5b508594506080860135610cd181610c82565b935060a0860135610ce181610c82565b925060c086013560058110610cf557600080fd5b915060e0860135610d0581610a64565b809150509295509295909350565b60008060408385031215610d2657600080fd5b8235610d3181610a64565b91506020830135610d4181610a64565b809150509250929050565b60008060008060808587031215610d6257600080fd5b8435610d6d81610a64565b93506020850135610d7d81610a64565b92506040850135915060608501356001600160401b03811115610d9f57600080fd5b610bba87828801610ae1565b600060208284031215610dbd57600080fd5b8135610be381610c82565b60008060008060808587031215610dde57600080fd5b8435610de981610a64565b93506020850135610df981610a64565b92506040850135610e0981610c82565b9396929550929360600135925050565b60005b83811015610e34578181015183820152602001610e1c565b50506000910152565b60008151808452610e55816020860160208601610e19565b601f01601f19169290920160200192915050565b602081526000610be36020830184610e3d565b600080600083850360c0811215610e9257600080fd5b6080811215610ea057600080fd5b50604051608081016001600160401b0381118282101715610ec357610ec3610a74565b604052845181526020850151610ed881610c82565b60208201526040850151610eeb81610c82565b60408201526060850151610efe81610a64565b60608201526080850151909350610f1481610c82565b60a0850151909250610f2581610a64565b809150509250925092565b634e487b7160e01b600052602160045260246000fd5b60058110610f6457634e487b7160e01b600052602160045260246000fd5b9052565b825181526020808401516001600160a01b03908116918301919091526040808501519091169082015260608084015161ffff169082015260a08101610be36080830184610f46565b600060208284031215610fc257600080fd5b8151610be381610a64565b8335815260c081016020850135610fe381610c82565b6001600160a01b03908116602084015260408601359061100282610c82565b908116604084015260608601359061101982610a64565b61ffff919091166060840152841660808301526109ad60a0830184610f46565b61ffff861681526001600160a01b038516602082015260a06040820181905260009061106790830186610e3d565b841515606084015282810360808401526110818185610e3d565b98975050505050505050565b600080604083850312156110a057600080fd5b505080516020909101519092909150565b61ffff8716815260c0602082015260006110ce60c0830188610e3d565b82810360408401526110e08188610e3d565b6001600160a01b0387811660608601528616608085015283810360a0850152905061110b8185610e3d565b9998505050505050505050565b600061ffff8087168352808616602084015250836040830152608060608301526111456080830184610e3d565b9695505050505050565b60006020828403121561116157600080fd5b81516001600160401b0381111561117757600080fd5b8201601f8101841361118857600080fd5b8051611196610b0082610aba565b8181528560208385010111156111ab57600080fd5b6111bc826020830160208601610e19565b9594505050505056fea2646970667358221220dd74fbf54c240d1e73116431058bd3954616806e708d2ba9f1429def2931d40264736f6c63430008100033",
  "devdoc": {
    "kind": "dev",
    "methods": {
      "owner()": {
        "details": "Returns the address of the current owner."
      },
      "renounceOwnership()": {
        "details": "Leaves the contract without owner. It will not be possible to call `onlyOwner` functions anymore. Can only be called by the current owner. NOTE: Renouncing ownership will leave the contract without an owner, thereby removing any functionality that is only available to the owner."
      },
      "transferOwnership(address)": {
        "details": "Transfers ownership of the contract to a new account (`newOwner`). Can only be called by the current owner."
      }
    },
    "version": 1
  },
  "userdoc": {
    "kind": "user",
    "methods": {},
    "version": 1
  },
  "storageLayout": {
    "storage": [
      {
        "astId": 2010,
        "contract": "src/postOffice/LayerZeroPostman.sol:LayerZeroPostman",
        "label": "_owner",
        "offset": 0,
        "slot": "0",
        "type": "t_address"
      },
      {
        "astId": 20264,
        "contract": "src/postOffice/LayerZeroPostman.sol:LayerZeroPostman",
        "label": "endpoint",
        "offset": 0,
        "slot": "1",
        "type": "t_contract(ILayerZeroEndpoint)17171"
      },
      {
        "astId": 20268,
        "contract": "src/postOffice/LayerZeroPostman.sol:LayerZeroPostman",
        "label": "chains",
        "offset": 0,
        "slot": "2",
        "type": "t_mapping(t_uint16,t_uint16)"
      }
    ],
    "types": {
      "t_address": {
        "encoding": "inplace",
        "label": "address",
        "numberOfBytes": "20"
      },
      "t_contract(ILayerZeroEndpoint)17171": {
        "encoding": "inplace",
        "label": "contract ILayerZeroEndpoint",
        "numberOfBytes": "20"
      },
      "t_mapping(t_uint16,t_uint16)": {
        "encoding": "mapping",
        "key": "t_uint16",
        "label": "mapping(uint16 => uint16)",
        "numberOfBytes": "32",
        "value": "t_uint16"
      },
      "t_uint16": {
        "encoding": "inplace",
        "label": "uint16",
        "numberOfBytes": "2"
      }
    }
  }
}