{
  "address": "0x3504f8DEE29D20EDf763Ac573A092b986D88F807",
  "abi": [
    {
      "inputs": [
        {
          "internalType": "contract ERC20",
          "name": "_asset",
          "type": "address"
        },
        {
          "internalType": "string",
          "name": "_name",
          "type": "string"
        },
        {
          "internalType": "string",
          "name": "_symbol",
          "type": "string"
        },
        {
          "components": [
            {
              "internalType": "address",
              "name": "owner",
              "type": "address"
            },
            {
              "internalType": "address",
              "name": "guardian",
              "type": "address"
            },
            {
              "internalType": "address",
              "name": "manager",
              "type": "address"
            }
          ],
          "internalType": "struct AuthConfig",
          "name": "authConfig",
          "type": "tuple"
        },
        {
          "components": [
            {
              "internalType": "address",
              "name": "treasury",
              "type": "address"
            },
            {
              "internalType": "uint256",
              "name": "performanceFee",
              "type": "uint256"
            },
            {
              "internalType": "uint256",
              "name": "managementFee",
              "type": "uint256"
            }
          ],
          "internalType": "struct FeeConfig",
          "name": "feeConfig",
          "type": "tuple"
        }
      ],
      "stateMutability": "nonpayable",
      "type": "constructor"
    },
    {
      "inputs": [],
      "name": "BridgeError",
      "type": "error"
    },
    {
      "inputs": [],
      "name": "Expired",
      "type": "error"
    },
    {
      "inputs": [],
      "name": "HarvestNotOpen",
      "type": "error"
    },
    {
      "inputs": [],
      "name": "MaxRedeemNotZero",
      "type": "error"
    },
    {
      "inputs": [],
      "name": "MinLiquidity",
      "type": "error"
    },
    {
      "inputs": [],
      "name": "MissingDepositValue",
      "type": "error"
    },
    {
      "inputs": [],
      "name": "MissingIncomingXFunds",
      "type": "error"
    },
    {
      "inputs": [],
      "name": "MissingMessages",
      "type": "error"
    },
    {
      "inputs": [
        {
          "internalType": "uint16",
          "name": "postmanId",
          "type": "uint16"
        },
        {
          "internalType": "uint256",
          "name": "chainId",
          "type": "uint256"
        }
      ],
      "name": "MissingPostman",
      "type": "error"
    },
    {
      "inputs": [],
      "name": "NotEnoughtFloat",
      "type": "error"
    },
    {
      "inputs": [],
      "name": "NotImplemented",
      "type": "error"
    },
    {
      "inputs": [],
      "name": "NotReady",
      "type": "error"
    },
    {
      "inputs": [],
      "name": "OnGoingHarvest",
      "type": "error"
    },
    {
      "inputs": [],
      "name": "OverMaxFee",
      "type": "error"
    },
    {
      "inputs": [],
      "name": "SameChainOperation",
      "type": "error"
    },
    {
      "inputs": [
        {
          "internalType": "address",
          "name": "sender",
          "type": "address"
        }
      ],
      "name": "SenderNotAllowed",
      "type": "error"
    },
    {
      "inputs": [],
      "name": "SlippageExceeded",
      "type": "error"
    },
    {
      "inputs": [],
      "name": "StrategyExists",
      "type": "error"
    },
    {
      "inputs": [],
      "name": "StrategyNotFound",
      "type": "error"
    },
    {
      "inputs": [],
      "name": "VaultAlreadyAdded",
      "type": "error"
    },
    {
      "inputs": [
        {
          "internalType": "address",
          "name": "vault",
          "type": "address"
        }
      ],
      "name": "VaultMissing",
      "type": "error"
    },
    {
      "inputs": [
        {
          "internalType": "address",
          "name": "vault",
          "type": "address"
        }
      ],
      "name": "VaultNotAllowed",
      "type": "error"
    },
    {
      "inputs": [
        {
          "internalType": "address",
          "name": "postman",
          "type": "address"
        }
      ],
      "name": "WrongPostman",
      "type": "error"
    },
    {
      "inputs": [],
      "name": "WrongUnderlying",
      "type": "error"
    },
    {
      "inputs": [],
      "name": "ZeroAmount",
      "type": "error"
    },
    {
      "anonymous": false,
      "inputs": [
        {
          "indexed": true,
          "internalType": "address",
          "name": "vault",
          "type": "address"
        },
        {
          "indexed": false,
          "internalType": "uint16",
          "name": "chainId",
          "type": "uint16"
        }
      ],
      "name": "AddedVault",
      "type": "event"
    },
    {
      "anonymous": false,
      "inputs": [
        {
          "indexed": true,
          "internalType": "address",
          "name": "owner",
          "type": "address"
        },
        {
          "indexed": true,
          "internalType": "address",
          "name": "spender",
          "type": "address"
        },
        {
          "indexed": false,
          "internalType": "uint256",
          "name": "value",
          "type": "uint256"
        }
      ],
      "name": "Approval",
      "type": "event"
    },
    {
      "anonymous": false,
      "inputs": [
        {
          "indexed": false,
          "internalType": "uint16",
          "name": "_fromChainId",
          "type": "uint16"
        },
        {
          "indexed": false,
          "internalType": "uint16",
          "name": "_toChainId",
          "type": "uint16"
        },
        {
          "indexed": false,
          "internalType": "uint256",
          "name": "amount",
          "type": "uint256"
        }
      ],
      "name": "BridgeAsset",
      "type": "event"
    },
    {
      "anonymous": false,
      "inputs": [
        {
          "indexed": true,
          "internalType": "address",
          "name": "vault",
          "type": "address"
        },
        {
          "indexed": false,
          "internalType": "bool",
          "name": "status",
          "type": "bool"
        }
      ],
      "name": "ChangedVaultStatus",
      "type": "event"
    },
    {
      "anonymous": false,
      "inputs": [
        {
          "indexed": true,
          "internalType": "address",
          "name": "sender",
          "type": "address"
        },
        {
          "indexed": true,
          "internalType": "address",
          "name": "owner",
          "type": "address"
        },
        {
          "indexed": false,
          "internalType": "uint256",
          "name": "assets",
          "type": "uint256"
        },
        {
          "indexed": false,
          "internalType": "uint256",
          "name": "shares",
          "type": "uint256"
        }
      ],
      "name": "Deposit",
      "type": "event"
    },
    {
      "anonymous": false,
      "inputs": [
        {
          "indexed": false,
          "internalType": "address",
          "name": "target",
          "type": "address"
        },
        {
          "indexed": false,
          "internalType": "bytes",
          "name": "callData",
          "type": "bytes"
        }
      ],
      "name": "EmergencyAction",
      "type": "event"
    },
    {
      "anonymous": false,
      "inputs": [
        {
          "indexed": false,
          "internalType": "address",
          "name": "vault",
          "type": "address"
        },
        {
          "indexed": false,
          "internalType": "address",
          "name": "client",
          "type": "address"
        },
        {
          "indexed": false,
          "internalType": "uint256",
          "name": "shares",
          "type": "uint256"
        }
      ],
      "name": "EmergencyWithdraw",
      "type": "event"
    },
    {
      "anonymous": false,
      "inputs": [
        {
          "indexed": true,
          "internalType": "address",
          "name": "treasury",
          "type": "address"
        },
        {
          "indexed": false,
          "internalType": "uint256",
          "name": "underlyingProfit",
          "type": "uint256"
        },
        {
          "indexed": false,
          "internalType": "uint256",
          "name": "performanceFee",
          "type": "uint256"
        },
        {
          "indexed": false,
          "internalType": "uint256",
          "name": "managementFee",
          "type": "uint256"
        },
        {
          "indexed": false,
          "internalType": "uint256",
          "name": "sharesFees",
          "type": "uint256"
        },
        {
          "indexed": false,
          "internalType": "uint256",
          "name": "tvl",
          "type": "uint256"
        }
      ],
      "name": "Harvest",
      "type": "event"
    },
    {
      "anonymous": false,
      "inputs": [
        {
          "indexed": false,
          "internalType": "uint256",
          "name": "value",
          "type": "uint256"
        },
        {
          "indexed": true,
          "internalType": "address",
          "name": "sender",
          "type": "address"
        },
        {
          "indexed": true,
          "internalType": "uint16",
          "name": "srcChainId",
          "type": "uint16"
        },
        {
          "indexed": false,
          "internalType": "enum MessageType",
          "name": "mType",
          "type": "uint8"
        },
        {
          "indexed": false,
          "internalType": "address",
          "name": "postman",
          "type": "address"
        }
      ],
      "name": "MessageReceived",
      "type": "event"
    },
    {
      "anonymous": false,
      "inputs": [
        {
          "indexed": false,
          "internalType": "uint256",
          "name": "value",
          "type": "uint256"
        },
        {
          "indexed": true,
          "internalType": "address",
          "name": "receiver",
          "type": "address"
        },
        {
          "indexed": true,
          "internalType": "uint16",
          "name": "dstChainId",
          "type": "uint16"
        },
        {
          "indexed": false,
          "internalType": "enum MessageType",
          "name": "mtype",
          "type": "uint8"
        },
        {
          "indexed": false,
          "internalType": "address",
          "name": "postman",
          "type": "address"
        }
      ],
      "name": "MessageSent",
      "type": "event"
    },
    {
      "anonymous": false,
      "inputs": [
        {
          "indexed": false,
          "internalType": "address",
          "name": "owner",
          "type": "address"
        },
        {
          "indexed": false,
          "internalType": "address",
          "name": "pendingOwner",
          "type": "address"
        }
      ],
      "name": "OwnershipTransferInitiated",
      "type": "event"
    },
    {
      "anonymous": false,
      "inputs": [
        {
          "indexed": false,
          "internalType": "address",
          "name": "oldOwner",
          "type": "address"
        },
        {
          "indexed": false,
          "internalType": "address",
          "name": "newOwner",
          "type": "address"
        }
      ],
      "name": "OwnershipTransferred",
      "type": "event"
    },
    {
      "anonymous": false,
      "inputs": [
        {
          "indexed": true,
          "internalType": "uint16",
          "name": "postmanId",
          "type": "uint16"
        },
        {
          "indexed": false,
          "internalType": "uint16",
          "name": "chanId",
          "type": "uint16"
        },
        {
          "indexed": false,
          "internalType": "address",
          "name": "postman",
          "type": "address"
        }
      ],
      "name": "PostmanUpdated",
      "type": "event"
    },
    {
      "anonymous": false,
      "inputs": [
        {
          "indexed": false,
          "internalType": "uint256",
          "name": "total",
          "type": "uint256"
        }
      ],
      "name": "RegisterDeposit",
      "type": "event"
    },
    {
      "anonymous": false,
      "inputs": [
        {
          "indexed": false,
          "internalType": "uint256",
          "name": "total",
          "type": "uint256"
        }
      ],
      "name": "RegisterIncomingFunds",
      "type": "event"
    },
    {
      "anonymous": false,
      "inputs": [
        {
          "indexed": true,
          "internalType": "address",
          "name": "caller",
          "type": "address"
        },
        {
          "indexed": true,
          "internalType": "address",
          "name": "owner",
          "type": "address"
        },
        {
          "indexed": false,
          "internalType": "uint256",
          "name": "shares",
          "type": "uint256"
        }
      ],
      "name": "RequestWithdraw",
      "type": "event"
    },
    {
      "anonymous": false,
      "inputs": [
        {
          "indexed": true,
          "internalType": "bytes32",
          "name": "role",
          "type": "bytes32"
        },
        {
          "indexed": true,
          "internalType": "bytes32",
          "name": "previousAdminRole",
          "type": "bytes32"
        },
        {
          "indexed": true,
          "internalType": "bytes32",
          "name": "newAdminRole",
          "type": "bytes32"
        }
      ],
      "name": "RoleAdminChanged",
      "type": "event"
    },
    {
      "anonymous": false,
      "inputs": [
        {
          "indexed": true,
          "internalType": "bytes32",
          "name": "role",
          "type": "bytes32"
        },
        {
          "indexed": true,
          "internalType": "address",
          "name": "account",
          "type": "address"
        },
        {
          "indexed": true,
          "internalType": "address",
          "name": "sender",
          "type": "address"
        }
      ],
      "name": "RoleGranted",
      "type": "event"
    },
    {
      "anonymous": false,
      "inputs": [
        {
          "indexed": true,
          "internalType": "bytes32",
          "name": "role",
          "type": "bytes32"
        },
        {
          "indexed": true,
          "internalType": "address",
          "name": "account",
          "type": "address"
        },
        {
          "indexed": true,
          "internalType": "address",
          "name": "sender",
          "type": "address"
        }
      ],
      "name": "RoleRevoked",
      "type": "event"
    },
    {
      "anonymous": false,
      "inputs": [
        {
          "indexed": false,
          "internalType": "uint256",
          "name": "managementFee",
          "type": "uint256"
        }
      ],
      "name": "SetManagementFee",
      "type": "event"
    },
    {
      "anonymous": false,
      "inputs": [
        {
          "indexed": false,
          "internalType": "uint256",
          "name": "performanceFee",
          "type": "uint256"
        }
      ],
      "name": "SetPerformanceFee",
      "type": "event"
    },
    {
      "anonymous": false,
      "inputs": [
        {
          "indexed": true,
          "internalType": "address",
          "name": "treasury",
          "type": "address"
        }
      ],
      "name": "SetTreasury",
      "type": "event"
    },
    {
      "anonymous": false,
      "inputs": [
        {
          "indexed": true,
          "internalType": "address",
          "name": "from",
          "type": "address"
        },
        {
          "indexed": true,
          "internalType": "address",
          "name": "to",
          "type": "address"
        },
        {
          "indexed": false,
          "internalType": "uint256",
          "name": "value",
          "type": "uint256"
        }
      ],
      "name": "Transfer",
      "type": "event"
    },
    {
      "anonymous": false,
      "inputs": [
        {
          "indexed": true,
          "internalType": "address",
          "name": "vault",
          "type": "address"
        },
        {
          "indexed": false,
          "internalType": "uint16",
          "name": "postmanId",
          "type": "uint16"
        }
      ],
      "name": "UpdatedVaultPostman",
      "type": "event"
    },
    {
      "anonymous": false,
      "inputs": [
        {
          "indexed": true,
          "internalType": "address",
          "name": "sender",
          "type": "address"
        },
        {
          "indexed": true,
          "internalType": "address",
          "name": "receiver",
          "type": "address"
        },
        {
          "indexed": true,
          "internalType": "address",
          "name": "owner",
          "type": "address"
        },
        {
          "indexed": false,
          "internalType": "uint256",
          "name": "assets",
          "type": "uint256"
        },
        {
          "indexed": false,
          "internalType": "uint256",
          "name": "shares",
          "type": "uint256"
        }
      ],
      "name": "Withdraw",
      "type": "event"
    },
    {
      "inputs": [],
      "name": "DEFAULT_ADMIN_ROLE",
      "outputs": [
        {
          "internalType": "bytes32",
          "name": "",
          "type": "bytes32"
        }
      ],
      "stateMutability": "view",
      "type": "function"
    },
    {
      "inputs": [],
      "name": "GUARDIAN",
      "outputs": [
        {
          "internalType": "bytes32",
          "name": "",
          "type": "bytes32"
        }
      ],
      "stateMutability": "view",
      "type": "function"
    },
    {
      "inputs": [],
      "name": "MANAGER",
      "outputs": [
        {
          "internalType": "bytes32",
          "name": "",
          "type": "bytes32"
        }
      ],
      "stateMutability": "view",
      "type": "function"
    },
    {
      "inputs": [],
      "name": "MAX_MANAGEMENT_FEE",
      "outputs": [
        {
          "internalType": "uint256",
          "name": "",
          "type": "uint256"
        }
      ],
      "stateMutability": "view",
      "type": "function"
    },
    {
      "inputs": [],
      "name": "MAX_PERFORMANCE_FEE",
      "outputs": [
        {
          "internalType": "uint256",
          "name": "",
          "type": "uint256"
        }
      ],
      "stateMutability": "view",
      "type": "function"
    },
    {
      "inputs": [],
      "name": "MIN_LIQUIDITY",
      "outputs": [
        {
          "internalType": "uint256",
          "name": "",
          "type": "uint256"
        }
      ],
      "stateMutability": "view",
      "type": "function"
    },
    {
      "inputs": [],
      "name": "acceptOwnership",
      "outputs": [],
      "stateMutability": "nonpayable",
      "type": "function"
    },
    {
      "inputs": [
        {
          "internalType": "address",
          "name": "_vault",
          "type": "address"
        },
        {
          "internalType": "uint16",
          "name": "_chainId",
          "type": "uint16"
        },
        {
          "internalType": "uint16",
          "name": "_postmanId",
          "type": "uint16"
        },
        {
          "internalType": "bool",
          "name": "_allowed",
          "type": "bool"
        }
      ],
      "name": "addVault",
      "outputs": [],
      "stateMutability": "nonpayable",
      "type": "function"
    },
    {
      "inputs": [
        {
          "internalType": "address",
          "name": "",
          "type": "address"
        }
      ],
      "name": "addrBook",
      "outputs": [
        {
          "internalType": "uint16",
          "name": "chainId",
          "type": "uint16"
        },
        {
          "internalType": "uint16",
          "name": "postmanId",
          "type": "uint16"
        },
        {
          "internalType": "bool",
          "name": "allowed",
          "type": "bool"
        }
      ],
      "stateMutability": "view",
      "type": "function"
    },
    {
      "inputs": [
        {
          "internalType": "address",
          "name": "owner",
          "type": "address"
        },
        {
          "internalType": "address",
          "name": "spender",
          "type": "address"
        }
      ],
      "name": "allowance",
      "outputs": [
        {
          "internalType": "uint256",
          "name": "",
          "type": "uint256"
        }
      ],
      "stateMutability": "view",
      "type": "function"
    },
    {
      "inputs": [
        {
          "internalType": "address",
          "name": "spender",
          "type": "address"
        },
        {
          "internalType": "uint256",
          "name": "amount",
          "type": "uint256"
        }
      ],
      "name": "approve",
      "outputs": [
        {
          "internalType": "bool",
          "name": "",
          "type": "bool"
        }
      ],
      "stateMutability": "nonpayable",
      "type": "function"
    },
    {
      "inputs": [
        {
          "internalType": "address",
          "name": "account",
          "type": "address"
        }
      ],
      "name": "balanceOf",
      "outputs": [
        {
          "internalType": "uint256",
          "name": "",
          "type": "uint256"
        }
      ],
      "stateMutability": "view",
      "type": "function"
    },
    {
      "inputs": [],
      "name": "cancelRedeem",
      "outputs": [],
      "stateMutability": "nonpayable",
      "type": "function"
    },
    {
      "inputs": [
        {
          "internalType": "address",
          "name": "_vault",
          "type": "address"
        },
        {
          "internalType": "bool",
          "name": "_allowed",
          "type": "bool"
        }
      ],
      "name": "changeVaultStatus",
      "outputs": [],
      "stateMutability": "nonpayable",
      "type": "function"
    },
    {
      "inputs": [
        {
          "internalType": "uint256",
          "name": "shares",
          "type": "uint256"
        }
      ],
      "name": "convertToAssets",
      "outputs": [
        {
          "internalType": "uint256",
          "name": "",
          "type": "uint256"
        }
      ],
      "stateMutability": "view",
      "type": "function"
    },
    {
      "inputs": [
        {
          "internalType": "uint256",
          "name": "assets",
          "type": "uint256"
        }
      ],
      "name": "convertToShares",
      "outputs": [
        {
          "internalType": "uint256",
          "name": "",
          "type": "uint256"
        }
      ],
      "stateMutability": "view",
      "type": "function"
    },
    {
      "inputs": [],
      "name": "decimals",
      "outputs": [
        {
          "internalType": "uint8",
          "name": "",
          "type": "uint8"
        }
      ],
      "stateMutability": "view",
      "type": "function"
    },
    {
      "inputs": [
        {
          "internalType": "address",
          "name": "spender",
          "type": "address"
        },
        {
          "internalType": "uint256",
          "name": "subtractedValue",
          "type": "uint256"
        }
      ],
      "name": "decreaseAllowance",
      "outputs": [
        {
          "internalType": "bool",
          "name": "",
          "type": "bool"
        }
      ],
      "stateMutability": "nonpayable",
      "type": "function"
    },
    {
      "inputs": [
        {
          "internalType": "uint256",
          "name": "assets",
          "type": "uint256"
        },
        {
          "internalType": "address",
          "name": "receiver",
          "type": "address"
        }
      ],
      "name": "deposit",
      "outputs": [
        {
          "internalType": "uint256",
          "name": "shares",
          "type": "uint256"
        }
      ],
      "stateMutability": "nonpayable",
      "type": "function"
    },
    {
      "inputs": [
        {
          "components": [
            {
              "internalType": "address",
              "name": "vaultAddr",
              "type": "address"
            },
            {
              "internalType": "uint256",
              "name": "amount",
              "type": "uint256"
            },
            {
              "internalType": "uint256",
              "name": "fee",
              "type": "uint256"
            },
            {
              "internalType": "address",
              "name": "allowanceTarget",
              "type": "address"
            },
            {
              "internalType": "address",
              "name": "registry",
              "type": "address"
            },
            {
              "internalType": "bytes",
              "name": "txData",
              "type": "bytes"
            }
          ],
          "internalType": "struct Request[]",
          "name": "vaults",
          "type": "tuple[]"
        }
      ],
      "name": "depositIntoXVaults",
      "outputs": [],
      "stateMutability": "nonpayable",
      "type": "function"
    },
    {
      "inputs": [
        {
          "internalType": "address",
          "name": "target",
          "type": "address"
        },
        {
          "internalType": "bytes",
          "name": "callData",
          "type": "bytes"
        }
      ],
      "name": "emergencyAction",
      "outputs": [],
      "stateMutability": "nonpayable",
      "type": "function"
    },
    {
      "inputs": [],
      "name": "emergencyWithdraw",
      "outputs": [],
      "stateMutability": "nonpayable",
      "type": "function"
    },
    {
      "inputs": [
        {
          "internalType": "uint256",
          "name": "expectedValue",
          "type": "uint256"
        },
        {
          "internalType": "uint256",
          "name": "maxDelta",
          "type": "uint256"
        }
      ],
      "name": "finalizeHarvest",
      "outputs": [],
      "stateMutability": "nonpayable",
      "type": "function"
    },
    {
      "inputs": [],
      "name": "floatAmnt",
      "outputs": [
        {
          "internalType": "uint256",
          "name": "",
          "type": "uint256"
        }
      ],
      "stateMutability": "view",
      "type": "function"
    },
    {
      "inputs": [],
      "name": "getPenalty",
      "outputs": [
        {
          "internalType": "uint256",
          "name": "",
          "type": "uint256"
        }
      ],
      "stateMutability": "view",
      "type": "function"
    },
    {
      "inputs": [
        {
          "internalType": "bytes32",
          "name": "role",
          "type": "bytes32"
        }
      ],
      "name": "getRoleAdmin",
      "outputs": [
        {
          "internalType": "bytes32",
          "name": "",
          "type": "bytes32"
        }
      ],
      "stateMutability": "view",
      "type": "function"
    },
    {
      "inputs": [
        {
          "internalType": "address",
          "name": "user",
          "type": "address"
        }
      ],
      "name": "getWithdrawStatus",
      "outputs": [
        {
          "components": [
            {
              "internalType": "uint256",
              "name": "timestamp",
              "type": "uint256"
            },
            {
              "internalType": "uint256",
              "name": "shares",
              "type": "uint256"
            },
            {
              "internalType": "uint256",
              "name": "value",
              "type": "uint256"
            }
          ],
          "internalType": "struct WithdrawRecord",
          "name": "",
          "type": "tuple"
        }
      ],
      "stateMutability": "view",
      "type": "function"
    },
    {
      "inputs": [
        {
          "internalType": "bytes32",
          "name": "role",
          "type": "bytes32"
        },
        {
          "internalType": "address",
          "name": "account",
          "type": "address"
        }
      ],
      "name": "grantRole",
      "outputs": [],
      "stateMutability": "nonpayable",
      "type": "function"
    },
    {
      "inputs": [],
      "name": "harvestLedger",
      "outputs": [
        {
          "internalType": "uint256",
          "name": "localDepositValue",
          "type": "uint256"
        },
        {
          "internalType": "uint256",
          "name": "crossDepositValue",
          "type": "uint256"
        },
        {
          "internalType": "uint256",
          "name": "pendingAnswers",
          "type": "uint256"
        },
        {
          "internalType": "uint256",
          "name": "receivedAnswers",
          "type": "uint256"
        }
      ],
      "stateMutability": "view",
      "type": "function"
    },
    {
      "inputs": [],
      "name": "harvestVaults",
      "outputs": [],
      "stateMutability": "nonpayable",
      "type": "function"
    },
    {
      "inputs": [
        {
          "internalType": "bytes32",
          "name": "role",
          "type": "bytes32"
        },
        {
          "internalType": "address",
          "name": "account",
          "type": "address"
        }
      ],
      "name": "hasRole",
      "outputs": [
        {
          "internalType": "bool",
          "name": "",
          "type": "bool"
        }
      ],
      "stateMutability": "view",
      "type": "function"
    },
    {
      "inputs": [
        {
          "internalType": "address",
          "name": "spender",
          "type": "address"
        },
        {
          "internalType": "uint256",
          "name": "addedValue",
          "type": "uint256"
        }
      ],
      "name": "increaseAllowance",
      "outputs": [
        {
          "internalType": "bool",
          "name": "",
          "type": "bool"
        }
      ],
      "stateMutability": "nonpayable",
      "type": "function"
    },
    {
      "inputs": [],
      "name": "lastHarvestTimestamp",
      "outputs": [
        {
          "internalType": "uint256",
          "name": "",
          "type": "uint256"
        }
      ],
      "stateMutability": "view",
      "type": "function"
    },
    {
      "inputs": [
        {
          "internalType": "uint16",
          "name": "_postmanId",
          "type": "uint16"
        },
        {
          "internalType": "uint16",
          "name": "_chainId",
          "type": "uint16"
        },
        {
          "internalType": "address",
          "name": "_postman",
          "type": "address"
        }
      ],
      "name": "managePostman",
      "outputs": [],
      "stateMutability": "nonpayable",
      "type": "function"
    },
    {
      "inputs": [],
      "name": "managementFee",
      "outputs": [
        {
          "internalType": "uint256",
          "name": "",
          "type": "uint256"
        }
      ],
      "stateMutability": "view",
      "type": "function"
    },
    {
      "inputs": [
        {
          "internalType": "address",
          "name": "",
          "type": "address"
        }
      ],
      "name": "maxDeposit",
      "outputs": [
        {
          "internalType": "uint256",
          "name": "",
          "type": "uint256"
        }
      ],
      "stateMutability": "view",
      "type": "function"
    },
    {
      "inputs": [
        {
          "internalType": "address",
          "name": "",
          "type": "address"
        }
      ],
      "name": "maxMint",
      "outputs": [
        {
          "internalType": "uint256",
          "name": "",
          "type": "uint256"
        }
      ],
      "stateMutability": "view",
      "type": "function"
    },
    {
      "inputs": [
        {
          "internalType": "address",
          "name": "owner",
          "type": "address"
        }
      ],
      "name": "maxRedeem",
      "outputs": [
        {
          "internalType": "uint256",
          "name": "",
          "type": "uint256"
        }
      ],
      "stateMutability": "view",
      "type": "function"
    },
    {
      "inputs": [
        {
          "internalType": "address",
          "name": "owner",
          "type": "address"
        }
      ],
      "name": "maxWithdraw",
      "outputs": [
        {
          "internalType": "uint256",
          "name": "",
          "type": "uint256"
        }
      ],
      "stateMutability": "view",
      "type": "function"
    },
    {
      "inputs": [
        {
          "internalType": "uint256",
          "name": "shares",
          "type": "uint256"
        },
        {
          "internalType": "address",
          "name": "receiver",
          "type": "address"
        }
      ],
      "name": "mint",
      "outputs": [
        {
          "internalType": "uint256",
          "name": "assets",
          "type": "uint256"
        }
      ],
      "stateMutability": "nonpayable",
      "type": "function"
    },
    {
      "inputs": [],
      "name": "name",
      "outputs": [
        {
          "internalType": "string",
          "name": "",
          "type": "string"
        }
      ],
      "stateMutability": "view",
      "type": "function"
    },
    {
      "inputs": [],
      "name": "owner",
      "outputs": [
        {
          "internalType": "address",
          "name": "",
          "type": "address"
        }
      ],
      "stateMutability": "view",
      "type": "function"
    },
    {
      "inputs": [],
      "name": "pendingOwner",
      "outputs": [
        {
          "internalType": "address",
          "name": "",
          "type": "address"
        }
      ],
      "stateMutability": "view",
      "type": "function"
    },
    {
      "inputs": [],
      "name": "pendingWithdraw",
      "outputs": [
        {
          "internalType": "uint256",
          "name": "",
          "type": "uint256"
        }
      ],
      "stateMutability": "view",
      "type": "function"
    },
    {
      "inputs": [],
      "name": "performanceFee",
      "outputs": [
        {
          "internalType": "uint256",
          "name": "",
          "type": "uint256"
        }
      ],
      "stateMutability": "view",
      "type": "function"
    },
    {
      "inputs": [
        {
          "internalType": "uint16",
          "name": "",
          "type": "uint16"
        },
        {
          "internalType": "uint16",
          "name": "",
          "type": "uint16"
        }
      ],
      "name": "postmanAddr",
      "outputs": [
        {
          "internalType": "address",
          "name": "",
          "type": "address"
        }
      ],
      "stateMutability": "view",
      "type": "function"
    },
    {
      "inputs": [
        {
          "internalType": "uint256",
          "name": "assets",
          "type": "uint256"
        }
      ],
      "name": "previewDeposit",
      "outputs": [
        {
          "internalType": "uint256",
          "name": "",
          "type": "uint256"
        }
      ],
      "stateMutability": "view",
      "type": "function"
    },
    {
      "inputs": [
        {
          "internalType": "uint256",
          "name": "shares",
          "type": "uint256"
        }
      ],
      "name": "previewMint",
      "outputs": [
        {
          "internalType": "uint256",
          "name": "",
          "type": "uint256"
        }
      ],
      "stateMutability": "view",
      "type": "function"
    },
    {
      "inputs": [
        {
          "internalType": "uint256",
          "name": "shares",
          "type": "uint256"
        }
      ],
      "name": "previewRedeem",
      "outputs": [
        {
          "internalType": "uint256",
          "name": "",
          "type": "uint256"
        }
      ],
      "stateMutability": "view",
      "type": "function"
    },
    {
      "inputs": [
        {
          "internalType": "uint256",
          "name": "assets",
          "type": "uint256"
        }
      ],
      "name": "previewWithdraw",
      "outputs": [
        {
          "internalType": "uint256",
          "name": "",
          "type": "uint256"
        }
      ],
      "stateMutability": "view",
      "type": "function"
    },
    {
      "inputs": [],
      "name": "processIncomingXFunds",
      "outputs": [],
      "stateMutability": "nonpayable",
      "type": "function"
    },
    {
      "inputs": [
        {
          "components": [
            {
              "internalType": "uint256",
              "name": "value",
              "type": "uint256"
            },
            {
              "internalType": "address",
              "name": "sender",
              "type": "address"
            },
            {
              "internalType": "address",
              "name": "client",
              "type": "address"
            },
            {
              "internalType": "uint16",
              "name": "chainId",
              "type": "uint16"
            }
          ],
          "internalType": "struct Message",
          "name": "_msg",
          "type": "tuple"
        },
        {
          "internalType": "enum MessageType",
          "name": "_type",
          "type": "uint8"
        }
      ],
      "name": "receiveMessage",
      "outputs": [],
      "stateMutability": "nonpayable",
      "type": "function"
    },
    {
      "inputs": [
        {
          "internalType": "address",
          "name": "receiver",
          "type": "address"
        }
      ],
      "name": "redeem",
      "outputs": [
        {
          "internalType": "uint256",
          "name": "amountOut",
          "type": "uint256"
        }
      ],
      "stateMutability": "nonpayable",
      "type": "function"
    },
    {
      "inputs": [
        {
          "internalType": "uint256",
          "name": "",
          "type": "uint256"
        },
        {
          "internalType": "address",
          "name": "receiver",
          "type": "address"
        },
        {
          "internalType": "address",
          "name": "",
          "type": "address"
        }
      ],
      "name": "redeem",
      "outputs": [
        {
          "internalType": "uint256",
          "name": "amountOut",
          "type": "uint256"
        }
      ],
      "stateMutability": "nonpayable",
      "type": "function"
    },
    {
      "inputs": [],
      "name": "redeem",
      "outputs": [
        {
          "internalType": "uint256",
          "name": "amountOut",
          "type": "uint256"
        }
      ],
      "stateMutability": "nonpayable",
      "type": "function"
    },
    {
      "inputs": [
        {
          "internalType": "address",
          "name": "user",
          "type": "address"
        }
      ],
      "name": "redeemIsReady",
      "outputs": [
        {
          "internalType": "bool",
          "name": "",
          "type": "bool"
        }
      ],
      "stateMutability": "view",
      "type": "function"
    },
    {
      "inputs": [
        {
          "internalType": "address",
          "name": "_vault",
          "type": "address"
        }
      ],
      "name": "removeVault",
      "outputs": [],
      "stateMutability": "nonpayable",
      "type": "function"
    },
    {
      "inputs": [
        {
          "internalType": "bytes32",
          "name": "role",
          "type": "bytes32"
        },
        {
          "internalType": "address",
          "name": "account",
          "type": "address"
        }
      ],
      "name": "renounceRole",
      "outputs": [],
      "stateMutability": "nonpayable",
      "type": "function"
    },
    {
      "inputs": [
        {
          "internalType": "uint256",
          "name": "shares",
          "type": "uint256"
        },
        {
          "internalType": "address",
          "name": "owner",
          "type": "address"
        }
      ],
      "name": "requestRedeem",
      "outputs": [],
      "stateMutability": "nonpayable",
      "type": "function"
    },
    {
      "inputs": [
        {
          "internalType": "uint256",
          "name": "shares",
          "type": "uint256"
        }
      ],
      "name": "requestRedeem",
      "outputs": [],
      "stateMutability": "nonpayable",
      "type": "function"
    },
    {
      "inputs": [
        {
          "internalType": "bytes32",
          "name": "role",
          "type": "bytes32"
        },
        {
          "internalType": "address",
          "name": "account",
          "type": "address"
        }
      ],
      "name": "revokeRole",
      "outputs": [],
      "stateMutability": "nonpayable",
      "type": "function"
    },
    {
      "inputs": [
        {
          "internalType": "uint256",
          "name": "_managementFee",
          "type": "uint256"
        }
      ],
      "name": "setManagementFee",
      "outputs": [],
      "stateMutability": "nonpayable",
      "type": "function"
    },
    {
      "inputs": [
        {
          "internalType": "uint256",
          "name": "_performanceFee",
          "type": "uint256"
        }
      ],
      "name": "setPerformanceFee",
      "outputs": [],
      "stateMutability": "nonpayable",
      "type": "function"
    },
    {
      "inputs": [
        {
          "internalType": "address",
          "name": "_treasury",
          "type": "address"
        }
      ],
      "name": "setTreasury",
      "outputs": [],
      "stateMutability": "nonpayable",
      "type": "function"
    },
    {
      "inputs": [
        {
          "internalType": "bytes4",
          "name": "interfaceId",
          "type": "bytes4"
        }
      ],
      "name": "supportsInterface",
      "outputs": [
        {
          "internalType": "bool",
          "name": "",
          "type": "bool"
        }
      ],
      "stateMutability": "view",
      "type": "function"
    },
    {
      "inputs": [],
      "name": "symbol",
      "outputs": [
        {
          "internalType": "string",
          "name": "",
          "type": "string"
        }
      ],
      "stateMutability": "view",
      "type": "function"
    },
    {
      "inputs": [
        {
          "internalType": "uint256",
          "name": "assets",
          "type": "uint256"
        }
      ],
      "name": "toSharesAfterDeposit",
      "outputs": [
        {
          "internalType": "uint256",
          "name": "",
          "type": "uint256"
        }
      ],
      "stateMutability": "view",
      "type": "function"
    },
    {
      "inputs": [],
      "name": "totalAssets",
      "outputs": [
        {
          "internalType": "uint256",
          "name": "",
          "type": "uint256"
        }
      ],
      "stateMutability": "view",
      "type": "function"
    },
    {
      "inputs": [],
      "name": "totalChildHoldings",
      "outputs": [
        {
          "internalType": "uint256",
          "name": "",
          "type": "uint256"
        }
      ],
      "stateMutability": "view",
      "type": "function"
    },
    {
      "inputs": [],
      "name": "totalSupply",
      "outputs": [
        {
          "internalType": "uint256",
          "name": "",
          "type": "uint256"
        }
      ],
      "stateMutability": "view",
      "type": "function"
    },
    {
      "inputs": [
        {
          "internalType": "address",
          "name": "to",
          "type": "address"
        },
        {
          "internalType": "uint256",
          "name": "amount",
          "type": "uint256"
        }
      ],
      "name": "transfer",
      "outputs": [
        {
          "internalType": "bool",
          "name": "",
          "type": "bool"
        }
      ],
      "stateMutability": "nonpayable",
      "type": "function"
    },
    {
      "inputs": [
        {
          "internalType": "address",
          "name": "from",
          "type": "address"
        },
        {
          "internalType": "address",
          "name": "to",
          "type": "address"
        },
        {
          "internalType": "uint256",
          "name": "amount",
          "type": "uint256"
        }
      ],
      "name": "transferFrom",
      "outputs": [
        {
          "internalType": "bool",
          "name": "",
          "type": "bool"
        }
      ],
      "stateMutability": "nonpayable",
      "type": "function"
    },
    {
      "inputs": [
        {
          "internalType": "address",
          "name": "_pendingOwner",
          "type": "address"
        }
      ],
      "name": "transferOwnership",
      "outputs": [],
      "stateMutability": "nonpayable",
      "type": "function"
    },
    {
      "inputs": [],
      "name": "treasury",
      "outputs": [
        {
          "internalType": "address",
          "name": "",
          "type": "address"
        }
      ],
      "stateMutability": "view",
      "type": "function"
    },
    {
      "inputs": [],
      "name": "underlying",
      "outputs": [
        {
          "internalType": "address",
          "name": "",
          "type": "address"
        }
      ],
      "stateMutability": "view",
      "type": "function"
    },
    {
      "inputs": [
        {
          "internalType": "address",
          "name": "user",
          "type": "address"
        }
      ],
      "name": "underlyingBalance",
      "outputs": [
        {
          "internalType": "uint256",
          "name": "",
          "type": "uint256"
        }
      ],
      "stateMutability": "view",
      "type": "function"
    },
    {
      "inputs": [],
      "name": "underlyingDecimals",
      "outputs": [
        {
          "internalType": "uint8",
          "name": "",
          "type": "uint8"
        }
      ],
      "stateMutability": "view",
      "type": "function"
    },
    {
      "inputs": [
        {
          "internalType": "address",
          "name": "_vault",
          "type": "address"
        },
        {
          "internalType": "uint16",
          "name": "_postmanId",
          "type": "uint16"
        }
      ],
      "name": "updateVaultPostman",
      "outputs": [],
      "stateMutability": "nonpayable",
      "type": "function"
    },
    {
      "inputs": [
        {
          "internalType": "uint256",
          "name": "",
          "type": "uint256"
        },
        {
          "internalType": "address",
          "name": "",
          "type": "address"
        },
        {
          "internalType": "address",
          "name": "",
          "type": "address"
        }
      ],
      "name": "withdraw",
      "outputs": [
        {
          "internalType": "uint256",
          "name": "",
          "type": "uint256"
        }
      ],
      "stateMutability": "pure",
      "type": "function"
    },
    {
      "inputs": [
        {
          "components": [
            {
              "internalType": "address",
              "name": "vaultAddr",
              "type": "address"
            },
            {
              "internalType": "uint256",
              "name": "amount",
              "type": "uint256"
            },
            {
              "internalType": "uint256",
              "name": "fee",
              "type": "uint256"
            },
            {
              "internalType": "address",
              "name": "allowanceTarget",
              "type": "address"
            },
            {
              "internalType": "address",
              "name": "registry",
              "type": "address"
            },
            {
              "internalType": "bytes",
              "name": "txData",
              "type": "bytes"
            }
          ],
          "internalType": "struct Request[]",
          "name": "vaults",
          "type": "tuple[]"
        }
      ],
      "name": "withdrawFromXVaults",
      "outputs": [],
      "stateMutability": "nonpayable",
      "type": "function"
    },
    {
      "inputs": [
        {
          "internalType": "address",
          "name": "",
          "type": "address"
        }
      ],
      "name": "withdrawLedger",
      "outputs": [
        {
          "internalType": "uint256",
          "name": "timestamp",
          "type": "uint256"
        },
        {
          "internalType": "uint256",
          "name": "shares",
          "type": "uint256"
        },
        {
          "internalType": "uint256",
          "name": "value",
          "type": "uint256"
        }
      ],
      "stateMutability": "view",
      "type": "function"
    }
  ],
  "transactionHash": "0x574c960474ab5bb97ef09ad65a89d67d20030035914b6048310dbf7460a17d07",
  "args": [
    "0xFF970A61A04b1cA14834A43f5dE4533eBDDB5CC8",
    "XVault",
    "XVLT",
    [
      "0xf09c27934A92c56c7C0dD6cBAc858C35fBd5170f",
      "0x6DdF9DA4C37DF97CB2458F85050E09994Cbb9C2A",
      "0x6DdF9DA4C37DF97CB2458F85050E09994Cbb9C2A"
    ],
    [
      "0xf09c27934A92c56c7C0dD6cBAc858C35fBd5170f",
      0,
      0
    ]
  ],
  "numDeployments": 2,
  "solcInputHash": "a84ac658bf96a2081aa45f4ba4df3f0e",
  "bytecode": "0x60c060405261ffff461660a0523480156200001957600080fd5b5060405162005440380380620054408339810160408190526200003c916200051c565b8151600180546001600160a01b0319166001600160a01b0390921691821790556040805160008152602081019290925286918691869183918391879189917f8be0079c531659141344cd1fd0a4f28419497f9722a3daafe3b4186f6b6457e0910160405180910390a18051620000b590600090620002aa565b600154620000dd9060008051602062005420833981519152906001600160a01b0316620002aa565b62000102600080516020620054208339815191528260200151620002aa60201b60201c565b805162000120906000805160206200540083398151915290620002aa565b62000145600080516020620054008339815191528260200151620002aa60201b60201c565b6200016a600080516020620054008339815191528260400151620002aa60201b60201c565b6200019460008051602062005400833981519152600080516020620054208339815191526200034b565b508051600580546001600160a01b0319166001600160a01b0390921691821790556020820151600355604080830151600455517fcb7ef3e545f5cdb893f5c568ba710fe08f336375a2d9fd66e161033f8fc09ef390600090a27f8b940a95968ad5b511f89b01075446a4fe9f614f2dc5fbb9e9a6b227d6d4fd7081602001516040516200022391815260200190565b60405180910390a17fd87632b1c6ebfa21acbca0e3279b3cf6385a377cb8fda51e5b866baa6e6012ab81604001516040516200026191815260200190565b60405180910390a15060096200027883826200069f565b50600a6200028782826200069f565b5050506001600160a01b03909216608052505042600b55506200076b9350505050565b6000828152602081815260408083206001600160a01b038516845290915290205460ff1662000347576000828152602081815260408083206001600160a01b03851684529091529020805460ff19166001179055620003063390565b6001600160a01b0316816001600160a01b0316837f2f8788117e7eff1d82e926ec794901d17c78024a50270940304540a733656f0d60405160405180910390a45b5050565b600082815260208190526040808220600101805490849055905190918391839186917fbd79b86ffe0ab8e8776151514217cd7cacd52c909f66475c3af44e129f0b00ff9190a4505050565b6001600160a01b0381168114620003ac57600080fd5b50565b634e487b7160e01b600052604160045260246000fd5b604051606081016001600160401b0381118282101715620003ea57620003ea620003af565b60405290565b604051601f8201601f191681016001600160401b03811182821017156200041b576200041b620003af565b604052919050565b600082601f8301126200043557600080fd5b81516001600160401b03811115620004515762000451620003af565b602062000467601f8301601f19168201620003f0565b82815285828487010111156200047c57600080fd5b60005b838110156200049c5785810183015182820184015282016200047f565b506000928101909101919091529392505050565b600060608284031215620004c357600080fd5b604051606081016001600160401b0381118282101715620004e857620004e8620003af565b80604052508091508251620004fd8162000396565b8082525060208301516020820152604083015160408201525092915050565b60008060008060008587036101208112156200053757600080fd5b8651620005448162000396565b60208801519096506001600160401b03808211156200056257600080fd5b620005708a838b0162000423565b965060408901519150808211156200058757600080fd5b506200059689828a0162000423565b9450506060605f1982011215620005ac57600080fd5b50620005b7620003c5565b6060870151620005c78162000396565b81526080870151620005d98162000396565b602082015260a0870151620005ee8162000396565b60408201529150620006048760c08801620004b0565b90509295509295909350565b600181811c908216806200062557607f821691505b6020821081036200064657634e487b7160e01b600052602260045260246000fd5b50919050565b601f8211156200069a57600081815260208120601f850160051c81016020861015620006755750805b601f850160051c820191505b81811015620006965782815560010162000681565b5050505b505050565b81516001600160401b03811115620006bb57620006bb620003af565b620006d381620006cc845462000610565b846200064c565b602080601f8311600181146200070b5760008415620006f25750858301515b600019600386901b1c1916600185901b17855562000696565b600085815260208120601f198616915b828110156200073c578886015182559484019460019091019084016200071b565b50858210156200075b5787850151600019600388901b60f8161c191681555b5050505050600190811b01905550565b60805160a051614bff6200080160003960008181610d8301528181610e040152818161174c015281816117d2015281816118c101528181611be101528181612070015281816121d00152818161264c0152818161272801528181612d8b0152612de8015260008181610c4e015281816110ba01528181611179015281816113660152818161199a0152611a320152614bff6000f3fe608060405234801561001057600080fd5b506004361061039b5760003560e01c806301e1d114146103a057806301ffc9a7146103bb57806306fdde03146103de57806307a2d13a146103f3578063095ea7b3146104065780630a28a47714610419578063107703ab1461042c57806318160ddd146104415780631b2df8501461044957806321b77d631461045e5780632257a7381461046757806323b872dd14610470578063248a9ca31461048357806325a760c2146104965780632940ec00146104b05780632f2ff15d146104b9578063313ce567146104965780633230b79b146104cc57806332efa242146104f9578063341a7b421461050c57806336568abe1461051f57806339509351146105325780633e64257514610545578063402d267d14610558578063415c49e21461056d5780634cdad5061461058057806351a72964146105935780635b9d2658146105c857806361d027b3146106125780636e553f65146106325780636f307dc31461064557806370897b231461064d57806370a0823114610660578063724c184c1461067357806373b90eac1461068857806375dd7d381461069057806379ba5097146106a35780637f566d53146106ab5780638576829e146106be57806387788782146106c75780638da5cb5b146106d057806391d14854146106e357806394bf804d146106f657806395a2251f1461070957806395d89b411461071c57806396fbebcc146107245780639908840c146107375780639c508d4a14610745578063a217fddf14610779578063a457c2d714610781578063a6f7f5d614610794578063a879f9761461079d578063a9059cbb146107fb578063aa2f892d1461080e578063b3d7f6b914610821578063b460af9414610834578063ba08765214610847578063bdca91651461085a578063be040fb014610869578063c61b603f14610871578063c63d75b614610558578063c6e6f592146108a7578063ce96cb77146108ba578063ceb68c23146108cd578063cee027f2146108e0578063d547741f146108f3578063d905777e14610906578063db2e21bc14610919578063dd62ed3e14610921578063e30c397814610934578063e56e56db14610947578063e6a296661461094f578063eacff5ba14610957578063ef8b30f71461096a578063f0f442601461097d578063f2d6f5a814610990578063f2fde38b146109a3578063f6316e7e146109b6578063fc6b1ebe146109be578063fe56e232146109c7578063fef5745a146109da575b600080fd5b6103a86109ed565b6040519081526020015b60405180910390f35b6103ce6103c9366004614037565b610a04565b60405190151581526020016103b2565b6103e6610a3b565b6040516103b29190614085565b6103a86104013660046140b8565b610acd565b6103ce6104143660046140e6565b610b01565b6103a86104273660046140b8565b610b19565b61043f61043a366004614112565b610b40565b005b6103a8610c06565b6103a8600080516020614b2a83398151915281565b6103a86103e881565b6103a8600b5481565b6103ce61047e366004614142565b610c11565b6103a86104913660046140b8565b610c35565b61049e610c4a565b60405160ff90911681526020016103b2565b6103a8600c5481565b61043f6104c7366004614112565b610cce565b6103ce6104da366004614183565b6001600160a01b03166000908152600d6020526040902054600b541190565b61043f6105073660046141a0565b610cef565b61043f61051a366004614222565b610e42565b61043f61052d366004614112565b610ed2565b6103ce6105403660046140e6565b610f50565b6103a8610553366004614183565b610f72565b6103a8610566366004614183565b5060001990565b61043f61057b366004614260565b610f89565b6103a861058e3660046140b8565b61102f565b6105a66105a1366004614183565b61103a565b60408051825181526020808401519082015291810151908201526060016103b2565b6105f76105d6366004614183565b600d6020526000908152604090208054600182015460029092015490919083565b604080519384526020840192909252908201526060016103b2565b600554610625906001600160a01b031681565b6040516103b291906142ab565b6103a8610640366004614112565b6110a0565b610625611177565b61043f61065b3660046140b8565b61119b565b6103a861066e366004614183565b61122a565b6103a8600080516020614b4a83398151915281565b61043f611245565b61043f61069e3660046142bf565b611452565b61043f611540565b61043f6106b93660046141a0565b61168b565b6103a860115481565b6103a860035481565b600154610625906001600160a01b031681565b6103ce6106f1366004614112565b611957565b6103a8610704366004614112565b611980565b6103a8610717366004614183565b611a0a565b6103e6611afb565b61043f6107323660046142e1565b611b0a565b6103a866b1a2bc2ec5000081565b610625610753366004614319565b600f6020908152600092835260408084209091529082529020546001600160a01b031681565b6103a8600081565b6103ce61078f3660046140e6565b611cb1565b6103a860045481565b6107d86107ab366004614183565b600e6020526000908152604090205461ffff8082169162010000810490911690600160201b900460ff1683565b6040805161ffff94851681529390921660208401521515908201526060016103b2565b6103ce6108093660046140e6565b611d2c565b61043f61081c3660046140b8565b611d3a565b6103a861082f3660046140b8565b611d47565b6103a8610842366004614347565b611d6d565b6103a8610855366004614347565b611d88565b6103a86703782dace9d9000081565b6103a8611d9b565b6013546014546015546016546108879392919084565b6040805194855260208501939093529183015260608201526080016103b2565b6103a86108b53660046140b8565b611da6565b6103a86108c8366004614183565b611dcd565b61043f6108db366004614183565b611ddb565b61043f6108ee36600461436e565b611f49565b61043f610901366004614112565b611fd5565b6103a8610914366004614183565b611ff1565b61043f611ffc565b6103a861092f3660046143ca565b612207565b600254610625906001600160a01b031681565b6103a8612232565b61043f61229a565b6103a86109653660046140b8565b61233b565b6103a86109783660046140b8565b61238d565b61043f61098b366004614183565b612398565b61043f61099e3660046143f8565b61240c565b61043f6109b1366004614183565b61250d565b61043f61258b565b6103a860105481565b61043f6109d53660046140b8565b61279e565b61043f6109e8366004614416565b612825565b60006010546011546109ff91906144b0565b905090565b60006001600160e01b03198216637965db0b60e01b1480610a3557506301ffc9a760e01b6001600160e01b03198316145b92915050565b606060098054610a4a906144c3565b80601f0160208091040260200160405190810160405280929190818152602001828054610a76906144c3565b8015610ac35780601f10610a9857610100808354040283529160200191610ac3565b820191906000526020600020905b815481529060010190602001808311610aa657829003601f168201915b5050505050905090565b600080610ad8610c06565b90508015610af857610af3610aeb6109ed565b8490836128c3565b610afa565b825b9392505050565b600033610b0f8185856128e2565b5060019392505050565b600080610b24610c06565b90508015610af857610af381610b386109ed565b8591906129fe565b336001600160a01b03821614610b5b57610b5b813384612a2c565b610b66813084612aa0565b336000908152600d6020526040812042815560018101805491928592610b8d9084906144b0565b9091555060009050610b9e84610acd565b905080826002018190555080600c6000828254610bbb91906144b0565b90915550506040518481526001600160a01b0384169033907ff601bbafcf0d793cce0a8802057c8783aa5946889f76bd9dd47492217f59af1e9060200160405180910390a350505050565b60006109ff60085490565b600033610c1f858285612a2c565b610c2a858585612aa0565b506001949350505050565b60009081526020819052604090206001015490565b60007f00000000000000000000000000000000000000000000000000000000000000006001600160a01b031663313ce5676040518163ffffffff1660e01b8152600401602060405180830381865afa158015610caa573d6000803e3d6000fd5b505050506040513d601f19601f820116820180604052508101906109ff91906144fd565b610cd782610c35565b610ce081612c5c565b610cea8383612c66565b505050565b600080516020614b2a833981519152610d0781612c5c565b60005b82811015610e3c576000848483818110610d2657610d26614520565b9050602002810190610d389190614536565b610d46906020810190614183565b90506000858584818110610d5c57610d5c614520565b9050602002810190610d6e9190614536565b6020013590506000610d7f83612cea565b90507f000000000000000000000000000000000000000000000000000000000000000061ffff16816000015161ffff1603610dcd5760405163164e32df60e01b815260040160405180910390fd5b610e3183826040518060800160405280868152602001306001600160a01b0316815260200160006001600160a01b031681526020017f000000000000000000000000000000000000000000000000000000000000000061ffff168152506002612d6d565b505050600101610d0a565b50505050565b6001546001600160a01b03163314610e755760405162461bcd60e51b8152600401610e6c90614556565b60405180910390fd5b6001600160a01b0382166000818152600e6020526040908190208054841515600160201b0260ff60201b1990911617905551600080516020614b8a83398151915290610ec690841515815260200190565b60405180910390a25050565b6001600160a01b0381163314610f425760405162461bcd60e51b815260206004820152602f60248201527f416363657373436f6e74726f6c3a2063616e206f6e6c792072656e6f756e636560448201526e103937b632b9903337b91039b2b63360891b6064820152608401610e6c565b610f4c8282612f15565b5050565b600033610b0f818585610f638383612207565b610f6d91906144b0565b6128e2565b600080610f7e8361122a565b9050610afa81610acd565b6001546001600160a01b03163314610fb35760405162461bcd60e51b8152600401610e6c90614556565b61ffff8381166000818152600f602090815260408083209487168084529482529182902080546001600160a01b0319166001600160a01b03871690811790915582519485529084015290917f0a24add6dc7dd296687ea41961d576aa7afe43986fac38191ce40bb4e7f2bf5b91015b60405180910390a2505050565b6000610a3582610acd565b61105e60405180606001604052806000815260200160008152602001600081525090565b506001600160a01b03166000908152600d6020908152604091829020825160608101845281548152600182015492810192909252600201549181019190915290565b60006110ab8361238d565b90506110e26001600160a01b037f000000000000000000000000000000000000000000000000000000000000000016333086612f7a565b6110ea610c06565b60000361112f57806103e8111561111457604051630131cd7b60e51b815260040160405180910390fd5b6111206103e88261457a565b905061112f60016103e8612fd4565b6111398282612fd4565b60408051848152602081018390526001600160a01b038416913391600080516020614baa833981519152910160405180910390a3610a3583826130a1565b7f000000000000000000000000000000000000000000000000000000000000000090565b6001546001600160a01b031633146111c55760405162461bcd60e51b8152600401610e6c90614556565b6703782dace9d900008111156111ee57604051635b94d8b160e01b815260040160405180910390fd5b60038190556040518181527f8b940a95968ad5b511f89b01075446a4fe9f614f2dc5fbb9e9a6b227d6d4fd70906020015b60405180910390a150565b6001600160a01b031660009081526006602052604090205490565b600080516020614b2a83398151915261125d81612c5c565b6017546000815b8015611348576000601761127960018461457a565b8154811061128957611289614520565b6000918252602091829020604080516080810182526003939093029091018054835260018101546001600160a01b03908116948401949094526002015492831690820152600160a01b90910461ffff1660608201526017805491925090806112f3576112f361458d565b6000828152602081206003600019909301928302019081556001810180546001600160a01b031916905560020180546001600160b01b03191690559055805161133c90846144b0565b92505060001901611264565b50600c546011546040516370a0823160e01b81526001600160a01b037f000000000000000000000000000000000000000000000000000000000000000016906370a082319061139b9030906004016142ab565b602060405180830381865afa1580156113b8573d6000803e3d6000fd5b505050506040513d601f19601f820116820180604052508101906113dc91906145a3565b6113e6919061457a565b6113f0919061457a565b811015611410576040516337b481d960e01b815260040160405180910390fd5b611419816130bc565b6040518181527f4f5745f9a8198fa6e603922d263d7e2a62c3ac2ea9791f1f4679e40bdad52edd906020015b60405180910390a1505050565b600080516020614b2a83398151915261146a81612c5c565b60408051608081018252601354815260145460208201526015549181018290526016546060820152906000036114b357604051630951089360e21b815260040160405180910390fd5b8060400151816060015110156114dc576040516360a7f98960e01b815260040160405180910390fd5b602081015181516000916114ef916144b0565b90506114fc8582866130df565b61150581613124565b505060408051608081018252600080825260208201819052918101829052606001819052601381905560148190556015819055601655505050565b6002546001600160a01b0316331461158f5760405162461bcd60e51b815260206004820152601260248201527127a7262cafa822a72224a723afa7aba722a960711b6044820152606401610e6c565b600180546002546001600160a01b031982166001600160a01b0391821617909255166115bc600082612f15565b6115d4600080516020614b4a83398151915282612f15565b6115ec600080516020614b2a83398151915282612f15565b600154611604906000906001600160a01b0316612c66565b60015461162990600080516020614b4a833981519152906001600160a01b0316612c66565b60015461164e90600080516020614b2a833981519152906001600160a01b0316612c66565b6001546040517f8be0079c531659141344cd1fd0a4f28419497f9722a3daafe3b4186f6b6457e09161121f9184916001600160a01b0316906145bc565b600080516020614b2a8339815191526116a381612c5c565b6000805b8381101561192e5760008585838181106116c3576116c3614520565b90506020028101906116d59190614536565b6116e3906020810190614183565b905060008686848181106116f9576116f9614520565b905060200281019061170b9190614536565b602001359050600087878581811061172557611725614520565b90506020028101906117379190614536565b604001359050600061174884612cea565b90507f000000000000000000000000000000000000000000000000000000000000000061ffff16816000015161ffff16036117965760405163164e32df60e01b815260040160405180910390fd5b6117a083876144b0565b95506117ff8482604051806080016040528086886117be919061457a565b81523060208201526000604082015261ffff7f0000000000000000000000000000000000000000000000000000000000000000166060909101526001612d6d565b6118b661180a611177565b8a8a8881811061181c5761181c614520565b905060200281019061182e9190614536565b61183f906080810190606001614183565b8b8b8981811061185157611851614520565b90506020028101906118639190614536565b6118749060a0810190608001614183565b8787866000015161ffff168f8f8d81811061189157611891614520565b90506020028101906118a39190614536565b6118b19060a08101906145d6565b6132ce565b80516040805161ffff7f000000000000000000000000000000000000000000000000000000000000000081168252909216602083015281018490527f8bdaf3de28c95336795fcfb09634aa6ee90e0ba358711340d92566bc6e3786269060600160405180910390a15050600190920191506116a79050565b5061193a816000613428565b806010600082825461194c91906144b0565b909155505050505050565b6000918252602082815260408084206001600160a01b0393909316845291905290205460ff1690565b600061198b83611d47565b90506119c26001600160a01b037f000000000000000000000000000000000000000000000000000000000000000016333084612f7a565b6119cc8284612fd4565b60408051828152602081018590526001600160a01b038416913391600080516020614baa833981519152910160405180910390a3610a3581846130a1565b600080611a1633613476565b60405163a9059cbb60e01b815291935091506001600160a01b037f0000000000000000000000000000000000000000000000000000000000000000169063a9059cbb90611a699086908690600401614623565b6020604051808303816000875af1158015611a88573d6000803e3d6000fd5b505050506040513d601f19601f82011682018060405250810190611aac919061463c565b50604080518381526020810183905233916001600160a01b0386169183917ffbde797d201c681b91056529119e0b02407c7bb96a4a2c75c01fc9667232c8db910160405180910390a450919050565b6060600a8054610a4a906144c3565b6000600e81611b1f6040860160208701614183565b6001600160a01b0316815260208082019290925260409081016000208151606081018352905461ffff80821683526201000082041693820193909352600160201b90920460ff161580159183019190915290915080611b965750805161ffff16611b8f6080850160608601614659565b61ffff1614155b15611bc557611bab6040840160208501614183565b6040516368692cbb60e11b8152600401610e6c91906142ab565b60208181015161ffff9081166000908152600f835260408082207f00000000000000000000000000000000000000000000000000000000000000009093168252919092529020546001600160a01b03163314611c3657336040516306e02ebd60e11b8152600401610e6c91906142ab565b611c40828461353e565b611c506080840160608501614659565b61ffff16611c646040850160208601614183565b6001600160a01b03167f649c8deb433503a93e61cbf3bd7afd938e936ce85fcf81928ab240068c6643a585600001358533604051611ca4939291906146ae565b60405180910390a3505050565b60003381611cbf8286612207565b905083811015611d1f5760405162461bcd60e51b815260206004820152602560248201527f45524332303a2064656372656173656420616c6c6f77616e63652062656c6f77604482015264207a65726f60d81b6064820152608401610e6c565b610c2a82868684036128e2565b600033610b0f818585612aa0565b611d448133610b40565b50565b600080611d52610c06565b90508015610af857610af3611d656109ed565b8490836129fe565b600060405163d623472560e01b815260040160405180910390fd5b6000611d9383611a0a565b949350505050565b60006109ff33611a0a565b600080611db1610c06565b90508015610af857610af381611dc56109ed565b8591906128c3565b6000610a356104018361122a565b6001546001600160a01b03163314611e055760405162461bcd60e51b8152600401610e6c90614556565b6001600160a01b0381166000908152600e60205260408120805460ff60201b19169055601254905b81811015610cea57826001600160a01b031660128281548110611e5257611e52614520565b6000918252602090912001546001600160a01b031603611f41576012611e7960018461457a565b81548110611e8957611e89614520565b600091825260209091200154601280546001600160a01b039092169183908110611eb557611eb5614520565b9060005260206000200160006101000a8154816001600160a01b0302191690836001600160a01b031602179055506012805480611ef457611ef461458d565b60008281526020808220830160001990810180546001600160a01b03191690559092019092556040519182526001600160a01b03851691600080516020614b8a8339815191529101611022565b600101611e2d565b6001546001600160a01b03163314611f735760405162461bcd60e51b8152600401610e6c90614556565b611f7f8484848461359b565b5050601280546001810182556000919091527fbb8a6a4669ba250d26cd7a459eca9d215f8307e33aebe50379bc5a3617ec34440180546001600160a01b0319166001600160a01b03939093169290921790915550565b611fde82610c35565b611fe781612c5c565b610cea8383612f15565b6000610a358261122a565b60006120073361122a565b905061201333826136e2565b6000612027612020610c06565b839061381e565b60125490915060005b81811015610e3c5760006012828154811061204d5761204d614520565b60009182526020822001546001600160a01b0316915061206c82612cea565b90507f000000000000000000000000000000000000000000000000000000000000000061ffff16816000015161ffff160361219a576040516370a0823160e01b8152829060009061211e906001600160a01b038416906370a08231906120d69030906004016142ab565b602060405180830381865afa1580156120f3573d6000803e3d6000fd5b505050506040513d601f19601f8201168201806040525081019061211791906145a3565b8890613833565b60405163a9059cbb60e01b81529091506001600160a01b0383169063a9059cbb9061214f9033908590600401614623565b6020604051808303816000875af115801561216e573d6000803e3d6000fd5b505050506040513d601f19601f82011682018060405250810190612192919061463c565b5050506121fd565b6121fd82826040518060800160405280898152602001306001600160a01b03168152602001336001600160a01b031681526020017f000000000000000000000000000000000000000000000000000000000000000061ffff168152506003612d6d565b5050600101612030565b6001600160a01b03918216600090815260076020908152604080832093909416825291909152205490565b336000908152600d60205260408120600181015460028201548361225583610acd565b90508181101561226a57600094505050505090565b81612275818361457a565b61228790670de0b6b3a76400006146db565b61229191906146fa565b94505050505090565b336000908152600d602052604081206001810154600282015491929091906122c183610acd565b90506000846002018190555081600c60008282546122df919061457a565b9091555050818110156122f757610e3c303385612aa0565b60008161230484866146db565b61230e91906146fa565b9050600061231c828661457a565b9050612329303384612aa0565b61233330826136e2565b505050505050565b600080612346610c06565b90506000836123536109ed565b61235d919061457a565b90508060000361236f57509192915050565b8115612385576123808483836128c3565b611d93565b509192915050565b6000610a3582611da6565b6001546001600160a01b031633146123c25760405162461bcd60e51b8152600401610e6c90614556565b600580546001600160a01b0319166001600160a01b0383169081179091556040517fcb7ef3e545f5cdb893f5c568ba710fe08f336375a2d9fd66e161033f8fc09ef390600090a250565b6001546001600160a01b031633146124365760405162461bcd60e51b8152600401610e6c90614556565b6001600160a01b0382166000908152600e602090815260408083208151606081018352905461ffff80821680845262010000830490911694830194909452600160201b900460ff1615159181019190915291036124a85782604051634ae8435d60e01b8152600401610e6c91906142ab565b6001600160a01b0383166000818152600e6020908152604091829020805463ffff000019166201000061ffff88169081029190911790915591519182527f1f97e73f29802f056373306e9e3198b79119f446f1b9595d0752ebc2a9146f2e9101611022565b6001546001600160a01b031633146125375760405162461bcd60e51b8152600401610e6c90614556565b600280546001600160a01b0319166001600160a01b038381169182179092556001546040517fb150023a879fd806e3599b6ca8ee3b60f0e360ab3846d128d67ebce1a391639a9361121f93921691906145bc565b600080516020614b2a8339815191526125a381612c5c565b601554600090156125c75760405163835eaa8f60e01b815260040160405180910390fd5b6012546000805b82811015612766576000601282815481106125eb576125eb614520565b6000918252602080832091909101546001600160a01b0316808352600e82526040928390208351606081018552905461ffff808216808452620100008304821695840195909552600160201b90910460ff16151594820194909452909350917f00000000000000000000000000000000000000000000000000000000000000001690036126f057604051633e64257560e01b81526001600160a01b03831690633e6425759061269e9030906004016142ab565b602060405180830381865afa1580156126bb573d6000803e3d6000fd5b505050506040513d601f19601f820116820180604052508101906126df91906145a3565b6126e990876144b0565b955061275c565b6127558282604051806080016040528060008152602001306001600160a01b0316815260200160006001600160a01b031681526020017f000000000000000000000000000000000000000000000000000000000000000061ffff168152506004612d6d565b6001840193505b50506001016125ce565b506040805160808101825284815260006020820181905291810183905260600181905260139390935560148390556015555060165550565b6001546001600160a01b031633146127c85760405162461bcd60e51b8152600401610e6c90614556565b66b1a2bc2ec500008111156127f057604051635b94d8b160e01b815260040160405180910390fd5b60048190556040518181527fd87632b1c6ebfa21acbca0e3279b3cf6385a377cb8fda51e5b866baa6e6012ab9060200161121f565b6001546001600160a01b0316331461284f5760405162461bcd60e51b8152600401610e6c90614556565b61288f8383838080601f01602080910402602001604051908101604052809392919081815260200183838082843760009201919091525061384892505050565b507fa9f1cb7eee5fc621e043c1ef431febb0f901998a6c0cbdf70147b0fe4d9f5a6a8383836040516114459392919061471c565b8282028115158415858304851417166128db57600080fd5b0492915050565b6001600160a01b0383166129445760405162461bcd60e51b8152602060048201526024808201527f45524332303a20617070726f76652066726f6d20746865207a65726f206164646044820152637265737360e01b6064820152608401610e6c565b6001600160a01b0382166129a55760405162461bcd60e51b815260206004820152602260248201527f45524332303a20617070726f766520746f20746865207a65726f206164647265604482015261737360f01b6064820152608401610e6c565b6001600160a01b0383811660008181526007602090815260408083209487168084529482529182902085905590518481527f8c5be1e5ebec7d5bd14f71427d1e84f3dd0314c0f7b2291e5b200ac8c7c3b9259101611ca4565b828202811515841585830485141716612a1657600080fd5b6001826001830304018115150290509392505050565b6000612a388484612207565b90506000198114610e3c5781811015612a935760405162461bcd60e51b815260206004820152601d60248201527f45524332303a20696e73756666696369656e7420616c6c6f77616e63650000006044820152606401610e6c565b610e3c84848484036128e2565b6001600160a01b038316612b045760405162461bcd60e51b815260206004820152602560248201527f45524332303a207472616e736665722066726f6d20746865207a65726f206164604482015264647265737360d81b6064820152608401610e6c565b6001600160a01b038216612b665760405162461bcd60e51b815260206004820152602360248201527f45524332303a207472616e7366657220746f20746865207a65726f206164647260448201526265737360e81b6064820152608401610e6c565b6001600160a01b03831660009081526006602052604090205481811015612bde5760405162461bcd60e51b815260206004820152602660248201527f45524332303a207472616e7366657220616d6f756e7420657863656564732062604482015265616c616e636560d01b6064820152608401610e6c565b6001600160a01b03808516600090815260066020526040808220858503905591851681529081208054849290612c159084906144b0565b92505081905550826001600160a01b0316846001600160a01b0316600080516020614b6a83398151915284604051612c4f91815260200190565b60405180910390a3610e3c565b611d44813361388a565b612c708282611957565b610f4c576000828152602081815260408083206001600160a01b03851684529091529020805460ff19166001179055612ca63390565b6001600160a01b0316816001600160a01b0316837f2f8788117e7eff1d82e926ec794901d17c78024a50270940304540a733656f0d60405160405180910390a45050565b6040805160608082018352600080835260208084018290528385018290526001600160a01b0386168252600e815290849020845192830185525461ffff80821684526201000082041691830191909152600160201b900460ff1615159281018390529091610a3557826040516318ef3f8360e01b8152600401610e6c91906142ab565b6020808401805161ffff9081166000908152600f80855260408083207f0000000000000000000000000000000000000000000000000000000000000000851684528652808320549451841683529085528082208851909316825291909352909120546001600160a01b03918216911681612e225784602001517f00000000000000000000000000000000000000000000000000000000000000006040516328a4ac9160e11b8152600401610e6c92919061475c565b6001600160a01b038116612e5257602085015185516040516328a4ac9160e11b8152610e6c92919060040161475c565b8451604051630e510a7760e41b81526001600160a01b0384169163e510a77091612e899188918b9187918a91903390600401614771565b600060405180830381600087803b158015612ea357600080fd5b505af1158015612eb7573d6000803e3d6000fd5b50505050846000015161ffff16866001600160a01b03167ff3617f26552d0e4bd64927d1a7fe0d18f2278f99e2446ad6ac8f0a73c38840d886600001518686604051612f05939291906146ae565b60405180910390a3505050505050565b612f1f8282611957565b15610f4c576000828152602081815260408083206001600160a01b0385168085529252808320805460ff1916905551339285917ff6391f5c32d9c69d2a47ea670b442974b53935d1edc7fd64eb21e047a839171b9190a45050565b604080516001600160a01b0385811660248301528416604482015260648082018490528251808303909101815260849091019091526020810180516001600160e01b03166323b872dd60e01b179052610e3c9085906138ee565b6001600160a01b03821661302a5760405162461bcd60e51b815260206004820152601f60248201527f45524332303a206d696e7420746f20746865207a65726f2061646472657373006044820152606401610e6c565b806008600082825461303c91906144b0565b90915550506001600160a01b038216600090815260066020526040812080548392906130699084906144b0565b90915550506040518181526001600160a01b03831690600090600080516020614b6a8339815191529060200160405180910390a35050565b81601160008282546130b391906144b0565b90915550505050565b80601060008282546130ce919061457a565b90915550611d4490508160006130a1565b60008284116130f7576130f2848461457a565b613101565b613101838561457a565b905081811115610e3c57604051638199f5f360e01b815260040160405180910390fd5b600c5460115410156131495760405163078cc1fb60e01b815260040160405180910390fd5b6000601054821161315b576000613168565b601054613168908361457a565b601154909150429060009061317d90856144b0565b60108590559050600083156131b257670de0b6b3a7640000600354856131a391906146db565b6131ad91906146fa565b6131b5565b60005b90506000600454600014613210576301e13380670de0b6b3a7640000600b54866131df919061457a565b856004546131ed91906146db565b6131f791906146db565b61320191906146fa565b61320b91906146fa565b613213565b60005b9050600061322182846144b0565b90506000811561326157613248613236610c06565b613240848861457a565b8491906128c3565b600554909150613261906001600160a01b031682612fd4565b600554604080518981526020810187905290810185905260608101839052608081018790526001600160a01b03909116907feaedd1267621f4a8ee97011faf0e67800ad3063714bd179f078c980bb9a3fa3d9060a00160405180910390a2505050600b9290925550505050565b600080516020614b2a8339815191526132e681612c5c565b61332a83838080601f0160208091040260200160405190810160405280939291908181526020018383808284376000920191909152508892508d91508a90506139c0565b60405163095ea7b360e01b81526001600160a01b038a169063095ea7b390613358908b908990600401614623565b6020604051808303816000875af1158015613377573d6000803e3d6000fd5b505050506040513d601f19601f8201168201806040525081019061339b919061463c565b506000876001600160a01b031684846040516133b89291906147ec565b6000604051808303816000865af19150503d80600081146133f5576040519150601f19603f3d011682016040523d82523d6000602084013e6133fa565b606091505b505090508061341c5760405163e0fec00360e01b815260040160405180910390fd5b50505050505050505050565b8160115410806134465750600c5482601154613444919061457a565b105b156134645760405163078cc1fb60e01b815260040160405180910390fd5b81601160008282546130b3919061457a565b6001600160a01b0381166000908152600d60205260408120600281015482919082036134b557604051631f2a200560e01b815260040160405180910390fd5b600b548154106134d857604051634a44555360e11b815260040160405180910390fd5b6001810154600282015490925060006134f084610acd565b90508181106134ff5781613501565b805b945081600c6000828254613515919061457a565b9091555061352590508585613428565b6000600284015561353630856136e2565b505050915091565b600282600481111561355257613552614676565b0361356057610f4c81613ade565b600482600481111561357457613574614676565b0361358257610f4c81613b1f565b60405163d623472560e01b815260040160405180910390fd5b6001546001600160a01b031633146135c55760405162461bcd60e51b8152600401610e6c90614556565b6001600160a01b0384166000908152600e60209081526040918290208251606081018452905461ffff80821683526201000082041692820192909252600160201b90910460ff16158015928201929092529061363457604051630cb3e97f60e31b815260040160405180910390fd5b6040805160608101825261ffff86811680835286821660208085019182528715158587019081526001600160a01b038c166000818152600e845288902096518754945192511515600160201b0260ff60201b19938816620100000263ffffffff199096169190971617939093171693909317909355925192835290917fdfdecea9ea3fba2ae2104af96f9be11589a507814dfd462dadc83c581da372b0910160405180910390a25050505050565b6001600160a01b0382166137425760405162461bcd60e51b815260206004820152602160248201527f45524332303a206275726e2066726f6d20746865207a65726f206164647265736044820152607360f81b6064820152608401610e6c565b6001600160a01b038216600090815260066020526040902054818110156137b65760405162461bcd60e51b815260206004820152602260248201527f45524332303a206275726e20616d6f756e7420657863656564732062616c616e604482015261636560f01b6064820152608401610e6c565b6001600160a01b03831660009081526006602052604081208383039055600880548492906137e590849061457a565b90915550506040518281526000906001600160a01b03851690600080516020614b6a8339815191529060200160405180910390a3505050565b6000610afa83670de0b6b3a7640000846128c3565b6000610afa8383670de0b6b3a76400006128c3565b6060610afa83836040518060400160405280601e81526020017f416464726573733a206c6f772d6c6576656c2063616c6c206661696c65640000815250613b58565b6138948282611957565b610f4c576138ac816001600160a01b03166014613b67565b6138b7836020613b67565b6040516020016138c89291906147fc565b60408051601f198184030181529082905262461bcd60e51b8252610e6c91600401614085565b6000613943826040518060400160405280602081526020017f5361666545524332303a206c6f772d6c6576656c2063616c6c206661696c6564815250856001600160a01b0316613b589092919063ffffffff16565b805190915015610cea5780806020019051810190613961919061463c565b610cea5760405162461bcd60e51b815260206004820152602a60248201527f5361666545524332303a204552433230206f7065726174696f6e20646964206e6044820152691bdd081cdd58d8d9595960b21b6064820152608401610e6c565b6139c8613fb1565b6139d185613d02565b905083816020015114613a185760405162461bcd60e51b815260206004820152600f60248201526e125b9d985b1a590818da185a5b9259608a1b6044820152606401610e6c565b816001600160a01b031681600001516001600160a01b031614613a785760405162461bcd60e51b8152602060048201526018602482015277496e76616c6964207265636569766572206164647265737360401b6044820152606401610e6c565b826001600160a01b03168160800151604001516001600160a01b031614613ad75760405162461bcd60e51b815260206004820152601360248201527224b73b30b634b21034b7383aba103a37b5b2b760691b6044820152606401610e6c565b5050505050565b6017805460018101825560009190915281906003027fc624b66cc0138b8fabc209247f72d758e1cf3343756d543badbf24212bed8c1501610cea828261488b565b6014805482359190600090613b359084906144b0565b90915550506016805460019190600090613b509084906144b0565b909155505050565b6060611d938484600085613d3a565b60606000613b768360026146db565b613b819060026144b0565b6001600160401b03811115613b9857613b986148f4565b6040519080825280601f01601f191660200182016040528015613bc2576020820181803683370190505b509050600360fc1b81600081518110613bdd57613bdd614520565b60200101906001600160f81b031916908160001a905350600f60fb1b81600181518110613c0c57613c0c614520565b60200101906001600160f81b031916908160001a9053506000613c308460026146db565b613c3b9060016144b0565b90505b6001811115613cb3576f181899199a1a9b1b9c1cb0b131b232b360811b85600f1660108110613c6f57613c6f614520565b1a60f81b828281518110613c8557613c85614520565b60200101906001600160f81b031916908160001a90535060049490941c93613cac8161490a565b9050613c3e565b508315610afa5760405162461bcd60e51b815260206004820181905260248201527f537472696e67733a20686578206c656e67746820696e73756666696369656e746044820152606401610e6c565b613d0a613fb1565b6000613d24836004808651613d1f919061457a565b613e6b565b905080806020019051810190610afa9190614a5e565b606082471015613d9b5760405162461bcd60e51b815260206004820152602660248201527f416464726573733a20696e73756666696369656e742062616c616e636520666f6044820152651c8818d85b1b60d21b6064820152608401610e6c565b6001600160a01b0385163b613df25760405162461bcd60e51b815260206004820152601d60248201527f416464726573733a2063616c6c20746f206e6f6e2d636f6e74726163740000006044820152606401610e6c565b600080866001600160a01b03168587604051613e0e9190614b17565b60006040518083038185875af1925050503d8060008114613e4b576040519150601f19603f3d011682016040523d82523d6000602084013e613e50565b606091505b5091509150613e60828286613f78565b979650505050505050565b606081613e7981601f6144b0565b1015613eb85760405162461bcd60e51b815260206004820152600e60248201526d736c6963655f6f766572666c6f7760901b6044820152606401610e6c565b613ec282846144b0565b84511015613f065760405162461bcd60e51b8152602060048201526011602482015270736c6963655f6f75744f66426f756e647360781b6044820152606401610e6c565b606082158015613f255760405191506000825260208201604052613f6f565b6040519150601f8416801560200281840101858101878315602002848b0101015b81831015613f5e578051835260209283019201613f46565b5050858452601f01601f1916604052505b50949350505050565b60608315613f87575081610afa565b825115613f975782518084602001fd5b8160405162461bcd60e51b8152600401610e6c9190614085565b6040518060a0016040528060006001600160a01b03168152602001600081526020016000815260200161400e6040518060800160405280600081526020016000815260200160006001600160a01b03168152602001606081525090565b815260408051608081018252600080825260208281018290529282015260608082015291015290565b60006020828403121561404957600080fd5b81356001600160e01b031981168114610afa57600080fd5b60005b8381101561407c578181015183820152602001614064565b50506000910152565b60208152600082518060208401526140a4816040850160208701614061565b601f01601f19169190910160400192915050565b6000602082840312156140ca57600080fd5b5035919050565b6001600160a01b0381168114611d4457600080fd5b600080604083850312156140f957600080fd5b8235614104816140d1565b946020939093013593505050565b6000806040838503121561412557600080fd5b823591506020830135614137816140d1565b809150509250929050565b60008060006060848603121561415757600080fd5b8335614162816140d1565b92506020840135614172816140d1565b929592945050506040919091013590565b60006020828403121561419557600080fd5b8135610afa816140d1565b600080602083850312156141b357600080fd5b82356001600160401b03808211156141ca57600080fd5b818501915085601f8301126141de57600080fd5b8135818111156141ed57600080fd5b8660208260051b850101111561420257600080fd5b60209290920196919550909350505050565b8015158114611d4457600080fd5b6000806040838503121561423557600080fd5b8235614240816140d1565b9150602083013561413781614214565b61ffff81168114611d4457600080fd5b60008060006060848603121561427557600080fd5b833561428081614250565b9250602084013561429081614250565b915060408401356142a0816140d1565b809150509250925092565b6001600160a01b0391909116815260200190565b600080604083850312156142d257600080fd5b50508035926020909101359150565b60008082840360a08112156142f557600080fd5b608081121561430357600080fd5b5082915060808301356005811061413757600080fd5b6000806040838503121561432c57600080fd5b823561433781614250565b9150602083013561413781614250565b60008060006060848603121561435c57600080fd5b833592506020840135614290816140d1565b6000806000806080858703121561438457600080fd5b843561438f816140d1565b9350602085013561439f81614250565b925060408501356143af81614250565b915060608501356143bf81614214565b939692955090935050565b600080604083850312156143dd57600080fd5b82356143e8816140d1565b91506020830135614137816140d1565b6000806040838503121561440b57600080fd5b8235614337816140d1565b60008060006040848603121561442b57600080fd5b8335614436816140d1565b925060208401356001600160401b038082111561445257600080fd5b818601915086601f83011261446657600080fd5b81358181111561447557600080fd5b87602082850101111561448757600080fd5b6020830194508093505050509250925092565b634e487b7160e01b600052601160045260246000fd5b80820180821115610a3557610a3561449a565b600181811c908216806144d757607f821691505b6020821081036144f757634e487b7160e01b600052602260045260246000fd5b50919050565b60006020828403121561450f57600080fd5b815160ff81168114610afa57600080fd5b634e487b7160e01b600052603260045260246000fd5b6000823560be1983360301811261454c57600080fd5b9190910192915050565b6020808252600a908201526927a7262cafa7aba722a960b11b604082015260600190565b81810381811115610a3557610a3561449a565b634e487b7160e01b600052603160045260246000fd5b6000602082840312156145b557600080fd5b5051919050565b6001600160a01b0392831681529116602082015260400190565b6000808335601e198436030181126145ed57600080fd5b8301803591506001600160401b0382111561460757600080fd5b60200191503681900382131561461c57600080fd5b9250929050565b6001600160a01b03929092168252602082015260400190565b60006020828403121561464e57600080fd5b8151610afa81614214565b60006020828403121561466b57600080fd5b8135610afa81614250565b634e487b7160e01b600052602160045260246000fd5b600581106146aa57634e487b7160e01b600052602160045260246000fd5b9052565b838152606081016146c2602083018561468c565b6001600160a01b03929092166040919091015292915050565b60008160001904831182151516156146f5576146f561449a565b500290565b60008261471757634e487b7160e01b600052601260045260246000fd5b500490565b6001600160a01b03841681526040602082018190528101829052818360608301376000818301606090810191909152601f909201601f1916010192915050565b61ffff92831681529116602082015260400190565b60006101208201905087518252602088015160018060a01b0380821660208501528060408b015116604085015260608a0151915061ffff8083166060860152818a16608086015281891660a08601526147cd60c086018961468c565b80871660e0860152508085166101008501525050979650505050505050565b8183823760009101908152919050565b76020b1b1b2b9b9a1b7b73a3937b61d1030b1b1b7bab73a1604d1b81526000835161482e816017850160208801614061565b7001034b99036b4b9b9b4b733903937b6329607d1b601791840191820152835161485f816028840160208801614061565b01602801949350505050565b80546001600160a01b0319166001600160a01b0392909216919091179055565b81358155602082013561489d816140d1565b6148aa816001840161486b565b506002810160408301356148bd816140d1565b6148c7818361486b565b5060608301356148d681614250565b815461ffff60a01b191660a09190911b61ffff60a01b161790555050565b634e487b7160e01b600052604160045260246000fd5b6000816149195761491961449a565b506000190190565b604051608081016001600160401b0381118282101715614943576149436148f4565b60405290565b60405160a081016001600160401b0381118282101715614943576149436148f4565b604051601f8201601f191681016001600160401b0381118282101715614993576149936148f4565b604052919050565b6000608082840312156149ad57600080fd5b6149b5614921565b9050815181526020808301518183015260408301516149d3816140d1565b604083015260608301516001600160401b03808211156149f257600080fd5b818501915085601f830112614a0657600080fd5b815181811115614a1857614a186148f4565b614a2a601f8201601f1916850161496b565b91508082528684828501011115614a4057600080fd5b614a4f81858401868601614061565b50606084015250909392505050565b600060208284031215614a7057600080fd5b81516001600160401b0380821115614a8757600080fd5b9083019060a08286031215614a9b57600080fd5b614aa3614949565b8251614aae816140d1565b808252506020830151602082015260408301516040820152606083015182811115614ad857600080fd5b614ae48782860161499b565b606083015250608083015182811115614afc57600080fd5b614b088782860161499b565b60808301525095945050505050565b6000825161454c81846020870161406156feaf290d8680820aad922855f39b306097b20e28774d6c1ad35a20325630c3a02c8b5b16d04624687fcf0d0228f19993c9157c1ed07b41d8d430fd9100eb099fe8ddf252ad1be2c89b69c2b068fc378daa952ba7f163c4a11628f55a4df523b3ef85e07ba75a2f56a1a2ca8551cdddfb8c998f5781c1c9ab6f8d4ae42101c0d7f1dcbc1c05240f31ff3ad067ef1ee35ce4997762752e3a095284754544f4c709d7a2646970667358221220c018601e1a05baed9b84a0e62202d82b49ca252115602c0c3db6ee76ad15e32264736f6c63430008100033af290d8680820aad922855f39b306097b20e28774d6c1ad35a20325630c3a02c8b5b16d04624687fcf0d0228f19993c9157c1ed07b41d8d430fd9100eb099fe8",
  "devdoc": {
    "kind": "dev",
    "methods": {
      "acceptOwnership()": {
        "details": "Accept transfer of ownership of the contract. Can only be called by the pendingOwner."
      },
      "allowance(address,address)": {
        "details": "See {IERC20-allowance}."
      },
      "approve(address,uint256)": {
        "details": "See {IERC20-approve}. NOTE: If `amount` is the maximum `uint256`, the allowance is not updated on `transferFrom`. This is semantically equivalent to an infinite approval. Requirements: - `spender` cannot be the zero address."
      },
      "balanceOf(address)": {
        "details": "See {IERC20-balanceOf}."
      },
      "decimals()": {
        "details": "Returns the number of decimals used to get its user representation. For example, if `decimals` equals `2`, a balance of `505` tokens should be displayed to a user as `5.05` (`505 / 10 ** 2`). Tokens usually opt for a value of 18, imitating the relationship between Ether and Wei. This is the value {ERC20} uses, unless this function is overridden; NOTE: This information is only used for _display_ purposes: it in no way affects any of the arithmetic of the contract, including {IERC20-balanceOf} and {IERC20-transfer}."
      },
      "decreaseAllowance(address,uint256)": {
        "details": "Atomically decreases the allowance granted to `spender` by the caller. This is an alternative to {approve} that can be used as a mitigation for problems described in {IERC20-approve}. Emits an {Approval} event indicating the updated allowance. Requirements: - `spender` cannot be the zero address. - `spender` must have allowance for the caller of at least `subtractedValue`."
      },
      "getRoleAdmin(bytes32)": {
        "details": "Returns the admin role that controls `role`. See {grantRole} and {revokeRole}. To change a role's admin, use {_setRoleAdmin}."
      },
      "grantRole(bytes32,address)": {
        "details": "Grants `role` to `account`. If `account` had not been already granted `role`, emits a {RoleGranted} event. Requirements: - the caller must have ``role``'s admin role. May emit a {RoleGranted} event."
      },
      "hasRole(bytes32,address)": {
        "details": "Returns `true` if `account` has been granted `role`."
      },
      "increaseAllowance(address,uint256)": {
        "details": "Atomically increases the allowance granted to `spender` by the caller. This is an alternative to {approve} that can be used as a mitigation for problems described in {IERC20-approve}. Emits an {Approval} event indicating the updated allowance. Requirements: - `spender` cannot be the zero address."
      },
      "name()": {
        "details": "Returns the name of the token."
      },
      "redeem()": {
        "details": "safest UI method"
      },
      "renounceRole(bytes32,address)": {
        "details": "Revokes `role` from the calling account. Roles are often managed via {grantRole} and {revokeRole}: this function's purpose is to provide a mechanism for accounts to lose their privileges if they are compromised (such as when a trusted device is misplaced). If the calling account had been revoked `role`, emits a {RoleRevoked} event. Requirements: - the caller must be `account`. May emit a {RoleRevoked} event."
      },
      "revokeRole(bytes32,address)": {
        "details": "Revokes `role` from `account`. If `account` had been granted `role`, emits a {RoleRevoked} event. Requirements: - the caller must have ``role``'s admin role. May emit a {RoleRevoked} event."
      },
      "setManagementFee(uint256)": {
        "params": {
          "_managementFee": "The new performance fee."
        }
      },
      "setPerformanceFee(uint256)": {
        "params": {
          "_performanceFee": "The new performance fee."
        }
      },
      "setTreasury(address)": {
        "params": {
          "_treasury": "New treasury address."
        }
      },
      "supportsInterface(bytes4)": {
        "details": "See {IERC165-supportsInterface}."
      },
      "symbol()": {
        "details": "Returns the symbol of the token, usually a shorter version of the name."
      },
      "transfer(address,uint256)": {
        "details": "See {IERC20-transfer}. Requirements: - `to` cannot be the zero address. - the caller must have a balance of at least `amount`."
      },
      "transferFrom(address,address,uint256)": {
        "details": "See {IERC20-transferFrom}. Emits an {Approval} event indicating the updated allowance. This is not required by the EIP. See the note at the beginning of {ERC20}. NOTE: Does not update the allowance if the current allowance is the maximum `uint256`. Requirements: - `from` and `to` cannot be the zero address. - `from` must have a balance of at least `amount`. - the caller must have allowance for ``from``'s tokens of at least `amount`."
      },
      "transferOwnership(address)": {
        "details": "Init transfer of ownership of the contract to a new account (`_pendingOwner`).",
        "params": {
          "_pendingOwner": "pending owner of contract Can only be called by the current owner."
        }
      },
      "underlyingBalance(address)": {
        "details": "returns a cached value used for withdrawals"
      }
    },
    "version": 1
  },
  "userdoc": {
    "events": {
      "SetManagementFee(uint256)": {
        "notice": "Emitted when management fee is updated."
      },
      "SetPerformanceFee(uint256)": {
        "notice": "Emitted when performance fee is updated."
      }
    },
    "kind": "user",
    "methods": {
      "GUARDIAN()": {
        "notice": "Update vault params, perform time-sensitive operations, set manager"
      },
      "MANAGER()": {
        "notice": "Hot-wallet bots that route funds between vaults, rebalance and harvest strategies"
      },
      "emergencyAction(address,bytes)": {
        "notice": "this method allows an arbitrary method to be called by the owner in case of emergency owner must be a timelock contract in order to allow users to redeem funds in case they suspect this action to be malicious"
      },
      "getPenalty()": {
        "notice": "UI method to view cancellation penalty"
      },
      "managementFee()": {
        "notice": "Annual management fee."
      },
      "owner()": {
        "notice": "Add and remove vaults and strategies and other critical operations behind timelock Default admin role There should only be one owner, so it is not a role"
      },
      "performanceFee()": {
        "notice": "The percentage of profit recognized each harvest to reserve as fees."
      },
      "redeemIsReady(address)": {
        "notice": "UTILS"
      },
      "setManagementFee(uint256)": {
        "notice": "Sets a new performanceFee."
      },
      "setPerformanceFee(uint256)": {
        "notice": "Sets a new performanceFee."
      },
      "setTreasury(address)": {
        "notice": "Updates treasury."
      },
      "treasury()": {
        "notice": "address where all fees are sent to"
      }
    },
    "version": 1
  },
  "storageLayout": {
    "storage": [
      {
        "astId": 1634,
        "contract": "src/vaults/SectorCrossVault.sol:SectorCrossVault",
        "label": "_roles",
        "offset": 0,
        "slot": "0",
        "type": "t_mapping(t_bytes32,t_struct(RoleData)1629_storage)"
      },
      {
        "astId": 15515,
        "contract": "src/vaults/SectorCrossVault.sol:SectorCrossVault",
        "label": "owner",
        "offset": 0,
        "slot": "1",
        "type": "t_address"
      },
      {
        "astId": 15517,
        "contract": "src/vaults/SectorCrossVault.sol:SectorCrossVault",
        "label": "pendingOwner",
        "offset": 0,
        "slot": "2",
        "type": "t_address"
      },
      {
        "astId": 15859,
        "contract": "src/vaults/SectorCrossVault.sol:SectorCrossVault",
        "label": "performanceFee",
        "offset": 0,
        "slot": "3",
        "type": "t_uint256"
      },
      {
        "astId": 15862,
        "contract": "src/vaults/SectorCrossVault.sol:SectorCrossVault",
        "label": "managementFee",
        "offset": 0,
        "slot": "4",
        "type": "t_uint256"
      },
      {
        "astId": 15865,
        "contract": "src/vaults/SectorCrossVault.sol:SectorCrossVault",
        "label": "treasury",
        "offset": 0,
        "slot": "5",
        "type": "t_address"
      },
      {
        "astId": 2171,
        "contract": "src/vaults/SectorCrossVault.sol:SectorCrossVault",
        "label": "_balances",
        "offset": 0,
        "slot": "6",
        "type": "t_mapping(t_address,t_uint256)"
      },
      {
        "astId": 2177,
        "contract": "src/vaults/SectorCrossVault.sol:SectorCrossVault",
        "label": "_allowances",
        "offset": 0,
        "slot": "7",
        "type": "t_mapping(t_address,t_mapping(t_address,t_uint256))"
      },
      {
        "astId": 2179,
        "contract": "src/vaults/SectorCrossVault.sol:SectorCrossVault",
        "label": "_totalSupply",
        "offset": 0,
        "slot": "8",
        "type": "t_uint256"
      },
      {
        "astId": 2181,
        "contract": "src/vaults/SectorCrossVault.sol:SectorCrossVault",
        "label": "_name",
        "offset": 0,
        "slot": "9",
        "type": "t_string_storage"
      },
      {
        "astId": 2183,
        "contract": "src/vaults/SectorCrossVault.sol:SectorCrossVault",
        "label": "_symbol",
        "offset": 0,
        "slot": "10",
        "type": "t_string_storage"
      },
      {
        "astId": 28890,
        "contract": "src/vaults/SectorCrossVault.sol:SectorCrossVault",
        "label": "lastHarvestTimestamp",
        "offset": 0,
        "slot": "11",
        "type": "t_uint256"
      },
      {
        "astId": 28892,
        "contract": "src/vaults/SectorCrossVault.sol:SectorCrossVault",
        "label": "pendingWithdraw",
        "offset": 0,
        "slot": "12",
        "type": "t_uint256"
      },
      {
        "astId": 28897,
        "contract": "src/vaults/SectorCrossVault.sol:SectorCrossVault",
        "label": "withdrawLedger",
        "offset": 0,
        "slot": "13",
        "type": "t_mapping(t_address,t_struct(WithdrawRecord)28874_storage)"
      },
      {
        "astId": 16181,
        "contract": "src/vaults/SectorCrossVault.sol:SectorCrossVault",
        "label": "addrBook",
        "offset": 0,
        "slot": "14",
        "type": "t_mapping(t_address,t_struct(Vault)16940_storage)"
      },
      {
        "astId": 16187,
        "contract": "src/vaults/SectorCrossVault.sol:SectorCrossVault",
        "label": "postmanAddr",
        "offset": 0,
        "slot": "15",
        "type": "t_mapping(t_uint16,t_mapping(t_uint16,t_address))"
      },
      {
        "astId": 30560,
        "contract": "src/vaults/SectorCrossVault.sol:SectorCrossVault",
        "label": "totalChildHoldings",
        "offset": 0,
        "slot": "16",
        "type": "t_uint256"
      },
      {
        "astId": 30562,
        "contract": "src/vaults/SectorCrossVault.sol:SectorCrossVault",
        "label": "floatAmnt",
        "offset": 0,
        "slot": "17",
        "type": "t_uint256"
      },
      {
        "astId": 30902,
        "contract": "src/vaults/SectorCrossVault.sol:SectorCrossVault",
        "label": "vaultList",
        "offset": 0,
        "slot": "18",
        "type": "t_array(t_address)dyn_storage"
      },
      {
        "astId": 30905,
        "contract": "src/vaults/SectorCrossVault.sol:SectorCrossVault",
        "label": "harvestLedger",
        "offset": 0,
        "slot": "19",
        "type": "t_struct(HarvestLedger)30890_storage"
      },
      {
        "astId": 30909,
        "contract": "src/vaults/SectorCrossVault.sol:SectorCrossVault",
        "label": "withdrawQueue",
        "offset": 0,
        "slot": "23",
        "type": "t_array(t_struct(Message)16933_storage)dyn_storage"
      }
    ],
    "types": {
      "t_address": {
        "encoding": "inplace",
        "label": "address",
        "numberOfBytes": "20"
      },
      "t_array(t_address)dyn_storage": {
        "base": "t_address",
        "encoding": "dynamic_array",
        "label": "address[]",
        "numberOfBytes": "32"
      },
      "t_array(t_struct(Message)16933_storage)dyn_storage": {
        "base": "t_struct(Message)16933_storage",
        "encoding": "dynamic_array",
        "label": "struct Message[]",
        "numberOfBytes": "32"
      },
      "t_bool": {
        "encoding": "inplace",
        "label": "bool",
        "numberOfBytes": "1"
      },
      "t_bytes32": {
        "encoding": "inplace",
        "label": "bytes32",
        "numberOfBytes": "32"
      },
      "t_mapping(t_address,t_bool)": {
        "encoding": "mapping",
        "key": "t_address",
        "label": "mapping(address => bool)",
        "numberOfBytes": "32",
        "value": "t_bool"
      },
      "t_mapping(t_address,t_mapping(t_address,t_uint256))": {
        "encoding": "mapping",
        "key": "t_address",
        "label": "mapping(address => mapping(address => uint256))",
        "numberOfBytes": "32",
        "value": "t_mapping(t_address,t_uint256)"
      },
      "t_mapping(t_address,t_struct(Vault)16940_storage)": {
        "encoding": "mapping",
        "key": "t_address",
        "label": "mapping(address => struct Vault)",
        "numberOfBytes": "32",
        "value": "t_struct(Vault)16940_storage"
      },
      "t_mapping(t_address,t_struct(WithdrawRecord)28874_storage)": {
        "encoding": "mapping",
        "key": "t_address",
        "label": "mapping(address => struct WithdrawRecord)",
        "numberOfBytes": "32",
        "value": "t_struct(WithdrawRecord)28874_storage"
      },
      "t_mapping(t_address,t_uint256)": {
        "encoding": "mapping",
        "key": "t_address",
        "label": "mapping(address => uint256)",
        "numberOfBytes": "32",
        "value": "t_uint256"
      },
      "t_mapping(t_bytes32,t_struct(RoleData)1629_storage)": {
        "encoding": "mapping",
        "key": "t_bytes32",
        "label": "mapping(bytes32 => struct AccessControl.RoleData)",
        "numberOfBytes": "32",
        "value": "t_struct(RoleData)1629_storage"
      },
      "t_mapping(t_uint16,t_address)": {
        "encoding": "mapping",
        "key": "t_uint16",
        "label": "mapping(uint16 => address)",
        "numberOfBytes": "32",
        "value": "t_address"
      },
      "t_mapping(t_uint16,t_mapping(t_uint16,t_address))": {
        "encoding": "mapping",
        "key": "t_uint16",
        "label": "mapping(uint16 => mapping(uint16 => address))",
        "numberOfBytes": "32",
        "value": "t_mapping(t_uint16,t_address)"
      },
      "t_string_storage": {
        "encoding": "bytes",
        "label": "string",
        "numberOfBytes": "32"
      },
      "t_struct(HarvestLedger)30890_storage": {
        "encoding": "inplace",
        "label": "struct HarvestLedger",
        "members": [
          {
            "astId": 30883,
            "contract": "src/vaults/SectorCrossVault.sol:SectorCrossVault",
            "label": "localDepositValue",
            "offset": 0,
            "slot": "0",
            "type": "t_uint256"
          },
          {
            "astId": 30885,
            "contract": "src/vaults/SectorCrossVault.sol:SectorCrossVault",
            "label": "crossDepositValue",
            "offset": 0,
            "slot": "1",
            "type": "t_uint256"
          },
          {
            "astId": 30887,
            "contract": "src/vaults/SectorCrossVault.sol:SectorCrossVault",
            "label": "pendingAnswers",
            "offset": 0,
            "slot": "2",
            "type": "t_uint256"
          },
          {
            "astId": 30889,
            "contract": "src/vaults/SectorCrossVault.sol:SectorCrossVault",
            "label": "receivedAnswers",
            "offset": 0,
            "slot": "3",
            "type": "t_uint256"
          }
        ],
        "numberOfBytes": "128"
      },
      "t_struct(Message)16933_storage": {
        "encoding": "inplace",
        "label": "struct Message",
        "members": [
          {
            "astId": 16926,
            "contract": "src/vaults/SectorCrossVault.sol:SectorCrossVault",
            "label": "value",
            "offset": 0,
            "slot": "0",
            "type": "t_uint256"
          },
          {
            "astId": 16928,
            "contract": "src/vaults/SectorCrossVault.sol:SectorCrossVault",
            "label": "sender",
            "offset": 0,
            "slot": "1",
            "type": "t_address"
          },
          {
            "astId": 16930,
            "contract": "src/vaults/SectorCrossVault.sol:SectorCrossVault",
            "label": "client",
            "offset": 0,
            "slot": "2",
            "type": "t_address"
          },
          {
            "astId": 16932,
            "contract": "src/vaults/SectorCrossVault.sol:SectorCrossVault",
            "label": "chainId",
            "offset": 20,
            "slot": "2",
            "type": "t_uint16"
          }
        ],
        "numberOfBytes": "96"
      },
      "t_struct(RoleData)1629_storage": {
        "encoding": "inplace",
        "label": "struct AccessControl.RoleData",
        "members": [
          {
            "astId": 1626,
            "contract": "src/vaults/SectorCrossVault.sol:SectorCrossVault",
            "label": "members",
            "offset": 0,
            "slot": "0",
            "type": "t_mapping(t_address,t_bool)"
          },
          {
            "astId": 1628,
            "contract": "src/vaults/SectorCrossVault.sol:SectorCrossVault",
            "label": "adminRole",
            "offset": 0,
            "slot": "1",
            "type": "t_bytes32"
          }
        ],
        "numberOfBytes": "64"
      },
      "t_struct(Vault)16940_storage": {
        "encoding": "inplace",
        "label": "struct Vault",
        "members": [
          {
            "astId": 16935,
            "contract": "src/vaults/SectorCrossVault.sol:SectorCrossVault",
            "label": "chainId",
            "offset": 0,
            "slot": "0",
            "type": "t_uint16"
          },
          {
            "astId": 16937,
            "contract": "src/vaults/SectorCrossVault.sol:SectorCrossVault",
            "label": "postmanId",
            "offset": 2,
            "slot": "0",
            "type": "t_uint16"
          },
          {
            "astId": 16939,
            "contract": "src/vaults/SectorCrossVault.sol:SectorCrossVault",
            "label": "allowed",
            "offset": 4,
            "slot": "0",
            "type": "t_bool"
          }
        ],
        "numberOfBytes": "32"
      },
      "t_struct(WithdrawRecord)28874_storage": {
        "encoding": "inplace",
        "label": "struct WithdrawRecord",
        "members": [
          {
            "astId": 28869,
            "contract": "src/vaults/SectorCrossVault.sol:SectorCrossVault",
            "label": "timestamp",
            "offset": 0,
            "slot": "0",
            "type": "t_uint256"
          },
          {
            "astId": 28871,
            "contract": "src/vaults/SectorCrossVault.sol:SectorCrossVault",
            "label": "shares",
            "offset": 0,
            "slot": "1",
            "type": "t_uint256"
          },
          {
            "astId": 28873,
            "contract": "src/vaults/SectorCrossVault.sol:SectorCrossVault",
            "label": "value",
            "offset": 0,
            "slot": "2",
            "type": "t_uint256"
          }
        ],
        "numberOfBytes": "96"
      },
      "t_uint16": {
        "encoding": "inplace",
        "label": "uint16",
        "numberOfBytes": "2"
      },
      "t_uint256": {
        "encoding": "inplace",
        "label": "uint256",
        "numberOfBytes": "32"
      }
    }
  }
}